:04000000803116280D
:100008007E14803120007F08F0000B1F11282E007D
:10001800181B0E1F11288231322270082000FF00A1
:100028007E10090080311828FC012000A001A101E0
:10003800A201A301A401A5017E1020008231242A77
:1000480000340034003400344E34003406340034B4
:100058000634FF34FF34FF344834D63424341334A0
:100068006B346434FF34FF34FF3400340634003416
:1000780038344434823482344434383414340834C0
:100088003E34103438341034A03460340034103422
:10009800103410346034603400346034183406345A
:1000A8007C3442347C3444347E34403464345234B6
:1000B8004C344A344A343434383424347E344E345C
:1000C8004A3432343C344A34323462341A340634D2
:1000D80076344A3476344C3452343C346C346C3490
:1000E8000034AC346C3400341034283444342834AC
:1000F800283428344434283410340234593406342B
:10010800FF34FF34FF347C3412347C347E345A3468
:1001180034343C34423442347E3442343C347E34C9
:100128004A3442347E340A340A343C345234343447
:100138007E3408347E3442347E34423430344034A1
:100148003E347E34183466347E34403440347E3451
:100158001C347E347E3402347E343C3442343C34A5
:100168007E3412340C347E346234FE347E343234BD
:100178004E3444344A34323402347E3402347E34C9
:1001880040347E343E3440343E347E3438347E3419
:100198006634183466340E3470340E3462345A348B
:1001A800463400347E3442340634183460344234E1
:1001B8007E3400340434023404344034403440344F
:1001C8000034023404347434543478347E3448347B
:1001D8003034303448344834303448347E34383459
:1001E800543458347C340A3402349834A4347C347B
:1001F8007E340834703448347A3440348834FA34DD
:1002080000347E341834643442347E3440347C34D0
:1002180038347C347C3404347834383444343834D6
:10022800FC342434183418342434FC34783404343A
:10023800043448345434243404343E3444347C3450
:1002480040347C343C3440343C347C3430347C346A
:100258006C3410346C349C34A0347C34643454349E
:100268004C34FF34FF34FF34FF34FF34FF34FF34A1
:10027800FF34FF34FF34FF34FF34FF34FF34FF34DE
:10028800FF34FF34FF340C3412340C34FC34403463
:100298007C34FF34FF34FF34FF34FF34FF34200054
:1002A800931113129312131393131812981298118F
:1002B800981398172130F6007608F1000030813144
:1002C800B4218131BB30F6007608F100003081316D
:1002D800B42181310430F6007608F1000030813114
:1002E800B42181311430F6007608F10000308131F4
:1002F800B42181312030F6007608F10000308131D8
:10030800B42181310C30F6007608F10000308131DB
:10031800B4210800FA01FB017B08803AF90081301A
:100328007902031D9929F8307A020318AF29F101DF
:1003380001308131B42181310130FA070030FB3DB1
:100348007B08803AF90081307902031DAD29F83025
:100358007A02031C9B29F60100308231082208002A
:10036800F3007108F2007208F4007308031DBF2936
:1003780020009811C129200098151813F50108309C
:1003880075020318D7291812F41FCB2918169816C6
:100398000310F40D98120130F2007208F5070830C6
:1003A8007502031CC729181708008131F121813112
:1003B80082311B22813182312B22813181315321BB
:1003C800813162302000A6006530890BE929A60B2F
:1003D800E929003281318E21080020009601970119
:1003E8009801FE309100FF309200FF3093003E00EC
:1003F800B8010130C300CE01E501C401B901CF0144
:10040800BA01C501D0010800F80078088038F70063
:100418007708F10000308131B42182317608403804
:10042800F7007708F10000308131B421080060300E
:1004380031008D008F019101023093009201080074
:100448008131D92182318B170B176400292A823018
:1004580032009F002E000E13181708002E000E13EE
:0204680008008A
:020000040001F9
:0A000E00EC3FFF3BFF3FFF3FFF3FC9
:00000001FF
