:08000000803102288731B52F81
:10000C00FA34003420002308A6002408A700250891
:10001C00A8000310270D280DA9002908AE002E08F2
:10002C00031D1F280030A0000030A1000030A200EA
:10003C0008002008A6002108A7002208A800031029
:10004C00270D280DA9002908AF002F08031D3528FE
:10005C000030A0000030A1000030A20008000030E9
:10006C00AB000030AC000030AD0089302F07A6008B
:10007C002608AE022308A6002408A7002508A8001D
:10008C001030A836A70CA60C890B47282608A90007
:10009C002908AF002008A6002108A7002208A80004
:1000AC001030A836A70CA60C890B57282608A900D7
:1000BC002908AF068030A6002608AF05A417FF302C
:1000CC00A305FF30A4050030A505A117FF30A0053E
:1000DC00FF30A1050030A2051830A6002608AA00A2
:1000EC000130AB35AC0DAD0D890B772822082502FC
:1000FC00031D862821082402031D862820082302BC
:10010C00031C8F282008A3022108A43B2208A53B2E
:10011C002B140130A335A40DA50D890B90280130AB
:10012C00AA02031D76282B08F0002C08F1002D08DC
:10013C00F2002E08A6002608F3002F08A7002708B7
:10014C00F40088311C2070082000A0007108A10068
:10015C007208A20008002000C3004308663E860017
:10016C00870103300106031D08294335B03E860084
:10017C008701403FBE00413FBF003F08803AC000AE
:10018C0084304002031DCC2833303E020318F6287D
:10019C0020004335C03E86008701403FBE00413FF2
:1001AC00BF003F08803AC00080304002031DE028A9
:1001BC0001303E02031CEE2820004335C03E860071
:1001CC008701FF3081074131FF30813D7F310800CD
:1001DC0020004308663E860087018101810A0800E1
:1001EC0004302000BE004308663E860087013E08AE
:1001FC0081004335C43E860087012330C03F003068
:10020C00C13F08004308663E8600870104300106A2
:10021C00031DCA296D09BE006E09BF00BE0A031971
:10022C00BF0A3E08FA3EF80000303F3DF90093311A
:10023C004823803178082000A3007908A4007A08AC
:10024C00A500C330A0007530A1003E30A2008A3159
:10025C003922803120002008B0002108B10022088A
:10026C00B20089310221803120003008913EC0005B
:10027C000530313DC10043355C3E860087014008A6
:10028C00C03F4108C13F4308643E86008701010816
:10029C00031DB1294335CC3E86008701403FBE008B
:1002AC00413FBF004335B83E86008701403FC00048
:1002BC00413FC1004108803AC2003F08803A4202E7
:1002CC00031D6A293E084002031897292000433574
:1002DC00C83E860087010230810241310030813BEB
:1002EC007F314335C83E86008701403FBE00413F09
:1002FC00BF0000303F020A3003193E020318080009
:10030C000530BE004308663E860087013E0881002A
:10031C004335C83E860087010A30C03F0030C13FDC
:10032C00080020004335C83E86008701403FBE00D0
:10033C00413FBF0000303F023C3003193E0203181E
:10034C0008004335C83E86008701013081074131E2
:10035C000318810A08004335C83E86008701403FD8
:10036C00BE00413FBF0000303F023C3003193E024B
:10037C00031808004335C83E860087010130810709
:10038C0041310318810A08004308663E8600870144
:10039C0005300106031D182A6D09BE006E09BF0049
:1003AC00BE0A0319BF0A3E08FA3EF80000303F3D72
:1003BC00F90093314823803178082000A300790894
:1003CC00A4007A08A500C330A0007530A1003E300F
:1003DC00A2008A313922803120002008B000210887
:1003EC00B1002208B2008931022120003008463EBB
:1003FC00C0000530313DC10043355C3E86008701AD
:10040C004008C03F4108C13F4335C43E86008701C8
:10041C000F30C03F0030C13F4308643E8600870167
:10042C00810108004308663E860087010103031D15
:10043C0008000330BE004308663E860087013E0874
:10044C008100080048302100E2000C30E300483005
:10045C00E0000C30E100DE01FF30EC000330ED0079
:10046C00FF30EE000330EF000430EA000130EB0007
:10047C000030D7000030D8000030D900DA01DB01A1
:10048C00DC01DD01E601E701E501E401C8302000F3
:10049C00D80058082100DF003C30E8000030E900AB
:1004AC0094315124823193318D23823120000D19E6
:1004BC00702A961205302000D8002630890B642A49
:1004CC00D80B642A000001302100DA070030DB3D34
:1004DC00200096162100E501043065020318942AC9
:1004EC0065082000D800D9015808A6005908A700B3
:1004FC008D318325823121006535A03E8600870130
:10050C0020002608C03F2708C13F0130D8005808FA
:10051C002100E50704306502031C762A1530923160
:10052C009522823171082100A9007008A8001130B1
:10053C0092319522823171082100AB007008AA001B
:10054C00173092319522823171082100AD0070086C
:10055C00AC00133092319522823171082100AF002A
:10056C007008AE0020000D19C02A01302100DC07F4
:10057C000030DD3D21002908F9002808F8009331EE
:10058C004823823178082000A3007908A4007A0857
:10059C00A5008730A0000B30A1003F30A2008031B5
:1005AC000820823120002008B0002108B100220868
:1005BC00B200893102218231200031082100B100C2
:1005CC00200030082100B0002B08F9002A08F800A0
:1005DC0093314823823178082000A3007908A400C5
:1005EC007A08A5008730A0000B30A1003F30A20094
:1005FC0080310820823120002008B0002108B10091
:10060C002208B200893102218231200031082100F8
:10061C00B300200030082100B2002D08F9002C088E
:10062C00F80093314823823178082000A300790820
:10063C00A4007A08A500DD30A0005530A1003E30A2
:10064C00A20080310820823120002008B00021084F
:10065C00B1002208B2008931022182312000310818
:10066C002100B500200030082100B4002F08F9004B
:10067C002E08F80093314823823178082000A3001B
:10068C007908A4007A08A500DD30A0005530A1003F
:10069C003E30A20080310820823120002008B000BA
:1006AC002108B1002208B2008931022182312000D8
:1006BC0031082100B700200030082100B600953128
:1006CC000225823195314725823195318C25823135
:1006DC009531D1258231200064080319962B210015
:1006EC003508803A2000D80021006308803A2000A9
:1006FC005802031D842B210062083402031CA72B13
:10070C0021006308803A2000D80021003508803A87
:10071C0020005802031DC12B210034086202C12B9A
:10072C0020005D08803AD80021003108803A200072
:10073C005802031DA52B2100300820005C02031871
:10074C00B42B033021006D02FF3003196C02031827
:10075C00CC2B0130EC070030ED3DCC2B21003108C7
:10076C00803A2000D8005D08803A5802031DC12B46
:10077C005C08210030020318CC2B21006C086D049E
:10078C000319CC2B0130EC020030ED3B2000650846
:10079C000319E22B21003708803A2000D8002100F1
:1007AC006108803A20005802031DDF2B21006008ED
:1007BC003602031CF32B0F2C20005F08803AD80064
:1007CC0021003308803A20005802031DF12B210030
:1007DC00320820005E020318002C033021006F0247
:1007EC00FF3003196E020318182C0130EE0700308D
:1007FC00EF3D182C21003308803A2000D8005F0808
:10080C00803A5802031D0D2C5E0821003202031899
:10081C00182C21006E086F040319182C0130EE02FD
:10082C000030EF3B01302000D80058082100DF07D2
:10083C005830EA000230EB006B08F1006A08F00057
:10084C009231AA22823121006D08F1006C08F0006F
:10085C009231C022823121006F08F1006E08F00045
:10086C009231D622823197317E2782312000D800F6
:10087C0058082100E40002306406031D572C63085D
:10088C00803A2000D8008A305802031D502C8D303D
:10089C0021006202031C572CFF302100E007FF30BF
:1008AC00E13D033021006406031D6E2C6108803A83
:1008BC002000D8008C305802031D672C803021009A
:1008CC00600203186E2C01302100E0070030E13D7E
:1008DC0021006403031D752C943116248231FB30E6
:1008EC0021005F02031C5C2A38083A07E60039082D
:1008FC003B3DE7006708803A2000D8008030580262
:10090C00031D8B2C013021006602031CEC2C2100F2
:10091C0067082000D900210066082000D800D835CF
:10092C00D90DD835D90D5808643EDA000030593D40
:10093C00DB005B0821006B02031DA82C20005A0869
:10094C0021006A020318AF2C0130EA070030EB3D9E
:10095C00B32C0130EA020030EB3B67082000D900D1
:10096C00210066082000D800D835D90DD835D90D0E
:10097C005808643EDA000030593DDB005B0821006A
:10098C006902031DCD2C20005A08210068020318AF
:10099C00E32C003069024B30031968020318DB2C7E
:1009AC000130E8070030E93DE32C680869040319BD
:1009BC00E32C0130E8020030E93B6908EB006808E1
:1009CC00EA006A086B04031DEF2CED2C2100EA01F0
:1009DC00EB0120000D19002D37302100EA0000300A
:1009EC00EB0004302000D8005808E6000430D80092
:1009FC005808E70021009A01083092319522823183
:100A0C0071082000CE007008CD008B31A6238231F6
:100A1C0020004E08EE004D08ED00033021009A0036
:100A2C0001302000D80058082100DE0751305E024A
:100A3C00031C252D93318D2382312100DE010030E2
:100A4C008031B120823101308031B1208231F50109
:100A5C00003092316E2282312530FC009830FD003E
:100A6C00923181228231F5011A3092316E2282311B
:100A7C002030FC009830FD00923181228231F5014A
:100A8C00343092316E2282311B30FC009830FD00E4
:100A9C00923181228231F501F50A003092316E22B9
:100AAC008231210035082000A100210034082000EB
:100ABC00A0000430D8005808A2000230D900590810
:100ACC00A300A4018A31ED2282315630963167267B
:100ADC008231F501F50A1A3092316E2282312100F1
:100AEC0031082000A100210030082000A0000430B3
:100AFC00D8005808A2000230D9005908A300A4015C
:100B0C008A31ED2282315630963167268231F501D9
:100B1C00F50A343092316E22823120005D08A1003A
:100B2C005C08A0000430D8005808A2000230D9009C
:100B3C005908A300A4018A31ED2282315630963136
:100B4C0067268231F501F50A503092316E228231DE
:100B5C0020006408A000A101A01BA103A201A20A0D
:100B6C00A301A4018A31ED22823102302000D80089
:100B7C005808F500003092316E22823121003D0878
:100B8C002000A10021003C082000A0000330D80068
:100B9C005808A200A301A30AA4018A31ED228231D4
:100BAC00413096316726823102302000D800580837
:100BBC00F5001A3092316E22823121003908200062
:100BCC00A100210038082000A0000330D8005808EC
:100BDC00A200A301A30AA4018A31ED228231413083
:100BEC0096316726823102302000D8005808F50073
:100BFC00343092316E228231210045082000A10050
:100C0C00210044082000A0000330D8005808A2009E
:100C1C00A301A30AA4018A31ED228231413096311D
:100C2C006726823102302000D8005808F500503079
:100C3C0092316E22823120006608D800D901580802
:100C4C00A0005908A100A201A20AA301A4018A31A3
:100C5C00ED22823103302000D8005808F500003016
:100C6C0092316E228231210067082000A100210000
:100C7C0066082000A0000430D8005808A200A30188
:100C8C00A30AA4018A31ED22823103302000D8005E
:100C9C005808F500183092316E2282312100670815
:100CAC002000D900210066082000D800D835D90DC5
:100CBC00D835D90D5808643EA0000030593DA1002C
:100CCC000430DA005A08A200A301A4018A31ED22F3
:100CDC00823103302000D8005808F5002C309231B6
:100CEC006E228231210069082000A10021006808D1
:100CFC002000A0000330D8005808A200A301A401D2
:100D0C008A31ED22823103302000D8005808F500DA
:100D1C00403092316E22823121006B082000A100FC
:100D2C0021006A082000A0000330D8005808A20057
:100D3C00A301A4018A31ED22823104302000D800B5
:100D4C005808F500003092316E22823121003F08A4
:100D5C002000A10021003E082000A0000330D80094
:100D6C005808A200A301A30AA4018A31ED22823102
:100D7C00413096316726823104302000D800580863
:100D8C00F5001A3092316E22823121003B0820008E
:100D9C00A10021003A082000A0000330D800580818
:100DAC00A200A301A30AA4018A31ED2282314130B1
:100DBC0096316726823104302000D8005808F5009F
:100DCC00343092316E228231210047082000A1007C
:100DDC00210046082000A0000330D8005808A200CB
:100DEC00A301A30AA4018A31ED228231413096314C
:100DFC006726823104302000D8005808F5005030A6
:100E0C0092316E22823120006708D800D90158082F
:100E1C00A0005908A100A201A20AA301A4018A31D1
:100E2C00ED22823105302000D8005808F500003042
:100E3C0092316E22823121006D082000A100210028
:100E4C006C082000A0000430D8005808A200A301B0
:100E5C00A4018A31ED22823105302000D8005808D7
:100E6C00F500123092316E22823120006208A0000F
:100E7C00A101A01BA103A201A20AA301A4018A3112
:100E8C00ED228231203096316726823105302000E8
:100E9C00D8005808F5001C3092316E2282312100A6
:100EAC006F082000A10021006E082000A000043073
:100EBC00D8005808A200A301A4018A31ED22823186
:100ECC0005302000D8005808F5002E3092316E22E3
:100EDC00823120006308A000A101A01BA103A20184
:100EEC00A20AA301A4018A31ED228231203096316D
:100EFC006726823105302000D8005808F5003830BC
:100F0C0092316E22823120006E08A1006D08A00083
:100F1C000330D8005808A200A301A30AA4018A3107
:100F2C00ED2282317B309631672682314330963107
:100F3C0067268231033020006602031CA92F003083
:100F4C008E31C1268231033020006702031CB22F80
:100F5C0001308E31C12682312100DF015C2A8031C3
:100F6C0006208731ED00803107208731EE003530C7
:100F7C0084009230850022001200B5001200B600E9
:100F8C001200B7001200B8001200B9001200BA002B
:100F9C001200BB001200BC006030840022308500BF
:100FAC009030FE000130FF009231462287315C30D8
:100FBC008400003085001130FE000030FF009231BB
:100FCC0046228731A0308400003085003730FE0087
:100FDC000030FF00923146228731203084000130EE
:100FEC0085001530FE000030FF00923146222000B3
:040FFC008231282AEC
:10100200F401F501701C09287208F4077308F53D14
:101012000130F235F30D890B0A280130F136F00C5C
:10102200890B0F2870087104031D03287508F1004D
:101032007408F00008007308031924287208710468
:101042007004031D35280030F0000030F10000303C
:10105200F20008000130F5007508F3070130F2369E
:10106200F10CF00C890B3028FE30720503194E2862
:101072002B280130F5007508F3070130F007003026
:1010820003180130F107003003180130F207013074
:10109200F236F10CF00C890B4928FF307205031966
:1010A2005B283A280130F3020130F035F10DF20DE0
:1010B200890B5628F11B612802307302031853284A
:1010C20073186928FF30F0057F30F105FF30F20513
:1010D2000310F30C7308F500F601F7011030F53533
:1010E200F60DF70D890B70287508F0047608F104E7
:1010F2007708F204740803190800F21708002000A8
:10110200A101F31F9128F009F109F209F309F00A8C
:101112000319F10A0319F20A0319F30AA101A10A38
:10112200F71FA228F409F509F609F709F40A0319C9
:10113200F50A0319F60A0319F70A0130F8007808CC
:10114200A1060030A5000030A4000030A30000304A
:10115200A20073087204710470040319EB28A00141
:10116200A00AF31BC0280130F035F10DF20DF30D8A
:10117200890BB5280130F8007808A007B2280130A1
:10118200A235A30DA40DA50D890BC1287308770202
:10119200031DD52872087602031DD5287108750231
:1011A200031DD52870087402031CE0287008F4029D
:1011B2007108F53B7208F63B7308F73B22140130C5
:1011C200F336F20CF10CF00C890BE1280130A0028D
:1011D200031DC02821080319F928A209A309A4099B
:1011E200A509A20A0319A30A0319A40A0319A50A45
:1011F2002508F3002408F2002308F1002208F00079
:10120200080020003008B4003108B5003208B600EA
:101212000310350D360DB7003708BD003D08031D1C
:101222001B290030B3000030B2000030B1000030A2
:10123200B00008003008B4003108B5003208B6002A
:101242001730B636B50CB40C890B22293408B70016
:101252003708B800B117FF30B005FF30B1050030D4
:10126200B2053008B9003108BA003208BB00BC012F
:101272008E30BD02BD1F59293D08803A8F3E0318AA
:101282004B290030B3000030B2000030B100003012
:10129200B00008000130BC36BB0CBA0CB90C890B8B
:1012A2004C290130B4003408BD07031972294B29B7
:1012B20018303D02031C6F290030B3000030B20029
:1012C2000030B1000030B00008000130B935BA0D6D
:1012D200BB0DBC0D890B67290130BD023D08031D02
:1012E2006629380803198029B909BA09BB09BC095A
:1012F200B90A0319BA0A0319BB0A0319BC0A3C0842
:10130200B3003B08B2003A08B1003908B000080047
:1013120020004708F0004808F1004908F2000030B8
:10132200F3000030F4000030F50094318C24893150
:101332000318A82921302100D0000030D10000304C
:101342002000C7000030C8000030C900080020009B
:10135200490848044704031DBB2922302100D0005C
:101362000030D10000302000C7000030C80000303B
:10137200C90008000030B0008030B100BF30B200B8
:101382000030A0000030A1004030A2004B30CA0063
:101392004A08F3004708F0004808F1004908F20043
:1013A2009431C724893170082000A3007108A40079
:1013B2007208A5008A313922893120002008B30041
:1013C2002108B4002208B5008C318D248931200017
:1013D2003008C7003108C8003208C900FF30CB0707
:1013E200FF30CC3D4708BD004808BE004908BF0099
:1013F2000030C0009830C1000830C2000030C30085
:101402009631BB26893120003D08C7003E08C8003E
:101412003F08C9004708B0004808B1004908B200B7
:101422007230A0003130A1003F30A2004C08F90018
:101432004B08F80093314823893178082000A30033
:101442007908A4007A08A5008A313922893120005E
:101452002008B3002108B4002208B5008C318D2485
:1014620020003008C7003108C8003208C90008004F
:1014720020002008A6002108A7002208A8000310C7
:10148200270D280DA9002908AA002A08031D502AA1
:101492000030A0000030A1000030A20008002308A4
:1014A200A6002408A7002508A8000310270D280D70
:1014B200A9002908AF002F08031D662A0030A000EA
:1014C2000030A1000030A20008002F087B3EA600D9
:1014D2002608AA072008A6002108A7002208A800BB
:1014E2001030A836A70CA60C890B722A2608A90070
:1014F2002908AF002308A6002408A7002508A80091
:101502001030A836A70CA60C890B822A2608A9003F
:101512002908AF068030A6002608AF05A117A41738
:10152200FF30A305FF30A4050030A5050030AB0055
:101532000030AC000030AD000730A6002608AE0037
:10154200201CA92A2308AB072408AC3D2508AD3D81
:101552000130A236A10CA00C890BAA2A0130A335B6
:10156200A40DA50D890BB02A0130AE02031DA12ADC
:101572000930A6002608AE00201CC52A2308AB07A6
:101582002408AC3D2508AD3D0130A236A10CA00CCB
:10159200890BC62A0130AD36AC0CAB0C890BCC2AB8
:1015A2000130AE02031DBD2A2B08F0002C08F10009
:1015B2002D08F2002A08A6002608F3002F08A7002B
:1015C2002708F40088311C2070082000A000710850
:1015D200A1007208A20008003030860001308700A6
:1015E200293084000030850005302000A500160057
:1015F2001A00A50BF82A0430A5002508AF00AE0199
:10160200A11F0E2B2D30963167268A312000A009AA
:10161200A109A00A0319A10A152B2403031D152BE6
:101622002B30963167268A312000200821040319C5
:10163200422B0A30F0000030F10020002108F300B4
:101642002008F2009331B3238A3170082000A500EC
:101652002F08293E86008701250881000A30F00004
:101662000030F1002108F3002008F200963116261E
:101672008A3171082000A1007008A0000130AF0279
:10168200152B220A03194A2B522B0130A5002508DB
:10169200AE072E08293E860087010108031D582B3C
:1016A200462B2203FF3A053EA5002508AE002E0870
:1016B200A5002508AF002308A500A601A509A609D3
:1016C200A50A0319A60A2508053EA7000030263DF3
:1016D200A8002808803A803C031D712B27082F029E
:1016E2000318832B20002F08293E8600870101085A
:1016F200303E963167268A3101302000A500250848
:10170200AF075C2B20002303031D912B2E30963153
:1017120067268A3120002D08303E963167268A31AD
:10172200023020002306031D08002E309631672662
:101732008A3120002C08303E963167268A312000FB
:101742002D08303E96316726080000302000B00098
:101752008030B100BF30B2004E08F9004D08F800E9
:10176200933148238B3178082000A0007908A1002A
:101772007A08A200C030A3007F30A4004430A50044
:10178200803108208B3120002008B3002108B400EA
:101792002208B5008C318D248B3120003008D20014
:1017A2003108D3003208D4005208A0005308A10027
:1017B2005408A200B830A3001C30A4004630A50093
:1017C200803108208B3120002008CF002108D00072
:1017D2002208D1006830A0001C30A1004630A200CF
:1017E2004F08A3005008A4005108A500803108202A
:1017F2008B3120002008D5002108D6002208D7000E
:101802005508C7005608C8005708C9008931892100
:101812008B3120004708D5004808D6004908D70078
:101822003530A0006D30A1004530A2005508A3005C
:101832005608A4005708A500803108208B312000EB
:101842002008D5002108D6002208D700CF30B000EA
:101852005B30B1003B30B2005508B3005608B4000B
:101862005708B5008C318D248B3120003008D5000B
:101872003108D6003208D7005508A0005608A1004A
:101882005708A2000030A3008030A4003F30A5001A
:10189200803108208B3120002008D5002108D60095
:1018A2002208D7009330BD008830BE004330BF000D
:1018B2005508C0005608C1005708C2009231EC22F8
:1018C2008B3120003D08D5003E08D6003F08D700E6
:1018D2000030A0002030A1004130A2005508A30032
:1018E2005608A4005708A5008A3139228B312000FE
:1018F2002008D5002108D6002208D7005508B000DC
:101902005608B1005708B20089310221200031087F
:10191200CE003008CD00080020003008B6003108A3
:10192200B7003208B8000310370D380DB900390876
:10193200BC003308B6003408B7003508B8000310FD
:10194200370D380DB9003908BB003C080319B52C16
:101952003B083C020318BC2C3C03FF3A3B07B60091
:1019620019303602031CBC2C3308B0003408B10015
:101972003508B20008003B08031908003C083B0286
:101982000318CB2C3B03FF3A3C07B6001930360252
:10199200031808000630B6003608BA00B21BBA17A0
:1019A200B51B3A17B117FF30B005FF30B105003053
:1019B200B205B417FF30B305FF30B4050030B505EA
:1019C2003B083C020318072D0130B335B40DB50DA9
:1019D200890BE62C0130BB023B083C060319022DA1
:1019E2000130BA023A0807390319022DE52C0130F9
:1019F200B236B10CB00C890BF92C0130B6003608A6
:101A0200BC073C083B0603192C2DF82C3C083B0272
:101A120003182C2D0130B035B10DB20D890B0C2DF0
:101A22000130BC023B083C060319282D0130BA02E2
:101A32003A0807390319282D0B2D0130B536B40C9D
:101A4200B30C890B1F2D0130B6003608BB073C08CA
:101A52003B06031D1E2DBA1F3E2DFF30B006FF3080
:101A6200B106FF30B2060130B00700300318013072
:101A7200B107003003180130B2073A1F502DFF3072
:101A8200B306FF30B406FF30B5060130B3070030AD
:101A920003180130B407003003180130B507BA014A
:101AA2003008B3073108B43D3208B53DB51F6B2D80
:101AB200FF30B306FF30B406FF30B5060130B3077E
:101AC200003003180130B407003003180130B507A5
:101AD200BA01BA0A3308F0003408F1003508F200FE
:101AE2003C08B6003608F3003A08B7003708F4009D
:101AF20088311C2070082000B0007108B100720803
:101B0200B200080020002635353E860001308700ED
:101B1200403FF900413FFA007908923195228D3118
:101B22007108FC007008FB0020002608A8000130A4
:101B3200A835FF3E031D992D2835203E8600013031
:101B42008700403FA900413FAA00423FAB00433F0C
:101B5200AC006908AE006808AD00AD35AE0D2708CF
:101B6200F1002608F0006430F2000030F300883102
:101B720001208D3160302000AF002230B0007008AB
:101B82002F07B1007108303DB2002D0831078600E1
:101B92002E08323D8700403FB300413FB400330876
:101BA200B5003408B6000030B61BFF30B700B800ED
:101BB200B509B609B709B809B50A0319B60A03196E
:101BC200B70A0319B80A3508A9073608AA3D370823
:101BD200AB3D3808AC3D2608B9000130B935FF3EAF
:101BE200031DEF2D3935203E86000130870029087C
:101BF200C03F2A08C13F2B08C23F2C08C33F6908D7
:101C0200A9006808A800A835A90D2708F100260830
:101C1200F0006430F2000030F300883101208D3191
:101C220060302000AA002230AB0070082A07AC0006
:101C320071082B3DAD0028082C07860029082D3D90
:101C420087007B08C03F7C08C13F2608A8000130FE
:101C5200A835FF3E031D292E2835203E860001307F
:101C62008700403FA900413FAA00423FAB00433FEB
:101C7200AC006908AE006808AD00AD35AE0D2708AE
:101C8200F1002608F0006430F2000030F3008831E1
:101C920001208D3160302000AF002230B00070088A
:101CA2002F07B1007108303DB2002D0831078600C0
:101CB2002E08323D8700403FB300413FB400330855
:101CC200B5003408B6000030B61BFF30B700B800CC
:101CD2003508A9073608AA3D3708AB3D3808AC3DA0
:101CE2002608B9000130B935FF3E031D742E39357F
:101CF200203E8600013087002908C03F2A08C13FE4
:101D02002B08C23F2C08C33F0030270203300319BF
:101D12002602031C992E0130E8070030E93D00300D
:101D22006902323003196802031C992EE801E901A5
:101D32000030F3000030F2000030F1003230F000E9
:101D42002608A8000130A835FF3E031DA42E283521
:101D5200203E860001308700403FF400413FF500FD
:101D6200423FF600433FF700883180207108FC00B3
:101D72007008FB007C082000A7007B08A600080072
:101D82002000C50045355C3E86008701403FBE000D
:101D9200413FBF004535B03E86008701403FC0004D
:101DA200413FC1004108803AC2003F08803A4202E6
:101DB200031DDD2E3E084002031C1D2F2000450896
:101DC200623E860087010108803A773E0318F12EB1
:101DD2000130BE004508623E860087013E08810749
:101DE2004508623E860087010108803A773E031863
:101DF200022F0130BE004508623E860087013E0880
:101E020081074508D43E8600870101080319102F77
:101E12004508D43E8600870101308102452F4508DE
:101E2200643E8600870101080319452F4508643E78
:101E3200860087018101452FFF302000BE00450842
:101E4200623E860087013E0881074508623E8600A1
:101E520087010108803A893E0318452F4508643EF0
:101E6200860087018101810A1230BE004508D43EF6
:101E7200860087013E088100F730BE004508623EB9
:101E8200860087013E0881004535B83E86008701FD
:101E9200403FBE00413FBF004535C43E860087013A
:101EA200403FC000413FC1004108803AC2003F08A4
:101EB200803A4202031D5F2F3E08400203180800C9
:101EC20020004508643E860087010108031D0800C2
:101ED2004508663E8600870105300106031D08009D
:101EE2006D09BE006E09BF00BE0A0319BF0A3E0893
:101EF200FA3EF80000303F3DF900933148238E311D
:101F020078082000A3007908A4007A08A500C3304D
:101F1200A0007530A1003E30A2008A3139228E31F4
:101F220020002008B0002108B1002208B200893147
:101F320002218E3120003008003EC0000530313DC4
:101F4200C1004535B03E86008701403FC200413F97
:101F5200C3004308803AC4004108803A4402031D8A
:101F6200B42F400842020318080004302000BE00CB
:101F72004508663E860087013E0881006D09BE0065
:101F82006E09BF00BE0A0319BF0A3E08FA3EF800F6
:101F920000303F3DF900933148238E31780820000C
:101FA200A3007908A4007A08A500C330A000753008
:101FB200A1003E30A2008A3139228E312000200851
:101FC200B0002108B1002208B200893102212000AC
:101FD2003008913EC0000530313DC10045355C3EC0
:101FE200860087014008C03F4108C13F4535C43ED5
:101FF200860087012330C03F0030C13F0800003413
:102002000034003400344E340034063400340634D4
:10201200FF34FF34FF344834D634243412340834C5
:102022002434FF34FF34FF340034063400343834AF
:1020320044348234823444343834143408343E34E0
:10204200103438341034A034603400341034103476
:1020520010346034603400346034183406347C3414
:1020620042347C3444347E344034643452344C340C
:102072004A344A343434383424347E344E344A3484
:1020820032343C344A34323462341A3406347634CC
:102092004A3476344C3452343C346C346C3400342C
:1020A200AC346C34003410342834443428342834AA
:1020B2002834443428341034023459340634FF347A
:1020C200FF34FF347C3412347C347E345A3434345A
:1020D2003C34423442347E3442343C347E344A34DA
:1020E20042347E340A340A343C34523434347E343A
:1020F20008347E3442347E344234303440343E3408
:102102007E34183466347E34403440347E341C3499
:102112007E347E3402347E343C3442343C347E3469
:1021220012340C347E346234FE347E3432344E3413
:1021320044344A34323402347E3402347E344034FD
:102142007E343E3440343E347E3438347E34663419
:10215200183466340E3470340E3462345A344634D1
:1021620000347E34423406341834603442347E34CF
:1021720000340434023404344034403440340034F3
:10218200023404347434543478347E344834303471
:10219200303448344834303448347E34383454345B
:1021A20058347C340A3402349834A4347C347E3477
:1021B2000834703448347A3440348834FA34003481
:1021C2007E341834643442347E3440347C343834BF
:1021D2007C347C3404347834383444343834FC3439
:1021E2002434183418342434FC3478340434043459
:1021F20048345434243404343E3444347C3440343B
:102202007C343C3440343C347C3430347C346C3464
:1022120010346C349C34A0347C34643454344C34E4
:102222000C3412340C34FF34FF34FF34FF34FF34E7
:10223200FF34FF34FF34FF34FF34FF34FF34FF3404
:10224200FF34FF34FF34FF34FF34FC3440347C3439
:0C225200FF34FF34FF34FF34FF34FF344E
:10246A001434003410340034163400341234003476
:10247A00603031008D008F01910106309300920186
:10248A0008006400800101310130FE020030FF3B88
:10249A007F087E0403190034472A25008E01013083
:1024AA0090008F019101FE308D008C012E0090105A
:1024BA0025008E1708002500940101309600950129
:1024CA009701FE30930092012E0090112500941777
:1024DA000800F70077088038F6007608F000003028
:1024EA0093316823923175084038F6007608F00077
:1024FA0000309331682308007C0884007D08850039
:10250A001200031908007C0884007D088500000871
:10251A009631672692310130FC070030FD3D812A51
:10252A00F3003C3021009E00931713131314131861
:10253A009C2A73089E009317131313141318A32AC3
:10254A000D08F1000C08F00008007108F30070088B
:10255A00F200F336F20CF336F20C720826008D0004
:10256A0070080339F2000530F235FF3E031DB92A1F
:10257A0072358C0008007108F3007008F200F33617
:10258A00F20CF336F20C720827008D00700803393A
:10259A00F2000530F235FF3E031DCF2A72358C005A
:1025AA0008007108F3007008F200F336F20CF336F3
:1025BA00F20C72082700910070080339F200053006
:1025CA00F235FF3E031DE52A72359000080020000F
:1025DA003F083E043D040319F42A8030BF06400830
:1025EA00B0004108B1004208B2003D08B3003E08FD
:1025FA00B4003F08B5008C318D2420003008BD009E
:10260A003108BE003208BF0008002100940195017C
:10261A00960199019701C33032008C003F302100A6
:10262A00980003309A009B0107309C009D019E018F
:10263A0022008D018E018F01900191019201930177
:10264A008430210093000800803027008E008D011D
:10265A008C0124001F08F33904389F0080302700BA
:10266A0092009101900124001F08CF3920389F0061
:10267A0026008E170E160F308E0424001E08FC3911
:10268A0001389E000800FD01F91F522BF809F909CB
:10269A00F80A0319F90AFD01FD0A7808F000790819
:1026AA00F100F2018E30FB007B08F3007D08FC008C
:1026BA007C08F40088311C207008F8007108F900C1
:1026CA007208FA000800F2007008F1007108F300BD
:1026DA007208031D732B20001611752B2000161586
:1026EA009610F4010830740203188B2B9611F31F0D
:1026FA007F2B961516160310F30D16120130F100F2
:10270A007108F40708307402031C7B2B9614080026
:10271A00F901FA017A08803AF80081307802031D3B
:10272A00982BF83079020318AE2BF001013093315F
:10273A00682393310130F9070030FA3D7A08803A6C
:10274A00F80081307802031DAC2BF8307902031CA3
:10275A009A2BF501003092316E220800700871043C
:10276A000319DA2BF501F50AF11BC52B0130F035F7
:10277A00F10D890BBC2B0130F4007408F507B92B55
:10278A0071087302031DCB2B70087202031CD12B34
:10279A007008F2027108F33B0130F136F00C890B34
:1027AA00D22B0130F502031DC52B7308F100720804
:1027BA00F0000800203020009600970198013E00A2
:1027CA00B901C401CF010830E500200091010E30A3
:1027DA009200FF3093003E00B8010A30C300FF3078
:1027EA00CE002E00161200308B1B0130F0008B1326
:1027FA0055303D008F00AA308F000F100E303E007A
:10280A0096000F30970009309D0055303D008F002B
:10281A00AA308F000F14701C142C8B1708008B130E
:10282A000800200011109110111191111112961126
:10283A0016121611161016142130F5007508F0003C
:10284A000030933168239431B930F5007508F000EF
:10285A0000309331682394310430F5007508F00094
:10286A0000309331682394311430F5007508F00074
:10287A0000309331682394312030F5007508F00058
:10288A0000309331682394310C30F5007508F0005C
:10289A0000309331682308009331DF239431923159
:1028AA003D22943193310A2394319331292394316F
:1028BA009231522294319231602294310030973110
:1028CA001B279431013097311B27943194311624F8
:1028DA00943109302000C4001E30C300E430890B53
:1028EA00742CC30B742CC40B742C000093318D23ED
:1028FA00943109302000C4001E30C300E430890B33
:10290A00842CC30B842CC40B842C00000800F21FF7
:10291A00A22C7009F6007109F7007209F800F60A8C
:10292A000319F70A0319F80A00307607F000003095
:10293A00773DF1008030783DF200F51FB82C73091D
:10294A00F6007409F7007509F800F60A0319F70A80
:10295A000319F80A00307607F3000030773DF400D7
:10296A008030783DF5008030F2068030F506750833
:10297A007202031D080074087102031D080073081F
:10298A0070020800720871047004031DD92C7308C0
:10299A00860087010030C03FC13F0030F0000030A0
:1029AA00F1000030F200080072087F39F400F501E6
:1029BA00F435F50D7308860087017408C03F750861
:1029CA00C13F710D710D0139F400F50173088600DC
:1029DA0087017408810441317508810473088600EF
:1029EA008701823081074131FF30813D7F31720892
:1029FA0080393F38F200F113080021002008BE3E5A
:102A0A002000BE00FD302100213D2000BF003F080C
:102A1A00803AC00080304002031D152D01303E026D
:102A2A0003181B2D2100B801B90108002100200854
:102A3A00BE3EF800FD30213DF9009331482395311F
:102A4A0078082000A3007908A4007A08A500DE30DF
:102A5A00A0004E30A1004030A200803108209531FC
:102A6A0020002008B0002108B1002208B2008931F4
:102A7A000221200031082100B9002000300821007D
:102A8A00B800080021002208CF3E2000BE00FD3019
:102A9A002100233D2000BF003F08803AC00080305B
:102AAA004002031D5A2D01303E020318602D2100F9
:102ABA00BA01BB01080021002208CF3EF800FD3010
:102ACA00233DF90093314823953178082000A3006B
:102ADA007908A4007A08A500CA30A000FE30A10037
:102AEA003F30A20080310820953120002008B00034
:102AFA002108B1002208B2008931022120003108E0
:102B0A002100BB00200030082100BA000800210083
:102B1A002408B33E2000BE00FD302100253D2000E0
:102B2A00BF003F08803AC00080304002031D9F2D3D
:102B3A0001303E020318A52D2100BC01BD01080089
:102B4A0021002408B33EF800FD30253DF9009331F9
:102B5A004823953178082000A3007908A4007A0850
:102B6A00A5008330A000A830A1003F30A200803128
:102B7A000820953120002008B0002108B100220861
:102B8A00B20089310221200031082100BD00200055
:102B9A0030082100BC00080021002608D13E200090
:102BAA00BE00FD302100273D2000BF003F08803ACB
:102BBA00C00080304002031DE42D01303E0203189C
:102BCA00EA2D2100BE01BF01080021002608D13EDE
:102BDA00F800FD30273DF9009331482395317808F4
:102BEA002000A3007908A4007A08A5008930A00073
:102BFA00CD30A1003F30A20080310820953120005D
:102C0A002008B0002108B1002208B200893102214F
:102C1A00200031082100BF00200030082100BE003A
:102C2A000800F601F11F202EF009F109F00A031934
:102C3A00F10AF601F60AF31F2B2EF209F309F20A3A
:102C4A000319F30A0130F4007408F606F701F801D3
:102C5A007008710403195A2EF501F50AF11B3F2E6B
:102C6A000130F035F10D890B362E0130F40074086D
:102C7A00F507332E0130F735F80D890B402E710810
:102C8A007302031D4A2E70087202031C512E70082B
:102C9A00F2027108F33B77140130F136F00C890B1C
:102CAA00522E0130F502031D3F2E76080319622EBB
:102CBA00F709F809F70A0319F80A7808F1007708FA
:102CCA00F0000800F9007908E03EFA00FF30031826
:102CDA000030FB000330F0000030F1007B08F30005
:102CEA007A08F2008831012096317108FB007008D9
:102CFA00FA007B0885007A08840000308407903047
:102D0A00853D0008F6007608F0000130933168230B
:102D1A0096317A08013EF60000307B3DF70000301C
:102D2A00760784009030773D85000008F80078081F
:102D3A00F00001309331682396317A08023EF6009A
:102D4A0000307B3DF7000030760784009030773DF5
:102D5A0085000008F8007808F000013093316823F4
:102D6A009631F001013093316823080020004308AE
:102D7A00F1004208F0000330F2000030F30088311D
:102D8A000120963120004008700784004108713DF7
:102D9A008500003FC400013FC500023FC60042084B
:102DAA0043040319142FFF30C207FF30C33D430801
:102DBA00F1004208F0000330F2000030F3008831DD
:102DCA000120963120004008700784004108713DB7
:102DDA008500003FB000013FB100023FB200440845
:102DEA00A0004508A1004608A2003D08A3003E082D
:102DFA00A4003F08A5008A31392296312000200814
:102E0A00B3002108B4002208B5008C318D24963114
:102E1A0020003008C4003108C5003208D32E440807
:102E2A00BD004508BE004608BF0008002000C200D9
:102E3A000330BE004208663E860087013E088100D4
:102E4A004235C03E860087010530C03F0030C13F91
:102E5A004235C43E860087010A30C03F0030C13F78
:102E6A006D09BE006E09BF00BE0A0319BF0A3E08FB
:102E7A00FA3EF80000303F3DF9009331482397317C
:102E8A0078082000A3007908A4007A08A500C330B6
:102E9A00A0007530A1003E30A2008A313922973154
:102EAA0020002008B0002108B1002208B2008931B0
:102EBA00022120003008913EC0000530313DC1009A
:102ECA0042355C3E860087014008C03F4108C13F49
:102EDA004235CC3E860087010F30C03F0030C13FEB
:102EEA004235C83E860087013C30C03F0030C13FB2
:102EFA0008000B3092319522973171082000E100C9
:102F0A007008E0006108803AF40081307402031D01
:102F1A00902F6D306002031CA22F20006108803AB6
:102F2A00F40081307402031D9C2F9530600203184F
:102F3A00A22F2000EC01EC0AD02F20006108803A71
:102F4A00F40082307402031DAC2F17306002031C98
:102F5A00BC2F20006108803AF40082307402031DFD
:102F6A00B82F4E3060020318BC2F0230C92F200040
:102F7A006108803AF40082307402031DC62FEA30D9
:102F8A006002031CCE2F0330F40074082000EC000A
:102F9A00D02F2000EC016C080319FD2F6C086B067A
:102FAA000319DC2F6C08F4007408EB00FD2F0130C4
:102FBA00F4007408EA076A03031DE52F6B0808008A
:102FCA006A08803A753E031CFE2F0230F500043071
:102FDA00F400BA30890BEF2FF40BEF2FF50BEF2F1C
:102FEA0000320A30F40074082000EA006B08080076
:102FFA00EA01003008000034003400340034803420
:10300A003F34F034FF34BE34E234A9343E348334DE
:10301A007634BE34AE342B343E343C34C334BD34FF
:10302A00D23413343D347834D334BB345234653417
:10303A0066343A3400344F34753474343A340034D4
:08304A0049346E343A340034BD
:020000040001F9
:0A000E008C3FFF3F9F3FFF2FFF3F95
:00000001FF
