:020000040000fa
:080000000002040000000000f2
:020000040000fa
:04000800c80200002a
:020000040000fa
:04000c00c802000026
:020000040000fa
:04001000c802000022
:020000040000fa
:04001400c80200001e
:020000040000fa
:04001800c80200001a
:020000040000fa
:04001c00c802000016
:020000040000fa
:04002000c802000012
:020000040000fa
:04002400c80200000e
:020000040000fa
:04002800c80200000a
:020000040000fa
:04002c00c802000006
:020000040000fa
:04003000c802000002
:020000040000fa
:04003400c8020000fe
:020000040000fa
:04003800c8020000fa
:020000040000fa
:04003c00c8020000f6
:020000040000fa
:04004000c8020000f2
:020000040000fa
:04004400c8020000ee
:020000040000fa
:04004800c8020000ea
:020000040000fa
:04004c00c8020000e6
:020000040000fa
:04005000c8020000e2
:020000040000fa
:04005400c8020000de
:020000040000fa
:04005800c8020000da
:020000040000fa
:04005c00c8020000d6
:020000040000fa
:04006000c8020000d2
:020000040000fa
:04006400c8020000ce
:020000040000fa
:04006800c8020000ca
:020000040000fa
:04006c00c8020000c6
:020000040000fa
:04007000c8020000c2
:020000040000fa
:04007400c8020000be
:020000040000fa
:04007800c8020000ba
:020000040000fa
:04007c00c8020000b6
:020000040000fa
:04008000c8020000b2
:020000040000fa
:04008400c8020000ae
:020000040000fa
:04008800c8020000aa
:020000040000fa
:04008c00c8020000a6
:020000040000fa
:04009000c8020000a2
:020000040000fa
:04009400c80200009e
:020000040000fa
:04009800c80200009a
:020000040000fa
:04009c00c802000096
:020000040000fa
:0400a000c802000092
:020000040000fa
:0400a400c80200008e
:020000040000fa
:0400a800c80200008a
:020000040000fa
:0400ac00c802000086
:020000040000fa
:0400b000c802000082
:020000040000fa
:0400b400c80200007e
:020000040000fa
:0400b800c80200007a
:020000040000fa
:0400bc00c802000076
:020000040000fa
:0400c000c802000072
:020000040000fa
:0400c400c80200006e
:020000040000fa
:0400c800c80200006a
:020000040000fa
:0400cc00c802000066
:020000040000fa
:0400d000c802000062
:020000040000fa
:0400d400c80200005e
:020000040000fa
:0400d800c80200005a
:020000040000fa
:0400dc00c802000056
:020000040000fa
:0400e000c802000052
:020000040000fa
:0400e400c80200004e
:020000040000fa
:0400e800c80200004a
:020000040000fa
:0400ec00c802000046
:020000040000fa
:0400f000c802000042
:020000040000fa
:0400f400c80200003e
:020000040000fa
:0400f800c80200003a
:020000040000fa
:0400fc00c802000036
:020000040000fa
:04010000c802000031
:020000040000fa
:04010400c80200002d
:020000040000fa
:04010800c802000029
:020000040000fa
:04010c00c802000025
:020000040000fa
:04011000c802000021
:020000040000fa
:04011400c80200001d
:020000040000fa
:04011800c802000019
:020000040000fa
:04011c00c802000015
:020000040000fa
:04012000c802000011
:020000040000fa
:04012400c80200000d
:020000040000fa
:04012800c802000009
:020000040000fa
:04012c00c802000005
:020000040000fa
:04013000c802000001
:020000040000fa
:04013400c8020000fd
:020000040000fa
:04013800c8020000f9
:020000040000fa
:04013c00c8020000f5
:020000040000fa
:04014000c8020000f1
:020000040000fa
:04014400c8020000ed
:020000040000fa
:04014800c8020000e9
:020000040000fa
:04014c00c8020000e5
:020000040000fa
:04015000c8020000e1
:020000040000fa
:04015400c8020000dd
:020000040000fa
:04015800c8020000d9
:020000040000fa
:04015c00c8020000d5
:020000040000fa
:04016000c8020000d1
:020000040000fa
:04016400c8020000cd
:020000040000fa
:04016800c8020000c9
:020000040000fa
:04020800c802000028
:020000040000fa
:04020c00c802000024
:020000040000fa
:04021000c802000020
:020000040000fa
:04021400c80200001c
:020000040000fa
:04021800c802000018
:020000040000fa
:04021c00c802000014
:020000040000fa
:04022000c802000010
:020000040000fa
:04022400c80200000c
:020000040000fa
:04022800c802000008
:020000040000fa
:04022c00c802000004
:020000040000fa
:04023000c802000000
:020000040000fa
:04023400c8020000fc
:020000040000fa
:04023800c8020000f8
:020000040000fa
:04023c00c8020000f4
:020000040000fa
:04024000c8020000f0
:020000040000fa
:04024400c8020000ec
:020000040000fa
:04024800c8020000e8
:020000040000fa
:04024c00c8020000e4
:020000040000fa
:04025000c8020000e0
:020000040000fa
:04025400c8020000dc
:020000040000fa
:04025800c8020000d8
:020000040000fa
:04025c00c8020000d4
:020000040000fa
:04026000c8020000d0
:020000040000fa
:04026400c8020000cc
:020000040000fa
:04026800c8020000c8
:020000040000fa
:04026c00c8020000c4
:020000040000fa
:04027000c8020000c0
:020000040000fa
:04027400c8020000bc
:020000040000fa
:04027800c8020000b8
:020000040000fa
:04027c00c8020000b4
:020000040000fa
:04028000c8020000b0
:020000040000fa
:04028400c8020000ac
:020000040000fa
:04028800c8020000a8
:020000040000fa
:04028c00c8020000a4
:020000040000fa
:04029000c8020000a0
:020000040000fa
:04029400c80200009c
:020000040000fa
:04029800c802000098
:020000040000fa
:04029c00c802000094
:020000040000fa
:0402a000c802000090
:020000040000fa
:0402a400c80200008c
:020000040000fa
:0402a800c802000088
:020000040000fa
:0402ac00c802000084
:020000040000fa
:0402b000c802000080
:020000040000fa
:0402b400c80200007c
:020000040000fa
:0402b800c802000078
:020000040000fa
:0402bc00c802000074
:020000040000fa
:0402c000c802000070
:020000040000fa
:0402c400c80200006c
:020000040000fa
:0402c800c802000068
:020000040000fa
:0402cc00c802000064
:020000040000fa
:0402d000c802000060
:020000040000fa
:0402d400c80200005c
:020000040000fa
:0402d800c802000058
:020000040000fa
:0402dc00c802000054
:020000040000fa
:0402e000c802000050
:020000040000fa
:0402e400c80200004c
:020000040000fa
:0402e800c802000048
:020000040000fa
:0402ec00c802000044
:020000040000fa
:0402f000c802000040
:020000040000fa
:0402f400c80200003c
:020000040000fa
:0402f800c802000038
:020000040000fa
:0402fc00c802000034
:020000040000fa
:04030000c80200002f
:020000040000fa
:04030400c80200002b
:020000040000fa
:04030800c802000027
:020000040000fa
:04030c00c802000023
:020000040000fa
:04031000c80200001f
:020000040000fa
:04031400c80200001b
:020000040000fa
:04031800c802000017
:020000040000fa
:04031c00c802000013
:020000040000fa
:04032000c80200000f
:020000040000fa
:04032400c80200000b
:020000040000fa
:04032800c802000007
:020000040000fa
:04032c00c802000003
:020000040000fa
:04033000c8020000ff
:020000040000fa
:04033400c8020000fb
:020000040000fa
:04033800c8020000f7
:020000040000fa
:04033c00c8020000f3
:020000040000fa
:04034000c8020000ef
:020000040000fa
:04034400c8020000eb
:020000040000fa
:04034800c8020000e7
:020000040000fa
:04034c00c8020000e3
:020000040000fa
:04035000c8020000df
:020000040000fa
:04035400c8020000db
:020000040000fa
:04035800c8020000d7
:020000040000fa
:04035c00c8020000d3
:020000040000fa
:04036000c8020000cf
:020000040000fa
:04036400c8020000cb
:020000040000fa
:04036800c8020000c7
:020000040000fa
:100400008f8b20000eff20000e01880000000000ee
:10041000000020000000e000020032000001200087
:1004200020028800140007005b0007000000e000c5
:1004300003003a004094220001002000020037002f
:100440000000200001002000810f70000100320038
:1004500014000700000020000000e000020032004d
:100460000000020000000000480e02000000000032
:100470000040da000000fe004440a900a072200005
:100480000000e0000300320000002000a00188000e
:100490004440a800000006008a1f78008b1f7800e7
:1004a0000000060091018800800478000000eb0045
:1004b0001a003700e284440032a0b4009905ba0063
:1004c000e284440032a0b4009906ba00e2844400f9
:1004d00032a0b4000006eb00476fde00fd07b2005b
:1004e000636ce10003003a00ebff07000000eb0043
:1004f0000a003700606ce10004003a00005deb0088
:100500008b05e900fdff3e00040037006168e10053
:10051000010032000086eb000b00070019c7ba008b
:100520001905ba000e04e00003003a000a00e000da
:10053000e0ff3a0000000600fe07b2009e018800be
:100540008a047800f5ff3700395dba008b05e900b1
:100550000c003200295dba008b05e900080032006a
:100560000c00e00003003a00e284440032a0b40032
:10057000f5ff370019ddba008b05e900faff3a00f4
:100580008904e800e184440032a0b40000000600c1
:100590000040da000000fe000000050003f0a200a9
:1005a000889fbe008a9fbe008c1f7800170107003d
:1005b0001e0133006450e1004f0032006420e1006e
:1005c0005200320003826c0007003b000905d00096
:1005d0000306d000820f54000c065d0002003900b3
:1005e00002003200890178000306780085825500f8
:1005f00004003d000003fd008103fd008502ea00c8
:100600008b854200840f720002003b0060001000e6
:10061000e08018006011b8000005eb007a28e100c6
:100620000a00390006007800c75ddd00f707b20058
:10063000878075002d003700828171000a017800e3
:10064000610560008180d1000080d3008502e9004f
:10065000f9ff3b00060440008784480002003b008d
:1006600060041400e0841c000988a3000700320025
:100670008a81710082817100610164008904d10066
:100680000884d3008b05e800170037000978a30021
:1006900013003a000b00e000130034008b05e90062
:1006a0000804440089844c000a4474000978a300bb
:1006b0000d003a000b00e000070034008b05e90054
:1006c0000804440089844c0001003a000b0020001b
:1006d0000978a300f7ff32000001eb0002003700a9
:1006e000828171000a0178008d0007000cf0a700dc
:1006f00001f0a000d60037006420e10002003a00bb
:10070000838f6c00d60033000801be000200be00db
:10071000cf003700889fbe008a9fbe008c1f7800e4
:10072000ba000700c100330003866c006450e1008a
:100730002e0032006420e100330032006150e100fd
:100740002f0032006120e100310032008585550024
:10075000eb07b00009002000080420000500370066
:100760000804440089844c000a0031000603430059
:1007700087834b000001530081815b00f8ff330049
:100780000203be000800a0000804440089844c0055
:10079000f6ff3900c639dd00830173000100320025
:1007a000130020008904d1000884d3000998a30015
:1007b000050032000800a7000300a0008904d10052
:1007c0000884d3008b05e8008904d1000884d30095
:1007d0000001eb000281d2005100070001f0a100ee
:1007e0000cf0a70001f0a000990037006420e100a0
:1007f0009b0032000801be000200be00f7ff370078
:100800006120e100960032006000b800f3ff37007d
:100810000000200001f82700f0ff37000001be00b3
:10082000650007000470a70003f0a1006509b1008e
:10083000160032000d0035006828e1000600350082
:10084000f0ff2f00f1ff27000300e00013003b0042
:1008500001002800000005000000400081804800e1
:100860008502e900fcff3a0008003700f88f4200db
:1008700002003c008000eb00000005008100d10078
:100880000080d3008502e800fcff3a000300e0008e
:1008900002003b0060001000e0801800000006002d
:1008a0000001be00440007000470a70003f0a1008f
:1008b00003f8a30013003a006509b10010003200ec
:1008c000090035006928e100020035000100280018
:1008d0000000050000004000818048008502e9001a
:1008e000fcff3a0000000600f88f420005003500ca
:1008f0008100d1000080d3008502e800fcff3a00af
:10090000000006008000eb00000005004f89de00bb
:1009100082017800ef0037006011b800fd00370059
:1009200081002000618055000b003d000b0020007d
:1009300061fe2f000100e1001d0034008281710082
:10094000610164008904d1000884d3000000e8003c
:10095000faff3a007100200061006400030070009b
:10096000020060000900320061044400e0844c0091
:100970000988a500050032008b05e8006808e10041
:1009800002003a008904d1000884d300f20f20004d
:100990000258e10005003d00c75ddd00f907b20027
:1009a0008980750008007800000006000bf8270019
:1009b0008b00780000000500c70ade00f107b200d6
:1009c000f50fb20008003200e1cf42000200320011
:1009d0000170a00024000500810f700001003200aa
:1009e0000408050044000500810f700002003a0071
:1009f000140005008502e9000000400081c04800a5
:100a0000fcff3b000170a000240005000004be00b4
:100a1000e9ff07000003be000405be000200be009f
:100a2000e5ff0700844f7500000006000200be00cd
:100a30006450e100050036006420e1000200360049
:100a40000968a30001003a000800be000160a00090
:100a50004f0678004f05be004f04be0000000600a0
:100a6000f0ff2f00f1ff2700f9ff3700889fbe003d
:100a70008a9fbe008c9fbe00870007008504780017
:100a80000005be006420e10049003e006220e10054
:100a900003003200090035000bf8a30044003200c7
:100aa0000bf8a3000800320010022000b0458800b7
:100ab000f0ff2f00f1ff27003d00370001f82f0065
:100ac000000020003a0037003d000700b3fe070099
:100ad0000006be000a00be00324f200053f3230080
:100ae0007a000700060034000c00be003400070046
:100af000aafe07000006be000a00be000200370082
:100b00008904e9000c00be002d0007002e0007003c
:100b10002b000700a2fe07000001be000c00be0073
:100b2000fcfe07000005be000001be002600070015
:100b30000006be00a2f32300430d2c0098fe070020
:100b4000809fbe000c00be00d2e32700d3f02b0034
:100b50001d0007004f01be00eefe07000006be00ac
:100b60000a01be00180007000a01be008cfe070043
:100b70000006be006148b90064ff07000005be0022
:100b800032082800e3952b000f0007000c01be007f
:100b900083fe07000006be000a00be000200280017
:100ba00013f32300080007000c01be007cfe0700c1
:100bb0004f06be004f05be004f04be0000000600f9
:100bc00003f0230002000500889fbe008a9fbe003c
:100bd0008c1f78008dff070094ff330003866c00a4
:100be0006450e100240032006420e100270032005c
:100bf0006150e100220032006120e100210032005a
:100c00008b854200eb07b1000134b800003ab80010
:100c10000804420089844a00013ab8000030b80054
:100c20008880400009014a000400330000004000b1
:100c300081804800020149008b05e900c909dd00f7
:100c4000830170000100320013002000c814de0090
:100c50004814dd004709de001200b200c808de00bb
:100c6000088470002eff070001f0a1000cf0a7001f
:100c700001f0a00076ff37006120e10078ff32002c
:100c80000801be000200be00f7ff37006150e1001e
:100c9000fcff3a0072ff37000003be0046ff07006a
:100ca0006220e100020032000600be0005000500df
:100cb000e507b100f107b20004f023008480700062
:100cc00007f0a70001f0a00024000500f4ff2f00aa
:100cd0003f003700881f7800030478000300e0001d
:100ce00007003d0060001000e0801800600119005e
:100cf000e081190002003b0001f02d0003003700e5
:100d00000400070008f0a70001f0a0004f047800dd
:100d100000000600889fbe008a9fbe00008270000f
:100d20000402710004827100260032000004be003b
:100d30000200be006011b8006b092000950220007f
:100d40000182cf000a0039000541b1000082cf00c6
:100d5000070039000541b1000982cf0004003900c5
:100d60000541b1000882cf00010039000541b10002
:100d700005425200120032000a003b0082817100dd
:100d8000610164008100d1000080d3008984d30018
:100d90000884d3008b05e8000442e800f7ff3a001e
:100da000070037000804440089844c000000480014
:100db000818048008b05e9000442e900f9ff3a0010
:100dc000d7fe07004f05be004f04be00000006001e
:100dd000889fbe008a9fbe00841f78000bff07001b
:100de0004f00780011003300f0ff2f00838f6c005c
:100df00006003b00040565000a00a7000800370054
:100e000009f0a6001000200008003700820f5400ef
:100e1000838f5c00030039001000200001003e00b9
:100e20000000200009f0a7000000ea004f05be0006
:0c0e30004f04be000000e00000000600bf
:020000040000fa
:100e3c00ff810000ddd50000f5810000fdd500002c
:100e4c00c581000085fd000085810000ff81000048
:100e5c00fdb50000cd810000fdd50000c58100006e
:100e6c00ddd50000f5810000fdd50000c581000036
:100e7c0085fd000085810000ff810000ddd50000ac
:100e8c00f581000085fd000085810000fdd5000086
:100e9c00d5810000f9ad0000f9810000fd9900003a
:100eac00fd810000ffff00000101000001010000b6
:100ebc00010100000101000001010000010100001e
:100ecc00010100000101000001010000010100000e
:100edc0001010000010100000101000081c10000be
:100eec00c1c10000810100000101000081c10000ae
:100efc00c1c10000c1010000c1e1000061e10000be
:100f0c00c181000001810000c1c10000818100008d
:100f1c0001010000010100000101000001010000bd
:100f2c0001010000010100000101000001010000ad
:100f3c00010100000101000001010000010100009d
:100f4c00010100000101000001010000ffff000091
:100f5c000000000000000000000000000000000085
:100f6c000000000000000000000000000000000075
:100f7c0000c0000040e00000b0100000001c0000a9
:100f8c003e7e00007f7f00007f7f00007f7f00009f
:100f9c0000000000070f00000c0c00000400000013
:100fac00070f00000c0c00000f0700001c1f0000b6
:100fbc0007060000067000003c1f00000b1b000021
:100fcc00e6f20000bc6c000038980000d0e0000095
:100fdc00b060000040400000000000000000000075
:100fec0000000000000000000000000000000000f5
:100ffc0000000000ffff00000000000000000000e7
:10100c0000000000000000000000000000000000d4
:10101c0000000000000000000000000000000000c4
:10102c000d0f000006070000030000000000000088
:10103c0000000000000000000000000000000000a4
:10104c0000000000c0f00000771f0000c8c00000c6
:10105c000000000000000000000000000000000084
:10106c000000000000000000000100000100000072
:10107c00070700000c0c000001010000000000003c
:10108c000000000000000000000000000000000054
:10109c00000000000000000000000000ffff000046
:1010ac000000000000000000000000000000000034
:1010bc000000000000000000000000000000000024
:1010cc000000000000000000000000000000000014
:1010dc000000000000000000008000008080000084
:1010ec0080c00000c0c00000c0de0000fff10000a6
:1010fc00e0c00000e1ff0000dfc40000c0c0000041
:10110c00c0c00000c0c00000c00000000000000013
:10111c0000000000000000000000000000000000c3
:10112c0000000000000000000000000000000000b3
:10113c0000000000000000000000000000000000a3
:10114c0000000000ffff0000000000000000000095
:10115c000000000000000000000000000000000083
:10116c000000000000000000000000000000000073
:10117c000000000000000000000000000000000063
:10118c0000c70000cf9d000091b70000bfb8000061
:10119c00e0c00000808000008080000080800000a3
:1011ac0080800000c0c00000e0b800009f870000f5
:1011bc00c1c0000060000000000000000000000042
:1011cc000000000000000000000000000000000013
:1011dc000000000000000000000000000000000003
:1011ec00000000000000000000000000ffff0000f5
:1011fc0080800000808000008080000080800000e3
:10120c0080800000808000008080000080800000d2
:10121c0080800000808000008080000080800000c2
:10122c0080800000808000008080000081830000ae
:10123c00838300008383000083830000838300008a
:10124c00838300008383000083830000838300007a
:10125c008383000083830000818100008080000074
:10126c008080000080800000808000008080000072
:10127c008080000080800000808000008080000062
:10128c008080000080800000808000008080000052
:10129c0080800000ff000000060000000800000035
:1012ac000a0000000c0000000e00000010000000fe
:1012bc00120000001400000016000000576100002e
:1012cc007465000072200000546500006d70000011
:1012dc003a00000053740000656100006d200000ae
:1012ec00546500006d7000003a0000004772000069
:1012fc006f75000070200000546500006d700000d8
:10130c003a0000005072000065730000732000006a
:10131c00225300004554000022200000746f00008e
:10132c002053000065740000007400006865000024
:10133c002043000075720000726500006e7400009e
:10134c0020540000696d000065000000546100002d
:10135c006e6b0000204c000065760000656c000090
:10136c003a20000020000000202000002020000077
:10137c00004c00004f57000000530000686f000045
:10138c0074200000546900006d650000723a000082
:10139c002020000000200000202000002020000061
:1013ac00004f00004e200000004f00004646000099
:1013bc0000000000ff81000081810000818100009d
:1013cc008181000081810000818100008181000009
:1013dc00818100008181000081ff0000818100007b
:1013ec0081ff0000cbc3000081fd000085f90000e7
:1013fc0081850000bfc5000081b90000d5d900006f
:10140c0081f900008585000081ff000081810000ca
:10141c00ffc30000bd810000b9c50000b981000008
:10142c00fdb10000fd810000fd850000f981000088
:10143c0081ff00008181000081810000818100001a
:10144c00fdc10000fd810000fda500009981000098
:10145c00818100008181000081ff00005375000034
:10146c006e0000004d6f00006e000000547500000f
:10147c00650000005765000064000000546800001f
:10148c007500000046720000690000005361000006
:10149c00740000004e5500004c0000004a41000052
:1014ac004e00000046450000420000004d41000087
:1014bc005200000041500000520000004d4100005d
:1014cc00590000004a5500004e0000004a5500002b
:1014dc004c0000004155000047000000534500003f
:1014ec00500000004f430000540000004e4f00001d
:1014fc005600000044450000430000002800000096
:10150c002a0000002c0000002e000000300000001b
:10151c0032000000340000003600000038000000eb
:10152c003a0000003c0000003e00000040000000bb
:10153c00420000004400000046000000480000008b
:10154c004a0000004c0000004e000000500000005b
:10155c00520000005400000056000000580000002b
:10156c005a0000005c0000005e00000022450000f4
:10157c006e74000065720000222000003d20000007
:10158c006e6500007874000020460000696500005c
:10159c006c64000000550000702f0000446e0000c9
:1015ac00207400006f20000063680000616e000072
:1015bc006765000020540000696d000065000000a4
:1015cc002626000000200000202000002626000017
:1015dc00260000002020000020200000262600000d
:1015ec00002000002020000000200000202000002f
:1015fc002626000000530000746100007274000085
:10160c002f530000746f000070200000666f000004
:10161c007220000000550000702f0000446e000086
:10162c00204b00006579000073200000746f0000ef
:10163c0020630000686f00006f73000065000000fd
:10164c00456e000074650000722000004b650000c0
:10165c0079200000746f00002053000065740000b6
:10166c0000530000746100007274000020480000f8
:10167c006f750000722000003d2000000053000038
:10168c007461000072740000204d0000696e00004f
:10169c0075740000652000003d2000000053000020
:1016ac00746f000070200000486f0000757200001d
:1016bc00203d000000530000746f000070200000fb
:1016cc004d6900006e75000074650000203d00003f
:1016dc0000000000010100000000000000000000fc
:1016ec00630c00001f060000173b00003b000000cd
:1016fc00ff810000ddd50000f5810000fdd5000064
:10170c00c581000085fd000085810000ff8100007f
:10171c00fdb50000cd810000fdd50000c5810000a5
:10172c00ddd50000f5810000fdd50000c58100006d
:10173c0085fd000085810000ff810000ddd50000e3
:10174c00f581000085fd000085810000fdd50000bd
:10175c00d5810000f9ad0000f9810000fd99000071
:10176c00fd810000ffff00008181000083ff00006d
:10177c0083810000c9fb0000c1810000fdb900009d
:10178c00fd810000b9d50000d9810000ff81000067
:10179c00fdb50000cd810000fdd50000c581000025
:1017ac00ddd50000f5810000fdd50000c5810000ed
:1017bc0085fd000085810000ff81000081c50000cf
:1017cc00cbb3000081850000bfc5000081e10000a3
:1017dc009987000081c50000cbb3000081fd00009b
:1017ec00a599000081810000ff81000081ff0000ad
:1017fc00938d000081810000c3ff0000c3810000b5
:10180c0081ff0000c3bd000081810000ffff0000cc
:10181c0081810000818100008181000081810000b4
:10182c0081810000818100008181000081810000a4
:10183c0081810000ff81000081810000ffcb00004e
:10184c00c3810000fd850000f981000085bf000008
:10185c00c5810000b9d50000d9810000f9850000d0
:10186c0085810000ff81000081ff0000c3bd0000e6
:10187c0081b90000c5b9000081fd0000b1fd000078
:10188c0081fd000085f9000081810000ff810000ce
:10189c00818100008181000081fd0000c1fd0000fc
:1018ac0081fd0000a599000081810000818100006c
:1018bc0081810000ff220000546900006d6500006a
:1018cc0022200000536500007473000020540000b7
:1018dc00696d00006500000022530000545c00009c
:1018ec005350000022200000666f000072200000a0
:1018fc0041750000746f00002053000065740000f7
:10190c000022000050490000442200002066000024
:10191c006f72000020540000756e0000696e0000ac
:10192c00670000005049000044200000536500008f
:10193c0074740000696e000067730000206600007c
:10194c006f72000000550000702f0000446e000004
:10195c00204b00006579000073200000746f0000bc
:10196c0020430000686100006e6700006500000005
:10197c0020200000224500006e74000065720000fb
:10198c0022200000746f00002041000063630000ff
:10199c0065700000742000000053000065740000a6
:1019ac00506f0000696e0000742000003d200000a4
:1019bc0000470000616900006e2000003d0000003f
:1019cc00496e00007465000067720000616c0000d5
:1019dc00203d0000004400006572000069760000a4
:1019ec006174000069760000652000003d00000075
:1019fc0000000000000000004e0000000600000087
:101a0c0006ff0000ffff000048d600002412000073
:101a1c0008240000207800002000000006000000d0
:101a2c003844000082820000443800001408000092
:101a3c003e10000038100000a060000000100000f4
:101a4c00101000006060000000600000180600002c
:101a5c007c4200007c4400007e4000006452000088
:101a6c004c4a00004a340000382400007e4e00002e
:101a7c004a3200003c4a0000326200001a060000a4
:101a8c00764a0000764c0000523c00006c6c000062
:101a9c0000ac00006c00000010280000442800007e
:101aac0028280000442800001002000059060000fd
:101abc00ffff0000ff7c0000127c00007e5a00003b
:101acc00343c0000424200007e4200003c7e00009c
:101adc004a4200007e0a00000a3c0000523400001a
:101aec007e0800007e4200007e4200003040000074
:101afc003e7e0000186600007e400000407e000024
:101b0c001c7e00007e0200007e3c0000423c000077
:101b1c007e1200000c7e000062fe00007e3200008f
:101b2c004e4400004a320000027e0000027e00009b
:101b3c00407e00003e4000003e7e0000387e0000eb
:101b4c0066180000660e0000700e0000625a00005d
:101b5c00460000007e4200000618000060420000b3
:101b6c007e00000004020000044000004040000021
:101b7c000002000004740000547800007e4800004d
:101b8c003030000048480000304800007e3800002b
:101b9c00545800007c0a000002980000a47c00004d
:101bac007e080000704800007a40000088fa0000af
:101bbc00007e000018640000427e0000407c0000a3
:101bcc00387c00007c0400007838000044380000a9
:101bdc00fc2400001818000024fc0000780400000d
:101bec000448000054240000043e0000447c000023
:101bfc00407c00003c4000003c7c0000307c00003d
:101c0c006c1000006c9c0000a07c00006454000070
:101c1c004c0400000a040000ffff0000ffff00005e
:101c2c00ffff0000ffff0000ffff0000ffff0000b0
:101c3c00ffff0000ffff0000ffff0000fc40000062
:101c4c007cff0000ffff0000ffff0000ff00000012
:101c5c0045520000520000004556000000500000a4
:101c6c004944000020490000005000004944000095
:101c7c00204400000072000065730000756c0000c9
:041c8c0074000000e0
:020000040000fa
:101c90006c00fa00889fbe002d0e0700910c070013
:101ca000af0c07000040eb00004f78000040eb0055
:101cb000004f78001a0037001e80fb0080004000b3
:101cc000e09528000080400010007800cc0d07004f
:101cd000800478001e80fb00800040008095280072
:101ce0000080400010007800c50d07000004780057
:101cf0001e80fb00800040002095280000804000ee
:101d000010007800be0d0700800078001e407800ab
:101d10008901780008017800f20707001e4fe800eb
:101d20001e407800e24f5000e3ff36000000eb0059
:101d3000400798000040eb00104798000040eb007f
:101d4000204798000040eb0030479800ee00470025
:101d50000b0009008018eb000000eb003017980022
:101d60000000eb00401798000000eb0050179800af
:101d70000040eb00404798006000b80060179800f2
:101d8000711798006000b800001f9800111f98009c
:101d90006000b800201f9800311f98000040eb0041
:101da000204f98000e0178008203b000080009005f
:101db0000019eb000000eb00502798000000eb003a
:101dc000602798000000eb00702798000000eb00ef
:101dd000300798000000eb00002f98000000eb0097
:101de000102f98000000eb00202f98000000eb005f
:101df000302f980040472000402f98000000eb0053
:101e0000502f98000000eb00602f98000000eb00be
:101e100060079800b203200051c0b300e0712800b1
:101e2000c40a070041c0b30020c0b300b20a0700d3
:101e300000c2b300d70a07005116800000802000be
:101e40000080600000f0a7000000ea000000e90048
:101e50004f00de00401f9800511680000040200017
:101e60000080600000f0a7000000ea000000e90028
:101e70004f00de00501f980011168000000820005f
:101e80000080600000f0a7000000ea000000e90008
:101e90004f00de00601f9800911680000020200097
:101ea0000080600000f0a7000000ea000000e900e8
:101eb0004f00de00701f9800e00520000e0040007b
:101ec000f4030700a1872000e2052000020147007b
:101ed00006000900b218780090002000610d07008c
:101ee000e70b07006efa0700000078003017980033
:101ef0006e149000fe1490004e4090000080fb0095
:101f0000000040000000470070009000cf80de001d
:101f10007efa07000001be000800be009ff907001e
:101f200060179800711798004e4090000080fb00e9
:101f3000be10900000004000000047006e0040000e
:101f4000010878006e149000fe1490004e4090003e
:101f50000080fb000000400000004700700090007f
:101f6000cf80de0069fa07000001be000800be0055
:101f70008bf9070060179800711798006e10900099
:101f8000fe1090000200200003082400e1f9070081
:101f900043fa070000007800504488000000eb007e
:101fa000300d07005f0b07003dfa070000007800c6
:101fb000401798000e1c90009e1c90004e40900010
:101fc0000080fb006400400000004000000047006b
:101fd00070009000cf80de004cfa07000001be00c8
:101fe0000800be006df90700001f9800111f98003f
:101ff0004e4090000080fb00ce1090006400400036
:1020000000004000000047006e004000010878001a
:102010000e1c90009e1c90004e4090000080fb0023
:102020006400400000004000000047007000900085
:10203000cf80de0035fa07000001be000800be00b8
:1020400057f90700001f9800111f98000e18900004
:102050009e1890000200200003082400adf907003c
:102060000ffa07000000780060448800400020005c
:10207000fc0c07002b0b070009fa07000000780092
:10208000501798002e1c9000be1c90004e409000ef
:102090000080fb0068004000000040000000470096
:1020a00070009000cf80de0018fa07000001be002b
:1020b0000800be0039f90700201f9800311f980062
:1020c0004e4090000080fb00de1090006800400051
:1020d00000004000000047006e004000010878004a
:1020e0002e1c9000be1c90004e4090000080fb0013
:1020f00068004000000040000000470070009000b1
:10210000cf80de0001fa07000001be000800be001b
:1021100023f90700201f9800311f98004e409000bf
:102120000040e800404798004e409000e34f5000c8
:10213000020036000040eb00404798002e18900047
:10214000be189000020020000308240071f9070067
:10215000d3f907000000780070448800be009000aa
:1021600030448000808f50004001320030448000b5
:10217000300798002044800000017800104480005f
:102180008000780000448000c504070090e8b70094
:102190004e189000e10f50000300320090c8bf00bd
:1021a000e14f50000a003a0010002000002798007c
:1021b0004e189000e10f500002003a00ae28ef00e8
:1021c0000500370070458000704588000200370028
:1021d0000000eb00002798001e409000e94f5000df
:1021e000020034000000eb0000279800e00120000e
:1021f000600798006e009000ee0f500019003e003e
:102200001e4090000040e800104798002016800013
:102210000000d1006140600011c0b30000c0500058
:10222000614060000080fb00610060000000400031
:1022300022168000d1ff2f00810061000100700094
:10224000201688001e409000ea4f50000d00340018
:10225000a0c0b30010479800c422a9002016800037
:10226000080037001e4090000040e9001047980029
:102270001e4090000004e00002003d000040eb0022
:10228000104798001e409000e14f50000a003400b3
:102290002e409000e84f500003003400c562a900b2
:1022a0002016800004003700c562a8002e40900070
:1022b0000040e800204798004e2890000000e80009
:1022c000402f98000e2090000000e000ca0032006d
:1022d0009e2090000e209000808f50001000320051
:1022e000da090700b203200051c0b300e0712800f2
:1022f0009009070041c0b30010c0b3007e09070079
:1023000000c2b300a309070092a1a9009ca1a900e3
:10231000a6a1a9000000eb00402f9800c522a9004b
:10232000f0448000e10f50000b003a0011c0b300f0
:1023300040c0b3007009070080982800b609070064
:1023400021c0b30040c0b3006b090700b09928005a
:10235000b1090700c300370088c8bf000004e000cf
:102360000900320068448000a0448000240c07006b
:10237000080178008000780010c0b3007e060700d6
:1023800060279800b90037005844800090448000ce
:102390001b0c070008017800800078000040eb006b
:1023a000750607005027980068448000a04480000c
:1023b000130c0700080178008000780010c0b300fb
:1023c0006d0607006027980078448000b0448000c4
:1023d0000b0c0700080178008000780020c0b300d3
:1023e0006506070070279800e202070011c0b300dd
:1023f00020c0b30040090700c044800086090700e0
:1024000011c0b30040c3b3003b0907005044800033
:102410008041eb0012c0b30041c0b3009c0907002b
:10242000b0c7b3005b09070060c4b30059090700d7
:1024300021c0b30020c0b3002f090700d0448000a2
:102440007509070021c0b30040c3b3002a09070083
:10245000604480008041eb0012c0b30041c0b30073
:102460008b090700b0c7b3004a09070060c4b30076
:10247000480907001e2890000000e0004e003a00c6
:102480004e2090000000e800402798004e20900069
:10249000e40f5000160034004e209000650010003c
:1024a0004027980031c0b30020c0b30012090700d4
:1024b000e04480005809070031c0b30040c3b300b6
:1024c0000d090700704480008041eb0012c0b3008a
:1024d00041c0b3006e090700b0c7b3002d09070063
:1024e00060c4b3002b09070000c2b300290907002c
:1024f0004e209000e10f50005a00340031c0b3006c
:1025000020c0b300fc080700c09a28004209070059
:102510006e0090008041eb000041eb0080c0eb00ba
:102520005b09070050c2b3001a090700a09b2800ee
:10253000390907006e009000f80f500049003e0076
:102540002e20900061001000202798002e2090007f
:102550000000e0004300320031c0b30000c3b3000c
:10256000e5080700f09b28002b090700a09b280026
:10257000290907006e2890000000e800602f9800ed
:102580006e289000fd0f500036003600c422a800cf
:102590005e1890000000e00003003a00004c2d009f
:1025a00011002000040c0700c422a9000000eb0069
:1025b000602f98002b00370031c0b30020c0b3005b
:1025c000cd080700309c28001309070031c0b30074
:1025d00000c3b300c80807001e2890008041eb002c
:1025e00012c0b30080c0eb0029090700109d28002d
:1025f000090907001b003700821f20008040eb0004
:1026000090752800cb08070041c0b30010c0b3008c
:10261000b908070000c2b300de080700ce2890000a
:10262000004b200000804000402f9800c442a900c9
:10263000cd22a900c462a900c422a900c562a900d4
:102640000000eb0070279800cd02a90092a1a8001d
:102650009ca1a800a6a1a8000000eb00102f9800e4
:102660008968ef000e2090001027980088c8bf00ee
:102670000004e0001100320011c0b30020c0b3001c
:102680009d080700d0448000e308070011c0b30094
:1026900000c3b30098080700604480008041eb004d
:1026a00012c0b30041c0b300f9080700b0c7b300bf
:1026b000b808070060c4b300b60807000e209000f9
:1026c0000000e00057013200204480000000e000dc
:1026d00005003a0030448000e40f500002003e0044
:1026e000c562a80001003700c562a9005e289000fd
:1026f0000000e800502f9800de289000800c200099
:10270000808f5000020036000000eb00502f980030
:102710007e209000800078005e289000808f50001e
:1027200002003600cd02a80001003700cd02a9004a
:102730003e2090000000e000320032006e20900049
:10274000500d88006e1890000000e0000e0032006e
:10275000cd22a800510d800000db21000080400048
:10276000500d88006144800080bb2000808f5000a5
:102770000200360010002000500d8800500220009a
:10278000b00c880001003700cd22a900510d800057
:102790005e2090008080500050e8210000804000c2
:1027a000000d88005e20900080007800000d800001
:1027b0008080400040e82100808f500004003600f7
:1027c00040e82100f00c8800f00c80000700370082
:1027d0005e20900080007800000d800000804000a6
:1027e0000000e800f00c8800f00c800051c0b3003d
:1027f00040c4b30040080700709d28008608070009
:102800000b00370051c0b30040c4b3003a080700c2
:10281000b09d280080080700cd22a900aa21ef0062
:102820005e20900051e8210000805000000d8800db
:102830005e1890000000e0008300320020002000bd
:10284000000d88000000eb00402f980011e1a80067
:102850000000eb00302f98000e289000f90f500078
:1028600006003e00c462a800a0052000b00c88004d
:1028700089c8bf000040e80089e8b7000e28900032
:10288000f90f5000060036008e28900070032000db
:10289000808f500002003e009621ef008968ef0013
:1028a0008e28900070032000808f500017003600a3
:1028b0008e28900050052000808f500013003e00ad
:1028c000b10c800000102000808f50000f003e00ef
:1028d0003e4090000040e800304798003e409000a5
:1028e000e54f500009003600b10c8000f00f2000c9
:1028f000808f500003003e00b00c8000700040004c
:10290000b00c88000040eb00304798008e28900003
:1029100050052000808f5000120036008e28900055
:1029200010322000808f50000e003e00b00c80005e
:10293000f90f50000b0036003e4090000040e800c8
:10294000304798003e409000ef4f500005003600a1
:10295000b00c80000080e900b00c88000040eb0063
:10296000304798008e289000c0172000808f5000bc
:1029700002003600a0012000b00c88008e289000d4
:1029800080252000808f5000010036009621ef0046
:102990008e28900020352000808f500001003600e6
:1029a000c422a8008e28900070352000808f50002f
:1029b00006003600c422a900a0332000002f980092
:1029c0002e2890000000e800202f98002e2890006c
:1029d000e90f500005003600c422a8009025200011
:1029e000002f9800a0002000202f980021048000d4
:1029f00000082000008060000000e0000b003200b2
:102a00000e2890000000e800002f98008e2890000b
:102a100070032000808f5000030036001e289000b5
:102a20000000e800102f980084e0a900b10c80009d
:102a3000400620000088b900000078004800de0051
:102a4000400798006d00370089c8bf000004e0000f
:102a50005a00320020002000000d88000000eb002a
:102a6000402f980011e1a8000e289000f90f5000a7
:102a700003003e00c462a800a0052000b00c88003e
:102a80000e289000f90f5000050036008e289000a7
:102a900070032000808f500001003e009621ef005f
:102aa0008e28900070032000808f500017003600a1
:102ab0008e28900050052000808f500013003e00ab
:102ac000b10c800000102000808f50000f003e00ed
:102ad0003e4090000040e800304798003e409000a3
:102ae000e54f500009003600b10c8000f00f2000c7
:102af000808f500003003e00b00c8000700040004a
:102b0000b00c88000040eb00304798008e28900001
:102b100050052000808f5000120036008e28900053
:102b200010322000808f50000e003e00b00c80005c
:102b3000f90f50000b0036003e4090000040e800c6
:102b4000304798003e409000ef4f5000050036009f
:102b5000b00c80000080e900b00c88000040eb0061
:102b6000304798008e28900080112000808f500000
:102b7000020036009621ef008968ef0021048000f2
:102b800000082000008060000000e0000400320027
:102b90000e2890000000e800002f980084e0a900b3
:102ba000b10c8000400620000088b90000007800c9
:102bb0004800de004007980010003700c462a900fa
:102bc000c422a9000000eb00202f980011e1a90009
:102bd0000000eb00002f98003e2890000000e80065
:102be000302f9800be289000f0f92000808f500010
:102bf000020036000000eb00102f98007e189000b5
:102c00000000e00006003200c442a80000102000ce
:102c1000b00c880020002000000d88000100370063
:102c2000c442a9005e1890000000e0000a003a00cb
:102c30006e1890000000e00007003a007e18900037
:102c40000000e00004003a0089c8bf000004e00072
:102c500001003a009621ef00f8080700204f980085
:102c60002e4890000004e00009003200cd02a900c7
:102c700092a1a8009ca1a800a6a1a800c522a90015
:102c80000000eb00402f9800200020001027980043
:102c90002e489000e14f500001003a00ac050700bb
:102ca0002e489000e24f500013003a00de07070064
:102cb00000a82100610020003f0a07006307070009
:102cc0000000eb00402f9800b203200051c0b30079
:102cd000e071280017070700f1c4b30050c0b3002b
:102ce0000507070000c2b3002a07070000482800b4
:102cf000e1012000300a07002e489000e34f500009
:102d000004003a000000eb0030279800200020006b
:102d1000102798002e489000e44f500004003a001d
:102d20001000200030279800200020001027980075
:102d3000ce289000f04a2000808f5000040036001a
:102d4000c522a800004b2000402f9800010037004a
:102d5000c522a9000060fe0037fc37000600fa001b
:102d600020079800ae009000010f78000000eb00f3
:102d7000100798001e007800e90f5000060036008a
:102d80009e0078006a8f50001e0090007000400086
:102d900010079800f7ff37001e0090001e0040004b
:102da000100798001e0090000080fa000000060046
:102db0000400fa00100798009e009000010f7800b0
:102dc0001e0078000000d100000f7800800720006e
:102dd0001e0f60001e0078004200de009e004000d2
:102de0001e0090006f006000008040000080fa002c
:102df000000006000000fa0023002000610420000b
:102e00007205200024742000014a7800024a7800ec
:102e1000034a780050052000303b8800a00a2000bb
:102e2000303b880027a6a80027e6a90031318000a2
:102e30000030200001007000303188007001200057
:102e4000203188002022210020318800605120009c
:102e50002031880000932200203188002826ef00ce
:102e600026e6a80026c6a90026a6a9002686a9004f
:102e70002666a8002646a8002626a8002606a80042
:102e800027e6a80027a6a9009bc0a8000080fa009a
:102e9000000006001400fa00881f78000004780083
:102ea000000000003131800000002100008060003f
:102eb0000000e000fbff3a003131800000302000cc
:102ec000010070003031880020318000b8ff070019
:102ed0003007980021318000010f78001e00780033
:102ee0004800de00b2ff070040079800f00f200006
:102ef0001e006000aeff07005007980021318000df
:102f0000110798001e0090004800de00a8ff07008f
:102f1000600798009e009000f00f20000080600085
:102f2000a3ff070070079800213180002107980057
:102f30002e0090004800de009dff0700000f980063
:102f4000ae009000f00f20000080600098ff0700a6
:102f5000100f9800e600470006000900311c7800b9
:102f6000e800b100080078004f0478000080fa0003
:102f7000000006000e00fa000e007800c5ff0700f2
:102f800041c0b30020c0b3005b0607001e007800fc
:102f90008041eb000041eb0021c0b300bc060700fc
:102fa000f0c2b3007b0607001e00900080004000c6
:102fb000e0802000008040001000780096060700a6
:102fc000f0c2b300730607002e0090008041eb00b2
:102fd0000041eb0021c0b300ad06070041c0b300c3
:102fe00070c2b300440607003e009000800040001d
:102ff0000080200000804000100078008606070056
:1030000041c0b30040c3b3003b0607004e00900030
:103010008041eb000041eb0021c0b3009c0607009b
:10302000a0c3b3005b0607005e0090008041eb0088
:103030000041eb0021c0b30095060700a0c3b30018
:10304000540607006e0090008041eb000041eb0049
:1030500021c0b3008e0607000080fa0000000600c1
:103060003000fa00889fbe006600470089ff070015
:103070003e039000ce0290005e029000ee019000b0
:103080007e0190008e0890001e089000260f980088
:10309000350f9800440f9800530f9800620f980066
:1030a000710f98000017980021022000810047004e
:1030b000f2b6280006000900b258780091022000fc
:1030c0008100470062b7280006000900b258780066
:1030d0000040eb00004f78000040eb0010479800e4
:1030e0000000eb0010079800e50037001e0090007c
:1030f0000000e0000a003a005406070042052000e4
:1031000051c0b300009e28000a06070041c0b3006a
:1031100010c0b300f805070000c2b3001d06070089
:103120001e0090000000e800100798009e0090002c
:1031300000712200808f5000050036000000eb0077
:10314000100798004106070010c0b3001047980010
:103150002e089000300798003e0890004007980025
:103160004e089000500798005e0890006007980095
:103170006e089000700798007e089000000f98007d
:103180000e109000100f98007aff070011c0b300d6
:1031900040c0b300d8050700c0ab28001e060700da
:1031a00021c0b30040c0b300d305070010ad280014
:1031b000190607001e4078000004e00005003a00f0
:1031c00031c0b30020c0b300cb05070060ae2800bb
:1031d000110607001e407800e14f500005003a003c
:1031e00031c0b30020c0b300c305070090ae280073
:1031f000090607001e407800e24f500005003a0023
:1032000031c0b300e0c0b300bb05070000af280029
:10321000010607001e407800e34f500005003a0009
:1032200031c0b300b0c1b300b305070090ae2800b1
:10323000f90507001e407800e44f50000a003a00ec
:1032400031c0b30070c2b300ab05070070af2800f7
:10325000f105070031c0b30040c3b300a605070065
:1032600060ae2800ec0507001e407800e54f5000d6
:1032700005003a0031c0b30040c3b3009e0507000b
:10328000b0af2800e40507001e407800e64f50006c
:1032900005003a0031c0b30000c4b3009605070032
:1032a000b0af2800dc05070064070700404798001e
:1032b0004e4090000000fb00e30f5000240032005d
:1032c000e40f500003003200e20f50003f003200d4
:1032d000470037001e80fb00000040000000470050
:1032e000a00890001e80fb000000470010689000be
:1032f0000080fb00808f50000a003a001e80fb0017
:103300009e80fb0081004700a16090008180fb004f
:1033100000004000000047007400400001087800f1
:10332000330037001e80fb009e80fb008180400040
:1033300081004700a10890008100e80000004000e3
:1033400000004700740040000108780028003700a2
:103350001e80fb000000400000004700a008900015
:103360001e80fb0000004700206090000080fb00f2
:10337000808f50000a003a001e80fb009e80fb00f8
:1033800081004700916890008180fb0000004000b0
:103390000000470074004000010878001400370066
:1033a0001e80fb009e80fb00818040008100470062
:1033b000a10890008100e9000000400000004700e3
:1033c0007400400001087800090037001e407800b2
:1033d000e64f500004003a009c05070010c0b300ff
:1033e00010479800020037001e4fe8000000000060
:1033f00058052000383b8800a80a2000383b880088
:1034000027a6a80027e6a90031318000003020005f
:1034100001007000303188003e0090004ffe070030
:10342000203188004e0090004cfe0700c804dd00eb
:103430005e00900049fe07000080440020318800b3
:103440006e00900045fe0700c804dd007e0090007d
:1034500042fe070000804400203188000e089000e2
:103460003efe0700c804dd001e0890003bfe07007a
:10347000008044002031880027e6a80027a6a90084
:103480001e4090000004e00018ff32006f050700a6
:103490009e28ef004f04be000080fa0000000600e6
:1034a0000600fa00000f7800110798002207980024
:1034b0001e0078008000400040a8280000804000e6
:1034c00010007800ce070700e10f400002003a002c
:1034d000ae28ef00140037001e0078008000400086
:1034e00040a828000080400010007800c4070700b2
:1034f0009e009000810f50000b003a001e007800e3
:103500008000400020a928000080400010007800c2
:10351000bb070700ae009000810f500002003a0088
:1035200010002000704588001e00780080004000d8
:1035300000aa28000080400010007800b0070700b3
:103540009e009000810f50000a003a001e00780093
:1035500080004000e0aa28000080400010007800b1
:10356000a7070700ae009000810f500001003a004d
:10357000ae28ef0070458000004078000080fa001f
:10358000000006000200fa000000eb00000f7800c7
:10359000b168ef0047003700a8060700b1e8b700a0
:1035a000c05d20009e007800808f500093003c009a
:1035b000b1c8bf000080fb00e30f500005003200df
:1035c000e40f50000b003200e10f50008d0032007c
:1035d00014003700b0c8bf000040e900b0e8b700f1
:1035e000b0c8bf000004e0000b003d00b068ef0071
:1035f0000c003700b0c8bf000040e800b0e8b700da
:10360000b0c8bf00e64f50000500340060c0b300f2
:10361000b0e8b700030037000000000001003700e9
:10362000000000001e007800e20f50000a003c007d
:10363000060507004205200051c0b300009e280087
:10364000bc04070041c0b30010c0b300aa040700c7
:1036500000c2b300cf04070011c0b3000040eb006c
:10366000a504070010b02800eb040700b0c8bf0095
:103670000000fb008000400000802000008040002f
:1036800010007800e404070031c0b3000040eb00f4
:103690009904070010b12800df04070041c0b300ff
:1036a0000040eb009404070060b22800da04070031
:1036b0001e0fe800b1c8bf00e24f5000b6ff3a004d
:1036c000e20407004205200051c0b300009e28001c
:1036d0009804070041c0b30010c0b300860407007f
:1036e00000c2b300ab040700b0c8bf000000fb007d
:1036f0008000400040a828000080400010007800b2
:103700003f07070000407800440007008000fb00ee
:10371000b0c8bf000000fb000001400040a8280026
:10372000000041001000780016070700b0c8bf0075
:103730000000fb008000400020a92800008040001d
:10374000100078002e070700004078008000070076
:103750008000fb00b0c8bf000000fb00000140007b
:1037600020a928000000410010007800050707008c
:10377000b0c8bf000000fb008000400000aa280085
:1037800000804000100078001d070700004078000e
:10379000bb0007008000fb00b0c8bf000000fb00ba
:1037a0000001400000aa280000004100100078003d
:1037b000f4060700b0c8bf000000fb008000400016
:1037c000e0aa280000804000100078000c070700e5
:1037d00000407800f70007008000fb00b0c8bf0081
:1037e0000000fb0000014000e0aa280000004100aa
:1037f00010007800e3060700030037000000000017
:103800000100370000000000900407000000eb00fa
:10381000000f78000080fa00000006000600fa00a1
:10382000404798000000eb00000f7800ce40900069
:10383000214798000040eb0030479800ff05070043
:10384000304798003a003700fc05070030479800e1
:103850001e0fe80000a62e000100200056070700fa
:10386000401f20009e007800808f5000040034002c
:103870000000eb00000f780020c0b3003047980034
:1038800011c0b3000040eb001b04070070b3280018
:103890006104070011c0b300d0c3b30016040700d1
:1038a0002e4090000000fb008041eb000041eb0047
:1038b00021c0b3007604070000c2b300350407003e
:1038c0003e4090000000fb00e30f50000300320078
:1038d000e40f50000a003200150037002e4090001f
:1038e0000040e900204798002e409000e14f400042
:1038f0000c003d0070c1b300204798000c00370059
:103900002e4090000040e800204798002e40900094
:10391000f74f50000500340000c0eb00204798002e
:103920000300370000000000010037000000000025
:103930003e409000e24f5000c3ff3a000000eb0011
:10394000000f78002e4090000080fa000000060072
:103950000600fa00404798000000eb00000f7800d6
:10396000ce409000214798000040eb00304798007f
:10397000b20507003047980039003700af0507004f
:10398000304798001e0fe800003e2900410020004b
:1039900009070700c05d20009e007800808f50005e
:1039a000040036000000eb00000f780020c0b300d8
:1039b0003047980021c0b3000040eb00ce03070061
:1039c00050b428001404070021c0b300d0c3b300d2
:1039d000c90307002e4090000000fb008041eb006f
:1039e0000041eb0021c0b300290407003e409000d5
:1039f0000000fb00e30f500003003200e40f500012
:103a00000a003200160037002e409000654050003a
:103a1000204798002e4090000004e0000d003d007b
:103a200070c3b300204798000d0037002e4090006f
:103a30006540400020479800ae40900070c3b3003e
:103a400080cf5000050034000040eb002047980074
:103a500003003700000000000100370000000000f4
:103a60003e409000e24f5000c4ff3a000000eb00df
:103a7000000f78002e4090000080fa000000060041
:103a80000600fa00404798000000eb00000f7800a5
:103a9000ce409000214798000040eb00304798004e
:103aa00066050700304798003a00370063050700b5
:103ab000304798001e0fe800003e2900410020001a
:103ac000bd060700c05d20009e007800808f50007a
:103ad000040036000000eb00000f780020c0b300a7
:103ae0003047980031c0b3000040eb00820307006c
:103af00050b52800c803070031c0b300d0c3b300dd
:103b00007d0307002e4090000000fb008041eb0089
:103b10000041eb0021c0b300dd03070000c2b30089
:103b20009c0307003e4090000000fb00e30f5000a4
:103b300003003200e40f50000a0032001500370085
:103b40002e4090000040e900204798002e40900051
:103b5000e14f40000c003d0070c1b30020479800c9
:103b60000c0037002e4090000040e80020479800ed
:103b70002e409000f74f50000500340000c0eb00cd
:103b800020479800030037000000000001003700c4
:103b9000000000003e409000e24f5000c3ff3a009a
:103ba0000000eb00000f78002e4090000080fa002b
:103bb000000006000600fa00404798000000eb00f5
:103bc000000f7800ce409000214798000040eb00a5
:103bd0003047980019050700304798003900370032
:103be00016050700304798001e0fe800003e290028
:103bf0004100200070060700c05d20009e00780094
:103c0000808f5000040036000000eb00000f7800a9
:103c100020c0b3003047980041c0b3000040eb0023
:103c20003503070010b628007b03070041c0b3002e
:103c3000d0c3b300300307002e4090000000fb000b
:103c40008041eb000041eb0021c0b300900307006e
:103c50003e4090000000fb00e30f500003003200e4
:103c6000e40f50000a003200160037002e4090008a
:103c700065405000204798002e4090000004e0006e
:103c80000d003d0070c3b300204798000d003700c1
:103c90002e4090006540400020479800ae409000c4
:103ca00070c3b30080cf5000050034000040eb002b
:103cb0002047980003003700000000000100370093
:103cc000000000003e409000e24f5000c4ff3a0068
:103cd0000000eb00000f78002e4090000080fa00fa
:103ce000000006000800fa00004f78001107980055
:103cf00022079800330798001e00fb008000400058
:103d000060852000008040009e009000010878003f
:103d10001e00fb0080004000c085200000804000a5
:103d2000ae009000010878001e00fb0080004000fb
:103d30002086200000804000be009000010878002e
:103d40001e00fb00c200dd00c08220000081400098
:103d50006000b8000089be001e00fb00c200dd004c
:103d600040842000008140006000b8000089be004f
:103d70000080fa00000006001400fa00881f780096
:103d8000604f9800010f9800120f98000e089000e5
:103d90006101b8001e0890008000eb000000510097
:103da0008180590050079800610798006e48900084
:103db0000080fb0080004000608520000080400003
:103dc00010007800cf80de005e0190000191b90004
:103dd00002017800ee019000009ab9008401780099
:103de00003014100de0190000018b800010141000c
:103df00082007800100798002107980010079800ab
:103e0000210798006e4890000080fb008000400071
:103e10000085200000804000100078006101b9009a
:103e20001e009000ae009000800f5100818f59005d
:103e3000090034006e4890000080fb0080004000c4
:103e4000008520000080400010007800cf80de0058
:103e500010079800210798006e4890000080fb0032
:103e60008000400040872000008040001000780063
:103e70006101b9001e009000ae009000800f51005b
:103e8000818f590009003d006e4890000080fb00c2
:103e90008000400040872000008040001000780033
:103ea000cf80de0010079800210798006e48900030
:103eb0000084fb006e4890000080fb00c200dd0023
:103ec000c0822000008040001002be006e489000ba
:103ed0000080fb0080004000c08520000080400082
:103ee00010007800cf80de005e0190000191b900e3
:103ef00002017800ee019000009bb9008601780075
:103f000003014100de0190000018b80001014100ea
:103f1000820078000400400085804800c241dd0036
:103f2000c2822000028141000089be006e489000dc
:103f30000080fb00c200dd00c08220000080400045
:103f40001001be006e4890000080fb008000400021
:103f5000808620000080400010007800cf80de00c6
:103f6000800f5100818f59000d003d006e48900078
:103f70000081fb006e4890000080fb008000400044
:103f8000808620000080400010007800cf80de0096
:103f9000c211dd00c2822000028141000089be0002
:103fa0006e4890000080fb00c200dd00c08220004f
:103fb000008040001001be006e4890000080fb00b1
:103fc00080004000e0862000008040001000780063
:103fd000cf80de00800f5100818f59000d0034002a
:103fe0006e4890000081fb006e4890000080fb004e
:103ff00080004000e0862000008040001000780033
:10400000cf80de00c211dd00c282200002814100ab
:104010000089be006e4890000080fb00c200dd00f9
:1040200080832000008040001000be005e019000f0
:10403000ee01900000015100818159006e4890000e
:104040000080fb00800040002086200000804000af
:1040500010007800cf80de00009ab90004027800da
:10406000028bb90086027800050242000010b800f9
:104070000102420084007800300798004107980050
:1040800030079800410798006e4890000080fb00c0
:104090008000400040872000008040001000780031
:1040a0006101b9003e009000ce009000800f5100e9
:1040b000818f590009003d006e4890000080fb0090
:1040c0008000400040872000008040001000780001
:1040d000cf80de0030079800410798003e01900035
:1040e000ce01900000062f00f1ff2f00800f51003d
:1040f000818f590004003d0000062f00f1ff2f00c2
:1041000030079800410798006e4890000080fb003f
:10411000c200dd0080832000008040005e0190002e
:10412000ee0190000288be001e0190006e489000d3
:104130000080fb00c200dd00c08220000080400043
:104140001000be0000007800800041003e0090009a
:10415000008f40006e4890000080fb00800040000f
:104160000085200000804000100078009e0f500065
:10417000060034006e4890000080fb008000400084
:104180000085200000804000100f78006e489000ed
:104190000080fb008000400040872000008040003d
:1041a000100078009e0f500006003d006e48900001
:1041b0000080fb008000400040872000008040001d
:1041c000100f780088c8bf00e14f500052003a003d
:1041d0008040eb000040eb00c7010700e0e2280050
:1041e0000d0207008040eb0000c1b300c2010700d0
:1041f0005e0090008041eb000041eb0041c0b30045
:104200002302070000c2b300e20107008040eb0078
:1042100080c2b300b801070020e32800fe010700b8
:104220008040eb0040c3b300b30107001e009000c4
:104230008041eb000041eb0051c0b30014020700c5
:1042400000c2b300d301070021c0b3000040eb005f
:10425000a901070050e32800ef01070031c0b300b7
:104260000040eb00a40107006e4890000080fb00b6
:10427000c200dd00c0822000008040001000be00af
:10428000000078008041eb000041eb0051c0b3001a
:10429000ff01070000c2b300be01070021c0b30048
:1042a00000c2b30094010700b0e32800da01070060
:1042b00031c0b30000c2b3008f0107003e00900080
:1042c0008041eb000041eb0051c0b300f00107005a
:1042d00000c2b300af01070021c0b300a0c3b30008
:1042e0008501070010e42800cb01070031c0b300ae
:1042f000a0c3b300800107008041eb000041eb0048
:1043000051c0b3001e007800e101070000bc2f007f
:1043100091032000a80407001e0078004f047800d5
:104320000080fa00000006000000fa0003003700d9
:1043300089c8bf000040e80089e8b70089c8bf000d
:104340000004e000faff34000080fa0000000600dc
:104350001200fa00889fbe000040eb00004f78007a
:104360000000eb0010079800606d200030079800f7
:10437000a0a5200040079800a073200050079800d7
:10438000408320006007980080bb200070079800e1
:1043900060862000000f9800ac0107004205200055
:1043a00051c0b30090bb28006201070041c0b300b8
:1043b00010c0b3005001070000c2b3007501070030
:1043c00000902000d10320007b0407002800370064
:1043d00011c0b3000040eb004701070010c62800e1
:1043e0008d01070021c0b3000040eb00420107002f
:1043f00020c728008801070031c0b3000040eb004f
:104400003d01070070c82800830107000b03070067
:10441000004f78001e0090000000e8001007980090
:1044200000c4290001002000630407009e009000e2
:10443000401f2000808f50000d0034000000eb0072
:104440001007980081010700b203200051c0b3009b
:10445000e0b728003701070041c0b30010c0b30027
:104460002501070000c2b3004a010700150137000b
:104470001e4078000004e000d5ff32001e407800a6
:10448000e14f50000f003a00f5fa07000000eb0082
:10449000100798004205200051c0b300d0c028008a
:1044a0002401070041c0b30010c0b300120107008f
:1044b00000c2b3003701070000482800e1012000d6
:1044c0003d0407001e407800e34f500001003a0011
:1044d0002cfc07001e407800e24f5000f60032002e
:1044e0001e407800e44f500000013a000040eb000d
:1044f000404798000000eb001007980053010700a8
:104500004205200051c0b300d0c0280009010700b7
:1045100041c0b30010c0b300f700070000c2b300f1
:104520001c01070045003700c4020700004f780057
:1045300000c42900010020001f0407009e00900015
:10454000401f2000808f5000030034000000eb006b
:1045500010079800db0037001e00fb00e30f50003f
:1045600005003200e40f50000c003200e10f500053
:10457000d3003200150037004e4090000040e900a3
:10458000404798004e4090000004e0000c003d00c1
:104590000040eb00404798000c0037004e40900070
:1045a0000040e800404798004e409000e24f500025
:1045b0000500340020c0b3004047980003003700d6
:1045c0000000000001003700000000008040eb0008
:1045d0000040eb00c800070080c928000e0107005a
:1045e00011c0b3000040eb00c30007004e40900034
:1045f0000000fb0080004000808920000080400017
:10460000100078000401070031c0b3000040eb0047
:10461000b900070090ca2800ff00070041c0b3009e
:104620000040eb00b4000700e0cb2800fa000700d0
:104630001e0090000000e800100798001e4078005f
:10464000e24f5000b8ff3a00000107004205200089
:1046500051c0b300d0c02800b600070041c0b3006d
:1046600010c0b300a400070000c2b300c9000700d7
:1046700011c0b3000040eb009f00070030cd2800c0
:10468000e50007004e4090000000fb008000400065
:1046900020892000008040001000780058030700a7
:1046a000800078004e4090000000fb0000004000b9
:1046b00000004700600190004e4090000000fb00a9
:1046c0000000400000004700300090000102780028
:1046d000820178000001780011c0b300c0c2b300ad
:1046e000a5020700800078004e4090000000fb000b
:1046f00000014000208920000000410010007800e7
:104700002003070021c0b3000040eb007a0007003f
:10471000f0cd2800c00007004e4090000000fb00d4
:1047200080004000209528000080400010007800a4
:104730003303070000027800830c20000001eb0027
:1047400021c0b300c0c2b3008b0207008000780014
:104750004e4090000000fb00000140002095280022
:1047600000004100100078000603070031c0b300cc
:104770000040eb006000070060ce2800a6000700a4
:104780004e4090000000fb00800040008095280013
:104790000080400010007800190307000002780034
:1047a000431f20000001eb0031c0b300c0c2b300c2
:1047b00071020700800078004e4090000000fb006e
:1047c00000014000809528000000410010007800a2
:1047d000ec02070041c0b3000040eb0046000700b8
:1047e00010cf28008c0007004e4090000000fb0016
:1047f00080004000e0952800008040001000780014
:10480000ff02070000027800431f20000001eb00b8
:1048100041c0b300c0c2b300570207008000780057
:104820004e4090000000fb0000014000e095280091
:104830000000410010007800d20207004e409000b6
:104840000000fb0080004000e09528000080400050
:1048500010007800ea020700800478004e409000c3
:104860000000fb0080004000809528000080400090
:1048700010007800e2020700000478004e4090002b
:104880000000fb00800040002095280000804000d0
:1048900010007800da02070089017800080178002a
:1048a000800078004e4090000efd07000000eb00f5
:1048b00010079800030037000000000001003700d7
:1048c0000000000061000700b203200051c0b300e7
:1048d000e0b728001700070041c0b30010c0b300c4
:1048e0000500070000c2b3002a0007004f04be0005
:1048f0000080fa00000006000200fa00004f780075
:10490000114798001e4078000074a0008040780095
:104910000040eb00e30007001e4090000064a00090
:10492000804078000040eb00de0007000080fa00c5
:10493000000006000800fa001007980041479800a0
:10494000320798004e409000804078000040eb0015
:10495000e9ff07000000eb00000f780007003700b8
:104960001e0090001e00400010407800804078003b
:1049700010c0b300cb0007001e0fe8003e009000ff
:104980009e007800808f5000f5ff39000080fa000b
:10499000000006000400fa00204798002e40900016
:1049a0000000fb000002b100000f78001e0078003c
:1049b0006300b90000007800000f7800e0cf280005
:1049c0001e004000104078008040780010c0b30006
:1049d000b40007001e00e800e1cf28006140780025
:1049e0008040780010c0b300ae0007001e80e800d1
:1049f000e1cf2800614078008040780010c0b3000b
:104a0000a80007008040eb0010c0b300a50007001d
:104a10000080fa00000006000200fa00000f780093
:104a2000040037001e007800104078001e0fe800d8
:104a3000d8ff07001e007800104078000004e00056
:104a4000f8ff3a000080fa00000006000200fa00b9
:104a50000000eb00000f7800040037008040eb00fe
:104a600010c0b3008f0007001e0fe800701f200069
:104a70009e007800808f5000f8ff34008040eb00eb
:104a80000040eb009cff07000080fa0000000600d9
:104a90001000fa0050079800414f9800524f9800bc
:104aa000634f9800e4004700010009008018eb0004
:104ab0008058eb0040002000000f78000000eb0061
:104ac000100798005e0090000000e00006003d0026
:104ad000d0c2b300afff07005e0090000000ea0004
:104ae00050079800180037006e489000e14f5000c2
:104af00015003a00b0c2b300a6ff0700120037004d
:104b0000de009000a00020000001780011000900e4
:104b10008200d8008000fd008040780064004700db
:104b20001e004000014878005e019000706626007b
:104b30000090b900c288de004f90de000080500077
:104b4000500798001e0fe9005e0090000000e00092
:104b5000ebff3a004e489000e14f40000b003a0056
:104b6000030037001e0090000000e80010079800c6
:104b7000e40047001e0090000080400010407800d4
:104b80000004e000f7ff3200040037004e489000b8
:104b90000000fb0065001000100798009e009000c8
:104ba000010f780006003700640047001e00400037
:104bb000104078000043b00076ff07001e0fe800a9
:104bc0005e4890000000fb00650010009e0f500042
:104bd000f5ff3c005e489000e14f500005003a00b0
:104be000e0c2b3006bff07000e4890000043b00026
:104bf00068ff07005e489000e24f500008003a004e
:104c0000e0c2b30063ff07007e4090000043b000a5
:104c100060ff07000e4890000043b0005dff0700f2
:104c20000080fa00000006000000fa00d0a2a900ef
:104c3000d082a900d062a900d0e2a900d0c2a90008
:104c4000d482a900d4a2a900d462a900d4c2a90028
:104c5000d4c2a80011c2b3000040eb00110007004d
:104c6000d1cbb3000040eb000e00070041c0b30001
:104c70000040eb000b00070051c1b3000040eb0007
:104c80000800070001c2b3000040eb000500070068
:104c9000c1c0b3000040eb00020007000080fa0032
:104ca000000006000400fa002047980031479800f1
:104cb000be409000114798002e4090000004e00094
:104cc00002003a00d462a90001003700d462a800b3
:104cd000d4e2a9000040eb00004f78000b00370041
:104ce000d482a9001e4090000004e00001003d00b5
:104cf000d482a800d4a2a8001e409000004040002a
:104d000010479800d4a2a9001e4fe8001e4078006a
:104d1000e74f5000f2ff3600d4e2a8000080fa000e
:104d2000000006000200fa00000f78001e00780064
:104d30008000eb00f8ee07000001be0000002f002d
:104d4000f157240073ee07000200200003f823004f
:104d500012ee07000001be0000802600c1612400a1
:104d60006cee070000458800114588000045800072
:104d70001145800002802a00d361240065ee0700ff
:104d8000204588003145880020458000314580005d
:104d900036ef070020458800314588002045800017
:104da00031458000b2072100a357240059ee0700c7
:104db000204588003145880020458000314580002d
:104dc000f2f02c00b3b52300f5ed07002045880074
:104dd0003145880020458000314580000001be003b
:104de0000000200001f823004aee0700204588005b
:104df000314588002045800031458000323329004c
:104e000083382400e5ed07002045880031458800ff
:104e1000204580003145800002002000031224005c
:104e200069ef070020458800314588002045800053
:104e300031458000020020000311240062ef0700ca
:104e400002002000030a240032ee070002002000c6
:104e5000033a2400d2ed0700204588003145880040
:104e600020458000314580008dee0700000078006d
:104e70008000eb00a8ee07000080fa0000000600aa
:104e80000200fa00000f7800303320009e00780006
:104e9000808f500003003e0000002000a13f24004e
:104ea0000e003700c1cc2f001e8040008000eb00b8
:104eb00099ee0700d2cc2c00c3f8230015ee0700b2
:104ec00002002000a33f2400b5ed070053ee0700c9
:104ed00000007800cf80de008cee07000080fa0032
:104ee000000006000000fa0005e1a9000421a80066
:104ef00021088000f0cf2f0000806000200888008b
:104f000021088000f0fc2f00008060000050a0000d
:104f10002008880005e1a80011e1a90081088000af
:104f2000000320000100700080088800e0302000ad
:104f30006008880011e1a80013e1a9009108800031
:104f400000032000010070009008880040e8210064
:104f50007008880013e1a8000080fa000000060035
:104f60000000fa009621ef0000102000a00c88003d
:104f7000900c8000f001b300900c880092e1a90031
:104f8000810c8000f03f2e000080600000c0a00077
:104f9000800c88009821ef00810c800080ff2f009a
:104fa000008060006000b300800c8800aa21ef0040
:104fb00040e82100400d8800300d8000f001b30072
:104fc000300d8800a6e1a900210d8000f03f2e00e1
:104fd0000080600000a0a000200d8800210d80004e
:104fe00080ff2f00008060006000b300200d88006b
:104ff000a021ef0040e82100f00c8800e10c8000c7
:1050000000fe2f00008060000010a000e00c88006f
:105010009ce1a900d10c8000f03f2e0000806000d0
:1050200000a0a000d00c8800d00c80007000b3005d
:10503000d00c88000080fa00000006000000fa0092
:1050400070002000070107004045880041458000ae
:10505000c05d2000808f5000070036004145800071
:1050600090872000808f500003003e0010c0b300e6
:10507000aae8b7001e003700414580009087200055
:10508000808f5000070036004145800010a82000a6
:10509000808f500003003e0020c0b300aae8b70094
:1050a000130037004145800010a82000808f500079
:1050b0000700360041458000d0dd2000808f500081
:1050c00003003e0030c0b300aae8b7000800370074
:1050d00041458000e0dd2000808f50000300360055
:1050e00040c0b300aae8b70001003700aa68ef008b
:1050f000aac8bf000004e00019003200a18a200005
:1051000091407800abc8bf0080cf5000040032004f
:10511000aac8bf00abe8b700ac68ef0013003700c7
:10512000acc8bf000040e800ace8b700acc8bf00a6
:10513000e14f500002003a00abc8bf000c0037003e
:10514000acc8bf00ea4f50000700340000122a002c
:105150007100200018010700abc8bf000400370031
:10516000ac68ef0001003700000000000040eb00d9
:105170000080fa00000006000c00fa00404798008a
:105180005147980032079800430798005407980049
:10519000de009000010f7800a8ff0700204798006c
:1051a00032003700a5ff070020479800a045800087
:1051b0000000e800a045880000c42900010020008c
:1051c000fd000700a1458000803e2000808f500038
:1051d000040034001dfe0700b428ef000040eb007f
:1051e00020479800de4090004e409000c2fd07002e
:1051f0008041eb0012c0b30041c0b3001e00780034
:1052000023fe07002e4090000000fb00e30f50003b
:1052100003003200e40f5000090032001300370091
:105220001e0fe9003e0090009e007800808f500025
:105230000b003c00be009000010f78000b0037000f
:105240001e0fe8004e0090009e007800808f5000f6
:1052500005003500ce009000010f780003003700f4
:105260000000000001003700000000002e40900008
:10527000e24f5000cbff3a00b428ef001e00780048
:085280000080fa0000000600a6
:020000040000fa
:10528800a808000006000000000000005608000002
:10529800240000000200000032003200003200004a
:1052a8000f000f00000f000019001900001900007e
:1052b8009cff9c00ff0000006400640000140000d4
:1052c800831e84001ec800002c0800002a0000006d
:1052d80000000000ae08000006000000000000000a
:1052e800000800002c00000002000000348a38008a
:1052f8008a3c8a00408a44008a488a004c8a5000c6
:105308008a548a00588a5c008a608a00648a680025
:105318008a6c8a00708a74008a788a007c8a800085
:105328008a17370017370000a0080000080000009f
:1053380000000000b40800000200000000000000a7
:105348007a08000018000000000000009208000021
:105358000e0000000200000000000200000400002f
:1053680064897000897c890001000000b60800008b
:0c53780002000000000000000000000027
:020000040000fa
:105384000400fa00000f7800110798004000240080
:10539400003b8800f00720000040780032e0b700ae
:1053a40001e02f001e00780000804000000f78000c
:1053b4009e0090001e0078000108bb000500fc0060
:1053c40050052000303b8800a00a2000303b8800b4
:1053d40061e7a800000000000000000000000000d9
:1053e400013b800000002800008060000000e00015
:1053f400fbff3a000080fa00000006000200fa00f9
:10540400000f7800f00720000040780032e0b70079
:1054140001e02f001e00780000804000000f78009b
:105424001e0078001000ba000080fa000000060098
:105434000000fa0000402800001a88004223ef0010
:1054440050002000201a88004823ef005023ef006a
:1054540000042000701a88000080fa000000060092
:105464000400fa00100798009e009000411a88007a
:10547400401a8000fa0f500004003a005583a80037
:1054840000052000010020004a0007004023a80076
:105494004006200001002000460007004023a90028
:1054a4000100370085a0a900001a80006100600097
:1054b4000000e000fbff32005583a90001188000c2
:1054c400010f78001e0078000080fa00000006003a
:1054d4000200fa0060002000e1ff0700000f7800de
:1054e400b03120009e007800808f500003003c0003
:1054f4000000eb00000f78001000370020f82000b7
:105504009e007800808f5000030034004006200085
:10551400000f78000900370041ce2f001e804000a4
:10552400cf80de00f8ec070052b82e00d31f240011
:1055340077ec0700b8ec0700000f78001e00780035
:10554400004078000080fa00000006000000fa0025
:10555400100820000016880040c02800401688006b
:1055640030202000801688001000200000278800ca
:1055740040002800102788003000200020278800e1
:10558400c222ef00ca22ef00d222ef000020200046
