:020000040000fa
:080000000002040000000000f2
:020000040000fa
:100008009a0200009a0200009a0200009a02000078
:100018009a0200009a0200009a0200009a02000068
:100028009a0200009a0200009a0200009a02000058
:100038009a0200009a0200009a0200009a02000048
:020000040000fa
:020000040000fa
:100400008f8b20000eff20000e01880000000000ee
:10041000000020000000e000020032000001200087
:10042000200288000c000700008d2200010020003f
:1004300011000700000020000000e0000200320070
:100440000000020000000000180e02000000000082
:100450000040da000000fe004440a900a072200025
:100460000000e0000300320000002000a00188002e
:100470004440a80000000600910188008000780038
:100480000000eb0015003700e280400032a0b4000d
:100490009101ba00e280400032a0b4009102ba009b
:1004a000e280400032a0b4000002eb00472bde00e7
:1004b000f507b200602ce10004003a000059eb009f
:1004c0008301e900fdff3e00040037006128e100e0
:1004d000010032000082eb00040007001101ba00a5
:1004e0000200e000e8ff3a00000006003159ba00bf
:1004f0008301e9000c0032002159ba008301e900b0
:10050000080032000400e00003003a00e2804000ee
:1005100032a0b400f5ff370011d9ba008301e90019
:10052000faff3a008100e800e180400032a0b40008
:10053000000006000040da000000fe0003f0a20008
:10054000889fbe008a9fbe008c1f7800170107009d
:100550001e0133006450e1004f0032006420e100ce
:100560005200320003826c0007003b000905d000f6
:100570000306d000820f54000c065d000200390013
:100580000200320089017800030678008582550058
:1005900004003d000003fd008103fd008502ea0028
:1005a0008b854200840f720002003b006000100047
:1005b000e08018006011b8000005eb007a28e10027
:1005c0000a00390006007800c75ddd00f707b200b9
:1005d000878075002d003700828171000a01780044
:1005e000610560008180d1000080d3008502e900b0
:1005f000f9ff3b00060440008784480002003b00ee
:1006000060041400e0841c000988a3000700320085
:100610008a81710082817100610164008904d100c6
:100620000884d3008b05e800170037000978a30081
:1006300013003a000b00e000130034008b05e900c2
:100640000804440089844c000a4474000978a3001b
:100650000d003a000b00e000070034008b05e900b4
:100660000804440089844c0001003a000b0020007b
:100670000978a300f7ff32000001eb000200370009
:10068000828171000a0178008d0007000cf0a7003c
:1006900001f0a000d60037006420e10002003a001b
:1006a000838f6c00d60033000801be000200be003c
:1006b000cf003700889fbe008a9fbe008c1f780045
:1006c000ba000700c100330003866c006450e100eb
:1006d0002e0032006420e100330032006150e1005e
:1006e0002f0032006120e100310032008585550085
:1006f000eb07b000090020000804200005003700c7
:100700000804440089844c000a00310006034300b9
:1007100087834b000001530081815b00f8ff3300a9
:100720000203be000800a0000804440089844c00b5
:10073000f6ff3900c639dd00830173000100320085
:10074000130020008904d1000884d3000998a30075
:10075000050032000800a7000300a0008904d100b2
:100760000884d3008b05e8008904d1000884d300f5
:100770000001eb000281d2005100070001f0a1004e
:100780000cf0a70001f0a000990037006420e10000
:100790009b0032000801be000200be00f7ff3700d8
:1007a0006120e100960032006000b800f3ff3700de
:1007b0000000200001f82700f0ff37000001be0014
:1007c000650007000470a70003f0a1006509b100ef
:1007d000160032000d0035006828e10006003500e3
:1007e000f0ff2f00f1ff27000300e00013003b00a3
:1007f0000100280000000500000040008180480042
:100800008502e900fcff3a0008003700f88f42003b
:1008100002003c008000eb00000005008100d100d8
:100820000080d3008502e800fcff3a000300e000ee
:1008300002003b0060001000e0801800000006008d
:100840000001be00440007000470a70003f0a100ef
:1008500003f8a30013003a006509b100100032004c
:10086000090035006928e100020035000100280078
:100870000000050000004000818048008502e9007a
:10088000fcff3a0000000600f88f4200050035002a
:100890008100d1000080d3008502e800fcff3a000f
:1008a000000006008000eb00000005004f89de001c
:1008b00082017800ef0037006011b800fd003700ba
:1008c00081002000618055000b003d000b002000de
:1008d00061fe2f000100e1001d00340082817100e3
:1008e000610164008904d1000884d3000000e8009d
:1008f000faff3a00710020006100640003007000fc
:10090000020060000900320061044400e0844c00f1
:100910000988a500050032008b05e8006808e100a1
:1009200002003a008904d1000884d300f20f2000ad
:100930000258e10005003d00c75ddd00f907b20087
:100940008980750008007800000006000bf8270079
:100950008b00780000000500c70ade00f107b20036
:10096000f50fb20008003200e1cf42000200320071
:100970000170a00024000500810f7000010032000a
:100980000408050044000500810f700002003a00d1
:10099000140005008502e9000000400081c0480005
:1009a000fcff3b000170a000240005000004be0015
:1009b000e9ff07000003be000405be000200be0000
:1009c000e5ff0700844f7500000006000200be002e
:1009d0006450e100050036006420e10002003600aa
:1009e0000968a30001003a000800be000160a000f1
:1009f0004f0678004f05be004f04be000000060001
:100a0000f0ff2f00f1ff2700f9ff3700889fbe009d
:100a10008a9fbe008c9fbe00870007008504780077
:100a20000005be006420e10049003e006220e100b4
:100a300003003200090035000bf8a3004400320027
:100a40000bf8a3000800320010022000b045880017
:100a5000f0ff2f00f1ff27003d00370001f82f00c5
:100a6000000020003a0037003d000700b3fe0700f9
:100a70000006be000a00be00324f200053f32300e0
:100a80007a000700060034000c00be0034000700a6
:100a9000aafe07000006be000a00be0002003700e2
:100aa0008904e9000c00be002d0007002e0007009d
:100ab0002b000700a2fe07000001be000c00be00d4
:100ac000fcfe07000005be000001be002600070076
:100ad0000006be00a2f32300430d2c0098fe070081
:100ae000809fbe000c00be00d2e32700d3f02b0095
:100af0001d0007004f01be00eefe07000006be000d
:100b00000a01be00180007000a01be008cfe0700a3
:100b10000006be006148b90064ff07000005be0082
:100b200032082800e3952b000f0007000c01be00df
:100b300083fe07000006be000a00be000200280077
:100b400013f32300080007000c01be007cfe070021
:100b50004f06be004f05be004f04be000000060059
:100b600003f0230002000500889fbe008a9fbe009c
:100b70008c1f78008dff070094ff330003866c0004
:100b80006450e100240032006420e10027003200bc
:100b90006150e100220032006120e10021003200ba
:100ba0008b854200eb07b1000134b800003ab80071
:100bb0000804420089844a00013ab8000030b800b5
:100bc0008880400009014a00040033000000400012
:100bd00081804800020149008b05e900c909dd0058
:100be000830170000100320013002000c814de00f1
:100bf0004814dd004709de001200b200c808de001c
:100c0000088470002eff070001f0a1000cf0a7007f
:100c100001f0a00076ff37006120e10078ff32008c
:100c20000801be000200be00f7ff37006150e1007e
:100c3000fcff3a0072ff37000003be0046ff0700ca
:100c40006220e100020032000600be00050005003f
:100c5000e507b100f107b20004f0230084807000c2
:100c600007f0a70001f0a00024000500f4ff2f000a
:100c70003f003700881f7800030478000300e0007d
:100c800007003d0060001000e080180060011900be
:100c9000e081190002003b0001f02d000300370045
:100ca0000400070008f0a70001f0a0004f0478003e
:100cb00000000600889fbe008a9fbe000082700070
:100cc0000402710004827100260032000004be009c
:100cd0000200be006011b8006b09200095022000e0
:100ce0000182cf000a0039000541b1000082cf0027
:100cf000070039000541b1000982cf000400390026
:100d00000541b1000882cf00010039000541b10062
:100d100005425200120032000a003b00828171003d
:100d2000610164008100d1000080d3008984d30078
:100d30000884d3008b05e8000442e800f7ff3a007e
:100d4000070037000804440089844c000000480074
:100d5000818048008b05e9000442e900f9ff3a0070
:100d6000d7fe07004f05be004f04be00000006007e
:100d7000889fbe008a9fbe00841f78000bff07007b
:100d80004f00780011003300f0ff2f00838f6c00bc
:100d900006003b00040565000a00a70008003700b4
:100da00009f0a6001000200008003700820f540050
:100db000838f5c00030039001000200001003e001a
:100dc0000000200009f0a7000000ea004f05be0067
:0c0dd0004f04be000000e0000000060020
:020000040000fa
:100ddc00ff810000ddd50000f5810000fdd500008d
:100dec00c581000085fd000085810000ff810000a9
:100dfc00fdb50000cd810000fdd50000c5810000cf
:100e0c00ddd50000f5810000fdd50000c581000096
:100e1c0085fd000085810000ff810000ddd500000c
:100e2c00f581000085fd000085810000fdd50000e6
:100e3c00d5810000f9ad0000f9810000fd9900009a
:100e4c00fd810000ffff0000010100000101000016
:100e5c00010100000101000001010000010100007e
:100e6c00010100000101000001010000010100006e
:100e7c0001010000010100000101000081c100001e
:100e8c00c1c10000810100000101000081c100000e
:100e9c00c1c10000c1010000c1e1000061e100001e
:100eac00c181000001810000c1c1000081810000ee
:100ebc00010100000101000001010000010100001e
:100ecc00010100000101000001010000010100000e
:100edc0001010000010100000101000001010000fe
:100eec00010100000101000001010000ffff0000f2
:100efc0000000000000000000000000000000000e6
:100f0c0000000000000000000000000000000000d5
:100f1c0000c0000040e00000b0100000001c000009
:100f2c003e7e00007f7f00007f7f00007f7f0000ff
:100f3c0000000000070f00000c0c00000400000073
:100f4c00070f00000c0c00000f0700001c1f000016
:100f5c0007060000067000003c1f00000b1b000081
:100f6c00e6f20000bc6c000038980000d0e00000f5
:100f7c00b0600000404000000000000000000000d5
:100f8c000000000000000000000000000000000055
:100f9c0000000000ffff0000000000000000000047
:100fac000000000000000000000000000000000035
:100fbc000000000000000000000000000000000025
:100fcc000d0f0000060700000300000000000000e9
:100fdc000000000000000000000000000000000005
:100fec0000000000c0f00000771f0000c8c0000027
:100ffc0000000000000000000000000000000000e5
:10100c0000000000000000000001000001000000d2
:10101c00070700000c0c000001010000000000009c
:10102c0000000000000000000000000000000000b4
:10103c00000000000000000000000000ffff0000a6
:10104c000000000000000000000000000000000094
:10105c000000000000000000000000000000000084
:10106c000000000000000000000000000000000074
:10107c0000000000000000000080000080800000e4
:10108c0080c00000c0c00000c0de0000fff1000006
:10109c00e0c00000e1ff0000dfc40000c0c00000a1
:1010ac00c0c00000c0c00000c00000000000000074
:1010bc000000000000000000000000000000000024
:1010cc000000000000000000000000000000000014
:1010dc000000000000000000000000000000000004
:1010ec0000000000ffff00000000000000000000f6
:1010fc0000000000000000000000000000000000e4
:10110c0000000000000000000000000000000000d3
:10111c0000000000000000000000000000000000c3
:10112c0000c70000cf9d000091b70000bfb80000c1
:10113c00e0c0000080800000808000008080000003
:10114c0080800000c0c00000e0b800009f87000055
:10115c00c1c00000600000000000000000000000a2
:10116c000000000000000000000000000000000073
:10117c000000000000000000000000000000000063
:10118c00000000000000000000000000ffff000055
:10119c008080000080800000808000008080000043
:1011ac008080000080800000808000008080000033
:1011bc008080000080800000808000008080000023
:1011cc00808000008080000080800000818300000f
:1011dc0083830000838300008383000083830000eb
:1011ec0083830000838300008383000083830000db
:1011fc0083830000838300008181000080800000d5
:10120c0080800000808000008080000080800000d2
:10121c0080800000808000008080000080800000c2
:10122c0080800000808000008080000080800000b2
:10123c0080800000ff000000060000000800000095
:10124c000a0000000c0000000e000000100000005e
:10125c00120000001400000016000000576100008e
:10126c007465000072200000546500006d70000071
:10127c003a00000053740000656100006d2000000e
:10128c00546500006d7000003a00000047720000c9
:10129c006f75000070200000546500006d70000038
:1012ac003a000000507200006573000073200000cb
:1012bc00225300004554000022200000746f0000ef
:1012cc002053000065740000007400006865000085
:1012dc002043000075720000726500006e740000ff
:1012ec0020540000696d000065000000546100008e
:1012fc006e6b0000204c000065760000656c0000f1
:10130c003a200000200000002020000020200000d7
:10131c00004c00004f57000000530000686f0000a5
:10132c0074200000546900006d650000723a0000e2
:10133c0020200000002000002020000020200000c1
:10134c00004f00004e200000004f000046460000f9
:10135c0000000000ff8100008181000081810000fd
:10136c008181000081810000818100008181000069
:10137c00818100008181000081ff000081810000db
:10138c0081ff0000cbc3000081fd000085f9000047
:10139c0081850000bfc5000081b90000d5d90000cf
:1013ac0081f900008585000081ff0000818100002b
:1013bc00ffc30000bd810000b9c50000b981000069
:1013cc00fdb10000fd810000fd850000f9810000e9
:1013dc0081ff00008181000081810000818100007b
:1013ec00fdc10000fd810000fda5000099810000f9
:1013fc00818100008181000081ff00005375000095
:10140c006e0000004d6f00006e000000547500006f
:10141c00650000005765000064000000546800007f
:10142c007500000046720000690000005361000066
:10143c00740000004e5500004c0000004a410000b2
:10144c004e00000046450000420000004d410000e7
:10145c005200000041500000520000004d410000bd
:10146c00590000004a5500004e0000004a5500008b
:10147c004c0000004155000047000000534500009f
:10148c00500000004f430000540000004e4f00007d
:10149c0056000000444500004300000028000000f6
:1014ac002a0000002c0000002e000000300000007c
:1014bc00320000003400000036000000380000004c
:1014cc003a0000003c0000003e000000400000001c
:1014dc0042000000440000004600000048000000ec
:1014ec004a0000004c0000004e00000050000000bc
:1014fc00520000005400000056000000580000008c
:10150c005a0000005c0000005e0000002245000054
:10151c006e74000065720000222000003d20000067
:10152c006e650000787400002046000069650000bc
:10153c006c64000000550000702f0000446e000029
:10154c00207400006f20000063680000616e0000d2
:10155c006765000020540000696d00006500000004
:10156c002626000000200000202000002626000077
:10157c00260000002020000020200000262600006d
:10158c00002000002020000000200000202000008f
:10159c0026260000005300007461000072740000e5
:1015ac002f530000746f000070200000666f000065
:1015bc007220000000550000702f0000446e0000e7
:1015cc00204b00006579000073200000746f000050
:1015dc0020630000686f00006f730000650000005e
:1015ec00456e000074650000722000004b65000021
:1015fc0079200000746f0000205300006574000017
:10160c000053000074610000727400002048000058
:10161c006f750000722000003d2000000053000098
:10162c007461000072740000204d0000696e0000af
:10163c0075740000652000003d2000000053000080
:10164c00746f000070200000486f0000757200007d
:10165c00203d000000530000746f0000702000005b
:10166c004d6900006e75000074650000203d00009f
:10167c00000000000101000000000000000000005c
:10168c00630c00001f060000173b00003b0000002d
:10169c00ff810000ddd50000f5810000fdd50000c4
:1016ac00c581000085fd000085810000ff810000e0
:1016bc00fdb50000cd810000fdd50000c581000006
:1016cc00ddd50000f5810000fdd50000c5810000ce
:1016dc0085fd000085810000ff810000ddd5000044
:1016ec00f581000085fd000085810000fdd500001e
:1016fc00d5810000f9ad0000f9810000fd990000d2
:10170c00fd810000ffff00008181000083ff0000cd
:10171c0083810000c9fb0000c1810000fdb90000fd
:10172c00fd810000b9d50000d9810000ff810000c7
:10173c00fdb50000cd810000fdd50000c581000085
:10174c00ddd50000f5810000fdd50000c58100004d
:10175c0085fd000085810000ff81000081c500002f
:10176c00cbb3000081850000bfc5000081e1000003
:10177c009987000081c50000cbb3000081fd0000fb
:10178c00a599000081810000ff81000081ff00000d
:10179c00938d000081810000c3ff0000c381000015
:1017ac0081ff0000c3bd000081810000ffff00002d
:1017bc008181000081810000818100008181000015
:1017cc008181000081810000818100008181000005
:1017dc0081810000ff81000081810000ffcb0000af
:1017ec00c3810000fd850000f981000085bf000069
:1017fc00c5810000b9d50000d9810000f985000031
:10180c0085810000ff81000081ff0000c3bd000046
:10181c0081b90000c5b9000081fd0000b1fd0000d8
:10182c0081fd000085f9000081810000ff8100002e
:10183c00818100008181000081fd0000c1fd00005c
:10184c0081fd0000a59900008181000081810000cc
:10185c0081810000ff220000546900006d650000ca
:10186c002220000053650000747300002054000017
:10187c00696d00006500000022530000545c0000fc
:10188c005350000022200000666f00007220000000
:10189c0041750000746f0000205300006574000057
:1018ac000022000050490000442200002066000085
:1018bc006f72000020540000756e0000696e00000d
:1018cc0067000000504900004420000053650000f0
:1018dc0074740000696e00006773000020660000dd
:1018ec006f72000000550000702f0000446e000065
:1018fc00204b00006579000073200000746f00001d
:10190c0020430000686100006e6700006500000065
:10191c0020200000224500006e740000657200005b
:10192c0022200000746f000020410000636300005f
:10193c006570000074200000005300006574000006
:10194c00506f0000696e0000742000003d20000004
:10195c0000470000616900006e2000003d0000009f
:10196c00496e00007465000067720000616c000035
:10197c00203d000000440000657200006976000004
:10198c006174000069760000652000003d000000d5
:10199c0000000000000000004e00000006000000e7
:1019ac0006ff0000ffff000048d6000024120000d4
:1019bc000824000020780000200000000600000031
:1019cc0038440000828200004438000014080000f3
:1019dc003e10000038100000a06000000010000055
:1019ec00101000006060000000600000180600008d
:1019fc007c4200007c4400007e40000064520000e9
:101a0c004c4a00004a340000382400007e4e00008e
:101a1c004a3200003c4a0000326200001a06000004
:101a2c00764a0000764c0000523c00006c6c0000c2
:101a3c0000ac00006c0000001028000044280000de
:101a4c00282800004428000010020000590600005d
:101a5c00ffff0000ff7c0000127c00007e5a00009b
:101a6c00343c0000424200007e4200003c7e0000fc
:101a7c004a4200007e0a00000a3c0000523400007a
:101a8c007e0800007e4200007e42000030400000d4
:101a9c003e7e0000186600007e400000407e000084
:101aac001c7e00007e0200007e3c0000423c0000d8
:101abc007e1200000c7e000062fe00007e320000f0
:101acc004e4400004a320000027e0000027e0000fc
:101adc00407e00003e4000003e7e0000387e00004c
:101aec0066180000660e0000700e0000625a0000be
:101afc00460000007e420000061800006042000014
:101b0c007e00000004020000044000004040000081
:101b1c000002000004740000547800007e480000ad
:101b2c003030000048480000304800007e3800008b
:101b3c00545800007c0a000002980000a47c0000ad
:101b4c007e080000704800007a40000088fa00000f
:101b5c00007e000018640000427e0000407c000003
:101b6c00387c00007c040000783800004438000009
:101b7c00fc2400001818000024fc0000780400006d
:101b8c000448000054240000043e0000447c000083
:101b9c00407c00003c4000003c7c0000307c00009d
:101bac006c1000006c9c0000a07c000064540000d1
:101bbc004c0400000a040000ffff0000ffff0000bf
:101bcc00ffff0000ffff0000ffff0000ffff000011
:101bdc00ffff0000ffff0000ffff0000fc400000c3
:101bec007cff0000ffff0000ffff0000ff00000073
:101bfc004552000052000000455600000050000005
:101c0c0049440000204900000050000049440000f5
:101c1c00204400000072000065730000756c000029
:041c2c007400000040
:020000040000fa
:101c30006600fa00889fbe00ec0d0700b20c07009a
:101c4000cf0c07000040eb00004f78000040eb0095
:101c5000004f78001a0037001e80fb008000400013
:101c6000e09228000080400010007800a70d0700d7
:101c7000800478001e80fb008000400080922800d5
:101c80000080400010007800a00d070000047800dc
:101c90001e80fb0080004000209228000080400051
:101ca00010007800990d0700800078001e40780031
:101cb0008901780008017800060807001e4fe80037
:101cc0001e407800e24f5000e3ff36000000eb00ba
:101cd000400798000040eb00104798000040eb00e0
:101ce000204798000040eb0030479800ee00470086
:101cf000080009008018eb000000eb0000179800b6
:101d00000000eb00101798000000eb00201798006f
:101d10000040eb00404798006000b8003017980082
:101d2000411798006000b80050179800611798009c
:101d30006000b80070179800011f98000040eb0089
:101d4000204f98000e0178002203b000080009001f
:101d50000019eb000000eb00202798000000eb00ca
:101d6000302798000000eb00402798000000eb00af
:101d7000300798000000eb00502798000000eb00af
:101d8000602798000000eb00702798000000eb002f
:101d9000002f980040472000102f98000000eb0013
:101da000202f98000000eb00302f98000000eb007f
:101db00060079800511680000080200000806000bd
:101dc00000f0a7000000ea000000e9004f00de007c
:101dd000101f980051168000004020000080600015
:101de00000f0a7000000ea000000e9004f00de005c
:101df000201f98001116800000082000008060005d
:101e000000f0a7000000ea000000e9004f00de003b
:101e1000301f980091168000002020000080600094
:101e200000f0a7000000ea000000e9004f00de001b
:101e3000401f9800800520000e004000200407008d
:101e4000a18720008205200002014700060009004a
:101e5000b218780090002000450d07008f0b070096
:101e600077fa070000007800001798003e149000f1
:101e7000ce1490004e4090000080fb000000400017
:101e80000000470070009000cf80de0087fa070056
:101e90000001be000800be00a8f907003017980036
:101ea000411798004e4090000080fb008e1090007b
:101eb00000004000000047006e004000010878006c
:101ec0003e149000ce1490004e4090000080fb0025
:101ed000000040000000470070009000cf80de004e
:101ee00072fa07000001be000800be0094f9070066
:101ef00030179800411798003e109000ce109000c7
:101f00000200200003042400eaf907000200200078
:101f1000833c24008af9070049fa07000000780092
:101f2000504488000000eb00110d07005b0b070018
:101f300043fa070000007800101798005e14900024
:101f4000ee1490004e4090000080fb0063004000c3
:101f5000000040000000470070009000cf80de00cd
:101f600052fa07000001be000800be0073f9070026
:101f700050179800611798004e4090000080fb00b9
:101f80009e109000630040000000400000004700e9
:101f90006e004000010878005e149000ee1490007e
:101fa0004e4090000080fb006300400000004000b5
:101fb0000000470070009000cf80de003bfa070071
:101fc0000001be000800be005df907005017980030
:101fd000611798005e109000ee1090000200200043
:101fe00003042400b3f9070015fa07000000780085
:101ff0006044880040002000dd0c0700270b07002c
:102000000ffa070000007800201798007e14900057
:102010008e1c90004e4090000080fb006600400047
:10202000000040000000470070009000cf80de00fc
:102030001efa07000001be000800be003ff90700bd
:1020400070179800011f98004e4090000080fb0020
:10205000ae10900066004000000040000000470005
:102060006e004000010878007e1490008e1c9000e5
:102070004e4090000080fb006600400000004000e1
:102080000000470070009000cf80de0007fa0700d4
:102090000001be000800be0029f907007017980073
:1020a000011f98004e4090000040e8004047980013
:1020b0004e409000e24f5000020036000040eb001e
:1020c000404798007e1090008e189000020020007b
:1020d0000304240077f90700d9f90700000078000d
:1020e00070448800be00900030448000808f500013
:1020f0003b013200304480003007980020448000cb
:1021000000017800104480008000780000448000c6
:10211000e904070090e8b7001e189000e10f500096
:102120000300320090c8bf00e14f50000a003a009f
:1021300010002000501f98001e189000e10f500062
:1021400002003a00b028ef0005003700804580000b
:1021500080458800020037000000eb00501f980007
:102160001e409000e94f5000020034000000eb00d8
:10217000501f9800e0012000600798006e0090005a
:10218000ee0f500019003e001e4090000040e80095
:1021900010479800201680000000d10061406000c8
:1021a00011c0b30000c05000614060000080fb001f
:1021b000610060000000400022168000d1ff2f0067
:1021c0008100610001007000201688001e40900010
:1021d000ea4f50000d003400a0c0b3001047980033
:1021e000c422a90020168000080037001e4090007d
:1021f0000040e900104798001e4090000004e000f5
:1022000002003d000040eb00104798001e40900087
:10221000e14f50000a0034002e409000e84f50007b
:1022200003003400c562a9002016800004003700b6
:10223000c562a8002e4090000040e80020479800aa
:102240001e2890000000e800102f98005e189000f3
:102250000000e000c5003200ee1890005e1890000b
:10226000808f50000b003200d7090700b203200016
:1022700051c0b300e06e28008d09070092a1a900ab
:102280009ca1a900a6a1a9000000eb00102f9800b6
:10229000c522a900f0448000e10f50000b003a0075
:1022a00011c0b30040c0b300710907008095280039
:1022b000b809070021c0b30040c0b3006c09070093
:1022c000b0962800b3090700c300370088c8bf00d4
:1022d0000004e0000900320068448000a04480004f
:1022e0000a0c0700080178008000780010c0b300d5
:1022f0009d06070030279800b90037005844800039
:1023000090448000010c07000801780080007800ec
:102310000040eb00940607002027980068448000e6
:10232000a0448000f90b07000801780080007800c5
:1023300010c0b3008c060700302798007844800056
:10234000b0448000f10b070008017800800078009d
:1023500020c0b30084060700402798001003070040
:1023600011c0b30020c0b30041090700c044800081
:102370008809070011c0b30040c3b3003c0907003f
:10238000504480008041eb0012c0b30041c0b30054
:102390009e090700b0c7b3005d09070060c4b30021
:1023a0005b09070021c0b30020c0b300300907005b
:1023b000d04480007709070021c0b30040c3b300b8
:1023c0002b090700604480008041eb0012c0b3007d
:1023d00041c0b3008d090700b0c7b3004c09070026
:1023e00060c4b3004a0907006e2090000000e000be
:1023f0004e003a001e2090000000e80010279800d0
:102400001e209000e40f5000160034001e209000a3
:10241000650010001027980031c0b30020c0b30041
:1024200013090700e04480005a09070031c0b300d7
:1024300040c3b3000e090700704480008041eb00e8
:1024400012c0b30041c0b30070090700b0c7b300a9
:102450002f09070060c4b3002d09070000c2b300b4
:102460002b0907001e209000e10f50005a00340095
:1024700031c0b30020c0b300fd080700c09728009a
:10248000440907006e0090008041eb000041eb0022
:1024900080c0eb005d09070050c2b3001c090700b3
:1024a000a09828003b0907006e009000f80f50002c
:1024b00049003e007e18900061001000701f9800d7
:1024c0007e1890000000e0004300320031c0b300ed
:1024d00000c3b300e6080700f09828002d090700a4
:1024e000a09828002b0907003e2890000000e80073
:1024f000302f98003e289000fd0f50003600360027
:10250000c422a8002e1890000000e00003003a004a
:10251000004c2d0011002000f10b0700c422a9007f
:102520000000eb00302f98002b00370031c0b300c3
:1025300020c0b300ce080700309928001509070015
:1025400031c0b30000c3b300c90807006e2090007b
:102550008041eb0012c0b30080c0eb002b090700e4
:10256000109a28000b0907001b003700821f20006b
:102570008040eb0090722800cd08070041c0b300f6
:1025800010c0b300ba08070000c2b300e00807009b
:102590009e289000004b200000804000102f9800e3
:1025a000c442a900cd22a900c462a900c422a90086
:1025b000c562a9000000eb0040279800cd02a900e9
:1025c00092a1a8009ca1a800a6a1a8000000eb0071
:1025d000602798008968ef005e189000601f9800df
:1025e00088c8bf000004e0001100320011c0b30031
:1025f00020c0b3009e080700d0448000e508070013
:1026000011c0b30000c3b300990807006044800004
:102610008041eb0012c0b30041c0b300fb080700cb
:10262000b0c7b300ba08070060c4b300b808070019
:102630005e1890000000e0008d0132002044800010
:102640000000e00005003a0030448000e40f500034
:1026500002003e00c562a80001003700c562a90063
:102660002e2890000000e800202f9800ae2890004f
:10267000800c2000808f5000020036000000eb002c
:10268000202f98004e209000800078002e28900087
:10269000808f500002003600cd02a80001003700f4
:1026a000cd02a9000e2090000000e0004d00320095
:1026b0003e209000500d88003e1890000000e00081
:1026c0000e003200cd22a800510d800000db210059
:1026d00000804000500d88006144800080bb2000d5
:1026e000808f50000200360010002000500d88003e
:1026f00050022000b00c880001003700cd22a90054
:10270000510d80002e2090008080500050e8210064
:1027100000804000000d88002e209000800078008e
:10272000000d80008080400040e82100808f500034
:102730000400360040e82100f00c8800f00c800016
:10274000070037002e20900080007800000d8000e8
:10275000008040000000e800f00c8800f00c8000d1
:102760008040eb0020c0b300410807002e209000fd
:102770008041eb000041eb0041c0b300a30807001b
:102780008040eb0060c1b300390807003e20900094
:102790008041eb000041eb0041c0b3009b08070003
:1027a0008040eb00c0c2b300310807006016800013
:1027b0004800de00614060000080fb008041eb00cb
:1027c0000041eb0021c0b3009008070051c0b300e6
:1027d00040c4b30026080700709a28006d0807005f
:1027e000260037008040eb0020c0b300200807001f
:1027f0002e2090008041eb000041eb0041c0b3006f
:10280000820807008040eb0060c1b3001808070091
:102810003e2090008041eb000041eb0041c0b3003e
:102820007a0807008040eb00c0c2b3001008070020
:10283000601680004800de00614060000080fb0000
:102840008041eb000041eb0021c0b3006f0807009e
:1028500051c0b30040c4b30005080700b09a280077
:102860004c080700cd22a900aa21ef002e209000dd
:1028700051e8210000805000000d88002e189000c3
:102880000000e0008300320020002000000d8800de
:102890000000eb00102f980011e1a8000000eb00f1
:1028a000002f98005e209000f90f500006003e00b7
:1028b000c462a800a0052000b00c880089c8bf0031
:1028c0000040e80089e8b7005e209000f90f500052
:1028d00006003600de20900070032000808f50003c
:1028e00002003e009621ef008968ef00de20900094
:1028f00070032000808f500017003600de2090000b
:1029000050052000808f500013003e00b10c800065
:1029100000102000808f50000f003e003e409000cd
:102920000040e800304798003e409000e54f5000de
:1029300009003600b10c8000f00f2000808f50009d
:1029400003003e00b00c800070004000b00c880016
:102950000040eb0030479800de209000500520003a
:10296000808f500012003600de20900010322000d0
:10297000808f50000e003e00b00c8000f90f500018
:102980000b0036003e4090000040e80030479800c1
:102990003e409000ef4f500005003600b00c800024
:1029a0000080e900b00c88000040eb003047980040
:1029b000de209000c0172000808f500002003600fb
:1029c000a0012000b00c8800de20900080252000af
:1029d000808f5000010036009621ef00de2090002d
:1029e00020352000808f500001003600c422a8004e
:1029f000de20900070352000808f500006003600e9
:102a0000c422a900a0332000502798007e20900007
:102a10000000e800702798007e209000e90f500029
:102a200005003600c422a8009025200050279800f9
:102a3000a0002000702798002104800000082000da
:102a4000008060000000e0000b0032005e2090007b
:102a50000000e80050279800de209000700320005e
:102a6000808f5000030036006e2090000000e800c8
:102a70006027980084e0a900b10c80004006200087
:102a80000088b900000078004800de004007980088
:102a90006d00370089c8bf000004e0005a00320012
:102aa00020002000000d88000000eb00102f98008f
:102ab00011e1a8005e209000f90f500003003e00d5
:102ac000c462a800a0052000b00c88005e20900021
:102ad000f90f500005003600de2090007003200042
:102ae000808f500001003e009621ef00de20900014
:102af00070032000808f500017003600de20900009
:102b000050052000808f500013003e00b10c800063
:102b100000102000808f50000f003e003e409000cb
:102b20000040e800304798003e409000e54f5000dc
:102b300009003600b10c8000f00f2000808f50009b
:102b400003003e00b00c800070004000b00c880014
:102b50000040eb0030479800de2090005005200038
:102b6000808f500012003600de20900010322000ce
:102b7000808f50000e003e00b00c8000f90f500016
:102b80000b0036003e4090000040e80030479800bf
:102b90003e409000ef4f500005003600b00c800022
:102ba0000080e900b00c88000040eb00304798003e
:102bb000de20900080112000808f5000020036003f
:102bc0009621ef008968ef002104800000082000b2
:102bd000008060000000e000040032005e209000f1
:102be0000000e8005027980084e0a900b10c8000a4
:102bf000400620000088b900000078004800de0090
:102c00004007980010003700c462a900c422a90040
:102c10000000eb007027980011e1a9000000eb0014
:102c2000502798000e2890000000e800002f980020
:102c30008e289000f0f92000808f500002003600ae
:102c40000000eb00602798004e1890000000e000a4
:102c500006003200c442a80000102000b00c88001a
:102c600020002000000d880001003700c442a900a8
:102c70002e1890000000e0000a003a003e18900074
:102c80000000e00007003a004e1890000000e0004d
:102c900004003a0089c8bf000004e00001003a00c7
:102ca0009621ef00ef080700204f98002e48900073
:102cb0000004e00009003200cd02a90092a1a800a2
:102cc0009ca1a800a6a1a800c522a9000000eb00b5
:102cd000102f980020002000601f98002e489000c0
:102ce000e14f500001003a00950507002e48900082
:102cf000e24f50000b003a00a907070000a821008e
:102d000061002000f60907002f0707000000eb0014
:102d1000102f9800b203200051c0b300e06e2800cd
:102d2000e30607002e489000e34f500004003a00ed
:102d30000000eb000027980020002000601f980092
:102d40002e489000e44f500004003a00100020008c
:102d50000027980020002000601f98009e28900007
:102d6000f04a2000808f500004003600c522a800e1
:102d7000004b2000102f980001003700c522a90049
:102d80000060fe000bfc37000600fa0020079800e8
:102d9000ae009000010f78000000eb0010079800d3
:102da0001e007800e90f5000060036009e007800f3
:102db0006a8f50001e0090007000400010079800bd
:102dc000f7ff37001e0090001e004000100798001b
:102dd0001e0090000080fa00000006000400fa00c7
:102de000100798009e009000010f78001e007800e8
:102df0000000d100000f7800800720001e0f600047
:102e00001e0078004200de009e0040001e00900080
:102e10006f006000008040000080fa0000000600a3
:102e20000000fa0023002000610420007205200049
:102e300024742000014a7800024a7800034a78008e
:102e400050052000303b8800a00a2000303b88005d
:102e500027a6a80027e6a900303180000080a00046
:102e60000090a000303188007001200020318800df
:102e7000202221002031880060512000203188006c
:102e800000932200203188002826ef0026e6a800c3
:102e900026c6a90026a6a9002686a9002666a8009f
:102ea0002646a8002626a8002606a90027e6a80090
:102eb00027a6a9009bc0a8000080fa000000060019
:102ec0001400fa00881f7800000478000000000059
:102ed0003131800000002100008060000000e0002f
:102ee000fbff3a00303180000080a0000090a0007d
:102ef0003031880020318000b8ff0700300798008b
:102f000021318000010f78001e0078004800de00ab
:102f1000b2ff070040079800f00f20001e0060007d
:102f2000aeff07005007980021318000110798007c
:102f30001e0090004800de00a8ff07006007980010
:102f40009e009000f00f200000806000a3ff0700ab
:102f50007007980021318000210798002e00900012
:102f60004800de009dff0700000f9800ae009000b3
:102f7000f00f20000080600098ff0700100f9800fd
:102f8000e600470006000900311c7800e800b100a7
:102f9000080078004f0478000080fa000000060066
:102fa0000e00fa000e007800c5ff070041c0b30014
:102fb00020c0b3002e0607001e0078008041eb0001
:102fc0000041eb0021c0b30090060700f0c2b3003f
:102fd0004f0607001e00900080004000e0802000a7
:102fe00000804000100078006a060700f0c2b300bd
:102ff000470607002e0090008041eb000041eb00e7
:1030000021c0b3008106070041c0b30070c2b30005
:10301000170607003e00900080004000008020005e
:1030200000804000100078005a06070041c0b3003d
:1030300040c3b3000e0607004e0090008041eb0035
:103040000041eb0021c0b30070060700a0c3b3002d
:103050002f0607005e0090008041eb000041eb006e
:1030600021c0b30069060700a0c3b300280607000b
:103070006e0090008041eb000041eb0021c0b300e6
:10308000620607000080fa00000006003000fa0027
:10309000889fbe006600470089ff07003e0390003e
:1030a000ce0290005e029000ee0190007e01900042
:1030b0008e0890001e089000260f9800350f98008b
:1030c000440f9800530f9800620f9800710f9800fa
:1030d000001798002102200081004700f2b3280069
:1030e00006000900b25878009102200081004700d4
:1030f00062b4280006000900b25878000040eb00d6
:10310000004f78000040eb00104798000000eb00f3
:1031100010079800e00037001e0090000000e0005b
:1031200005003a00280607004205200051c0b30000
:10313000009b2800de0507001e0090000000e8004c
:10314000100798009e00900000712200808f5000b0
:10315000050036000000eb00100798001a06070073
:1031600010c0b300104798002e0890003007980058
:103170003e089000400798004e08900050079800c5
:103180005e089000600798006e0890007007980035
:103190007e089000000f98000e109000100f98000d
:1031a0007fff070011c0b30040c0b300b0050700a7
:1031b000c0a82800f705070021c0b30040c0b30035
:1031c000ab05070010aa2800f20507001e40780092
:1031d0000004e00005003a0031c0b30020c0b30095
:1031e000a305070060ab2800ea0507001e40780031
:1031f000e14f500005003a0031c0b30020c0b300d9
:103200009b05070090ab2800e20507001e407800f0
:10321000e24f500005003a0031c0b300e0c0b300f7
:103220009305070000ac2800da0507001e4078006f
:10323000e34f500005003a0031c0b300b0c1b30005
:103240008b05070090ab2800d20507001e407800d0
:10325000e44f50000a003a0031c0b30070c2b3001e
:103260008305070070ac2800ca05070031c0b30011
:1032700040c3b3007e05070060ab2800c50507000a
:103280001e407800e54f500005003a0031c0b30001
:1032900040c3b30076050700b0ac2800bd050700a9
:1032a0001e407800e64f500005003a0031c0b300e0
:1032b00000c4b3006e050700b0ac2800b5050700d8
:1032c00068070700404798004e4090000000fb0050
:1032d000e30f500024003200e40f500003003200de
:1032e000e20f50003f003200470037001e80fb0015
:1032f0000000400000004700a00890001e80fb0076
:1033000000004700106890000080fb00808f500094
:103310000a003a001e80fb009e80fb0081004700ef
:10332000a16090008180fb00000040000000470089
:103330007400400001087800330037001e80fb0055
:103340009e80fb008180400081004700a108900022
:103350008100e800000040000000470074004000c9
:1033600001087800280037001e80fb0000004000a4
:1033700000004700a00890001e80fb0000004700ee
:10338000206090000080fb00808f50000a003a000f
:103390001e80fb009e80fb0081004700916890002a
:1033a0008180fb00000040000000470074004000e6
:1033b00001087800140037001e80fb009e80fb008f
:1033c0008180400081004700a10890008100e90051
:1033d0000000400000004700740040000108780031
:1033e000090037001e407800e64f500004003a0004
:1033f0007505070010c0b3001047980002003700a1
:103400001e4fe8000000000058052000383b8800ef
:10341000a80a2000383b880027a6a80027e6a900b4
:10342000303180000080a0000090a0003031880082
:103430003e00900054fe0700203188004e009000ae
:1034400051fe0700c804dd005e0090004efe07003c
:1034500000804400203188006e0090004afe070082
:10346000c804dd007e00900047fe07000080440095
:10347000203188000e08900043fe0700c804dd00dc
:103480001e08900040fe07000080440020318800a4
:1034900027e6a80027a6a9001e4090000004e0002f
:1034a0001dff3200480507009e28ef004f04be00b4
:1034b0000080fa00000006000600fa00000f780005
:1034c00011079800220798001e0078008000400035
:1034d00040a5280000804000100078008b070700fe
:1034e000e10f400002003a00b028ef00140037005e
:1034f0001e0078008000400040a5280000804000a9
:1035000010007800810707009e009000810f500096
:103510000b003a001e0078008000400020a6280022
:10352000008040001000780078070700ae0090008f
:10353000810f500002003a001000200080458800f2
:103540001e0078008000400000a728000080400096
:10355000100078006d0707009e009000810f50005a
:103560000a003a001e00780080004000e0a7280012
:10357000008040001000780064070700ae00900053
:10358000810f500001003a00b028ef008045800014
:10359000004078000080fa00000006000200fa00f7
:1035a0000000eb00000f7800b368ef004200370026
:1035b000ac060700b3e8b700c05d20009e007800ad
:1035c000808f500089003c00b3c8bf000080fb0022
:1035d000e30f500005003200e40f50000b003200f2
:1035e000e10f50008300320014003700b2c8bf0062
:1035f0000040e900b2e8b700b2c8bf000004e00034
:103600000b003d00b268ef000c003700b2c8bf00ed
:103610000040e800b2e8b700b2c8bf00e64f500073
:103620000500340060c0b300b2e8b7000300370003
:103630000000000001003700000000001e007800bc
:10364000e20f500005003c00df04070042052000a7
:1036500051c0b300009b28009504070011c0b300bf
:103660000040eb008204070010ad2800c9040700e9
:10367000b2c8bf000000fb008000400000802000b6
:103680000080400010007800c204070031c0b30081
:103690000040eb007604070010ae2800bd040700d0
:1036a00041c0b3000040eb007104070060af280088
:1036b000b80407001e0fe800b3c8bf00e24f500077
:1036c000bbff3a00c00407004205200051c0b30010
:1036d000009b280076040700b2c8bf000000fb0072
:1036e0008000400040a528000080400010007800c5
:1036f0000607070000407800440007008000fb0038
:10370000b2c8bf000000fb000001400040a5280037
:103710000000410010007800dd060700b2c8bf00bd
:103720000000fb008000400020a628000080400030
:1037300010007800f50607000040780080000700c0
:103740008000fb00b2c8bf000000fb000001400089
:1037500020a628000000410010007800cc060700d9
:10376000b2c8bf000000fb008000400000a7280096
:103770000080400010007800e40607000040780058
:10378000bb0007008000fb00b2c8bf000000fb00c8
:103790000001400000a72800000041001000780050
:1037a000bb060700b2c8bf000000fb00800040005d
:1037b000e0a728000080400010007800d306070032
:1037c00000407800f70007008000fb00b2c8bf008f
:1037d0000000fb0000014000e0a7280000004100bd
:1037e00010007800aa060700030037000000000060
:1037f0000100370000000000730407000000eb0028
:10380000000f78000080fa00000006000600fa00b1
:10381000404798000000eb00000f7800ce40900079
:10382000214798000040eb00304798000d06070044
:10383000304798003a0037000a06070030479800e2
:103840001e0fe80000a62e0001002000240707003c
:10385000401f20009e007800808f5000040034003c
:103860000000eb00000f780020c0b3003047980044
:1038700011c0b3000040eb00fd03070070b028004a
:103880004404070011c0b300d0c3b300f80307001d
:103890002e4090000000fb008041eb000041eb0057
:1038a00021c0b3005904070000c2b3001804070088
:1038b0003e4090000000fb00e30f50000300320088
:1038c000e40f50000a003200150037002e4090002f
:1038d0000040e900204798002e409000e14f400052
:1038e0000c003d0070c1b300204798000c00370069
:1038f0002e4090000040e800204798002e409000a5
:10390000f74f50000500340000c0eb00204798003e
:103910000300370000000000010037000000000035
:103920003e409000e24f5000c3ff3a000000eb0021
:10393000000f78002e4090000080fa000000060082
:103940000600fa00404798000000eb00000f7800e6
:10395000ce409000214798000040eb00304798008f
:10396000c00507003047980039003700bd05070043
:10397000304798001e0fe800003e2900410020005b
:10398000d7060700c05d20009e007800808f5000a1
:10399000040036000000eb00000f780020c0b300e8
:1039a0003047980021c0b3000040eb00b00307008f
:1039b00050b12800f703070021c0b300d0c3b30003
:1039c000ab0307002e4090000000fb008041eb009d
:1039d0000041eb0021c0b3000c0407003e40900002
:1039e0000000fb00e30f500003003200e40f500022
:1039f0000a003200160037002e409000654050004b
:103a0000204798002e4090000004e0000d003d008b
:103a100070c3b300204798000d0037002e4090007f
:103a20006540400020479800ae40900070c3b3004e
:103a300080cf5000050034000040eb002047980084
:103a40000300370000000000010037000000000004
:103a50003e409000e24f5000c4ff3a000000eb00ef
:103a6000000f78002e4090000080fa000000060051
:103a70000600fa00404798000000eb00000f7800b5
:103a8000ce409000214798000040eb00304798005e
:103a900074050700304798003a00370071050700a9
:103aa000304798001e0fe800003e2900410020002a
:103ab0008b060700c05d20009e007800808f5000bc
:103ac000040036000000eb00000f780020c0b300b7
:103ad0003047980031c0b3000040eb00640307009a
:103ae00050b22800ab03070031c0b300d0c3b3000d
:103af0005f0307002e4090000000fb008041eb00b8
:103b00000041eb0021c0b300c003070000c2b300b6
:103b10007f0307003e4090000000fb00e30f5000d1
:103b200003003200e40f50000a0032001500370095
:103b30002e4090000040e900204798002e40900061
:103b4000e14f40000c003d0070c1b30020479800d9
:103b50000c0037002e4090000040e80020479800fd
:103b60002e409000f74f50000500340000c0eb00dd
:103b700020479800030037000000000001003700d4
:103b8000000000003e409000e24f5000c3ff3a00aa
:103b90000000eb00000f78002e4090000080fa003b
:103ba000000006000600fa00404798000000eb0005
:103bb000000f7800ce409000214798000040eb00b5
:103bc0003047980027050700304798003900370034
:103bd00024050700304798001e0fe800003e29002a
:103be000410020003e060700c05d20009e007800d6
:103bf000808f5000040036000000eb00000f7800ba
:103c000020c0b3003047980041c0b3000040eb0033
:103c10001703070010b328005e03070041c0b3007c
:103c2000d0c3b300120307002e4090000000fb0039
:103c30008041eb000041eb0021c0b300730307009b
:103c40003e4090000000fb00e30f500003003200f4
:103c5000e40f50000a003200160037002e4090009a
:103c600065405000204798002e4090000004e0007e
:103c70000d003d0070c3b300204798000d003700d1
:103c80002e4090006540400020479800ae409000d4
:103c900070c3b30080cf5000050034000040eb003b
:103ca00020479800030037000000000001003700a3
:103cb000000000003e409000e24f5000c4ff3a0078
:103cc0000000eb00000f78002e4090000080fa000a
:103cd000000006000800fa00004f78001107980065
:103ce00022079800330798001e00fb008000400068
:103cf00060852000008040009e0090000108780050
:103d00001e00fb0080004000c085200000804000b5
:103d1000ae009000010878001e00fb00800040000b
:103d20002086200000804000be009000010878003e
:103d30001e00fb00c200dd00c082200000814000a8
:103d40006000b8000089be001e00fb00c200dd005c
:103d500040842000008140006000b8000089be005f
:103d60000080fa00000006001400fa00881f7800a6
:103d7000604f9800010f9800120f98000e089000f5
:103d80006101b8001e0890008000eb0000005100a7
:103d90008180590050079800610798006e48900094
:103da0000080fb0080004000608520000080400013
:103db00010007800cf80de005e0190000191b90014
:103dc00002017800ee019000009ab90084017800a9
:103dd00003014100de0190000018b800010141001c
:103de00082007800100798002107980010079800bb
:103df000210798006e4890000080fb008000400082
:103e00000085200000804000100078006101b900aa
:103e10001e009000ae009000800f5100818f59006d
:103e2000090034006e4890000080fb0080004000d4
:103e3000008520000080400010007800cf80de0068
:103e400010079800210798006e4890000080fb0042
:103e50008000400040872000008040001000780073
:103e60006101b9001e009000ae009000800f51006b
:103e7000818f590009003d006e4890000080fb00d2
:103e80008000400040872000008040001000780043
:103e9000cf80de0010079800210798006e48900040
:103ea0000084fb006e4890000080fb00c200dd0033
:103eb000c0822000008040001002be006e489000ca
:103ec0000080fb0080004000c08520000080400092
:103ed00010007800cf80de005e0190000191b900f3
:103ee00002017800ee019000009bb9008601780085
:103ef00003014100de0190000018b80001014100fb
:103f0000820078000400400085804800c241dd0046
:103f1000c2822000028141000089be006e489000ec
:103f20000080fb00c200dd00c08220000080400055
:103f30001001be006e4890000080fb008000400031
:103f4000808620000080400010007800cf80de00d6
:103f5000800f5100818f59000d003d006e48900088
:103f60000081fb006e4890000080fb008000400054
:103f7000808620000080400010007800cf80de00a6
:103f8000c211dd00c2822000028141000089be0012
:103f90006e4890000080fb00c200dd00c08220005f
:103fa000008040001001be006e4890000080fb00c1
:103fb00080004000e0862000008040001000780073
:103fc000cf80de00800f5100818f59000d0034003a
:103fd0006e4890000081fb006e4890000080fb005e
:103fe00080004000e0862000008040001000780043
:103ff000cf80de00c211dd00c282200002814100bc
:104000000089be006e4890000080fb00c200dd0009
:1040100080832000008040001000be005e01900000
:10402000ee01900000015100818159006e4890001e
:104030000080fb00800040002086200000804000bf
:1040400010007800cf80de00009ab90004027800ea
:10405000028bb90086027800050242000010b80009
:104060000102420084007800300798004107980060
:1040700030079800410798006e4890000080fb00d0
:104080008000400040872000008040001000780041
:104090006101b9003e009000ce009000800f5100f9
:1040a000818f590009003d006e4890000080fb00a0
:1040b0008000400040872000008040001000780011
:1040c000cf80de0030079800410798003e01900045
:1040d000ce01900000062f00f1ff2f00800f51004d
:1040e000818f590004003d0000062f00f1ff2f00d2
:1040f00030079800410798006e4890000080fb0050
:10410000c200dd0080832000008040005e0190003e
:10411000ee0190000288be001e0190006e489000e3
:104120000080fb00c200dd00c08220000080400053
:104130001000be0000007800800041003e009000aa
:10414000008f40006e4890000080fb00800040001f
:104150000085200000804000100078009e0f500075
:10416000060034006e4890000080fb008000400094
:104170000085200000804000100f78006e489000fd
:104180000080fb008000400040872000008040004d
:10419000100078009e0f500006003d006e48900011
:1041a0000080fb008000400040872000008040002d
:1041b000100f780088c8bf00e14f500052003a004d
:1041c0008040eb000040eb00a9010700e0df280081
:1041d000f00107008040eb0000c1b300a40107001c
:1041e0005e0090008041eb000041eb0041c0b30055
:1041f0000602070000c2b300c50107008040eb00c3
:1042000080c2b3009a01070020e02800e101070006
:104210008040eb0040c3b300950107001e009000f2
:104220008041eb000041eb0051c0b300f7010700f3
:1042300000c2b300b601070021c0b3000040eb008c
:104240008b01070050e02800d201070031c0b30005
:104250000040eb00860107006e4890000080fb00e4
:10426000c200dd00c0822000008040001000be00bf
:10427000000078008041eb000041eb0051c0b3002a
:10428000e201070000c2b300a101070021c0b30092
:1042900000c2b30076010700b0e02800bd010700ae
:1042a00031c0b30000c2b300710107003e009000ae
:1042b0008041eb000041eb0051c0b300d301070087
:1042c00000c2b3009201070021c0b300a0c3b30035
:1042d0006701070010e12800ae01070031c0b300fc
:1042e000a0c3b300620107008041eb000041eb0076
:1042f00051c0b3001e007800c401070000bc2f00ad
:1043000091032000760407001e0078004f04780017
:104310000080fa00000006000000fa0003003700e9
:1043200089c8bf000040e80089e8b70089c8bf001d
:104330000004e000faff34000080fa0000000600ec
:104340001200fa00889fbe000040eb00004f78008a
:104350000000eb0010079800606d20003007980007
:10436000a0a5200040079800a073200050079800e7
:10437000408320006007980080bb200070079800f1
:1043800060862000000f98008f0107004205200082
:1043900051c0b30090b828004501070000902000ec
:1043a000d10320004e0407002300370011c0b300e2
:1043b0000040eb002e01070010c328007501070024
:1043c00021c0b3000040eb002901070020c42800f1
:1043d0007001070031c0b3000040eb00240107006a
:1043e00070c528006b0107001e030700004f78000e
:1043f0001e0090000000e8001007980000c429008b
:1044000001002000360407009e009000401f20009d
:10441000808f5000080034000000eb001007980067
:1044200069010700b203200051c0b300e0b42800c6
:104430001f010700060137001e4078000004e0005d
:10444000daff32001e407800e14f50000a003a00c7
:104450000efb07000000eb0010079800420520004b
:1044600051c0b300d0bd280011010700004828004a
:10447000e10120001a0407001e407800e34f5000bd
:1044800001003a0045fc07001e407800e24f500052
:10449000ec0032001e407800e44f5000f1003a007a
:1044a0000040eb00404798000000eb001007980028
:1044b000450107004205200051c0b300d0bd2800cf
:1044c000fb00070045003700e6020700004f7800b8
:1044d00000c4290001002000010407009e00900094
:1044e000401f2000808f5000030034000000eb00cc
:1044f00010079800d60037001e00fb00e30f5000a5
:1045000005003200e40f50000c003200e10f5000b3
:10451000ce003200150037004e4090000040e90008
:10452000404798004e4090000004e0000c003d0021
:104530000040eb00404798000c0037004e409000d0
:104540000040e800404798004e409000e24f500085
:104550000500340020c0b300404798000300370036
:104560000000000001003700000000008040eb0068
:104570000040eb00be00070080c6280005010700d0
:1045800011c0b3000040eb00b90007004e4090009e
:104590000000fb0080004000808920000080400077
:1045a00010007800fb00070031c0b3000040eb00b2
:1045b000af00070090c72800f600070041c0b30015
:1045c0000040eb00aa000700e0c82800f100070047
:1045d0001e0090000000e800100798001e407800c0
:1045e000e24f5000b8ff3a00f700070042052000f4
:1045f00051c0b300d0bd2800ad00070011c0b3000a
:104600000040eb009a00070030ca2800e1000700d4
:104610004e4090000000fb008000400020892000f8
:104620000080400010007800380307008000780008
:104630004e4090000000fb000000400000004700da
:10464000600190004e4090000000fb000000400020
:1046500000004700300090000102780082017800dd
:104660000001780011c0b300c0c2b300e20107002e
:10467000800078004e4090000000fb0000014000e8
:10468000208920000000410010007800000307008e
:1046900021c0b3000040eb0075000700f0ca2800fd
:1046a000bc0007004e4090000000fb00800040006e
:1046b00020922800008040001000780013030700bb
:1046c00000027800830c20000001eb0021c0b30041
:1046d000c0c2b300c8010700800078004e409000bf
:1046e0000000fb0000014000209228000000410073
:1046f00010007800e602070031c0b3000040eb0074
:104700005b00070060cb2800a20007004e4090002d
:104710000000fb00800040008092280000804000e4
:1047200010007800f902070000027800431f200003
:104730000001eb0031c0b300c0c2b300ae010700fe
:10474000800078004e4090000000fb000001400017
:10475000809228000000410010007800cc02070081
:1047600041c0b3000040eb004100070010cc28001e
:10477000880007004e4090000000fb0080004000d1
:10478000e09228000080400010007800df0207005f
:1047900000027800431f20000001eb0041c0b3007d
:1047a000c0c2b30094010700800078004e40900022
:1047b0000000fb0000014000e092280000004100e2
:1047c00010007800b20207004e4090000000fb008d
:1047d00080004000e0922800008040001000780037
:1047e000ca020700800478004e4090000000fb00e1
:1047f0008000400080922800008040001000780077
:10480000c2020700000478004e4090000000fb0048
:1048100080004000209228000080400010007800b6
:10482000ba0207008901780008017800800078004a
:104830004e40900027fd07000000eb001007980095
:1048400003003700000000000100370000000000f6
:104850005d000700b203200051c0b300e0b428009f
:10486000130007004f04be000080fa00000006009d
:104870000200fa00004f78001147980000c8b3000a
:104880001e407000804078000040eb00e30007000d
:104890009e40900000c4b30000c0700080407800cb
:1048a0000040eb00dd0007000080fa000000060079
:1048b0000800fa0010079800414798003207980056
:1048c0004e409000804078000040eb00e8ff070079
:1048d0000000eb00000f7800070037001e0090007a
:1048e0001e004000104078008040780010c0b300e7
:1048f000ca0007001e0fe8003e0090009e007800ee
:10490000808f5000f5ff39000080fa00000006009b
:104910000400fa00204798002e4090000000fb00a1
:104920000002b100000f78001e0078006300b9009b
:1049300000007800000f7800e0cc28001e00400046
:10494000104078008040780010c0b300b30007002a
:104950001e00e800e1cc280061407800804078002b
:1049600010c0b300ad0007001e80e800e1cc2800b5
:10497000614078008040780010c0b300a7000700b5
:104980008040eb0010c0b300a40007000080fa00d4
:10499000000006000200fa00000f78000400370053
:1049a0001e007800104078001e0fe800d8ff0700b6
:1049b0001e007800104078000004e000f8ff3a0084
:1049c0000080fa00000006000200fa000000eb0080
:1049d000000f7800040037008040eb0010c0b300e7
:1049e0008e0007001e0fe800701f20009e00780058
:1049f000808f5000f8ff34008040eb000040eb0057
:104a00009bff07000080fa00000006001000fa007b
:104a100050079800414f9800524f9800634f9800fc
:104a2000e4004700010009008018eb008058eb000b
:104a300040002000000f78000000eb0010079800f5
:104a40005e0090000000e00006003d00d0c2b30010
:104a5000afff07005e0090000000ea0050079800da
:104a6000170037006e489000e14f500014003a00e4
:104a7000b0c2b300a6ff070011003700de009000af
:104a8000a000200000017800110009008200d80079
:104a90008000fd0080407800640047001e00400058
:104aa00001487800de009000a0002000000178009e
:104ab000110009008200d800500798001e0fe9007d
:104ac0005e0090000000e000ecff3a004e489000cd
:104ad000e14f40000b003a00030037001e00900039
:104ae0000000e80010079800e40047001e00900056
:104af00000804000104078000004e000f7ff320022
:104b0000040037004e4890000000fb0065001000d4
:104b1000100798009e009000010f780006003700f3
:104b2000640047001e004000104078000043b000c1
:104b300077ff07001e0fe8005e4890000000fb00b2
:104b4000650010009e0f5000f5ff3c005e4890008d
:104b5000e14f500005003a00e0c2b3006cff0700cf
:104b60000e4890000043b00069ff07005e489000c7
:104b7000e24f500008003a00e0c2b30064ff0700b3
:104b80007e4090000043b00061ff07000e48900097
:104b90000043b0005eff07000080fa00000006003e
:104ba0000000fa00d0a2a900d082a900d062a9001a
:104bb000d0e2a900d0c2a900d482a900d4a2a90041
:104bc000d462a900d4c2a900d4c2a80011c2b30003
:104bd0000040eb001100070091cbb3000040eb0058
:104be0000e00070071c0b3000040eb000b0007008f
:104bf00051c1b3000040eb000800070001c2b30040
:104c00000040eb0005000700c1c0b3000040eb000e
:104c1000020007000080fa00000006000400fa000d
:104c20002047980031479800be40900011479800f7
:104c30002e4090000004e00002003a00d462a90077
:104c400001003700d462a800d4e2a9000040eb00c4
:104c5000004f78000b003700d482a9001e4090005e
:104c60000004e00001003d00d482a800d4a2a80006
:104c70001e4090000040400010479800d4a2a900b8
:104c80001e4fe8001e407800e74f5000f2ff36004c
:104c9000d4e2a8000080fa00000006000200fa003a
:104ca000000f78001e0078008000eb0002ef070084
:104cb0000001be0000002f00f15724007dee070028
:104cc0000200200003f823001cee07000001be00d4
:104cd00000802600c161240076ee070010458800a0
:104ce00021458800104580002145800002802a006f
:104cf000d36124006fee07003045880041458800ed
:104d0000304580004145800040ef07003045880075
:104d1000414588003045800041458000b2072100b0
:104d2000a357240063ee0700304588004145880002
:104d30003045800041458000f2f02c00b3b52300df
:104d4000ffed070030458800414588003045800070
:104d5000414580000001be000000200001f8230052
:104d600054ee0700304588004145880030458000fa
:104d7000414580003233290083382400efed0700dd
:104d8000304588004145880030458000414580001d
:104d9000020020000312240073ef07003045880052
:104da00041458800304580004145800002002000d8
:104db000031124006cef070002002000030a240006
:104dc0003cee070002002000033a2400dced07005f
:104dd00030458800414588003045800041458000cd
:104de00097ee0700000078008000eb00b2ee0700ad
:104df0000080fa00000006000c00fa00404798000e
:104e000051479800320798004307980054079800cc
:104e1000de009000010f7800920007002047980004
:104e2000320037008f0007002047980000458000bf
:104e30000000e8000045880000c4290001002000af
:104e4000a701070001458000803e2000808f5000b0
:104e500004003400dcfe0700a028ef000040eb0057
:104e600020479800de4090004e40900080fe0700f2
:104e70008041eb0012c0b30041c0b3001e007800b7
:104e8000e2fe07002e4090000000fb00e30f500000
:104e900003003200e40f5000090032001300370015
:104ea0001e0fe9003e0090009e007800808f5000a9
:104eb0000b003c00be009000010f78000b00370093
:104ec0001e0fe8004e0090009e007800808f50007a
:104ed00005003500ce009000010f78000300370078
:104ee0000000000001003700000000002e4090008c
:104ef000e24f5000cbff3a00a028ef001e007800e0
:104f00000080fa00000006000000fa0005e1a90098
:104f10000421a800200880000080a1000090a100ca
:104f200020088800200880000040a1000050a00058
:104f30002008880005e1a80011e1a9008008800090
:104f40000040a0000050a00080088800e030200051
:104f50006008880011e1a80013e1a9009008800012
:104f60000040a0000050a0009008880040e8210008
:104f70007008880013e1a8000080fa000000060015
:104f80000000fa009621ef0000102000a00c88001d
:104f9000900c8000f001b300900c880092e1a90011
:104fa000800c800000a0a10000b0a10000c0a00003
:104fb000800c88009821ef00800c80000000a10088
:104fc0000010a0000020a000800c8800aa21ef00a3
:104fd00040e82100400d8800300d8000f001b30052
:104fe000300d8800a6e1a900200d800000a0a000df
:104ff00000b0a10000c0a100200d8800200d80009d
:105000000000a1000010a0000020a000200d8800da
:10501000a021ef0040e82100f00c8800e10c8000a6
:1050200000fe2f00008060000010a000e00c88004f
:105030009ce1a900d00c800000a0a00000b0a1005d
:1050400000c0a100d00c8800d00c80000000a0009f
:105050000010a0000020a000d00c88000080fa0002
:10506000000006000000fa0070002000c0000700e9
:105070005045880051458000c05d2000808f500061
:10508000070036005145800090872000808f500037
:1050900003003e0010c0b300ace8b7001e003700ac
:1050a0005145800090872000808f50000700360017
:1050b0005145800010a82000808f500003003e0062
:1050c00020c0b300ace8b7001300370051458000a2
:1050d00010a82000808f5000070036005145800046
:1050e000d0dd2000808f500003003e0030c0b300b0
:1050f000ace8b7000800370051458000e0dd200033
:10510000808f50000300360040c0b300ace8b70009
:1051100001003700ac68ef00acc8bf000004e0003d
:1051200019003200c18a200091407800adc8bf004c
:1051300080cf500004003200acc8bf00ade8b7001b
:10514000ae68ef0013003700aec8bf000040e800b3
:10515000aee8b700aec8bf00e14f500002003a0011
:10516000adc8bf000c003700aec8bf00ea4f50000a
:105170000700340000122a0071002000d800070048
:10518000adc8bf0004003700ae68ef000100370073
:10519000000000000040eb000080fa000000060064
:020000040000fa
:1051a000aa080000060000000000000056080000e9
:1051b0002400000002000000320032000032000033
:1051c0000f000f00000f0000190019000019000067
:1051d0009cff9c00ff0000006400640000140000bd
:1051e000831e84001ec800002c0800002a00000056
:1051f00000000000a00800000a00000000000000fd
:10520000b0080000060000000000000000080000d8
:105210002c00000002000000048a08008a0c8a00aa
:10522000108a14008a188a001c8a20008a248a00a6
:10523000288a2c008a308a00348a38008a3c8a0006
:10524000408a44008a488a004c8a50008a173700f6
:10525000173700007a080000180000000000000066
:10526000920800000e000000020000000000020092
:105270000004000034894000894c890001000000ce
:10528000b60800000200000000000000000000005e
:020000040000fa
:105290000400fa00000f7800110798004000240075
:1052a000003b8800f00720000040780032e0b700a3
:1052b00001e02f001e00780000804000000f780001
:1052c0009e0090001e0078000108bb000500fc0055
:1052d00050052000303b8800a00a2000303b8800a9
:1052e00061e7a800000000000000000000000000ce
:1052f000013b800000002800008060000000e0000a
:10530000fbff3a000080fa00000006000200fa00ed
:10531000000f7800f00720000040780032e0b7006e
:1053200001e02f001e00780000804000000f780090
:105330001e0078001000ba000080fa00000006008d
:105340000000fa0000402800001a88004223ef0005
:1053500050002000201a88004823ef005023ef005f
:1053600000042000701a88000080fa000000060087
:105370000400fa00100798009e009000411a88006f
:10538000401a8000fa0f500004003a005583a8002c
:105390000005200001002000510007004023a80064
:1053a00040062000010020004d0007004023a90016
:1053b0000100370085a0a900001a8000610060008c
:1053c0000000e000fbff32005583a90001188000b7
:1053d000010f78001e0078000080fa00000006002f
:1053e0000000fa000080fa00000006000000fa0049
:1053f000100820000016880040c0280040168800d1
:10540000302020008016880010002000002788002f
:105410004000280010278800300020002027880046
:10542000c222ef00ca22ef00d222ef0000202000ab
:10543000700388009000200080038800e8ff0700c8
:10544000bfff0700d6fd070000a821006100200073
:10545000230007005cfd070071f607000080fa00da
:10546000000006000200fa0060002000c0ff0700f4
:10547000000f7800b03120009e007800808f50002f
:1054800003003c000000eb00000f78001000370024
:1054900020f820009e007800808f50000300340028
:1054a00040062000000f78000900370041ce2f0091
:1054b0001e804000cf80de00fcec070052b82e00ba
:1054c000d31f24007bec0700bcec0700000f780022
:1054d0001e007800004078000080fa0000000600fe
:020000040000fa
:1054e000f03fb1000180b10006003500ee03090075
:1054f00000000000403fb1000180b100fbff3d0013
:105500001000b000203fb00002003500008009000c
:0855100000000000000006008d
:020000040000fa
:0200000400fffb
:10fc000000000000000000000000000000000000f4
:10fc100000000000000000000000000000000000e4
:10fc200000000000000000000000000000000000d4
:10fc300000000000000000000000000000000000c4
:10fc400000000000000000000000000000000000b4
:10fc500000000000000000000000000000000000a4
:10fc60000000000000000000000000000000000094
:10fc70000000000000000000000000000000000084
:10fc80000000000000000000000000000000000074
:10fc90000000000000000000000000000000000064
:0cfca00000000000000000000000000058
:020000040000fa
:0200000401f009
:04000000ffff0000fe
:020000040000fa
:0200000401f009
:04000800ffff0000f6
:020000040000fa
:0200000401f009
:04000c00ffff0000f2
:020000040000fa
:0200000401f009
:04001000bbff000032
:020000040000fa
:0200000401f009
:04001400ffff0000ea
:020000040000fa
:0200000401f009
:04001800ffff0000e6
:020000040000fa
:0200000401f009
:04001c00ffff0000e2
:020000040000fa
:0200000401f009
:04002000ffff0000de
:00000001FF
