:020000040000fa
:080000000002040000000000f2
:020000040000fa
:100008009a0200009a0200009a0200009a02000078
:100018009a0200009a0200009a0200009a02000068
:100028009a0200009a0200009a0200009a02000058
:100038009a0200009a0200009a0200009a02000048
:020000040000fa
:020000040000fa
:10040000af8920000eff20000e01880000000000d0
:10041000000020000000e000020032000001200087
:10042000200288000c000700a066220001002000c6
:1004300011000700000020000000e0000200320070
:100440000000020000000000e20d020000000000b9
:100450000040da000000fe004440a900406f200088
:100460000000e0000300320000002000a00188002e
:100470004440a80000000600910188008000780038
:100480000000eb0015003700e280400032a0b4000d
:100490009101ba00e280400032a0b4009102ba009b
:1004a000e280400032a0b4000002eb00472bde00e7
:1004b000f507b200602ce10004003a000059eb009f
:1004c0008301e900fdff3e00040037006128e100e0
:1004d000010032000082eb00040007001101ba00a5
:1004e0000200e000e8ff3a00000006003159ba00bf
:1004f0008301e9000c0032002159ba008301e900b0
:10050000080032000400e00003003a00e2804000ee
:1005100032a0b400f5ff370011d9ba008301e90019
:10052000faff3a008100e800e180400032a0b40008
:10053000000006000040da000000fe0003f0a20008
:10054000889fbe008a9fbe008c1f7800170107009d
:100550001e0133006450e1004f0032006420e100ce
:100560005200320003826c0007003b000905d000f6
:100570000306d000820f54000c065d000200390013
:100580000200320089017800030678008582550058
:1005900004003d000003fd008103fd008502ea0028
:1005a0008b854200840f720002003b006000100047
:1005b000e08018006011b8000005eb007a28e10027
:1005c0000a00390006007800c75ddd00f707b200b9
:1005d000878075002d003700828171000a01780044
:1005e000610560008180d1000080d3008502e900b0
:1005f000f9ff3b00060440008784480002003b00ee
:1006000060041400e0841c000988a3000700320085
:100610008a81710082817100610164008904d100c6
:100620000884d3008b05e800170037000978a30081
:1006300013003a000b00e000130034008b05e900c2
:100640000804440089844c000a4474000978a3001b
:100650000d003a000b00e000070034008b05e900b4
:100660000804440089844c0001003a000b0020007b
:100670000978a300f7ff32000001eb000200370009
:10068000828171000a0178008d0007000cf0a7003c
:1006900001f0a000d60037006420e10002003a001b
:1006a000838f6c00d60033000801be000200be003c
:1006b000cf003700889fbe008a9fbe008c1f780045
:1006c000ba000700c100330003866c006450e100eb
:1006d0002e0032006420e100330032006150e1005e
:1006e0002f0032006120e100310032008585550085
:1006f000eb07b000090020000804200005003700c7
:100700000804440089844c000a00310006034300b9
:1007100087834b000001530081815b00f8ff3300a9
:100720000203be000800a0000804440089844c00b5
:10073000f6ff3900c639dd00830173000100320085
:10074000130020008904d1000884d3000998a30075
:10075000050032000800a7000300a0008904d100b2
:100760000884d3008b05e8008904d1000884d300f5
:100770000001eb000281d2005100070001f0a1004e
:100780000cf0a70001f0a000990037006420e10000
:100790009b0032000801be000200be00f7ff3700d8
:1007a0006120e100960032006000b800f3ff3700de
:1007b0000000200001f82700f0ff37000001be0014
:1007c000650007000470a70003f0a1006509b100ef
:1007d000160032000d0035006828e10006003500e3
:1007e000f0ff2f00f1ff27000300e00013003b00a3
:1007f0000100280000000500000040008180480042
:100800008502e900fcff3a0008003700f88f42003b
:1008100002003c008000eb00000005008100d100d8
:100820000080d3008502e800fcff3a000300e000ee
:1008300002003b0060001000e0801800000006008d
:100840000001be00440007000470a70003f0a100ef
:1008500003f8a30013003a006509b100100032004c
:10086000090035006928e100020035000100280078
:100870000000050000004000818048008502e9007a
:10088000fcff3a0000000600f88f4200050035002a
:100890008100d1000080d3008502e800fcff3a000f
:1008a000000006008000eb00000005004f89de001c
:1008b00082017800ef0037006011b800fd003700ba
:1008c00081002000618055000b003d000b002000de
:1008d00061fe2f000100e1001d00340082817100e3
:1008e000610164008904d1000884d3000000e8009d
:1008f000faff3a00710020006100640003007000fc
:10090000020060000900320061044400e0844c00f1
:100910000988a500050032008b05e8006808e100a1
:1009200002003a008904d1000884d300f20f2000ad
:100930000258e10005003d00c75ddd00f907b20087
:100940008980750008007800000006000bf8270079
:100950008b00780000000500c70ade00f107b20036
:10096000f50fb20008003200e1cf42000200320071
:100970000170a00024000500810f7000010032000a
:100980000408050044000500810f700002003a00d1
:10099000140005008502e9000000400081c0480005
:1009a000fcff3b000170a000240005000004be0015
:1009b000e9ff07000003be000405be000200be0000
:1009c000e5ff0700844f7500000006000200be002e
:1009d0006450e100050036006420e10002003600aa
:1009e0000968a30001003a000800be000160a000f1
:1009f0004f0678004f05be004f04be000000060001
:100a0000f0ff2f00f1ff2700f9ff3700889fbe009d
:100a10008a9fbe008c9fbe00870007008504780077
:100a20000005be006420e10049003e006220e100b4
:100a300003003200090035000bf8a3004400320027
:100a40000bf8a3000800320010022000c044880008
:100a5000f0ff2f00f1ff27003d00370001f82f00c5
:100a6000000020003a0037003d000700b3fe0700f9
:100a70000006be000a00be00324f200053f32300e0
:100a80007a000700060034000c00be0034000700a6
:100a9000aafe07000006be000a00be0002003700e2
:100aa0008904e9000c00be002d0007002e0007009d
:100ab0002b000700a2fe07000001be000c00be00d4
:100ac000fcfe07000005be000001be002600070076
:100ad0000006be00a2f32300430d2c0098fe070081
:100ae000809fbe000c00be00d2e32700d3f02b0095
:100af0001d0007004f01be00eefe07000006be000d
:100b00000a01be00180007000a01be008cfe0700a3
:100b10000006be006148b90064ff07000005be0082
:100b200032082800e3952b000f0007000c01be00df
:100b300083fe07000006be000a00be000200280077
:100b400013f32300080007000c01be007cfe070021
:100b50004f06be004f05be004f04be000000060059
:100b600003f0230002000500889fbe008a9fbe009c
:100b70008c1f78008dff070094ff330003866c0004
:100b80006450e100240032006420e10027003200bc
:100b90006150e100220032006120e10021003200ba
:100ba0008b854200eb07b1000134b800003ab80071
:100bb0000804420089844a00013ab8000030b800b5
:100bc0008880400009014a00040033000000400012
:100bd00081804800020149008b05e900c909dd0058
:100be000830170000100320013002000c814de00f1
:100bf0004814dd004709de001200b200c808de001c
:100c0000088470002eff070001f0a1000cf0a7007f
:100c100001f0a00076ff37006120e10078ff32008c
:100c20000801be000200be00f7ff37006150e1007e
:100c3000fcff3a0072ff37000003be0046ff0700ca
:100c40006220e100020032000600be00050005003f
:100c5000e507b100f107b20004f0230084807000c2
:100c600007f0a70001f0a00024000500f4ff2f000a
:100c70003f003700881f7800030478000300e0007d
:100c800007003d0060001000e080180060011900be
:100c9000e081190002003b0001f02d000300370045
:100ca0000400070008f0a70001f0a0004f0478003e
:100cb00000000600889fbe008a9fbe000082700070
:100cc0000402710004827100260032000004be009c
:100cd0000200be006011b8006b09200095022000e0
:100ce0000182cf000a0039000541b1000082cf0027
:100cf000070039000541b1000982cf000400390026
:100d00000541b1000882cf00010039000541b10062
:100d100005425200120032000a003b00828171003d
:100d2000610164008100d1000080d3008984d30078
:100d30000884d3008b05e8000442e800f7ff3a007e
:100d4000070037000804440089844c000000480074
:100d5000818048008b05e9000442e900f9ff3a0070
:100d6000d7fe07004f05be004f04be00000006007e
:100d7000889fbe008a9fbe00841f78000bff07007b
:100d80004f00780011003300f0ff2f00838f6c00bc
:100d900006003b00040565000a00a70008003700b4
:100da00009f0a6001000200008003700820f540050
:100db000838f5c00030039001000200001003e001a
:100dc0000000200009f0a7000000ea004f05be0067
:0c0dd0004f04be000000e0000000060020
:020000040000fa
:100ddc00ff81000083ff000083810000c9fb00003d
:100dec00c1810000fdb90000fd810000b9d50000f3
:100dfc00d981000081ff00008181000081c50000c5
:100e0c00cbb3000081850000bfc5000081e100006c
:100e1c009987000081c50000cbb3000081fd000064
:100e2c00a59900008181000081ff000081810000f4
:100e3c00ff9300008d81000081c30000ffc3000000
:100e4c0081810000ffc30000bd81000081ff000014
:100e5c008181000081810000ffb30000cf81000080
:100e6c00c9d50000a581000085bf0000c581000028
:100e7c008181000081ff0000ff810000fd9d0000ca
:100e8c00fd810000b9d50000d9810000fd8500006e
:100e9c00f9810000fdc10000fd81000081ff000010
:100eac008181000081ff0000cbc3000081fd0000a8
:100ebc0085f9000081850000bfc5000081b90000e4
:100ecc00d5d9000081f900008585000081ff000064
:100edc0081810000ffc30000bd810000b9c5000086
:100eec00b9810000fdb10000fd810000fd8500000e
:100efc00f981000081ff00008181000081810000e8
:100f0c0081810000fdc10000fd810000fda50000f5
:100f1c0099810000818100008181000081ff000027
:100f2c00ff8100008181000081810000818100002f
:100f3c00818100008181000081810000818100009d
:100f4c008181000081ff00008181000081ff000091
:100f5c00cbc3000081fd000085f9000081850000f5
:100f6c00bfc5000081b90000d5d9000081f900008f
:100f7c008585000081ff000081810000ffc3000017
:100f8c00bd810000b9c50000b9810000fdb10000b1
:100f9c00fd810000fd850000f981000081ff00004b
:100fac00818100008181000081810000fdc1000071
:100fbc00fd810000fda500009981000081810000e9
:100fcc008181000081ff0000ff0100000101000091
:100fdc0001010000010100000101000001010000fd
:100fec0001010000010100000101000001010000ed
:100ffc00010100000101000001010000018100005d
:10100c00c1c10000c181000001010000018100008c
:10101c00c1c10000c1c1000001c10000e1610000bc
:10102c00e1c100008101000081c10000c18100000c
:10103c00810100000101000001010000010100001c
:10104c00010100000101000001010000010100008c
:10105c00010100000101000001010000010100007c
:10106c0001010000010100000101000001ff00006e
:10107c00ff00000000000000000000000000000065
:10108c000000000000000000000000000000000054
:10109c0000000000c0400000e0b0000010000000a4
:1010ac001c3e00007e7f00007f7f00007f7f0000e1
:1010bc007f000000000700000f0c00000c04000073
:1010cc00000700000f0c00000c0f0000071c0000b4
:1010dc001f07000006060000703c00001f0b0000fc
:1010ec001be60000f2bc00006c38000098d0000039
:1010fc00e0b0000060400000400000000000000074
:10110c0000000000000000000000000000000000d3
:10111c000000000000ff0000ff00000000000000c5
:10112c0000000000000000000000000000000000b3
:10113c0000000000000000000000000000000000a3
:10114c00000d00000f060000070300000000000067
:10115c000000000000000000000000000000000083
:10116c000000000000c00000f07700001fc8000065
:10117c00c0000000000000000000000000000000a3
:10118c000000000000000000000000000101000051
:10119c0000070000070c00000c010000010000001b
:1011ac000000000000000000000000000000000033
:1011bc0000000000000000000000000000ff000024
:1011cc00ff00000000000000000000000000000014
:1011dc000000000000000000000000000000000003
:1011ec0000000000000000000000000000000000f3
:1011fc0000000000000000000000000080800000e3
:10120c0080800000c0c00000c0c00000deff0000f5
:10121c00f1e00000c0e10000ffdf0000c4c00000ee
:10122c00c0c00000c0c00000c0c000000000000032
:10123c0000000000000000000000000000000000a2
:10124c000000000000000000000000000000000092
:10125c000000000000000000000000000000000082
:10126c000000000000ff0000ff0000000000000074
:10127c000000000000000000000000000000000062
:10128c000000000000000000000000000000000052
:10129c000000000000000000000000000000000042
:1012ac0000000000c7cf00009d910000b7bf0000f8
:1012bc00b8e00000c080000080800000808000004a
:1012cc008080000080c00000c0e00000b89f0000db
:1012dc0087c10000c060000000000000000000009a
:1012ec0000000000000000000000000000000000f2
:1012fc0000000000000000000000000000000000e2
:10130c0000000000000000000000000000ff0000d2
:10131c00ff80000080800000808000008080000042
:10132c0080800000808000008080000080800000b1
:10133c0080800000808000008080000080800000a1
:10134c008080000080800000808000008081000090
:10135c008383000083830000838300008383000069
:10136c008383000083830000838300008383000059
:10137c008383000083830000838100008180000050
:10138c008080000080800000808000008080000051
:10139c008080000080800000808000008080000041
:1013ac008080000080800000808000008080000031
:1013bc008080000080ff0000060000000800000094
:1013cc000a0000000c0000000e00000010000000dd
:1013dc00120000001400000016000000576100000d
:1013ec007465000072200000546500006d700000f0
:1013fc003a00000053740000656100006d2000008d
:10140c00546500006d7000003a0000004772000047
:10141c006f75000070200000546500006d700000b6
:10142c003a00000050720000657300007320000049
:10143c0022540000696d0000652200002074000039
:10144c006f200000536500007400000074680000f9
:10145c00652000004375000072720000656e00008c
:10146c0074200000546900006d65000000540000f9
:10147c00616e00006b2000004c650000766500007a
:10148c006c3a0000004c00004f5700000053000065
:10149c00686f000074200000546900006d65000046
:1014ac00723a000000500000756d000070200000c2
:1014bc004f75000074700000757400003a00000055
:1014cc00507200006573000073200000224500007c
:1014dc004e54000045520000222000004b650000d5
:1014ec0079000000746f0000205300006574000048
:1014fc00207400006865000020540000696d000035
:10150c00650000005072000065730000732000003d
:10151c00224500004e5400004552000022200000dd
:10152c00746f00002053000065740000205300000d
:10153c0074610000727400002f530000746f00007f
:10154c0070200000546900006d65000073000000fd
:10155c0050490000442000005365000074740000e2
:10156c00696e000067730000206600006f72000057
:10157c0000550000702f0000446e0000204b00004e
:10158c006579000073200000746f00002043000098
:10159c00686100006e6700006500000020200000fc
:1015ac00224500006e7400006572000022200000cd
:1015bc00746f000020410000636300006570000040
:1015cc00742000000053000065740000506f000090
:1015dc00696e0000742000003d20000000470000f0
:1015ec00616900006e2000003d000000496e0000a3
:1015fc007465000067720000616c0000203d000003
:10160c0000440000657200006976000061740000ff
:10161c0069760000652000003d000000ff8100009d
:10162c0081810000818100008181000081810000a6
:10163c008181000081810000818100008181000096
:10164c0081ff00008181000081ff0000cbc30000fe
:10165c0081fd000085f9000081850000bfc50000f8
:10166c0081b90000d5d9000081f900008585000002
:10167c0081ff000081810000ffc30000bd810000dc
:10168c00b9c50000b9810000fdb10000fd8100006a
:10169c00fd850000f981000081ff000081810000c0
:1016ac008181000081810000fdc10000fd810000ee
:1016bc00fda500009981000081810000818100005e
:1016cc0081ff0000537500006e0000004d6f00009c
:1016dc006e000000547500006500000057650000a6
:1016ec0064000000546800007500000046720000a1
:1016fc006900000053610000740000004e550000aa
:10170c004c0000004a4100004e000000464500001d
:10171c00420000004d41000052000000415000000a
:10172c00520000004d410000590000004a550000d5
:10173c004e0000004a5500004c00000041550000ce
:10174c004700000053450000500000004f430000cc
:10175c00540000004e4f00005600000044450000ad
:10176c0043000000280000002a0000002c000000ac
:10177c002e00000030000000320000003400000099
:10178c0036000000380000003a0000003c00000069
:10179c003e00000040000000420000004400000039
:1017ac0046000000480000004a0000004c00000009
:1017bc004e000000500000005200000054000000d9
:1017cc0056000000580000005a0000005c000000a9
:1017dc005e000000224500006e740000657200007f
:1017ec00222000003d2000006e650000787400008f
:1017fc0020460000696500006c6400000055000084
:10180c00702f0000446e0000207400006f20000058
:10181c0063680000616e00006765000020540000e2
:10182c00696d0000650000005e5e00000020000095
:10183c00202000005e5e00005e0000002020000002
:10184c00202000005e5e0000002000002020000030
:10185c0000200000202000005e5e0000005300000d
:10186c0074610000727400002f530000746f00004c
:10187c0070200000666f0000722000000055000010
:10188c00702f0000446e0000204b000065790000b2
:10189c0073200000746f000020630000686f00006c
:1018ac006f73000065000000456e00007465000059
:1018bc00722000004b65000079200000746f00005e
:1018cc002053000065740000005300007461000098
:1018dc0072740000204800006f7500007220000038
:1018ec003d20000000530000746100007274000081
:1018fc00204d0000696e000075740000652000002a
:10190c003d20000000530000746f000070200000a8
:10191c00486f000075720000203d0000005300006d
:10192c00746f0000702000004d6900006e7500009f
:10193c0074650000203d0000000000000101000063
:10194c000000000000000000630c00001f060000f7
:10195c00173b00003b0000000000000000000000ee
:10196c004e0000000600000006ff0000ffff000014
:10197c0048d600002412000008240000ffff0000dd
:10198c00ff000000060000003844000082820000c6
:10199c0044380000140800003e100000381000000d
:1019ac00a06000000010000010100000606000003b
:1019bc0000600000180600007c4200007c4400001f
:1019cc007e400000645200004c4a00004a34000083
:1019dc00382400007e4e00004a3200003c4a0000d1
:1019ec00326200001a060000764a0000764c0000b5
:1019fc00523c00006c6c000000ac00006c0000005d
:101a0c00102800004428000028280000442800006a
:101a1c001002000059060000ffff0000ff7c0000d0
:101a2c00127c00007e5a0000343c00004242000050
:101a3c007e4200003c7e00004a4200007e0a00000c
:101a4c000a3c0000523400007e0800007e42000078
:101a5c007e420000304000003e7e00001866000010
:101a6c007e400000407e00001c7e00007e020000d4
:101a7c007e3c0000423c00007e1200000c7e000008
:101a8c0062fe00007e3200004e4400004a3200002c
:101a9c00027e0000027e0000407e00003e400000fe
:101aac003e7e0000387e000066180000660e0000c6
:101abc00700e0000625a0000460000007e420000da
:101acc0006180000604200007e00000004020000c6
:101adc0004400000404000000002000004740000bc
:101aec00547800007e480000303000004848000068
:101afc00304800007e380000545800007c0a00007a
:101b0c0002980000a47c00007e08000070480000d1
:101b1c007a40000088fa0000007e00001864000083
:101b2c00427e0000407c0000387c00007c040000f9
:101b3c007838000044380000fc240000181800001d
:101b4c0024fc000078040000044800005424000029
:101b5c00043e0000447c0000407c00003c4000003f
:101b6c003c7c0000307c00006c1000006c9c000081
:101b7c00a07c0000645400004c0400000a04000027
:101b8c00ffff0000ffff0000ffff0000ffff000051
:101b9c00ffff0000ffff0000ffff0000ffff000041
:101bac00ffff0000fc4000007cff0000ffff000076
:081bbc00ffff0000ff00000024
:020000040000fa
:101bc4009001fa00889fbe00ee0c07009a0b0700f4
:101bd400b70b07000040eb00004f78000040eb001b
:101be400004f78001a0037001e80fb008000400080
:101bf400e09e280000804000100078008a0c070056
:101c0400800478001e80fb0080004000809e280035
:101c14000080400010007800830c07000004780066
:101c24001e80fb0080004000209e280000804000b1
:101c3400100078007c0c0700800078001e407800bb
:101c440089017800080178001c0a07001e4fe8008b
:101c54001e407800e24f5000e3ff36000000eb0026
:101c6400100798000040eb00404798000040eb004c
:101c7400504798000040eb0060479800f000470090
:101c8400950009008018eb000000eb00601f99002c
:101c94000000eb00701f99000000eb000027990082
:101ca4000040eb00704798006000b80010279900ce
:101cb400212799006000b800302799004127990036
:101cc4006000b80050279900612799000040eb009c
:101cd400004f98000e017800e214b00008000900db
:101ce4000019eb000000eb00003799000000eb0046
:101cf400103799000000eb0020379900606d200038
:101d040030379900a0a5200040379900606d20006d
:101d140050379900408320006037990020b220009a
:101d24007037990060862000003f99000000eb00a6
:101d3400500798008e0078002117b00007000900b2
:101d44008018eb0040472000503f99000000eb0052
:101d5400700798004205200051c0b300e06e2800cf
:101d64009c0807005116800000802000008060005d
:101d740000f0a7000000ea000000e9004f00de00c8
:101d840070279900511680000040200000806000f8
:101d940000f0a7000000ea000000e9004f00de00a8
:101da400002f9900111680000008200000806000b8
:101db40000f0a7000000ea000000e9004f00de0088
:101dc400102f9900911680000020200000806000f0
:101dd40000f0a7000000ea000000e9004f00de0068
:101de400202f9900201820000e004000f204070064
:101df400c28220002118200081004700060009004b
:101e04003119780090002000200c07006f0a0700a9
:101e14008afa070000007800601f99001e249100d0
:101e2400ae2491007e4090000080fb000000400042
:101e34000000470000089000cf80de009afa0700f7
:101e44000001be000800be00bbf90700102799007e
:101e5400212799007e4090000080fb00ee1891003d
:101e640000004000000047007000400001087800b6
:101e74001e249100ae2491007e4090000080fb005f
:101e8400000040000000470000089000cf80de0002
:101e940085fa07000001be000800be00a7f907008c
:101ea40010279900212799001e209100ae2091004f
:101eb4000200200083242400fdf907005ffa0700d4
:101ec40000007800e04188000000eb00ef0b070001
:101ed4003e0a070059fa070000007800701f9900b5
:101ee4003e249100ce2491007e4090000080fb00af
:101ef4002003b000000040000000470000089000ec
:101f0400cf80de0068fa07000001be000800be00b2
:101f140089f9070030279900412799007e409000f5
:101f24000080fb00fe1891002003b0000000400078
:101f34000000470070004000010878003e24910032
:101f4400ce2491007e4090000080fb002003b0006e
:101f5400000040000000470000089000cf80de0031
:101f640051fa07000001be000800be0073f9070023
:101f740030279900412799003e209100ce209100fe
:101f84000200200083242400c9f907002bfa07006b
:101f940000007800f041880040002000bb0b0700df
:101fa4000a0a070025fa07000000780000279900b4
:101fb4005e249100ee2491007e4090000080fb009e
:101fc4004006b000000040000000470000089000f8
:101fd400cf80de0034fa07000001be000800be0016
:101fe40055f9070050279900612799007e40900019
:101ff4000080fb008e2091004006b00000004000ed
:102004000000470070004000010878005e24910041
:10201400ee2491007e4090000080fb004006b0005a
:10202400000040000000470000089000cf80de0060
:102034001dfa07000001be000800be003ff90700ba
:1020440050279900612799007e4090000040e800e5
:1020540070479800fe40900010c3b30080cf50003a
:10206400020036000040eb00704798005e209100ab
:10207400ee20910002002000832424008cf9070044
:10208400eef907000000780000428800de009000ae
:10209400c0418000808f50001d013200c04180008b
:1020a40050079800b041800000017800a0418000f2
:1020b4008000780090418000bd05070042e8b70029
:1020c4007e209100e10f50000300320042c8bf009f
:1020d400e14f50000a003a0010002000302f990010
:1020e4007e209100e10f500002003a009228ef0098
:1020f40005003700904480009044880002003700b7
:102104000000eb00302f99004e409000e94f500042
:10211400020034000000eb00302f9900e0012000a1
:10212400700798007e009000ee0f500019003e00ea
:102134004e4090000040e800404798002016800080
:102144000000d1006140600011c0b30000c0500025
:10215400614060000080fb006100600000004000fe
:1021640022168000d1ff2f00810061000100700061
:10217400201688004e409000ea4f50000d003400b5
:10218400a0c0b30040479800c422a90020168000d4
:10219400080037004e4090000040e9004047980096
:1021a4004e4090000004e00002003d000040eb00bf
:1021b400404798004e409000e14f50000a00340020
:1021c4005e409000e84f500003003400c562a9004f
:1021d4002016800004003700c562a8005e4090000d
:1021e4000040e800504798005e3891000000e80085
:1021f400503f99003e2891000000e000b2003200f8
:10220400ce2891003e289100808f50000a003200b1
:10221400b60707004205200051c0b300e06e280055
:102224006c07070092a1a9009ca1a900a6a1a9007e
:102234000000eb00503f9900d0418000e10f5000b6
:102244000b003a008040eb0040c0b3005107070088
:1022540080a128009807070011c0b30040c0b30054
:102264004c070700c0a2280093070700a800370006
:10227400e8418000b0438000eb0a070008017800c1
:10228400800078000040eb00b10807000037990097
:10229400f8418000c0438000e30a07000801780089
:1022a4008000780010c0b300a90807001037990017
:1022b40008428000d0438000db0a07000801780050
:1022c4008000780020c0b300a108070020379900df
:1022d400f103070011c0b30020c0b3002d070700ad
:1022e4001e2891000000e0000f003200f04380003f
:1022f4007107070011c0b30000c3b300250707002e
:10230400f04180008041eb0012c0b30041c0b30033
:1023140087070700b0c7b3004607070060c4b300cf
:10232400440707000e003700e043800062070700ff
:1023340011c0b30000c3b30016070700e0418000da
:102344008041eb0012c0b30041c0b300780707001e
:10235400b0c7b3003707070060c4b30035070700f0
:1023640021c0b30020c0b3000a0707000044800066
:102374005107070021c0b30000c3b30005070700dd
:10238400004280008041eb0012c0b30041c0b300a2
:1023940067070700b0c7b3002607070060c4b3008f
:1023a4002407070000c2b300220707002e3891005b
:1023b4000000e00036003a0031c0b30020c0b30092
:1023c400f4060700d0a328003b07070031c0b30080
:1023d40000c3b300ef0607007e0090008041eb00cd
:1023e4000041eb0080c0eb005107070050c2b3006e
:1023f4001007070000c2b3000e07070000c2b300b5
:102404000c0707007e009000f80f500040003e00cb
:102414005e28910061001000502f99005e28910001
:102424000000e0003a00320031c0b30000c3b30042
:10243400d806070090a428001f07070000c2b300b5
:10244400fc06070000c2b300fa0607000e809100e4
:102454000000e800008799000e809100fd0f5000f5
:102464002b003600c422a8000e2891000000e000d2
:1024740003003a00004c2d0011002000db0a070085
:10248400c422a9000000eb00008799002000370057
:1024940031c0b30020c0b300be060700d0a428009a
:1024a4000507070031c0b30000c3b300b906070035
:1024b4002e3891008041eb0012c0b30041c0b3003c
:1024c4001b07070012003700821f20008040eb002a
:1024d400a07e2800bf06070041c0b30010c0b300af
:1024e400ac06070000c2b300d2060700de38910034
:1024f400004b200000804000503f990092a1a800aa
:102504009ca1a800a6a1a8000000eb00203f990010
:102514003e2891000000e00031013200b04180000b
:102524000000e00005003a00c0418000e40f5000c4
:1025340002003e00c562a80001003700c562a90080
:102544006e3891000000e800603f9900ee38910079
:10255400800c2000808f5000020036000000eb0049
:10256400603f99002e309100800078006e38910011
:10257400808f500002003600cd02a8000100370011
:10258400cd02a9001e2891000000e000490032009d
:10259400c442a8001e309100500d8800510d8000e7
:1025a4000e3091008080500050e8210000804000ef
:1025b400000d88000e30910080007800000d80002e
:1025c4008080400040e82100808f500004003600e5
:1025d40040e82100f00c8800f00c80000700370070
:1025e4000e30910080007800000d800000804000d3
:1025f4000000e800f00c8800f00c800041c0b3003b
:102604000040eb00630607000e3091008041eb00b0
:102614000041eb0041c0b300c506070041c0b30050
:1026240060c1b3005b0607001e3091008041eb00df
:102634000041eb0041c0b300bd06070041c0b30038
:10264400c0c2b30053060700000d80008041eb00b8
:102654000041eb0041c0b300b506070041c0b30020
:1026640020c4b3004b060700400d80008041eb00fe
:102674000041eb0041c0b300ad0607007e38910075
:102684000000e800703f9900fe389100b0c12000be
:10269400808f500003003e00c0002000b00c880072
:1026a4002c0037009621ef00c0c12000703f990034
:1026b4002800370041c0b3000040eb003506070096
:1026c4000e3091008041eb000041eb0041c0b300ab
:1026d4009706070041c0b30060c1b3002d06070090
:1026e4001e3091008041eb000041eb0041c0b3007b
:1026f4008f06070041c0b300c0c2b300250607001f
:10270400500d80008041eb000041eb0041c0b3005c
:102714008706070041c0b30020c4b3001d060700ac
:10272400000d80008041eb000041eb0041c0b3008c
:102734007f060700c442a9000000eb00703f990027
:10274400aa21ef000e30910051e8210000805000d2
:10275400000d88000e2891000000e0008c0032007b
:102764000000eb00503f990041c0b30020c0b3000b
:102774000806070090a528004f0607001e009000d9
:102784008041eb000041eb0031c0b3006806070054
:1027940050c2b3002706070000c2b3002506070095
:1027a40000c2b3002306070011e1a8000000eb00fb
:1027b400403f99001e389100f40f500002003e0083
:1027c40080022000b00c88001e389100f40f5000e5
:1027d400050036009e38910080022000808f500052
:1027e40001003e009621ef009e38910080022000f7
:1027f400808f5000170036009e389100100420008e
:10280400808f500013003e00b10c800000102000a7
:10281400808f50000f003e006e4090000040e800a2
:10282400604798006e409000e54f50000900360064
:10283400b10c8000f00f2000808f500003003e0098
:10284400b00c800070004000b00c88000040eb0029
:10285400604798009e38910010042000808f50003b
:10286400120036009e38910010322000808f5000f4
:102874000e003e00b00c8000f90f50000b00360033
:102884006e4090000040e800604798006e40900061
:10289400ef4f500005003600b00c80000000e90046
:1028a400b00c88000040eb00604798009e3891000f
:1028b40080162000808f500002003600a001200006
:1028c400b00c88009e38910080252000808f500035
:1028d400010036009621ef009e389100203520003b
:1028e400808f500001003600c422a8009e38910059
:1028f40070352000808f500006003600c422a900e5
:10290400a0332000103f99003e3891000000e800f9
:10291400303f99003e389100e90f50000500360021
:10292400c422a80090252000103f9900a000200098
:10293400303f9900210480000008200000806000de
:102944000000e0000b0032001e3891000000e80097
:10295400103f99009e38910080022000808f500023
:10296400030036002e3891000000e800203f990053
:1029740084e0a900b10c8000400620000088b90062
:10298400000078004800de00100798000f003700b0
:10299400c422a9000000eb00303f990011e1a90016
:1029a4000000eb00103f99004e3891000000e80051
:1029b400403f9900ce389100300d2300808f5000a5
:1029c400020036000000eb00203f99002e28910001
:1029d4000000e0000200320000102000b00c88006b
:1029e4000e2891000000e00007003a001e28910024
:1029f4000000e00004003a002e2891000000e000ee
:102a040001003a009621ef0062080700004f980089
:102a14000e489000e14f50003a003a000000eb00ed
:102a2400503f9900204280000000e00006003c0076
:102a34000000eb00302f9900204280000000e800e5
:102a4400204288002b003700a8050700420520001b
:102a540051c0b300607928005e05070011c0b300bf
:102a640040c0b3004b05070060a62800920507008c
:102a740021c0b30040c0b3004605070080a728006a
:102a84008d0507001300370042080700004f980027
:102a9400204280000000e8002042880000c4290091
:102aa400010020005109070021428000401f20003e
:102ab400808f5000070034004428ef008b05070086
:102ac4004205200051c0b300607928004105070089
:102ad400080037000e489000e24f5000eaff3a0029
:102ae400280207004428ef0000482800e1012000e4
:102af4003e0907004205200051c0b300e06e2800e3
:102b0400340507000e489000e24f500035003a00ab
:102b14000000eb00503f9900204280000000e000dc
:102b240006003c000000eb00302f9900204280009a
:102b34000000e800204288002a0037006b050700e7
:102b44004205200051c0b300607928002105070028
:102b540011c0b3000040eb000e05070080a8280058
:102b640055050700130037000a080700004f9800b6
:102b7400204280000000e8002042880000c42900b0
:102b8400010020001909070021428000401f200095
:102b9400808f5000070034004428ef0053050700dd
:102ba4004205200051c0b3006079280009050700e0
:102bb4000c0037000e489000e24f5000eaff3a0044
:102bc4004428ef00290307004205200051c0b30048
:102bd400e06e2800ff04070000482800e1012000ff
:102be400020907000e489000e34f500009013a0023
:102bf4000000eb00503f9900204280000000e000fc
:102c040006003c000000eb00302f990020428000b9
:102c14000000e80020428800f900370020428000cc
:102c2400e10f50000a003c00300507004205200077
:102c340051c0b30060792800e60407000040eb00af
:102c4400004f9800006c2c00d1022000e708070018
:102c54000040eb00404f980045003700cd070700c7
:102c6400004f980000c4290001002000df0807007d
:102c740021428000401f2000808f50000200340059
:102c84004428ef00de0037000e4890000080fb006f
:102c9400e30f500005003200e40f50000c00320036
:102ca400e10f5000d5003200150037004e48900067
:102cb4000040e900404f98004e4890000004e000b6
:102cc4000c003d000040eb00404f98000c00370022
:102cd4004e4890000040e800404f98004e48900055
:102ce400e24f50000500340020c0b300404f98006c
:102cf400030037000000000001003700000000005e
:102d04008040eb000040eb00a2040700e0aa28008a
:102d1400e904070011c0b3000040eb009d04070064
:102d24004e4890000000fb0080004000c087200057
:102d34000080400010007800df04070031c0b300b9
:102d44000040eb0093040700f0ab2800da0407000e
:102d540041c0b3000040eb008e04070040ad2800e2
:102d6400d5040700204280000000e80020428800cb
:102d74000e489000e24f5000b8ff3a000040eb00cc
:102d8400004f9800d90407004205200051c0b30049
:102d9400607928008f0407008040eb000040eb00be
:102da4007c04070090ae2800c30407004e4890003e
:102db4000000fb008000400060872000008040008d
:102dc4001000780018080700800078004e48900032
:102dd4000000fb000000400000004700603191004b
:102de4004e4890000000fb00000040000000470037
:102df40030309100010278008201780000017800ef
:102e04008040eb00c0c2b300c70607008000780012
:102e14004e4890000000fb00000140006087200045
:102e24000000410010007800e007070011c0b30063
:102e34000040eb005704070050af28009e04070031
:102e44004e4890000000fb0080004000209e2800b7
:102e54000080400010007800f307070000027800ab
:102e6400830c20000001eb0011c0b300c0c2b3000a
:102e7400ad060700800078004e4890000000fb007b
:102e840000014000209e280000004100100078004e
:102e9400c607070021c0b3000040eb003d04070053
:102ea400c0af2800840407004e4890000000fb00d7
:102eb40080004000809e28000080400010007800c0
:102ec400d907070000027800431f20000001eb002f
:102ed40021c0b300c0c2b30093060700800078008d
:102ee4004e4890000000fb0000014000809e280036
:102ef4000000410010007800ac07070031c0b300a7
:102f04000040eb002304070070b028006a040700a7
:102f14004e4890000000fb0080004000e09e280026
:102f24000080400010007800bf070700000278000e
:102f3400430620000001eb0031c0b300c0c2b3005f
:102f440079060700800078004e4890000000fb00de
:102f540000014000e09e28000000410010007800bd
:102f6400920707004e4890000000fb0080004000dc
:102f7400e09e28000080400010007800aa070700a7
:102f8400800478004e4890000000fb008000400060
:102f9400809e28000080400010007800a2070700ef
:102fa400000478004e4890000000fb0080004000c0
:102fb400209e280000804000100078009a07070037
:102fc4008901780008017800800078004e4890005c
:102fd4003a0507004428ef00440407004205200096
:102fe40051c0b300e06e2800fa030700004828002f
:102ff400e1012000fd070700010037000000000088
:103004003a0407004205200051c0b300e06e2800d6
:10301400f00307000e489000e44f50000b003a0004
:10302400a804070000a8210061002000ef070700a2
:103034002e0407000000eb00503f990042052000d9
:1030440051c0b300e06e2800e2030700de389100af
:10305400f04a2000808f500004003600c522a800ea
:10306400004b2000503f990001003700c522a90001
:103074003e289100402f99000060fe0039fb370084
:103084000600fa0020079800ae009000010f7800b7
:103094000000eb00100798001e007800e90f5000b4
:1030a400060036009e0078006a8f50001e009000d3
:1030b4007000400010079800f7ff37001e009000d2
:1030c4001e004000100798001e0090000080fa00c7
:1030d400000006000400fa00100798009e0090000b
:1030e400010f78001e0078000000d100000f780066
:1030f400800720001e0f60001e0078004200de00e2
:103104009e0040001e0090006f00600000804000a0
:103114000080fa00000006000000fa0023002000ee
:10312400610420007205200024742000014a780004
:10313400024a7800034a780050052000303b88009a
:10314400a00a2000303b880027a6a80027e6a90093
:10315400303180000080a0000090a0003031880051
:1031640060012000203188004002210020318800c5
:1031740010122000203188000093220020318800a2
:103184002826ef0026e6a80026c6a80026a6a80042
:103194002686a9002666a9002646a9002626a90097
:1031a4002606a90027e6a80027a6a9009bc0a80018
:1031b4000080fa00000006001400fa00881f78005e
:1031c400000478000000000031318000000021007c
:1031d400008060000000e000fbff3a003031800016
:1031e4000080a0000090a0003031880020318000d1
:1031f400b8ff07003007980021318000010f7800e4
:103204001e0078004800de00b2ff07004007980067
:10321400f00f20001e006000aeff0700500798006a
:1032240021318000110798001e0090004800de0044
:10323400a8ff0700600798009e009000f00f200090
:1032440000806000a3ff0700700798002131800010
:10325400210798002e0090004800de009dff070023
:10326400000f9800ae009000f00f20000080600076
:1032740098ff0700100f9800e600470006000900b9
:10328400311c7800e800b100080078004f04780091
:103294000080fa00000006000e00fa000e0078001c
:1032a400c5ff07008040eb000040eb003903070036
:1032b4001e0078008041eb000041eb0021c0b30008
:1032c4009b030700f0c2b3005a0307001e009000de
:1032d40080004000e0802000008040001000780062
:1032e40075030700f0c2b300520307002e009000dc
:1032f4008041eb000041eb0021c0b3008c030700c8
:103304008040eb0050c2b300220307003e0090004f
:103314008000400000802000008040001000780001
:10332400650307008040eb0020c3b30019030700c6
:103334004e0090008041eb000041eb0021c0b3003f
:103344007b030700a0c3b3003a0307005e009000ac
:103354008041eb000041eb0021c0b300740307007f
:10336400a0c3b300330307006e0090008041eb005c
:103374000041eb0021c0b3006d0307000080fa0098
:10338400000006003000fa00889fbe006600470077
:1033940089ff07003e039000ce0290005e02900079
:1033a400ee0190007e0190008e0890001e089000af
:1033b400260f9800350f9800440f9800530f98007b
:1033c400620f9800710f98000017980021022000e6
:1033d4008100470032ca280006000900b25878006c
:1033e4009102200081004700a2ca280006000900bb
:1033f400b25878000040eb00004f78000040eb002a
:10340400104798000000eb0010079800e000370018
:103414001e0090000000e00005003a00330307009e
:103424004205200051c0b30040b12800e902070062
:103434001e0090000000e800100798009e00900015
:1034440000712200808f5000050036000000eb0060
:10345400100798002503070010c0b3001047980018
:103464002e089000300798003e089000400798000e
:103474004e089000500798005e089000600798007e
:103484006e089000700798007e089000000f980066
:103494000e109000100f98007fff070021c0b300aa
:1034a40040c0b300bb02070000bf280002030700ae
:1034b40031c0b30040c0b300b602070050c02800ba
:1034c400fd0207001e4078000004e00005003a00f9
:1034d40011c0b3000040eb00ae020700a0c12800f9
:1034e400f50207001e407800e14f500005003a0045
:1034f40011c0b3000040eb00a6020700d0c12800b1
:10350400ed0207001e407800e24f500005003a002b
:1035140011c0b300c0c0b3009e02070040c228001f
:10352400e50207001e407800e34f500005003a0012
:1035340011c0b30090c1b30096020700d0c12800a7
:10354400dd0207001e407800e44f50000a003a00f4
:1035540011c0b30050c2b3008e020700b0c22800ed
:10356400d502070011c0b30020c3b30089020700cd
:10357400a0c12800d00207001e407800e54f50008b
:1035840005003a0011c0b30020c3b3008102070054
:10359400f0c22800c80207001e407800e64f500021
:1035a40005003a0011c0b300e0c3b300790207007c
:1035b400f0c22800c00207007605070040479800c3
:1035c4004e4090000000fb00e30f50002400320046
:1035d400e40f500003003200e20f50003f003200bd
:1035e400470037001e80fb00000040000000470039
:1035f400a00890001e80fb000000470010689000a7
:103604000080fb00808f50000a003a001e80fb00ff
:103614009e80fb0081004700a16090008180fb0038
:1036240000004000000047007400400001087800da
:10363400330037001e80fb009e80fb008180400029
:1036440081004700a10890008100e80000004000cc
:10365400000047007400400001087800280037008b
:103664001e80fb000000400000004700a0089000fe
:103674001e80fb0000004700206090000080fb00db
:10368400808f50000a003a001e80fb009e80fb00e1
:1036940081004700916890008180fb000000400099
:1036a400000047007400400001087800140037004f
:1036b4001e80fb009e80fb0081804000810047004b
:1036c400a10890008100e9000000400000004700cc
:1036d4007400400001087800090037001e4078009b
:1036e400e64f500004003a008002070010c0b30007
:1036f40010479800020037001e4fe8000000000049
:1037040058052000383b8800a80a2000383b880070
:1037140027a6a80027e6a900303180000080a00079
:103724000090a000303188003e00900054fe070055
:10373400203188004e00900051fe0700c804dd00cf
:103744005e0090004efe0700008044002031880097
:103754006e0090004afe0700c804dd007e00900061
:1037640047fe070000804400203188000e089000c6
:1037740043fe0700c804dd001e08900040fe070059
:10378400008044002031880027e6a80027a6a9006d
:103794001e4090000004e0001dff320053020700a9
:1037a4003a28ef004f04be000080fa000000060033
:1037b4000600fa00000f780011079800220798000d
:1037c4001e0078008000400080bb2800008040007c
:1037d40010007800940507009e009000810f5000af
:1037e4000b003a001e0078008000400060bc2800f6
:1037f40000804000100078008b050700ae009000a8
:10380400810f500002003a0010002000904488000c
:103814001e0078008000400040bd28000080400069
:1038240010007800800507009e009000810f500072
:103834000a003a001e0078008000400020be2800e4
:10384400008040001000780077050700ae0090006b
:10385400810f500001003a009228ef00904480004c
:10386400004078000080fa00000006000200fa0020
:103874000000eb00000f78009568ef00420037006d
:10388400c404070095e8b700c05d20009e007800de
:10389400808f500089003c0095c8bf000080fb0069
:1038a400e30f500005003200e40f50000b0032001b
:1038b400e10f5000830032001400370094c8bf00a9
:1038c4000040e90094e8b70094c8bf000004e00099
:1038d4000b003d009468ef000c00370094c8bf0053
:1038e4000040e80094e8b70094c8bf00e64f5000d9
:1038f4000500340060c0b30094e8b700030037004b
:103904000000000001003700000000001e007800e5
:10391400e20f500005003c00f401070042052000be
:1039240051c0b30040b12800aa01070011c0b30080
:103934000040eb009701070050c32800de01070098
:1039440094c8bf000000fb008000400000802000fd
:103954000080400010007800d701070031c0b30098
:103964000040eb008b01070050c42800d20107007f
:1039740041c0b3000040eb0086010700a0c5280049
:10398400cd0107001e0fe80095c8bf00e24f5000ac
:10399400bbff3a00d50107004205200051c0b30027
:1039a40040b128008b01070094c8bf000000fb0051
:1039b4008000400080bb2800008040001000780098
:1039c4001905070000407800440007008000fb0050
:1039d40094c8bf000000fb000001400080bb280029
:1039e4000000410010007800f004070094c8bf00f4
:1039f4000000fb008000400060bc28000080400004
:103a04001000780008050700004078007e000700d9
:103a14008000fb0094c8bf000000fb0000014000d0
:103a240060bc28000000410010007800df0407009b
:103a340094c8bf000000fb008000400040bd280087
:103a44000080400010007800f70407000040780070
:103a5400b90007008000fb0094c8bf000000fb0011
:103a64000001400040bd2800000041001000780023
:103a7400ce04070094c8bf000000fb008000400093
:103a840020be28000080400010007800e6040700f3
:103a940000407800f30007008000fb0094c8bf00da
:103aa4000000fb000001400020be2800000041008f
:103ab40010007800bd040700030037000000000078
:103ac4000100370000000000880107000000eb003f
:103ad400000f78000080fa00000006000600fa00db
:103ae400404798000000eb00000f7800ce409000a3
:103af400214798000040eb00304798002504070058
:103b040030479800380037002204070030479800f7
:103b14001e0fe80000a62e00010020003305070058
:103b2400401f20009e007800808f50000400340065
:103b34000000eb00000f780020c0b300304798006d
:103b440011c0b3000040eb0012010700b0c628000a
:103b54005901070011c0b300d0c3b3000d01070021
:103b64002e4090000000fb008041eb000041eb0080
:103b740021c0b3006e0107003e4090000000fb002e
:103b8400e30f500003003200e40f50000a0032003b
:103b9400150037002e4090000040e90020479800af
:103ba4002e4090000004e0000c003d0070c1b30002
:103bb400204798000c0037002e4090000040e80099
:103bc400204798002e409000f74f50000500340025
:103bd4000040eb002047980003003700000000007d
:103be40001003700000000003e409000e24f50000a
:103bf400c5ff3a000000eb00000f78002e40900053
:103c04000080fa00000006000600fa004047980011
:103c14000000eb00000f7800ce4090002147980090
:103c24000040eb0030479800da0307003047980063
:103c340039003700d7030700304798001e0fe8000b
:103c4400003e290041002000e8040700c05d200078
:103c54009e007800808f5000040036000000eb00c6
:103c6400000f780020c0b3003047980021c0b30093
:103c74000040eb00c700070090c728000e010700b2
:103c840021c0b300d0c3b300c20007002e4090008f
:103c94000000fb008041eb000041eb0021c0b300b9
:103ca400230107003e4090000000fb00e30f50009a
:103cb40003003200e40f50000a00320016003700ff
:103cc4002e40900065405000204798002e40900000
:103cd4000004e0000d003d0070c3b30020479800cd
:103ce4000d0037002e4090006540400020479800aa
:103cf400ae40900070c3b30080cf50000500340084
:103d04000040eb002047980003003700000000004b
:103d140001003700000000003e409000e24f5000d8
:103d2400c4ff3a000000eb00000f78002e40900022
:103d34000080fa00000006000600fa0040479800e0
:103d44000000eb00000f7800ce409000214798005f
:103d54000040eb00304798008e030700304798007e
:103d6400380037008b030700304798001e0fe80027
:103d7400003e2900410020009c040700c05d200093
:103d84009e007800808f5000040036000000eb0095
:103d9400000f780020c0b3003047980031c0b30052
:103da4000040eb007b00070090c82800c200070019
:103db40031c0b300d0c3b300760007002e4090009a
:103dc4000000fb008041eb000041eb0021c0b30088
:103dd400d70007003e4090000000fb00e30f5000b6
:103de40003003200e40f50000a00320015003700cf
:103df4002e4090000040e900204798002e4090009b
:103e04000004e0000c003d0070c1b300204798009e
:103e14000c0037002e4090000040e8002047980036
:103e24002e409000f74f5000050034000040eb0096
:103e3400204798000300370000000000010037000d
:103e4400000000003e409000e24f5000c5ff3a00e1
:103e54000000eb00000f78002e4090000080fa0074
:103e6400000006000600fa00404798000000eb003e
:103e7400000f7800ce409000214798000040eb00ee
:103e84003047980043030700304798003900370053
:103e940040030700304798001e0fe800003e290049
:103ea4004100200051040700c05d20009e007800fe
:103eb400808f5000040036000000eb00000f7800f3
:103ec40020c0b3003047980041c0b3000040eb006d
:103ed4003000070050c928007700070041c0b30034
:103ee400d0c3b3002b0007002e4090000000fb005d
:103ef4008041eb000041eb0021c0b3008c000700bf
:103f04003e4090000000fb00e30f5000030032002d
:103f1400e40f50000a003200160037002e409000d3
:103f240065405000204798002e4090000004e000b7
:103f34000d003d0070c3b300204798000d0037000a
:103f44002e4090006540400020479800ae4090000d
:103f540070c3b30080cf5000050034000040eb0074
:103f640020479800030037000000000001003700dc
:103f7400000000003e409000e24f5000c4ff3a00b1
:103f84000000eb00000f78002e4090000080fa0043
:103f9400000006000200fa00004f78001147980064
:103fa40000c8b3001e407000804078000040eb0061
:103fb400e30007009e40900000c4b30000c07000fe
:103fc400804078000040eb00dd0007000080fa002c
:103fd400000006000800fa00100798004147980006
:103fe400320798004e409000804078000040eb007b
:103ff400e8ff07000000eb00000f7800070037001f
:104004001e0090001e0040001040780080407800a0
:1040140010c0b300ca0007001e0fe8003e00900065
:104024009e007800808f5000f5ff39000080fa0070
:10403400000006000400fa00204798002e4090007b
:104044000000fb000002b100000f78001e007800a1
:104054006300b90000007800000f780020cb28002e
:104064001e004000104078008040780010c0b3006b
:10407400b30007001e00e80021cb2800614078004f
:104084008040780010c0b300ad0007001e80e80037
:1040940021cb2800614078008040780010c0b30034
:1040a400a70007008040eb0010c0b300a400070085
:1040b4000080fa00000006000200fa00000f7800f9
:1040c400040037001e007800104078001e0fe8003e
:1040d400d8ff07001e007800104078000004e000bc
:1040e400f8ff3a000080fa00000006000200fa001f
:1040f4000000eb00000f7800040037008040eb0064
:1041040010c0b3008e0007001e0fe800701f2000cf
:104114009e007800808f5000f8ff34008040eb0050
:104124000040eb009bff07000080fa00000006003f
:104134001000fa0050079800414f9800524f980021
:10414400634f9800e4004700010009008018eb0069
:104154008058eb0040002000000f78000000eb00c6
:10416400100798005e0090000000e00006003d008b
:10417400d0c2b300afff07005e0090000000ea0069
:1041840050079800170037006e489000e14f500028
:1041940014003a00b0c2b300a6ff070011003700b4
:1041a400de009000a000200000017800110009004a
:1041b4008200d8008000fd00804078006400470041
:1041c4001e00400001487800de009000a00020009e
:1041d40000017800110009008200d80050079800ff
:1041e4001e0fe9005e0090000000e000ecff3a00c2
:1041f4004e489000e14f40000b003a0003003700a6
:104204001e0090000000e80010079800e40047003a
:104214001e00900000804000104078000004e00080
:10422400f7ff3200040037004e4890000000fb0006
:1042340065001000100798009e009000010f7800a0
:1042440006003700640047001e004000104078005c
:104254000043b00077ff07001e0fe8005e4890009f
:104264000000fb00650010009e0f5000f5ff3c00ad
:104274005e489000e14f500005003a00e0c2b300f0
:104284006cff07000e4890000043b00069ff070070
:104294005e489000e24f500008003a00e0c2b300cc
:1042a40064ff07007e4090000043b00061ff0700f8
:1042b4000e4890000043b0005eff07000080fa0043
:1042c400000006000000fa00d0a2a900d082a900d4
:1042d400d062a900d0e2a900d0c2a900d482a9006a
:1042e400d4a2a900d462a900d4c2a900d4c2a8004f
:1042f40011c2b3000040eb0011000700e1cbb30092
:104304000040eb000e00070051c0b3000040eb007a
:104314000b00070041c1b3000040eb000800070098
:1043240001c2b3000040eb0005000700c1c0b300a8
:104334000040eb00020007000080fa0000000600c5
:104344000400fa002047980031479800be409000ce
:10435400114798002e4090000004e00002003a004b
:10436400d462a90001003700d462a800d4e2a900f5
:104374000040eb00004f78000b003700d482a90006
:104384001e4090000004e00001003d00d482a8001b
:10439400d4a2a8001e40900000404000104798009e
:1043a400d4a2a9001e4fe8001e407800e74f500039
:1043b400f2ff3600d4e2a8000080fa0000000600f4
:1043c4000200fa000000eb00000f7800080037003c
:1043d4001e007800004078008040eb00edfe0700ee
:1043e40011c0b30010c0b300d5ff07001e0fe800d2
:1043f400300520009e007800808f5000f4ff3400c8
:104404000000eb00000f7800080037001e00780061
:104414000040780051c0b300defe070001c8b300bd
:1044240010c0b300c6ff07001e0fe80030052000cf
:104434009e007800808f5000f4ff34000000eb00f1
:10444400000f7800090037001e0078000040780053
:104454008040780030c5b300cefe070080c0eb007a
:1044640010c0b300b6ff07001e0fe8001e0078005e
:10447400e50f5000f4ff34000000eb00000f78005b
:10448400090037001e007800004078008040780062
:104494000040eb00bffe070080c0eb0010c0b3007b
:1044a400a7ff07001e0fe8001e007800e50f50006c
:1044b400f4ff34000080fa00000006000800fa004f
:1044c400004f7800110798002207980033079800de
:1044d4001e00fb008000400060842000008040003b
:1044e4009e009000010878001e00fb008000400040
:1044f400c084200000804000ae00900001087800d5
:104504001e00fb0080004000208520000080400049
:10451400be009000010878001e00fb0080004000ef
:10452400e0852000008040008000eb000108780056
:104534001e00fb0080004000a08620000080400098
:104544008000eb00010878000080fa0000000600fb
:104554000e00fa00004f9800510798006207980077
:104564000000eb0010079800de0090006e00900041
:1045740000805000200798000e4890000080fb0047
:10458400800040006084200000804000900078009b
:104594002e0090000088b9000000780030079800d1
:1045a4000e4890000081fb000e4890000080fb0044
:1045b40080004000e08520000080400090017800e9
:1045c4000e4890000080fb0080004000c084200062
:1045d40000804000900078002e0090000088b90010
:1045e400000078008080410002014100e085200045
:1045f40000004100010878000e4890000080fb0094
:1046040080004000e0852000008040009000780099
:104614000e4890000080fb0000014000008720004d
:104624000000410010007800808f50000c003d0015
:104634000e4890000080fb008e4890008180fb00b3
:104644000181400001872000810041009100780031
:1046540000014000e08520000000410001087800ce
:104664000e4890000080fb0080004000e0852000a0
:1046740000804000900078000e4890000080fb000d
:1046840000014000808520000000410010007800f7
:10469400808f50000c0034000e4890000080fb0016
:1046a4008e4890008180fb000181400081852000bc
:1046b400810041009100780000014000e085200065
:1046c40000004100010878000e4890000080fb00c3
:1046d40080004000408620000080400010007800e8
:1046e400ae009000808050000e4890000080fb00d7
:1046f40000014000208520000000410010007800e7
:104704000088b90000007800100798000e48900057
:104714000080fb00800040004086200000804000b4
:10472400ae009000010878000e4890000080fb0065
:1047340080004000e0852000008040009000780068
:104744003e009000808040001e009000008f4000da
:104754000e4890000080fb0080004000008720008d
:1047640000804000100078009e0f500006003400c6
:104774000e4890000080fb0080004000008720006d
:1047840000804000100f78000e4890000080fb006d
:1047940080004000808520000080400010007800e8
:1047a4009e0f500006003d000e4890000080fb0064
:1047b400800040008085200000804000100f7800b9
:1047c4001e0078000080fa00000006000200fa00d3
:1047d400000f78001e0078008000eb0035f0070021
:1047e4000001be0000002f00f1572400b0ef0700c5
:1047f4000200200003f823004fef07000001be0071
:1048040000802600c1612400a9ef0700204488002d
:1048140031448800204480003144800002802a0012
:10482400d3612400a2ef070040448800514488006b
:10483400404480005144800073f0070040448800e5
:10484400514488004044800051448000b207210054
:10485400a357240096ef0700404488005144880081
:104864004044800051448000f2f02c00b3b5230092
:1048740032ef0700404488005144880040448000df
:10488400514480000001be000000200001f8230014
:1048940087ef07004044880051448800404480006a
:1048a40051448000323329008338240022ef07006a
:1048b40040448800514488004044800051448000b2
:1048c4000200200003122400a6f0070040448800e0
:1048d400514488004044800051448000020020007c
:1048e400031124009ff0070002002000030a2400a3
:1048f4006fef070002002000033a24000fef0700c7
:104904004044880051448800404480005144800061
:10491400caef0700000078008000eb00e5ef070015
:104924000080fa00000006000c00fa0040479800de
:10493400514798003207980043079800540798009d
:10494400de009000010f78009200070020479800d5
:10495400320037008f000700204798001044800081
:104964000000e8001044880000c429000100200071
:104974009e01070011448000803e2000808f50007b
:1049840004003400d9fd07008228ef000040eb004a
:1049940020479800de4090004e4090007dfd0700c7
:1049a4008041eb0012c0b30041c0b3001e00780088
:1049b400dffd07002e4090000000fb00e30f5000d5
:1049c40003003200e40f50000900320013003700e6
:1049d4001e0fe9003e0090009e007800808f50007a
:1049e4000b003c00be009000010f78000b00370064
:1049f4001e0fe8004e0090009e007800808f50004b
:104a040005003500ce009000010f78000300370048
:104a14000000000001003700000000002e4090005c
:104a2400e24f5000cbff3a008228ef001e007800ce
:104a34000080fa00000006000000fa0005e1a90069
:104a44000421a800200880000080a1000090a1009b
:104a540020088800200880000040a1000050a00029
:104a64002008880005e1a80011e1a9008008800061
:104a74000040a0000050a00080088800e030200022
:104a84006008880011e1a80013e1a90090088000e3
:104a94000040a0000050a0009008880040e82100d9
:104aa4007008880013e1a8000080fa0000000600e6
:104ab4000000fa009621ef0000102000a00c8800ee
:104ac400900c8000f001b300900c880092e1a900e2
:104ad400800c800000a0a10000b0a10000c0a000d4
:104ae400800c88009821ef00800c80000000a10059
:104af4000010a0000020a000800c8800aa21ef0074
:104b040040e82100400d8800300d8000f001b30022
:104b1400300d8800a6e1a900200d800000a0a000af
:104b240000b0a10000c0a100200d8800200d80006d
:104b34000000a1000010a0000020a000200d8800ab
:104b4400a021ef0040e82100f00c8800e10c800077
:104b540000fe2f00008060000010a000e00c880020
:104b64009ce1a900d00c800000a0a00000b0a1002e
:104b740000c0a100d00c8800d00c80000000a00070
:104b84000010a0000020a000d00c88000080fa00d3
:104b9400000006000000fa0070002000bb000700bf
:104ba4006044880061448000c05d2000808f500014
:104bb400070036006144800090872000808f5000f9
:104bc40003003e0010c0b3008ee8b7001e0037009b
:104bd4006144800090872000808f500007003600d9
:104be4006144800010a82000808f500003003e0024
:104bf40020c0b3008ee8b700130037006144800082
:104c040010a82000808f5000070036006144800007
:104c1400d0dd2000808f500003003e0030c0b30080
:104c24008ee8b7000800370061448000e0dd200012
:104c3400808f50000300360040c0b3008ee8b700f8
:104c4400010037008e68ef008ec8bf000004e0004a
:104c540019003200e1882000914078008fc8bf001d
:104c640080cf5000040032008ec8bf008fe8b70028
:104c74009068ef001300370090c8bf000040e800c0
:104c840090e8b70090c8bf00e14f500002003a001e
:104c94008fc8bf000c00370090c8bf00ea4f500017
:104ca4000700340000122a0071002000cf00070022
:104cb4008fc8bf00040037009068ef000100370080
:104cc400000000000040eb000080fa000000060035
:020000040000fa
:104cd4008c080000060000000000000046080000e8
:104ce4001800000002000000320032000032000010
:104cf4000f000f00000f0000190019000019000038
:104d0400831e84001ec900005e0800001800000015
:104d140000000000820800000a00000000000000fb
:104d240092080000060000000000000000080000d7
:104d34002c00000002000000688b6c008b708b005c
:104d4400748b78008b7c8b00808b84008b888b0029
:104d54008c8b90008b948b00988b9c008ba08b0089
:104d6400a48ba8008bac8b00b08bb4008b173700de
:104d7400173700002c0800001a0000000000000093
:104d8400760800000c000000020000000000020091
:104d940000040000f48900008a0c8a0098080000ce
:0c4da40002000000000000000000000001
:020000040000fa
:104db0000400fa00000f780011079800400024005a
:104dc000003b8800f00720000040780032e0b70088
:104dd00001e02f001e00780000804000000f7800e6
:104de0009e0090001e0078000108bb000500fc003a
:104df00050052000303b8800a00a2000303b88008e
:104e000061e7a800000000000000000000000000b2
:104e1000013b800000002800008060000000e000ee
:104e2000fbff3a000080fa00000006000200fa00d2
:104e3000000f7800f00720000040780032e0b70053
:104e400001e02f001e00780000804000000f780075
:104e50001e0078001000ba000080fa000000060072
:104e60000000fa0000402800001a88004223ef00ea
:104e700050002000201a88004823ef005023ef0044
:104e800000042000701a88000080fa00000006006c
:104e90000400fa00100798009e009000411a880054
:104ea000401a8000fa0f500004003a005583a80011
:104eb00000052000010020004d0007004023a8004d
:104ec0004006200001002000490007004023a900ff
:104ed0000100370085a0a900001a80006100600071
:104ee0000000e000fbff32005583a900011880009c
:104ef000010f78001e0078000080fa000000060014
:104f00000200fa0060002000e1ff0700000f7800b7
:104f1000b03120009e007800808f500003003c00dc
:104f20000000eb00000f78001000370020f8200090
:104f30009e007800808f500003003400400620005f
:104f4000000f78000900370041ce2f001e8040007e
:104f5000cf80de0055ee070052b82e00d31f24008c
:104f6000d4ed070015ee0700000f78001e00780052
:104f7000004078000080fa00000006000000fa00ff
:104f80000080fa00000006000000fa00100820006f
:104f90000016880040c028004016880030202000fd
:104fa000801688001000200000278800400028009c
:104fb000102788003000200020278800c222ef0040
:104fc000ca22ef00d222ef00ecff0700a4ff070087
:104fd000bdfc070000a821006100200004000700bc
:104fe00043fc07004df807000080fa0000000600af
:020000040000fa
:104ff000f03fb1000180b10006003500ee0309006a
:1050000000000000403fb1000180b100fbff3d0007
:105010001000b000203fb000020035000080090001
:08502000000000000000060082
:020000040000fa
:0200000400fffb
:10fc000000000000000000000000000000000000f4
:10fc100000000000000000000000000000000000e4
:10fc200000000000000000000000000000000000d4
:10fc300000000000000000000000000000000000c4
:10fc400000000000000000000000000000000000b4
:10fc500000000000000000000000000000000000a4
:10fc60000000000000000000000000000000000094
:10fc70000000000000000000000000000000000084
:10fc80000000000000000000000000000000000074
:10fc90000000000000000000000000000000000064
:0cfca00000000000000000000000000058
:020000040000fa
:0200000401f009
:04000000ffff0000fe
:020000040000fa
:0200000401f009
:04000800ffff0000f6
:020000040000fa
:0200000401f009
:04000c00ffff0000f2
:020000040000fa
:0200000401f009
:04001000bbff000032
:020000040000fa
:0200000401f009
:04001400ffff0000ea
:020000040000fa
:0200000401f009
:04001800ffff0000e6
:020000040000fa
:0200000401f009
:04001c00ffff0000e2
:020000040000fa
:0200000401f009
:04002000ffff0000de
:00000001FF
