:020000040000fa
:080000000001040000000000f3
:020000040000fa
:0400080004020000ee
:020000040000fa
:04000c0004020000ea
:020000040000fa
:0400100004020000e6
:020000040000fa
:0400140004020000e2
:020000040000fa
:0400180004020000de
:020000040000fa
:04001c0004020000da
:020000040000fa
:0400200004020000d6
:020000040000fa
:0400240004020000d2
:020000040000fa
:0400280004020000ce
:020000040000fa
:04002c0004020000ca
:020000040000fa
:0400300004020000c6
:020000040000fa
:0400340004020000c2
:020000040000fa
:0400380004020000be
:020000040000fa
:04003c0004020000ba
:020000040000fa
:0400400004020000b6
:020000040000fa
:0400440004020000b2
:020000040000fa
:0400480004020000ae
:020000040000fa
:04004c0004020000aa
:020000040000fa
:0400500004020000a6
:020000040000fa
:0400540004020000a2
:020000040000fa
:04005800040200009e
:020000040000fa
:04005c00040200009a
:020000040000fa
:040060000402000096
:020000040000fa
:040064000402000092
:020000040000fa
:04006800040200008e
:020000040000fa
:04006c00040200008a
:020000040000fa
:040070000402000086
:020000040000fa
:040074000402000082
:020000040000fa
:04007800040200007e
:020000040000fa
:04007c00040200007a
:020000040000fa
:040080000402000076
:020000040000fa
:040084000402000072
:020000040000fa
:04008800040200006e
:020000040000fa
:04008c00040200006a
:020000040000fa
:040090000402000066
:020000040000fa
:040094000402000062
:020000040000fa
:04009800040200005e
:020000040000fa
:04009c00040200005a
:020000040000fa
:0400a0000402000056
:020000040000fa
:0400a4000402000052
:020000040000fa
:0400a800040200004e
:020000040000fa
:0400ac00040200004a
:020000040000fa
:0400b0000402000046
:020000040000fa
:0400b4000402000042
:020000040000fa
:0400b800040200003e
:020000040000fa
:0400bc00040200003a
:020000040000fa
:0400c0000402000036
:020000040000fa
:0400c4000402000032
:020000040000fa
:0400c800040200002e
:020000040000fa
:0400cc00040200002a
:020000040000fa
:0400d0000402000026
:020000040000fa
:0400d4000402000022
:020000040000fa
:0400d800040200001e
:020000040000fa
:0400dc00040200001a
:020000040000fa
:0400e0000402000016
:020000040000fa
:0400e4000402000012
:020000040000fa
:0400e800040200000e
:020000040000fa
:0400ec00040200000a
:020000040000fa
:0400f0000402000006
:020000040000fa
:0400f4000402000002
:020000040000fa
:0400f80004020000fe
:020000040000fa
:0400fc0004020000fa
:020000040000fa
:0401000004020000f5
:020000040000fa
:0401040004020000f1
:020000040000fa
:0401080004020000ed
:020000040000fa
:04010c0004020000e9
:020000040000fa
:0401100004020000e5
:020000040000fa
:0401140004020000e1
:020000040000fa
:0401180004020000dd
:020000040000fa
:04011c0004020000d9
:020000040000fa
:0401200004020000d5
:020000040000fa
:0401240004020000d1
:020000040000fa
:0401280004020000cd
:020000040000fa
:04012c0004020000c9
:020000040000fa
:0401300004020000c5
:020000040000fa
:0401340004020000c1
:020000040000fa
:0401380004020000bd
:020000040000fa
:04013c0004020000b9
:020000040000fa
:0401400004020000b5
:020000040000fa
:0401440004020000b1
:020000040000fa
:0401480004020000ad
:020000040000fa
:04014c0004020000a9
:020000040000fa
:0401500004020000a5
:020000040000fa
:0401540004020000a1
:020000040000fa
:04015800040200009d
:020000040000fa
:04015c000402000099
:020000040000fa
:040160000402000095
:020000040000fa
:040164000402000091
:020000040000fa
:04016800040200008d
:020000040000fa
:04016c000402000089
:020000040000fa
:040170000402000085
:020000040000fa
:040174000402000081
:020000040000fa
:04017800040200007d
:020000040000fa
:04017c000402000079
:020000040000fa
:040180000402000075
:020000040000fa
:040184000402000071
:020000040000fa
:04018800040200006d
:020000040000fa
:04018c000402000069
:020000040000fa
:040190000402000065
:020000040000fa
:040194000402000061
:020000040000fa
:04019800040200005d
:020000040000fa
:04019c000402000059
:020000040000fa
:0401a0000402000055
:020000040000fa
:0401a4000402000051
:020000040000fa
:0401a800040200004d
:020000040000fa
:0401ac000402000049
:020000040000fa
:0401b0000402000045
:020000040000fa
:0401b4000402000041
:020000040000fa
:0401b800040200003d
:020000040000fa
:0401bc000402000039
:020000040000fa
:0401c0000402000035
:020000040000fa
:0401c4000402000031
:020000040000fa
:0401c800040200002d
:020000040000fa
:0401cc000402000029
:020000040000fa
:0401d0000402000025
:020000040000fa
:0401d4000402000021
:020000040000fa
:0401d800040200001d
:020000040000fa
:0401dc000402000019
:020000040000fa
:0401e0000402000015
:020000040000fa
:0401e4000402000011
:020000040000fa
:0401e800040200000d
:020000040000fa
:0401ec000402000009
:020000040000fa
:0401f0000402000005
:020000040000fa
:0401f4000402000001
:020000040000fa
:0401f80004020000fd
:020000040000fa
:0401fc0004020000f9
:020000040000fa
:10020000ef8c20000eff27000e0188000000000088
:10021000000020000000e000020032000001200089
:100220002002880014000700790007000000e000a9
:1002300003003a00e00d2200010020000200370018
:100240000000200001002000810f7000010032003a
:1002500014000700000020000000e000020032004f
:1002600000000200000000008c0a020000000000f4
:100270000040da000000fe004440a900604f20006a
:100280000000e00003003200002020009001880000
:100290004440a800000006008a1f78008b1f7800e9
:1002a00000000600a1028800800478000000eb0036
:1002b0001f003700e284440054a0b4009905ba003e
:1002c000e284440054a0b4009906ba00e2844400d9
:1002d00054a0b4000006eb00476fde00fd07b2003b
:1002e000ae018800636ce10003003a00eaff0700fa
:1002f0000000eb000e003700606ce10008003a00df
:10030000004deb000a05e800020039003420ec0043
:100310000af0a0008b05e900f9ff3e000400370059
:100320006168e100010032000086eb000b0007006d
:1003300019c7ba001905ba000e04e00003003a001c
:100340000a00e000dbff3a0000000600fe07b200f2
:10035000ae0288008a047800f5ff37000cd0a300b5
:10036000e20f4d001c00390089027800354dba00bb
:100370000a05e800020039003420ec000af0a00071
:100380008b05e9000f003200254dba000a05e80090
:10039000020039003420ec000af0a0008b05e900cf
:1003a000080032000c00e0000600320015cdba0053
:1003b0000a05e800020039003420ec000af0a00031
:1003c0008b05e9008984e80054a0b4000b00e0002c
:1003d000e2ff3a00000006009902ba00055d7800cd
:1003e0008b05e900f7ff3200c82ade00055d7800c2
:1003f0008b05e900f3ff32000c00e000f1ff320052
:1004000019ddba00eeff37000040da000000fe0000
:100410000000050003f0a200889fbe008a9fbe0076
:100420008c1f78001b010700220133006450e1009b
:100430004f0032006420e1005200320003826c0061
:1004400007003b000905d0000306d000820f5400ce
:100450000c065d00020039000200320089017800bc
:10046000030678008582550004003d000003fd006e
:100470008103fd008502ea008b854200840f720033
:1004800002003b0060001000e08018006011b8001e
:100490000005eb007a28e1000a0039000600780028
:1004a000c75ddd00f707b200878075002d003700bb
:1004b000828171000a017800610560008180d100ad
:1004c0000080d3008502e900f9ff3b0006044000ec
:1004d0008784480002003b0060041400e0841c0094
:1004e0000988a300070032008a81710082817100af
:1004f000610164008904d1000884d3008b05e80001
:10050000170037000978a30013003a000b00e00041
:10051000130034008b05e9000804440089844c0072
:100520000a4474000978a3000d003a000b00e000b3
:10053000070034008b05e9000804440089844c005e
:1005400001003a000b0020000978a300f7ff3200f9
:100550000001eb0002003700828171000a0178007f
:10056000910007000cf0a70001f0a000da003700ae
:100570006420e10002003a00838f6c00da0033004f
:100580000801be000200be00d3003700889fbe00f5
:100590008a9fbe008c1f7800be000700c500330094
:1005a00003866c006450e1002e0032006420e100fc
:1005b000330032006150e1002f0032006120e10081
:1005c0003100320085855500eb07b000090020009e
:1005d00008042000050037000804440089844c000a
:1005e0000a0031000603430087834b0000015300db
:1005f00081815b00f8ff33000203be000800a00009
:100600000804440089844c00f6ff3900c639dd0037
:100610008301730001003200130020008904d1001f
:100620000884d3000998a300050032000800a70041
:100630000300a0008904d1000884d3008b05e800e2
:100640008904d1000884d3000001eb000281d200ac
:100650005500070001f0a1000cf0a70001f0a00078
:100660009d0037006420e1009f0032000801be00b9
:100670000200be00f7ff37006120e1009a0032005f
:100680006000b800f3ff37000000200001f82700e9
:10069000f0ff370014002000ca003700f4ff2f00dd
:1006a000c80037000001be00650007000470a70005
:1006b00003f0a1006509b100160032000d003500fd
:1006c0006828e10006003500f0ff2f00f1ff270049
:1006d0000300e00013003b000100280000000500bb
:1006e00000004000818048008502e900fcff3a00dc
:1006f00008003700f88f420002003c008000eb0049
:10070000000005008100d1000080d3008502e800d0
:10071000fcff3a000300e00002003b006000100014
:10072000e0801800000006000001be004400070041
:100730000470a70003f0a10003f8a30013003a001f
:100740006509b10010003200090035006928e10098
:1007500002003500010028000000050000004000f4
:10076000818048008502e900fcff3a000000060095
:10077000f88f4200050035008100d1000080d300d1
:100780008502e800fcff3a00000006008000eb0054
:10079000000005004f89de0082017800a4003700c8
:1007a0006011b800b2003700810020006180550060
:1007b0000b003d000b00200061fe2f000100e10056
:1007c0001d00340082817100610164008904d10040
:1007d0000884d3000000e800faff3a00710020000e
:1007e0006100640003007000020060000900320034
:1007f00061044400e0844c000988a5000500320033
:100800008b05e8006808e10002003a008904d10085
:100810000884d300f20f20000258e10005003d00db
:10082000c75ddd00f907b200898075000800780017
:10083000000006000bf827008b0078000000050080
:10084000c70ade00f107b200f50fb200080032005f
:10085000e1cf4200020032000170a0002400050038
:10086000810f7000010032000408050044000500fb
:10087000810f700002003a00140005008502e900b3
:100880000000400081c04800fcff3b000170a00058
:10089000240005000004be00e9ff07000003be00bd
:1008a0000405be000200be00e5ff0700844f75008e
:1008b000000006000200be006450e10005003600a2
:1008c0006420e100020036000968a30001003a003c
:1008d0000800be000160a0004f0678004f05be0072
:1008e0004f04be0000000600f0ff2f00f1ff2700bc
:1008f000f9ff3700889fbe008a9fbe008c1f7800da
:10090000e4ff0700ebff330003866c006450e10056
:10091000240032006420e100270032006150e10031
:10092000220032006120e100210032008b8542006c
:10093000eb07b1000134b800003ab80008044200e7
:1009400089844a00013ab8000030b800888040002d
:1009500009014a0004003300000040008180480083
:10096000020149008b05e900c909dd00830170001f
:100970000100320013002000c814de004814dd001e
:100980004709de001200b200c808de0008847000cb
:1009900085ff070001f0a1000cf0a70001f0a00006
:1009a000cdff37006120e100cfff32000801be001b
:1009b0000200be00f7ff37006150e100fcff3a0083
:1009c000c9ff3700889fbe008a9fbe00841f780041
:1009d000b0ff07004f00780011003300f0ff2f0038
:1009e000838f6c0006003b00040565000a00a70029
:1009f0000800370009f0a6001000200008003700aa
:100a0000820f5400838f5c00030039001000200027
:100a100001003e000000200009f0a7000000ea00ed
:100a20004f05be004f04be000000e00000000600bd
:100a3000881f7800030478000300e00007003d00f1
:100a400060001000e080180060011900e0811900ca
:100a500002003b0001f02d000300370004000700f6
:100a600008f0a70001f0a0004f0478000000060085
:100a7000889fbe008a9fbe00008270000402710041
:100a800004827100260032000004be000200be0095
:100a90006011b8006b092000950220000182cf0090
:100aa0000a0039000541b1000082cf00070039007b
:100ab0000541b1000982cf00040039000541b100b1
:100ac0000882cf00010039000541b1000542520003
:100ad000120032000a003b00828171006101640053
:100ae0008100d1000080d3008984d3000884d30022
:100af0008b05e8000442e800f7ff3a0007003700e2
:100b00000804440089844c000000480081804800ab
:100b10008b05e9000442e900f9ff3a0022ff0700d3
:0c0b20004f05be004f04be0000000600a0
:020000040000fa
:100b2c00ff81000083ff000083810000c9fb0000ef
:100b3c00c1810000fdb90000fd810000b9d50000a5
:100b4c00d981000081ff00008181000081c5000077
:100b5c00cbb3000081850000bfc5000081e100001f
:100b6c009987000081c50000cbb3000081fd000017
:100b7c00a59900008181000081ff000081810000a7
:100b8c00ff9300008d81000081c30000ffc30000b3
:100b9c0081810000ffc30000bd81000081ff0000c7
:100bac008181000081810000ffb30000cf81000033
:100bbc00c9d50000a581000085bf0000c5810000db
:100bcc008181000081ff0000ff810000fd9d00007d
:100bdc00fd810000b9d50000d9810000fd85000021
:100bec00f9810000fdc10000fd81000081ff0000c3
:100bfc008181000081ff0000cbc3000081fd00005b
:100c0c0085f9000081850000bfc5000081b9000096
:100c1c00d5d9000081f900008585000081ff000016
:100c2c0081810000ffc30000bd810000b9c5000038
:100c3c00b9810000fdb10000fd810000fd850000c0
:100c4c00f981000081ff000081810000818100009a
:100c5c0081810000fdc10000fd810000fda50000a8
:100c6c0099810000818100008181000081ff0000da
:100c7c00ff810000818100008181000081810000e2
:100c8c008181000081810000818100008181000050
:100c9c008181000081ff00008181000081ff000044
:100cac00cbc3000081fd000085f9000081850000a8
:100cbc00bfc5000081b90000d5d9000081f9000042
:100ccc008585000081ff000081810000ffc30000ca
:100cdc00bd810000b9c50000b9810000fdb1000064
:100cec00fd810000fd850000f981000081ff0000fe
:100cfc00818100008181000081810000fdc1000024
:100d0c00fd810000fda5000099810000818100009b
:100d1c008181000081ff00005761000074650000b4
:100d2c0072200000546500006d7000003a00000055
:100d3c0053740000656100006d20000054650000d4
:100d4c006d7000003a000000477200006f750000e3
:100d5c0070200000546500006d7000003a00000027
:100d6c0050720000657300007320000022540000d4
:100d7c00696d000065220000207400006f200000e7
:100d8c0053650000740000007468000065200000ca
:100d9c004375000072720000656e00007420000044
:100dac00546900006d65000000540000616e000085
:100dbc006b2000004c650000766500006c3a00006a
:100dcc00004c00004f57000000530000686f0000fb
:100ddc0074200000546900006d650000723a000038
:100dec0000500000726500007373000020220000a8
:100dfc00454e00005445000052220000204b0000dc
:100e0c0065790000007400006f200000536500003d
:100e1c007420000074680000652000005469000014
:100e2c006d650000005000007265000073730000d7
:100e3c0020220000454e00005445000052220000c4
:100e4c00207400006f200000536500007420000027
:100e5c005374000061720000742f00005374000082
:100e6c006f70000020540000696d00006573000075
:100e7c00005000004944000020530000657400003d
:100e8c00746900006e67000073200000666f00003c
:100e9c0072000000557000002f4400006e2000000e
:100eac004b65000079730000207400006f20000077
:100ebc0043680000616e00006765000000200000c0
:100ecc0020220000456e00007465000072220000b4
:100edc00207400006f200000416300006365000077
:100eec007074000020000000536500007450000076
:100efc006f6900006e740000203d000020000000af
:100f0c004465000061640000426100006e640000f2
:100f1c00203d000000470000616900006e200000c9
:100f2c003d000000496e000074650000677200000f
:100f3c00616c0000203d0000004400006572000060
:100f4c00697600006174000069760000652000007d
:100f5c003d00000000000000000000004e000000fa
:100f6c000600000006ff0000ffff000048d600004e
:100f7c002412000008240000ffff0000ff00000006
:100f8c000600000038440000828200004438000053
:100f9c00140800003e10000038100000a060000093
:100fac0000100000101000006060000000600000e5
:100fbc00180600007c4200007c4400007e400000cb
:100fcc00645200004c4a00004a34000038240000ef
:100fdc007e4e00004a3200003c4a000032620000a3
:100fec001a060000764a0000764c0000523c0000c5
:100ffc006c6c000000ac00006c00000010280000bd
:10100c00442800002828000044280000100200009a
:10101c0059060000ffff0000ff7c0000127c00005e
:10102c007e5a0000343c0000424200007e42000028
:10103c003c7e00004a4200007e0a00000a3c000090
:10104c00523400007e0800007e4200007e42000008
:10105c00304000003e7e0000186600007e4000001c
:10106c00407e00001c7e00007e0200007e3c0000e2
:10107c00423c00007e1200000c7e000062fe00006c
:10108c007e3200004e4400004a320000027e000016
:10109c00027e0000407e00003e4000003e7e0000cc
:1010ac00387e000066180000660e0000700e00000e
:1010bc00625a0000460000007e4200000618000044
:1010cc00604200007e0000000402000004400000aa
:1010dc00404000000002000004740000547800003e
:1010ec007e480000303000004848000030480000c6
:1010fc007e380000545800007c0a00000298000062
:10110c00a47c00007e080000704800007a400000bb
:10111c0088fa0000007e000018640000427e000087
:10112c00407c0000387c00007c0400007838000013
:10113c0044380000fc2400001818000024fc0000b7
:10114c00780400000448000054240000043e000011
:10115c00447c0000407c00003c4000003c7c0000d3
:10116c00307c00006c1000006c9c0000a07c000027
:10117c00645400004c0c0000120c0000ffff000037
:10118c00ffff0000ffff0000ffff0000ffff00005b
:10119c00ffff0000ffff0000ffff0000ffff00004b
:1011ac00fc4000007cff0000ffff0000ffff000080
:1011bc00ff000000ff8100008181000081810000a0
:1011cc00818100008181000081810000818100000b
:1011dc00818100008181000081ff0000818100007d
:1011ec0081ff0000cbc3000081fd000085f90000e9
:1011fc0081850000bfc5000081b90000d5d9000071
:10120c0081f900008585000081ff000081810000cc
:10121c00ffc30000bd810000b9c50000b98100000a
:10122c00fdb10000fd810000fd850000f98100008a
:10123c0081ff00008181000081810000818100001c
:10124c00fdc10000fd810000fda50000998100009a
:10125c00818100008181000081ff00005375000036
:10126c006e0000004d6f00006e0000005475000011
:10127c006500000057650000640000005468000021
:10128c007500000046720000690000005361000008
:10129c00740000004e5500004c0000004a41000054
:1012ac004e00000046450000420000004d41000089
:1012bc005200000041500000520000004d4100005f
:1012cc00590000004a5500004e0000004a5500002d
:1012dc004c00000041550000470000005345000041
:1012ec00500000004f430000540000004e4f00001f
:1012fc005600000044450000430000002245000059
:10130c006e74000065720000222000003d20000079
:10131c006e650000787400002046000069650000ce
:10132c006c64000000550000702f0000446e00003b
:10133c00207400006f20000063680000616e0000e4
:10134c006765000020540000696d00006500000016
:10135c005e5e000000200000202000005e5e0000a9
:10136c005e00000020200000202000005e5e0000d7
:10137c0000200000202000000020000020200000a1
:10138c005e5e000000000000ff81000081ff000095
:10139c00cbc3000081ed000091ed000081c900007d
:1013ac00fbc1000081850000bfc5000081ff00006b
:1013bc008181000081ff0000cbc3000081fd000093
:1013cc0085f9000081850000bfc5000081b90000cf
:1013dc00d5d9000081f900008585000081ff00004f
:1013ec0081810000ffc30000bd810000b9c5000071
:1013fc00b9810000fdb10000fd810000fd850000f9
:10140c00f981000081ff00008181000081810000d2
:10141c0081810000fdc10000fd810000fda50000e0
:10142c0099810000818100008181000081ff000012
:10143c005374000061720000742f0000537400009c
:10144c006f700000206600006f720000200000002a
:10145c00557000002f4400006e2000004b6500000a
:10146c0079730000207400006f2000006368000096
:10147c006f6f000073650000004500006e74000083
:10148c0065720000204b000065790000207400009c
:10149c006f200000536500007400000053740000be
:1014ac006172000074200000486f0000757200002b
:1014bc00203d000020000000537400006172000009
:1014cc00742000004d6900006e750000746500000a
:1014dc00203d000020000000537400006f700000dd
:1014ec00204800006f750000722000003d000000d5
:1014fc00537400006f700000204d0000696e0000f6
:0c150c0075740000652000003d00000028
:020000040000fa
:10151800b201fa00889fbe009c0c070010c0b300ff
:10152800004f78000040eb00104798000040eb00a7
:10153800204798000000eb00200798000040eb00cf
:10154800604798006000b800208f9900318f99009b
:101558006000b800408f9900518f99006000b80072
:10156800608f9900718f99000000eb004007980088
:101578000000eb00500798000000eb00009799006e
:101588000000eb00109799000000eb0020979900ed
:101598000000eb00700798008e007800611ab00018
:1015a800050009008018eb000000eb00500f9800c0
:1015b8000040eb00405f98000040eb0000579800a7
:1015c8000000eb00100f98000000eb00200f9800bf
:1015d8000000eb00300f98004205200051c0b30016
:1015e80060592800a2080700e1368000002020008a
:1015f8000080600000f0a7000000ea000000e90099
:101608004f00de00505f98005e589000e14f500098
:1016180003003a002e0890000000e800200f980010
:101628005e5890000004e00003003a003e08900075
:101638000000e800300f9800a08a2000520407003c
:10164800d0002000350c0700708799002e8c91007f
:10165800be8c91006e4090000080fb0000004000ae
:101668000000470000109000cf80de0047fc070014
:101678000001be000800be0064fb0700208f99002f
:10168800318f99006e4090000080fb00fe80910031
:1016980000004000000047000002b0000108780088
:1016a8002e8c9100be8c91006e4090000080fb0053
:1016b800000040000000470000109000cf80de00ce
:1016c80032fc07000001be000800be0050fb070006
:1016d800208f9900318f99002e889100be88910043
:1016e8000200200003272400a6fb07000cfc0700cb
:1016f8000000780040879900c0002000070c070010
:10170800008f99004e8c9100de8c91006e40900005
:101718000080fb00c003b00000004000000047004c
:1017280000109000cf80de0018fc07000001be000a
:101738000800be0035fb0700408f9900518f9900c3
:101748006e4090000080fb008e889100c003b000be
:1017580000004000000047000002b00001087800c7
:101768004e8c9100de8c91006e4090000080fb0052
:10177800c003b000000040000000470000109000c7
:10178800cf80de0001fc07000001be000800be009b
:101798001ffb0700408f9900518f99006e40900001
:1017a8000040e80060479800ee409000b0c3b300e6
:1017b80080cf5000020036000040eb0060479800e0
:1017c8004e889100de889100020020000327240043
:1017d8006cfb0700d2fb07000000780050879900d7
:1017e800b0002000cd0b0700108f99006e8c91007f
:1017f800fe8c91006e4090000080fb008007b000d6
:10180800000040000000470000109000cf80de007c
:10181800defb07000001be000800be00fbfa07005f
:10182800608f9900718f99006e4090000080fb00d6
:101838009e8891008007b00000004000000047002b
:101848000002b000010878006e8c9100fe8c9100b7
:101858006e4090000080fb008007b0000000400050
:101868000000470000109000cf80de00c7fb070093
:101878000001be000800be00e5fa0700608f99006d
:10188800718f99006e4090000040e8006047980012
:10189800ee409000b0c3b30080cf50000200360085
:1018a8000040eb00604798006e889100fe88910028
:1018b800020020000327240032fb070098fb0700e2
:1018c8000000780060879900514580007e009000f4
:1018d800808f5000d800320062458000714580003a
:1018e800b045800001060700405f98005e589000f0
:1018f800e14f5000030032004e589000e14f500075
:1019080003003a0010c0b3000057980002003700e7
:101918000040eb00005798001e409000e94f50002f
:10192800020036000040eb000057980080012000bc
:10193800500f98005e089000e90f500002003e002a
:101948000040eb00005798005e089000e90f500037
:1019580010003e001e4090000040e800104798002c
:101968001e409000f44f50000200360040c1b30002
:10197800104798001e409000f34f500003003e00af
:10198800a2a6a8001035800002003700a2a6a90070
:10199800103580005145800071079800c001200073
:1019a8005e0b0700700f98000000eb0040079800de
:1019b8000e0037004e009000000040000000470075
:1019c800408091009e0a0700800078004e00900039
:1019d80000004000000047008018b00001087800af
:1019e8004e0090000000e800400798004e0090006c
:1019f800e10f5000efff34000ec8bf00e14f500068
:101a08001f003a008040eb0040c0b3008907070080
:101a1800606b2800cf07070011c0b30040c0b300b7
:101a280084070700a06c2800ca07070031c0b3006c
:101a380040c0b3007f0707002e0890008041eb00ec
:101a48000041eb0051c0b300e007070000c2b3003b
:101a58009f07070041c0b30040c0b30075070700e7
:101a68003e0890008041eb000041eb0051c0b300fc
:101a7800d607070000c2b300950707006e003700bd
:101a88002a05070011c0b30020c0b300690707008a
:101a9800c133800000022000008060000000e000e8
:101aa8000f00320050468000aa07070011c0b3009b
:101ab80000c3b3005f0707005e8091008041eb0020
:101ac80012c0b30041c0b300c0070700b0c7b300dd
:101ad8007f07070060c4b3007d0707000e003700ca
:101ae800404680009b07070011c0b30000c3b30045
:101af800500707004e8091008041eb0012c0b300f0
:101b080041c0b300b1070700b0c7b30070070700b2
:101b180060c4b3006e07070021c0b30020c0b30043
:101b280044070700604680008a07070021c0b30009
:101b380000c3b3003f0707006e8091008041eb00af
:101b480012c0b30041c0b300a0070700b0c7b3007c
:101b58005f07070060c4b3005d07070000c2b30059
:101b68005b0707007e9091000000e00025003a0026
:101b780031c0b30020c0b3002e070700b06d2800a5
:101b88007407070031c0b30000c3b300290707007a
:101b98005e0890008041eb000041eb0080c0eb0044
:101ba8008a07070050c2b3004907070000c2b30004
:101bb8004707070000c2b300450707005e0890000a
:101bc800f80f50001c003e0010c0b3001e4f50001c
:101bd8001e4078000004e0001700320031c0b30056
:101be80000c3b30013070700706e280059070700e9
:101bf80000c2b3003607070000c2b300340707006d
:101c08000d00370031c0b30020c0b300090707003a
:101c1800b06e28004f07070031c0b30000c3b300ff
:101c2800040707007e9091008041eb0012c0b300ca
:101c380041c0b300650707000e509000e14f500007
:101c480000013a00604580000000e00005003a000d
:101c580050458000e40f500002003c00a2a6a800f6
:101c680001003700a2a6a900c133800000022000ad
:101c7800008060000000e0000a00320080182000a8
:101c88000e00400000017800c18b200010c0b30096
:101c98005f08070081fa0700000078001097990094
:101ca80009003700801820000e004000000178006d
:101cb800c18b20000040eb005508070077fa0700a9
:101cc8000000780000979900801820000e0040005e
:101cd80000017800c18b200020c0b3004c08070029
:101ce8006efa07000000780020979900c133800041
:101cf80000022000008060000000e00019003200af
:101d0800f14580004e809100808050002046800080
:101d1800808f500002003600a2c6a80029003700b4
:101d28004e9091000000e80040979900ce909100f5
:101d3800309c2000808f5000020034000000eb002f
:101d4800409799009e9091004e909100808f50008e
:101d580002003400a2c6a8001a003700a2c6a900d3
:101d680018003700e14580004e80910080805000c7
:101d780010468000808f500002003600a2c6a800de
:101d8800100037003e9091000000e800309799005d
:101d9800be909100309c2000808f500002003400db
:101da8000000eb00309799008e9091003e909100d2
:101db800808f500002003400a2c6a800010037003e
:101dc800a2c6a900014680006e8091008080500064
:101dd80030468000808f500002003600a2e6a8003e
:101de800100037005e9091000000e80050979900bd
:101df800de909100309c2000808f5000020034005b
:101e08000000eb0050979900ae9091005e90910011
:101e1800808f500002003400a2e6a80001003700bd
:101e2800a2e6a900c0338000700060000000e00056
:101e38006c0032000000eb00500798006e90910093
:101e4800f90f500002003c00401f200020079800b6
:101e58006e909100f90f500006003400ee9091004a
:101e680080022000808f500002003c000000eb0040
:101e780020079800ee90910080022000808f50008b
:101e88000b003400ee90910010042000808f500069
:101e980007003c00ae009000f03f2000808f50000b
:101ea80003003e002e0090000080e8002007980004
:101eb800ee90910010042000808f50001300340031
:101ec800ee90910010322000808f50000f003c00ef
:101ed800ae009000f0182000808f50000b003600f4
:101ee8002e4090000040e800204798002e409000c7
:101ef800e94f5000050036002e0090000000e90070
:101f0800200798000040eb0020479800ee909100d1
:101f1800b0132000808f50000200340040012000e0
:101f280020079800ee90910020352000808f500007
:101f380001003400ca26a800ee9091004038200025
:101f4800808f500006003400ca26a90010322000f5
:101f5800609799000e9891000000e800009f990092
:101f68000e989100e90f500005003400ca26a80019
:101f78009025200060979900a0002000009f9900fc
:101f88004104800000082000008060000000e0009c
:101f9800250032001e0890000000e800100f98008d
:101fa8001e089000ea0f50000c003a006e90910055
:101fb8000000e80060979900ee90910080022000f0
:101fc800808f5000030034007e9091000000e800ec
:101fd800709799000000eb00100f980088e0a900a6
:101fe80011003700ca26a9000000eb00009f9900e5
:101ff800a1e1a9000000eb00609799000000eb0048
:10200800200798005e0090000000e8005007980044
:10201800de009000300d2300808f50000200340055
:102028000000eb0070979900c033800068006000e2
:102038000000e0000a00320000802000200798001d
:1020480007003700a2c6a900a2e6a9000000eb001d
:10205800709799000000eb0020079800ca26a90095
:10206800c0338000700060000000e0000b003a0000
:10207800c133800000022000008060000000e00002
:1020880006003a00c0338000680060000000e000ed
:1020980002003a000000eb002007980097080700ac
:1020a800404f98004e489000e14f500039003a00e8
:1020b800804080000000e00006003c000040eb008b
:1020c80000579800804080000000e80080408800a9
:1020d800300037002c0607004205200051c0b3002d
:1020e800e0632800e205070011c0b30040c0b30058
:1020f800d0050700706f28001606070021c0b3003e
:1021080040c0b300cb0507009070280011060700f7
:102118001300370079080700404f9800804080007e
:102128000000e8008040880000c429000100200069
:10213800b709070081408000401f2000808f5000b1
:10214800070034001028ef000f06070042052000a2
:1021580051c0b300e0632800c50507000d00370033
:102168004e489000e24f5000eaff3a00a08a200053
:10217800cc0107001028ef004205200051c0b30031
:1021880060592800ba05070000482800e10120002e
:102198009f0907004e489000e24f500033003a0074
:1021a800804080000000e00006003c000040eb009a
:1021b80000579800804080000000e80080408800b8
:1021c8002a003700f00507004205200051c0b3007f
:1021d800a05e2800a605070011c0b3000040eb0070
:1021e8009405070090712800da05070013003700ee
:1021f80042080700404f9800804080000000e80037
:102208008040880000c429000100200080090700e0
:1022180081408000401f2000808f5000070034005c
:102228001028ef00d80507004205200051c0b30070
:10223800a05e28008e0507000c0037004e4890006d
:10224800e24f5000eaff3a001028ef00cd030700e4
:102258004205200051c0b3006059280084050700da
:1022680000482800e1012000690907004e48900055
:10227800e34f500012013a00804080000000e00067
:1022880006003c000040eb000057980080408000aa
:102298000000e80080408800090137008040800085
:1022a800e10f50000a003c00b70507004205200076
:1022b80051c0b300e06328006d0507000040eb0043
:1022c800404f9800006c2c00d102200050090700f4
:1022d8000040eb00005f980048003700070807003f
:1022e800404f980000c42900010020004809070059
:1022f80081408000401f2000808f5000070034007c
:102308001028ef00a00507004205200051c0b300c7
:102318006059280056050700e90037004e4890002c
:102328000000fb00e30f500003003200e40f5000f0
:102338000a003200150037000e5890000040e900ee
:10234800005f98000e5890000004e0000c003d006b
:102358000040eb00005f98000c0037000e5890001a
:102368000040e800005f98000e589000e24f5000cf
:102378000500340020c0b300005f98000300370058
:102388000000000001003700000000008040eb0062
:102398000040eb0027050700f07328006d050700d3
:1023a80011c0b3000040eb00220507000e58900052
:1023b8000000fb0080004000808c2000008040006e
:1023c800100078006305070031c0b3000040eb003f
:1023d80018050700007528005e05070041c0b30016
:1023e8000040eb0013050700507628005905070048
:1023f800804080000000e800804088004e4890003f
:10240800e24f5000b5ff3a000040eb00404f980003
:102418005d0507004205200051c0b300e0632800b5
:10242800130507008040eb000040eb0001050700a2
:10243800a0772800470507000e5890000004fb000d
:102448000e5890000000fb0080004000c08b200068
:1024580000804000100078000002780063b8200077
:10246800626d20008040eb00c0c2b300ff07070088
:102478008000780008014400c08b20000000410063
:102488000108780011c0b3000040eb00e904070020
:10249800607828002f0507000e5890000004fb0004
:1024a8000e5890000000fb0080004000208c2000a7
:1024b80000804000100078000002780043062000e9
:1024c8005200200011c0b300c0c2b300e7070700e4
:1024d8008000780008014400208c200000004100a2
:1024e8000108780021c0b3000040eb00d1040700c8
:1024f80010792800170507000e5890000004fb000b
:102508000e5890000000fb00c200dd002081200072
:10251800008040001000be0060f80700000078004e
:1025280000027800830c20000001eb0021c0b300fa
:10253800c0c2b300cd070700cf80de0093f80700c4
:10254800c241dd0022812000028141000089be00d5
:1025580031c0b3000040eb00b604070080792800c2
:10256800fc0407000e5890000004fb000e58900071
:102578000000fb00c200dd00e08120000080400078
:102588001000be0045f8070000007800000278003f
:10259800431f20000001eb0031c0b300c0c2b300ec
:1025a800b2070700cf80de0078f80700c241dd00df
:1025b800e2812000028141000089be0041c0b300d1
:1025c8000040eb009b040700307a2800e104070074
:1025d8000e5890000004fb000e5890000000fb000d
:1025e800c200dd00a0822000008040001000be0074
:1025f8002af807000000780000027800430620004f
:102608000001eb0041c0b300c0c2b3009707070048
:10261800cf80de005df80700c241dd00a282200005
:10262800028141000089be000e5890000000fb00a6
:10263800c200dd00a0822000008040001000be0023
:1026480016f80700800478000e5890000000fb0080
:10265800c200dd00e0812000008040001000be00c4
:102668000ef80700000478000e5890000000fb00e8
:10267800c200dd0020812000008040001000be0064
:1026880006f8070000007800890178000801780042
:10269800800078000e589000b00507001028ef0061
:1026a800b90407004205200051c0b3006059280052
:1026b8006f04070000482800e101200054080700c3
:1026c8004e489000e44f500006003a0025050700e8
:1026d800ad0407004205200051c0b300605928002e
:1026e800630407000060fe00bffb37000000fa002b
:1026f800cde1a90050052000303b8800a00a200049
:10270800303b8800cd61a900740207000004a200d4
:102718000004e0000800320090702100100f8800cb
:1027280000402200000f880090232000f00e88004f
:1027380000502500e00e880000802f00800e8800e1
:10274800f0ff2300900e8800d421ef00000028003d
:10275800600e8800020007000080fa0000000600f2
:102768000000fa000600fc006176200052052000f7
:1027780082087800a30a200083087800cd61a800a9
:102788000080fa00000006000400fa001007980014
:10279800c00e8000640060000000e000020032000b
:1027a8000040eb003d00370051052000313b880018
:1027b800a10a2000313b8800cd61a900110f8000db
:1027c800010f78001e0078004800de000040780005
:1027d8002c0207008080fb001e009000510098002a
:1027e8001e00780000407800260207008080fb0069
:1027f8001e00900041009800010f8000010f780032
:102808001e0078004800de00004078001d02070026
:102818008080fb001e009000310098001e007800a8
:1028280000407800170207008080fb001e0090001f
:1028380061009800f10e8000010f78001e007800fa
:102848004800de00004078000e0207008080fb0090
:102858001e009000210098001e00780000407800bb
:10286800080207008080fb001e00900011009800fd
:10287800e10e8000010f78001e0078004800de009d
:1028880000407800ff0107008080fb001e009000d8
:1028980001087800b2ff070010c0b3000080fa00fa
:1028a800000006000800fa00889fbe003007980064
:1028b8000040eb00004f78000040eb001047980004
:1028c8000000eb00100798009001370097010700ff
:1028d80058052000383b8800a80a2000383b8800ab
:1028e800cd61a900cde1a9001e0090000000e00024
:1028f80005003a00240407004205200051c0b30037
:10290800008e2800da0307001e0090000000e8008f
:10291800100798009e00900000712200808f5000e0
:10292800050036000000eb001007980016040700a9
:1029380010c0b3001047980021c0b30040c0b300d6
:10294800bc030700409828000204070031c0b30008
:1029580040c0b300b703070090992800fd030700a3
:102968001e4078000004e00005003a0011c0b300e2
:102978000040eb00af030700e09a2800f5030700ca
:102988001e407800e14f500005003a0011c0b30026
:102998000040eb00a7030700109b2800ed03070089
:1029a8001e407800e24f500005003a0011c0b30005
:1029b800c0c0b3009f030700809b2800e503070001
:1029c8001e407800e34f500005003a0011c0b300e4
:1029d80080c1b30097030700109b2800dd030700a0
:1029e8001e407800e44f50000a003a0011c0b300be
:1029f80050c2b3008f030700f09b2800d5030700df
:102a080011c0b30020c3b3008a030700e09a28006e
:102a1800d00307001e407800e54f500005003a003b
:102a280011c0b30020c3b30082030700309c280004
:102a3800c80307001e407800e64f500005003a0022
:102a480011c0b300e0c3b3007a030700309c28002c
:102a5800c003070029060700404798004e40900031
:102a68000000fb00e30f500079003200e40f500033
:102a780003003200e20f5000e6003200f300370096
:102a88001e4078000004e0000e003a003e0090006e
:102a9800d000900030062000808f500004003a00db
:102aa8003e0090008000eb005100980005003700c0
:102ab8003e009000500090008000e8003e0090002a
:102ac800510098001e407800e14f50000d003a0078
:102ad8003e00900040009000ec0f500004003a00c7
:102ae8003e009000110020004100980005003700ca
:102af8003e009000400090008000e8003e009000fa
:102b0800410098001e407800e24f50000d003a0046
:102b18003e00900030009000ff0f500004003a0083
:102b28003e00900011002000310098000500370099
:102b38003e009000300090008000e8003e009000c9
:102b4800310098001e407800e34f50000d003a0015
:102b58003e00900060009000e60f500004003a002c
:102b68003e0090008000eb006100980005003700ef
:102b78003e009000600090008000e8003e00900059
:102b8800610098001e407800e44f50000d003a00a4
:102b98003e00900020009000f70f500004003a001b
:102ba8003e0090008000eb002100980005003700ef
:102bb8003e009000200090008000e8003e00900059
:102bc800210098001e407800e54f50000e003a00a2
:102bd8003e00900090009000b0032000808f5000cd
:102be80004003a003e0090008000eb0011009800bd
:102bf800050037003e009000100090008000e800bb
:102c08003e009000110098001e407800e64f5000ea
:102c18008b003a003e00900090007800b00320003e
:102c2800808f500004003a003e0090008000eb00c6
:102c380001087800850037003e00900010007800f9
:102c48008000e8003e009000010878007f0037000f
:102c58001e4078000004e0000d003a003e0090009d
:102c6800500090000000e00004003a003e00900090
:102c78003106200051009800050037003e00900002
:102c8800500090008000e9003e009000510098003c
:102c98001e407800e14f50000d003a003e009000c1
:102ca80040009000e10f500004003a003e00900000
:102cb800c100200041009800050037003e00900048
:102cc800400090008000e9003e009000410098001c
:102cd8001e407800e24f50000d003a003e00900080
:102ce80030009000e10f500004003a003e009000d0
:102cf800f101200031009800050037003e009000e7
:102d0800300090008000e9003e00900031009800fb
:102d18001e407800e34f50000d003a003e0090003e
:102d2800600090000000e00004003a003e009000bf
:102d38006100200061009800050037003e00900007
:102d4800600090008000e9003e009000610098005b
:102d58001e407800e44f50000d003a003e009000fd
:102d6800200090000000e00004003a003e009000bf
:102d78007101200021009800050037003e009000f6
:102d8800200090008000e9003e009000210098009b
:102d98001e407800e54f50000d003a003e009000bc
:102da800100090000000e00004003a003e0090008f
:102db800b103200011009800050037003e00900084
:102dc800100090008000e9003e009000110098007b
:102dd8001e407800e64f50001b003a003e0090006d
:102de800100078000000e00004003a003e00900067
:102df800b103200001087800140037003e0090005d
:102e0800100078008000e9003e009000010878007a
:102e18000e0037001e407800e64f500006003a00ca
:102e28000040eb00004f7800d702070010c0b30045
:102e380010479800050037001e4fe80003003700d0
:102e48000000000001003700000000003e00900074
:102e58005000900000407800720007000080fb00de
:102e6800c804dd003e00900040009000004078005b
:102e78006c0007000080fb0009007000100f88003c
:102e88003e00900030009000004078006500070088
:102e98000080fb00c804dd003e0090006000900048
:102ea800004078005f0007000080fb000900700008
:102eb800000f88003e00900020009000004078003d
:102ec800580007000080fb00c804dd003e009000a9
:102ed8001000900000407800520007000080fb00be
:102ee80009007000f00e88003e0090001000780085
:102ef800004078004b0007000080fb004800dd0020
:102f0800e00e8800cde1a80015fe07001e409000e5
:102f18000004e0006dfe32009b0207000e28ef005f
:102f28004f04be000080fa00000006000200fa000c
:102f38000040eb00004f7800a08a200012fe070036
:102f4800004f78008040eb000040eb00390207009a
:102f5800a04580008041eb000041eb0021c0b30098
:102f68009a020700f0c2b30059020700904580009a
:102f7800800040004087200000804000100078005a
:102f880074020700f0c2b3005102070080458000b8
:102f98008041eb000041eb0021c0b3008b02070029
:102fa8008040eb0050c2b30022020700b045800009
:102fb80080004000608620000080400010007800fb
:102fc800640207008040eb0020c3b3001902070029
:102fd800704580008041eb000041eb0021c0b30048
:102fe8007a020700a0c3b3003902070060458000d9
:102ff8008041eb000041eb0021c0b30073020700e1
:10300800a0c3b30032020700504580008041eb00a6
:103018000041eb0021c0b3006c0207000080fa00f9
:10302800000006000400fa00204798002e40900097
:103038008080fb00d0cc2c000008b8004308de00dc
:1030480080407800400020000008dd00004f780034
:103058002e4090000081fb00d0cc2c000010b8005e
:103068004308de006a00b900000078000000510043
:10307800004078001e4f70001e4078000080fa0063
:10308800000006000400fa00204798002e40900037
:103098000080fb004400de00004078006a00b900b0
:1030a80000007800804078002e4090006f4060005b
:1030b80000cf40001e4078000080fa0000000600a3
:1030c8000200fa00004f78001e417800a18020001d
:1030d800824878000080fa00000006000000fa002c
:1030e8000ac8bf000080fa00000006000600fa00c7
:1030f800000f78001107980022079800e088200048
:103108001e004000104078008000fb001e00900068
:10311800808f500009003a00508920001e004000ae
:10312800104078008000fb002e009000808f500037
:1031380002003a0010c0b30008e8b700c0892000b8
:103148001e004000104078008000fb001e00900028
:10315800808f500008003a00308a20001e0040008e
:10316800104078008000fb002e009000808f5000f7
:1031780001003a000868ef0008c8bf000080fa00a4
:10318800000006000200fa00881f78000000eb002b
:10319800000f78000768ef00440037005704070065
:1031a80007e8b700606d20009e007800808f50000f
:1031b8006b003e0007c8bf000080fb00e30f500013
:1031c80005003200e40f50000b003200e10f500000
:1031d800120032001600370006c8bf000040e900a0
:1031e80006e8b70006c8bf000004e0000d003d0077
:1031f8000668ef000e00370006c8bf000040e80070
:1032080006e8b70006c8bf00e64f500007003400c4
:1032180060c0b30006e8b70005003700da01070010
:1032280050003700000000000100370000000000d7
:103238001e007800e20f500005003e00d201070092
:103248004205200051c0b300a09c28008801070057
:1032580011c0b3000040eb0076010700e0a1280090
:10326800bc01070006c8bf000000fb00800040004a
:10327800608620000080400010007800b50107003b
:1032880031c0b3000040eb006a010700e0a228004b
:10329800b001070041c0b3000040eb006501070022
:1032a80030a42800ab0107001e0fe80007c8bf00c4
:1032b800e24f5000b9ff3a00b30107004205200071
:1032c80051c0b300a09c28006901070006c8bf00d0
:1032d8000004fb0006c8bf000000fb00e1882000d6
:1032e8006140780025000700e188200080707c009c
:1032f80006c8bf000004fb0006c8bf000000fb00b2
:10330800518920006140780067000700518920003a
:1033180080707c0006c8bf000004fb0006c8bf0020
:103328000000fb00c189200061407800aa00070066
:10333800c189200080707c0006c8bf000004fb0023
:1033480006c8bf000000fb00318a200061407800f9
:10335800ec000700318a200080707c0001003700f3
:1033680000000000880107000000eb00000f780053
:103378004f0478000080fa00000006000600fa00fa
:10338800404798000000eb00000f7800ce40900006
:10339800214798000040eb0030479800d70307000a
:1033a8003047980038003700d403070030479800aa
:1033b8001e0fe80000a62e000100200014050700db
:1033c800401f20009e007800808f500004003600c7
:1033d8000000eb00000f780020c0b30030479800d1
:1033e80011c0b3000040eb001201070040a52800ff
:1033f8005801070011c0b300d0c3b3000d01070086
:103408002e4090000000fb008041eb000041eb00e3
:1034180021c0b3006d0107003e4090000000fb0092
:10342800e30f500003003200e40f50000a0032009e
:10343800150037002e4090000040e9002047980012
:103448002e4090000004e0000c003d0070c1b30065
:10345800204798000c0037002e4090000040e800fc
:10346800204798002e409000f74f50000500340088
:103478000040eb00204798000300370000000000e0
:1034880001003700000000003e409000e24f50006d
:10349800c5ff3a000000eb00000f78002e409000b6
:1034a8000080fa00000006000600fa004047980075
:1034b8000000eb00000f7800ce40900021479800f4
:1034c8000040eb00304798008c0307003047980015
:1034d8003900370089030700304798001e0fe800bd
:1034e80000a62e0001002000c9040700401f20008c
:1034f8009e007800808f5000040036000000eb002a
:10350800000f780020c0b3003047980021c0b300f6
:103518000040eb00c700070020a628000d010700a7
:1035280021c0b300d0c3b300c20007002e409000f2
:103538000000fb008041eb000041eb0021c0b3001c
:10354800220107003e4090000000fb00e30f5000fe
:1035580003003200e40f50000a0032001600370062
:103568002e40900065405000204798002e40900063
:103578000004e0000d003d0070c3b3002047980030
:103588000d0037002e40900065404000204798000d
:10359800ae40900070c3b30080cf500005003400e7
:1035a8000040eb00204798000300370000000000af
:1035b80001003700000000003e409000e24f50003c
:1035c800c4ff3a000000eb00000f78002e40900086
:1035d8000080fa00000006000600fa004047980044
:1035e8000000eb00000f7800ce40900021479800c3
:1035f8000040eb0030479800400307003047980030
:10360800380037003d030700304798001e0fe800d8
:1036180000a62e00010020007d040700401f2000a6
:103628009e007800808f5000040036000000eb00f8
:10363800000f780020c0b3003047980031c0b300b5
:103648000040eb007b00070020a72800c10007000e
:1036580031c0b300d0c3b300760007002e409000fd
:103668000000fb008041eb000041eb0021c0b300eb
:10367800d60007003e4090000000fb00e30f50001a
:1036880003003200e40f50000a0032001500370032
:103698002e4090000040e900204798002e409000fe
:1036a8000004e0000c003d0070c1b3002047980002
:1036b8000c0037002e4090000040e800204798009a
:1036c8002e409000f74f5000050034000040eb00fa
:1036d8002047980003003700000000000100370071
:1036e800000000003e409000e24f5000c5ff3a0045
:1036f8000000eb00000f78002e4090000080fa00d8
:10370800000006000600fa00404798000000eb00a1
:10371800000f7800ce409000214798000040eb0051
:1037280030479800f5020700304798003900370005
:10373800f2020700304798001e0fe80000a62e008e
:103748000100200032040700401f20009e0078007e
:10375800808f5000040036000000eb00000f780056
:1037680020c0b3003047980041c0b3000040eb00d0
:1037780030000700e0a728007600070041c0b3002a
:10378800d0c3b3002b0007002e4090000000fb00c0
:103798008041eb000041eb0021c0b3008b00070023
:1037a8003e4090000000fb00e30f50000300320091
:1037b800e40f50000a003200160037002e40900037
:1037c80065405000204798002e4090000004e0001b
:1037d8000d003d0070c3b300204798000d0037006e
:1037e8002e4090006540400020479800ae40900071
:1037f80070c3b30080cf5000050034000040eb00d8
:10380800204798000300370000000000010037003f
:10381800000000003e409000e24f5000c4ff3a0014
:103828000000eb00000f78002e4090000080fa00a6
:10383800000006000200fa00004f780011479800c7
:1038480000c8b3001e407000804078000040eb00c4
:10385800e30007001e4090000064a000804078004c
:103868000040eb00de0007000080fa0000000600c0
:103878000800fa001007980041479800320798009e
:103888004e409000804078000040eb00e9ff0700c0
:103898000000eb00000f7800070037001e009000c2
:1038a8001e004000104078008040780010c0b3002f
:1038b800cb0007001e0fe8003e0090009e00780035
:1038c800808f5000f5ff39000080fa0000000600e4
:1038d8000400fa00204798002e4090000000fb00ea
:1038e8000002b100000f78001e0078006300b900e4
:1038f80000007800000f7800007b28001e004000c0
:10390800104078008040780010c0b300b400070071
:103918001e00e800017b28006140780080407800a4
:1039280010c0b300ae0007001e80e800017b28002d
:10393800614078008040780010c0b300a8000700fc
:103948008040eb0010c0b300a50007000080fa001b
:10395800000006000200fa00000f7800040037009b
:103968001e007800104078001e0fe800d8ff0700fe
:103978001e007800104078000004e000f8ff3a00cc
:103988000080fa00000006000200fa000000eb00c8
:10399800000f7800040037008040eb0010c0b3002f
:1039a8008f0007001e0fe800701f20009e0078009f
:1039b800808f5000f8ff34008040eb000040eb009f
:1039c8009cff07000080fa00000006001000fa00c3
:1039d80050079800414f9800524f9800634f980045
:1039e800e4004700010009008018eb008058eb0054
:1039f80040002000000f78000000eb00100798003e
:103a08005e0090000000e00006003d00d0c2b30058
:103a1800afff07005e0090000000ea005007980022
:103a2800180037006e489000e14f500015003a002a
:103a3800b0c2b300a6ff070012003700de009000f6
:103a4800a000200000017800110009008200d800c1
:103a58008000fd0080407800640047001e004000a0
:103a6800014878005e019000706626000090b90059
:103a7800c288de004f90de0000805000500798009a
:103a88001e0fe9005e0090000000e000ebff3a0026
:103a98004e489000e14f40000b003a000300370009
:103aa8001e0090000000e80010079800e40047009e
:103ab8001e00900000804000104078000004e000e4
:103ac800f7ff3200040037004e4890000000fb006a
:103ad80065001000100798009e009000010f780004
:103ae80006003700640047001e00400010407800c0
:103af8000043b00076ff07001e0fe8005e48900004
:103b08000000fb00650010009e0f5000f5ff3c0010
:103b18005e489000e14f500005003a00e0c2b30053
:103b28006bff07000e4890000043b00068ff0700d5
:103b38005e489000e24f500008003a00e0c2b3002f
:103b480063ff07007e4090000043b00060ff07005d
:103b58000e4890000043b0005dff07000080fa00a7
:103b6800000006000000fa00db06a900dae6a9005a
:103b7800dac6a900b2e6a900b2c6a900dee6a90025
:103b8800df06a900dec6a900b6c6a900b6c6a80009
:103b980011c2b3000040eb0011000700b1cbb30025
:103ba8000040eb000e00070041c0b3000040eb00ee
:103bb8000b00070041c1b3000040eb0008000700fc
:103bc80001c2b3000040eb0005000700c1c0b3000c
:103bd8000040eb00020007000080fa000000060029
:103be8000400fa002047980031479800be40900032
:103bf800114798002e4090000004e00002003a00af
:103c0800dec6a90001003700dec6a800b6e6a90096
:103c18000040eb00004f78000b003700dee6a900fb
:103c28001e4090000004e00001003d00dee6a80010
:103c3800df06a8001e409000004040001047980092
:103c4800df06a9001e4fe8001e407800e74f50002d
:103c5800f2ff3600b6e6a8000080fa000000060071
:103c68000200fa000000eb00000f7800080037009f
:103c78001e007800004078008040eb00edfe070051
:103c880011c0b30010c0b300d5ff07001e0fe80035
:103c9800300520009e007800808f5000f4ff34002b
:103ca8000000eb00000f7800080037001e007800c5
:103cb8000040780051c0b300defe070001c8b30021
:103cc80010c0b300c6ff07001e0fe8003005200033
:103cd8009e007800808f5000f4ff34000000eb0055
:103ce800000f7800090037001e00780000407800b7
:103cf8008040780030c5b300cefe070080c0eb00de
:103d080010c0b300b6ff07001e0fe8001e007800c1
:103d1800e50f5000f4ff34000000eb00000f7800be
:103d2800090037001e0078000040780080407800c5
:103d38000040eb00bffe070080c0eb0010c0b300de
:103d4800a7ff07001e0fe8001e007800e50f5000cf
:103d5800f4ff34000080fa00000006000800fa00b2
:103d6800881f7800004f78001107980022079800f4
:103d7800330798001e04fb001e009000cf80de0071
:103d880082f20700c241dd00228120000281410049
:103d98000089be001e04fb002e009000cf80de00cc
:103da8007af20700c241dd00e28120000281410071
:103db8000089be001e04fb003e009000cf80de009c
:103dc80072f20700c241dd00a28220000281410098
:103dd8000089be001e00fb00c200dd00c083200079
:103de800008140006000b8000089be001e00fb0092
:103df800c200dd0040852000008140006000b8005e
:103e08000089be004f0478000080fa000000060018
:103e18001600fa00889fbe008a1f78000057980095
:103e2800110f9800220f98006000b8002007980032
:103e3800310798000e5090000080fb000000400001
:103e48009e08900000804000900078000e5090007e
:103e58000080fb00000040002e0990000000410097
:103e680010007800008050008000eb004af2070044
:103e780040079800510798000e5090000080fb0002
:103e8800c200dd0020812000008040001000be003c
:103e98004e019000de01900094f207006007980040
:103ea800710798000e5090000085fb000e5090009e
:103eb8000080fb00c200dd00c083200000804000bd
:103ec8001004be000e5090000080fb00c200dd0010
:103ed800e0812000008040001000be004e019000ec
:103ee800de01900081f207000001be000800be005c
:103ef80047f10700c251dd00c28320000281410062
:103f08000089be000e5090000080fb00c200dd005a
:103f1800c0832000008040001004be000e509000b6
:103f28000080fb00800040000086200000804000e8
:103f380010007800cf80de0014f207001ac0b3002a
:103f48000001be000800be00d0f107000000e0003c
:103f5800010035000045eb000a04e0000e003200c5
:103f68000e5090000084fb000e5090000080fb0073
:103f7800800040000086200000804000100078008b
:103f8800cf80de0001f20700c241dd00c2832000bd
:103f9800028141000089be000e5090000080fb00a5
:103fa800c200dd00c0832000008040001004be0075
:103fb8000e5090000080fb008000400060832000cd
:103fc8000080400010007800cf80de00eff107008d
:103fd8001ac0b3000001be000800be00adf1070022
:103fe8000000e00001003c000045eb000a04e0008e
:103ff8000e0032000e5090000084fb000e5090001e
:104008000080fb00800040006083200000804000aa
:1040180010007800cf80de00dcf10700c241dd002f
:10402800c2832000028141000089be000e5090002a
:104038000080fb00c200dd0080842000008040007a
:104048001000be000001be004e009000de0090008f
:10405800eef007000002be000e5090000080fb004a
:10406800c200dd00a0822000008040001000be00d9
:104078000001be000400be001cf2070020079800e3
:10408800310798000e5090000080fb00c200dd0050
:1040980080842000008040004e019000de019000e6
:1040a8000288be000e5090000080fb00c200dd00b8
:1040b800c0832000008040001000be006e01900008
:1040c800fe019000d2f007002e019000be01900082
:1040d800cff00700008fbe000e5090000080fb005c
:1040e800800040000086200000804000100078001a
:1040f800cf80de00a5f1070018c0b3001e01be0086
:1041080064f107000000e00001003c000044eb00ff
:104118000804e000090032000e5090000080fb0007
:1041280080004000008620000080400010007800d9
:10413800cf80de0095f10700008fbe000e50900082
:104148000080fb0080004000608320000080400069
:1041580010007800cf80de008cf1070018c0b30093
:104168001e01be0049f107000000e0000100350013
:104178000044eb000804e000090032000e509000f3
:104188000080fb0080004000608320000080400029
:1041980010007800cf80de007cf10700008fbe00a1
:1041a8001e00be004f0578004f04be000080fa00d4
:0441b80000000600fd
:020000040000fa
:1041bc0066080000280000008200000034893800e6
:1041cc00893c890040894400894889004c89500009
:1041dc008954890058895c00896089006489680069
:1041ec00896c890070897400897889007c898000c9
:1041fc0089000000aa0800001200000080000000e6
:10420c000a08000002000000800000000008000006
:10421c000600000080000000120800002a000000c8
:10422c0082000000000048004200000048420000ec
:10423c000048420000007000410000007041000086
:10424c00007041000000c80041000000c84100009f
:10425c0000c84100ff03ff0003ff03003c080000ff
:10426c002a000000800000008e0800001c000000e6
:10427c00820000000806060006060600082d2d0028
:10428c002d2d2d002d2d0b000707070007070b0008
:10429c000019190019191900000000000608000087
:1042ac0004000000800000000c0800000200000068
:1042bc0080000000bc08000012000000820000001a
:1042cc009407be000ab2070032000a000032000058
:1042dc0092869e0086aa86000e080000020000004e
:1042ec008200000001000000100800000200000025
:0842fc0080000000000000003a
:020000040000fa
:104304000000fa006000200005010700004088005a
:1043140001408000c0762000808f500007003600e6
:104324000140800010802000808f500003003e0078
:1043340010c0b30002e8b7001e003700014080003f
:10434400a08c2000808f50000700360001408000c0
:10435400b0992000808f500003003e0020c0b300bd
:1043640002e8b700130037000140800040b5200088
:10437400808f50000700360001408000b0c120004b
:10438400808f500003003e0030c0b30002e8b70045
:104394000800370001408000c0f32000808f5000e7
:1043a4000300360040c0b30002e8b7000100370044
:1043b4000268ef0002c8bf000004e0001b003200e6
:1043c400218020009140780003c8bf0080cf5000b6
:1043d4000400320002c8bf0003e8b7000468ef001d
:1043e4001500370004c8bf000040e80004e8b70027
:1043f40004c8bf00e14f500002003a0003c8bf00e8
:104404000e003700418020009140780020c3b300a3
:1044140080cf50000700340000242400f100200065
:10442400fc00070003c8bf00040037000468ef0065
:1044340001003700000000000040eb000080fa009b
:10444400000006000200fa00000f7800203320006c
:104454009e007800808f500002003c001e0078000f
:10446400010037001e0078000080fa0000000600fa
:104474000c00fa0040479800514798003207980012
:104484004307980054079800de009000010f78005d
:104494009bff0700204798003200370098ff070071
:1044a40020479800604080000000e80060408800d9
:1044b400004c2d0011002000d60007006140800050
:1044c400803e2000808f5000040034002ffd070040
:1044d4000c28ef0020c0b30020479800de40900075
:1044e4004e409000d4fc07008041eb0012c0b300a2
:1044f40041c0b3001e00780035fd07002e40900037
:104504000000fb00e30f500003003200e40f5000f2
:1045140009003200130037001e0fe9003e0090002e
:104524009e007800808f50000b003c00be0090007d
:10453400010f78000b0037001e0fe8004e009000ba
:104544009e007800808f500005003500ce0090005a
:10455400010f78000300370000000000010037005d
:10456400000000002e409000e24f5000cbff3a00c4
:104574000c28ef001e0078000080fa0000000600fe
:104584000000fa0095e1a9009421a800a10c800084
:10459400f0cf2f0000806000a00c8800a10c8000e8
:1045a400f0fc2f00008060000040a000a00c8800f8
:1045b4009021ef00f03f2000900c880095e1a800c6
:1045c400a1e1a90000d32400e00c8800a1e1a80027
:1045d4000080fa00000006000000fa004a22ef0002
:1045e4003112800000fe2f0000806000b000b30094
:1045f4003012880046e2a90021128000f03f2e000c
:104604000080600000c0a000201288004c22ef004f
:104614002112800080ff2f00008060006000b30042
:10462400201288000080fa00000006000200fa0050
:10463400000f78009e007800511288000080fa0074
:10464400000006000000fa007a26ef008e26ef0034
:10465400a226ef00b626ef00ca26ef00de26ef0002
:1046640080872300b03388008a26ef009e26ef005f
:10467400b226ef00c626ef0000202000d0368800c6
:104684008826ef009c26ef00b026ef00c426ef003a
:10469400d826ef00ec26ef0080022000303488009a
:1046a4009a26ef00ae26ef00c226ef00d626ef00d2
:1046b40000202000503788007c26ef009026ef0071
:1046c400a426ef00b826ef00cc26ef00e026ef008a
:1046d40000842300f03388009226ef00a626ef0022
:1046e400ba26ef00e226ef000080fa000000060080
:1046f4000000fa0000402800303a88004827ef0004
:1047040050002000503a88004c27ef005027ef005b
:1047140000042000703a88000080fa0000000600bf
:104724000400fa00100798009e009000613a880087
:10473400603a8000fa0f500004003a005587a80040
:104744000005200001002000320007004627a800d1
:1047540040062000010020002e0007004627a90083
:104764000100370089a0a900303a80006100600090
:104774000000e000fbff32005587a900913880005b
:10478400010f78001e0078000080fa000000060087
:104794000000fa00abff070009000700d4ff070080
:1047a400d3f70700f0fc070000a8210061002000f7
:1047b4001800070075fc07000080fa0000000600de
:1047c4000000fa002200200060042000710520008f
:1047d40003102000804978008149780082497800dc
:1047e40000022300100888000621ef006821ef0072
:1047f4006a21ef006c21ef000821ef000070200017
:10480400500888000c21ef000e21ef000080fa0010
:04481400000006009a
:020000040000fa
:10481800f03fb1000180b10006003500ee03090049
:1048280000000000403fb1000180b100fbff3d00e7
:104838001000b000203fb0000200350000800900e1
:08484800000000000000060062
:020000040000fa
:020000040015e5
:047e0000ffff000080
:020000040000fa
:020000040015e5
:047e2000ff1f000040
:020000040000fa
:020000040015e5
:047e300078ffff00d8
:020000040000fa
:020000040015e5
:047e3800bbffff008d
:020000040000fa
:020000040015e5
:047e4000ffffff0041
:020000040000fa
:020000040015e5
:047e4800ffffff0039
:020000040000fa
:020000040015e5
:047e5000dfffff0051
:020000040000fa
:020000040015e5
:047e5800e7ffff0041
:00000001FF
