:020000040000fa
:080000000001040000000000f3
:020000040000fa
:0400080004020000ee
:020000040000fa
:04000c0004020000ea
:020000040000fa
:0400100004020000e6
:020000040000fa
:0400140004020000e2
:020000040000fa
:0400180004020000de
:020000040000fa
:04001c0004020000da
:020000040000fa
:0400200004020000d6
:020000040000fa
:0400240004020000d2
:020000040000fa
:0400280004020000ce
:020000040000fa
:04002c0004020000ca
:020000040000fa
:0400300004020000c6
:020000040000fa
:0400340004020000c2
:020000040000fa
:0400380004020000be
:020000040000fa
:04003c0004020000ba
:020000040000fa
:0400400004020000b6
:020000040000fa
:0400440004020000b2
:020000040000fa
:0400480004020000ae
:020000040000fa
:04004c0004020000aa
:020000040000fa
:0400500004020000a6
:020000040000fa
:0400540004020000a2
:020000040000fa
:04005800040200009e
:020000040000fa
:04005c00040200009a
:020000040000fa
:040060000402000096
:020000040000fa
:040064000402000092
:020000040000fa
:04006800040200008e
:020000040000fa
:04006c00040200008a
:020000040000fa
:040070000402000086
:020000040000fa
:040074000402000082
:020000040000fa
:04007800040200007e
:020000040000fa
:04007c00040200007a
:020000040000fa
:040080000402000076
:020000040000fa
:040084000402000072
:020000040000fa
:04008800040200006e
:020000040000fa
:04008c00040200006a
:020000040000fa
:040090000402000066
:020000040000fa
:040094000402000062
:020000040000fa
:04009800040200005e
:020000040000fa
:04009c00040200005a
:020000040000fa
:0400a0000402000056
:020000040000fa
:0400a4000402000052
:020000040000fa
:0400a800040200004e
:020000040000fa
:0400ac00040200004a
:020000040000fa
:0400b0000402000046
:020000040000fa
:0400b4000402000042
:020000040000fa
:0400b800040200003e
:020000040000fa
:0400bc00040200003a
:020000040000fa
:0400c0000402000036
:020000040000fa
:0400c4000402000032
:020000040000fa
:0400c800040200002e
:020000040000fa
:0400cc00040200002a
:020000040000fa
:0400d0000402000026
:020000040000fa
:0400d4000402000022
:020000040000fa
:0400d800040200001e
:020000040000fa
:0400dc00040200001a
:020000040000fa
:0400e0000402000016
:020000040000fa
:0400e4000402000012
:020000040000fa
:0400e800040200000e
:020000040000fa
:0400ec00040200000a
:020000040000fa
:0400f0000402000006
:020000040000fa
:0400f4000402000002
:020000040000fa
:0400f80004020000fe
:020000040000fa
:0400fc0004020000fa
:020000040000fa
:0401000004020000f5
:020000040000fa
:0401040004020000f1
:020000040000fa
:0401080004020000ed
:020000040000fa
:04010c0004020000e9
:020000040000fa
:0401100004020000e5
:020000040000fa
:0401140004020000e1
:020000040000fa
:0401180004020000dd
:020000040000fa
:04011c0004020000d9
:020000040000fa
:0401200004020000d5
:020000040000fa
:0401240004020000d1
:020000040000fa
:0401280004020000cd
:020000040000fa
:04012c0004020000c9
:020000040000fa
:0401300004020000c5
:020000040000fa
:0401340004020000c1
:020000040000fa
:0401380004020000bd
:020000040000fa
:04013c0004020000b9
:020000040000fa
:0401400004020000b5
:020000040000fa
:0401440004020000b1
:020000040000fa
:0401480004020000ad
:020000040000fa
:04014c0004020000a9
:020000040000fa
:0401500004020000a5
:020000040000fa
:0401540004020000a1
:020000040000fa
:04015800040200009d
:020000040000fa
:04015c000402000099
:020000040000fa
:040160000402000095
:020000040000fa
:040164000402000091
:020000040000fa
:04016800040200008d
:020000040000fa
:04016c000402000089
:020000040000fa
:040170000402000085
:020000040000fa
:040174000402000081
:020000040000fa
:04017800040200007d
:020000040000fa
:04017c000402000079
:020000040000fa
:040180000402000075
:020000040000fa
:040184000402000071
:020000040000fa
:04018800040200006d
:020000040000fa
:04018c000402000069
:020000040000fa
:040190000402000065
:020000040000fa
:040194000402000061
:020000040000fa
:04019800040200005d
:020000040000fa
:04019c000402000059
:020000040000fa
:0401a0000402000055
:020000040000fa
:0401a4000402000051
:020000040000fa
:0401a800040200004d
:020000040000fa
:0401ac000402000049
:020000040000fa
:0401b0000402000045
:020000040000fa
:0401b4000402000041
:020000040000fa
:0401b800040200003d
:020000040000fa
:0401bc000402000039
:020000040000fa
:0401c0000402000035
:020000040000fa
:0401c4000402000031
:020000040000fa
:0401c800040200002d
:020000040000fa
:0401cc000402000029
:020000040000fa
:0401d0000402000025
:020000040000fa
:0401d4000402000021
:020000040000fa
:0401d800040200001d
:020000040000fa
:0401dc000402000019
:020000040000fa
:0401e0000402000015
:020000040000fa
:0401e4000402000011
:020000040000fa
:0401e800040200000d
:020000040000fa
:0401ec000402000009
:020000040000fa
:0401f0000402000005
:020000040000fa
:0401f4000402000001
:020000040000fa
:0401f80004020000fd
:020000040000fa
:0401fc0004020000f9
:020000040000fa
:10020000af8120000eff27000e01880000000000d3
:10021000000020000000e000020032000001200089
:100220002002880014000700790007000000e000a9
:1002300003003a00a06b20000100200002003700fc
:100240000000200001002000810f7000010032003a
:1002500014000700000020000000e000020032004f
:100260000000020000000000d605020000000000af
:100270000040da000000fe004440a90040152000c4
:100280000000e00003003200002020009001880000
:100290004440a800000006008a1f78008b1f7800e9
:1002a00000000600a1028800800478000000eb0036
:1002b0001f003700e284440054a0b4009905ba003e
:1002c000e284440054a0b4009906ba00e2844400d9
:1002d00054a0b4000006eb00476fde00fd07b2003b
:1002e000ae018800636ce10003003a00eaff0700fa
:1002f0000000eb000e003700606ce10008003a00df
:10030000004deb000a05e800020039003420ec0043
:100310000af0a0008b05e900f9ff3e000400370059
:100320006168e100010032000086eb000b0007006d
:1003300019c7ba001905ba000e04e00003003a001c
:100340000a00e000dbff3a0000000600fe07b200f2
:10035000ae0288008a047800f5ff37000cd0a300b5
:10036000e20f4d001c00390089027800354dba00bb
:100370000a05e800020039003420ec000af0a00071
:100380008b05e9000f003200254dba000a05e80090
:10039000020039003420ec000af0a0008b05e900cf
:1003a000080032000c00e0000600320015cdba0053
:1003b0000a05e800020039003420ec000af0a00031
:1003c0008b05e9008984e80054a0b4000b00e0002c
:1003d000e2ff3a00000006009902ba00055d7800cd
:1003e0008b05e900f7ff3200c82ade00055d7800c2
:1003f0008b05e900f3ff32000c00e000f1ff320052
:1004000019ddba00eeff37000040da000000fe0000
:0404100000000500e3
:020000040000fa
:1004140000000000000000004e0000000600000084
:1004240006ff0000ffff000048d600002413000070
:100434006b640000ffff0000ff00000006000000e6
:100444003844000082820000443800001408000090
:100454003e10000038100000a060000000100000f2
:10046400101000006060000000600000180600002a
:100474007c4200007c4400007e4000006452000086
:100484004c4a00004a340000382400007e4e00002c
:100494004a3200003c4a0000326200001a060000a2
:1004a400764a0000764c0000523c00006c6c000060
:1004b40000ac00006c00000010280000442800007c
:1004c40028280000442800001002000059060000fb
:1004d400ffff0000ff7c0000127c00007e5a000039
:1004e400343c0000424200007e4200003c7e00009a
:1004f4004a4200007e0a00000a3c00005234000018
:100504007e0800007e4200007e4200003040000071
:100514003e7e0000186600007e400000407e000021
:100524001c7e00007e0200007e3c0000423c000075
:100534007e1200000c7e000062fe00007e3200008d
:100544004e4400004a320000027e0000027e000099
:10055400407e00003e4000003e7e0000387e0000e9
:1005640066180000660e0000700e0000625a00005b
:10057400460000007e4200000618000060420000b1
:100584007e0000000402000004400000404000001f
:100594000002000004740000547800007e4800004b
:1005a4003030000048480000304800007e38000029
:1005b400545800007c0a000002980000a47c00004b
:1005c4007e080000704800007a40000088fa0000ad
:1005d400007e000018640000427e0000407c0000a1
:1005e400387c00007c0400007838000044380000a7
:1005f400fc2400001818000024fc0000780400000b
:100604000448000054240000043e0000447c000020
:10061400407c00003c4000003c7c0000307c00003a
:100624006c1000006c9c0000a07c0000645400006e
:100634004cff0000ffff0000ffff0000ffff000071
:10064400ffff0000ffff0000ffff0000ffff0000ae
:10065400ffff0000ff0c0000120c0000fc40000033
:100664007cff0000ffff0000ffff0000ff00000010
:10067400576100007465000072200000546500009a
:100684006d7000003a0000005374000065610000c2
:100694006d200000546500006d7000003a000000f9
:1006a400477200006f750000702000005465000060
:0806b4006d7000003a00000027
:020000040000fa
:1006bc000200fa00004f78001147980000c8b30000
:1006cc001e407000804078000040eb00d500070011
:1006dc001e4090000064a000804078000040eb00b9
:1006ec00d00007000080fa00000006000400fa00a9
:1006fc00100798000000eb00000f7800080037008e
:10070c001e0078009e009000008040001040780091
:10071c008040780010c0b300c20007001e0fe80034
:10072c00701f20009e007800808f5000f4ff340072
:10073c000080fa00000006000400fa002047980030
:10074c000000eb00000f78000c0037002e409000ea
:10075c000000fb000002b1006300b900000078004b
:10076c001e004000a12028006140780080407800e5
:10077c0010c0b300ab0007001e0fe8001e0078008d
:10078c00e20f5000f1ff34008040eb0010c0b300ca
:10079c00a40007000080fa00000006000200fa0026
:1007ac00000f7800040037001e007800104078001d
:1007bc001e0fe800e0ff07001e00780010407800d4
:1007cc000004e000f8ff3a000080fa000000060088
:1007dc000200fa000000eb00000f78000400370064
:1007ec008040eb0010c0b3008e0007001e0fe80025
:1007fc00701f20009e007800808f5000f8ff34009e
:10080c008040eb000040eb00a9ff07000080fa00dd
:10081c00000006001000fa0050079800414f9800a5
:10082c00524f9800634f9800e40047000100090004
:10083c008018eb008058eb0040002000000f78007f
:10084c000000eb00100798005e0090000000e00034
:10085c0006003d00d0c2b300b7ff07005e00900059
:10086c000000ea0050079800170037006e4890000f
:10087c00e14f500014003a00b0c2b300aeff0700c5
:10088c0011003700de009000a0002000000178006d
:10089c00110009008200d8008000fd008040780023
:1008ac00640047001e00400001487800de00900004
:1008bc00a000200000017800110009008200d8007f
:1008cc00500798001e0fe9005e0090000000e00049
:1008dc00ecff3a004e489000e14f40000b003a000c
:1008ec00030037001e0090000000e800100798007d
:1008fc00e40047001e00900000804000104078008b
:10090c000004e000f7ff3200040037004e4890006e
:10091c000000fb0065001000100798009e0090007e
:10092c00010f780006003700640047001e004000ed
:10093c00104078000043b0007fff07001e0fe80056
:10094c005e4890000000fb00650010009e0f5000f8
:10095c00f5ff3c005e489000e14f500005003a0066
:10096c00e0c2b30074ff07000e4890000043b000d3
:10097c0071ff07005e489000e24f500008003a00fb
:10098c00e0c2b3006cff07007e4090000043b00053
:10099c0069ff07000e4890000043b00066ff070097
:1009ac000080fa00000006000000fa00db06a90037
:1009bc00dae6a900dac6a900b2e6a900b2c6a90017
:1009cc00dee6a900df06a900dec6a900b6c6a900ae
:1009dc00b6c6a80011c2b3000040eb00110007001e
:1009ec00b1cbb3000040eb000e00070041c0b300d8
:1009fc000040eb000b00070041c1b3000040eb00ce
:100a0c000800070001c2b3000040eb00050007001e
:100a1c00c1c0b3000040eb00020007000080fa00e8
:100a2c00000006000400fa002047980031479800a7
:100a3c00be409000114798002e4090000004e0004a
:100a4c0002003a00dec6a90001003700dec6a8008d
:100a5c00b6e6a9000040eb00004f78000b00370011
:100a6c00dee6a9001e4090000004e00001003d00fd
:100a7c00dee6a800df06a8001e4090000040400003
:100a8c0010479800df06a9001e4fe8001e407800b2
:100a9c00e74f5000f2ff3600b6e6a8000080fa00df
:100aac00000006000200fa000000eb00000f7800c6
:100abc00080037001e007800004078008040eb00f2
:100acc00fbfe070011c0b30010c0b300d5ff070038
:100adc001e0fe800300520009e007800808f50002b
:100aec00f4ff34000000eb00000f78000800370022
:100afc001e0078000040780051c0b300ecfe0700e7
:100b0c0001c8b30010c0b300c6ff07001e0fe800f9
:100b1c00300520009e007800808f5000f4ff3400d8
:100b2c000000eb00000f7800090037001e00780071
:100b3c00004078008040780030c5b300dcfe070030
:100b4c0080c0eb0010c0b300b6ff07001e0fe8001a
:100b5c001e007800e50f5000f4ff34000000eb009d
:100b6c00000f7800090037001e0078000040780064
:100b7c00804078000040eb00cdfe070080c0eb0009
:100b8c0010c0b300a7ff07001e0fe8001e0078007e
:100b9c00e50f5000f4ff34000080fa00000006005e
:100bac00a601fa005300070010c0b300004f7800f4
:100bbc000040eb00104798000040eb0020479800e5
:100bcc000000eb00200798000040eb006047980005
:100bdc006000b80040879900518799006000b80008
:100bec0060879900718799006000b800008f9900a8
:100bfc00118f99000000eb00400798000000eb00fb
:100c0c00500798000000eb00208f99000000eb00cb
:100c1c00308f99000000eb00408f99000000eb0032
:100c2c00600798008e007800a119b000050009003b
:100c3c008018eb000000eb00700798000040eb0000
:100c4c00005798000040eb00105798000000eb0094
:100c5c00100f98000060fe00feff37000000fa0045
:100c6c007a26ef008e26ef00a226ef00b626ef00c4
:100c7c00ca26ef00de26ef007626ef008a26ef006c
:100c8c009e26ef00b226ef00c626ef00da26ef0014
:100c9c008826ef009c26ef00b026ef00c426ef005c
:100cac00d826ef00ec26ef008626ef009a26ef0000
:100cbc00ae26ef00c226ef00d626ef00ea26ef00a4
:100ccc007c26ef009026ef00a426ef00b826ef005c
:100cdc00cc26ef00e026ef007e26ef009226ef00f8
:100cec00a626ef00ba26ef00e226ef000080fa00fd
:100cfc00000006000000fa00d8ff070005000700fe
:100d0c0000a82100610020002b0007000080fa00e1
:100d1c00000006000000fa00220020006004200001
:100d2c00710520000310200080497800814978006b
:100d3c008249780000022300100888000621ef0089
:100d4c006821ef006a21ef006c21ef000821ef0011
:100d5c0000702000500888000c21ef000e21ef00dd
:080d6c000080fa0000000600ff
:020000040000fa
:100d74000808000012000000820000009407be0072
:100d84000ab2070032000a00003200003a8346002b
:100d9400835283000008000004000000800000006b
:100da40004080000020000008200000001000000ae
:100db400060800000200000080000000000000009f
:020000040000fa
:100dc400f03fb1000180b10006003500ee030900d8
:100dd40000000000403fb1000180b100fbff3d0076
:100de4001000b000203fb000020035000080090070
:080df4000000000000000600f1
:020000040000fa
:020000040015e5
:047e0000ffff000080
:020000040000fa
:020000040015e5
:047e2000ffffff0061
:020000040000fa
:020000040015e5
:047e300078ffff00d8
:020000040000fa
:020000040015e5
:047e3800bbffff008d
:020000040000fa
:020000040015e5
:047e4000ffffff0041
:020000040000fa
:020000040015e5
:047e4800ffffff0039
:020000040000fa
:020000040015e5
:047e5000dfffff0051
:020000040000fa
:020000040015e5
:047e5800e7ffff0041
:00000001FF
