:08000000803102288731B72F7F
:10000A00F30020000C1073089631B82680312000C6
:10001A000C150C112A30F2008D30F100F10B132867
:10002A00F20B132800320800F70000309631B82688
:10003A0080310530F6000F30F500F430F400F40B8F
:10004A002428F50B2428F60B2428033080310520B8
:10005A0080316830F500E430F400F40B3228F50BF7
:10006A003228000003308031052080318930F400C5
:10007A0000320032F40B3D280330803105208031F4
:10008A008930F40000320032F40B47280230803104
:10009A00052080318930F40000320032F40B5128F7
:1000AA0002308031052080310830803105208031CE
:1000BA008930F40000320032F40B5F2800308031BE
:1000CA000520803108308031052080318930F400E4
:1000DA0000320032F40B6D28003080310520803167
:1000EA0001308031052080313430F500F130F400E0
:1000FA00F40B7D28F50B7D28003200308031052075
:10010A00803106308031052080318930F400003298
:10011A000032F40B8C2800308031052080317708BA
:10012A000C388031052080318930F40000320032E9
:10013A00F40B9B28080000302000C0008030C1006A
:10014A00BF30C2005E08F9005D08F80097313D270C
:10015A00803178082000B0007908B1007A08B2002E
:10016A00C030B3007F30B4004430B5008B3159231E
:10017A00803120003008C3003108C4003208C500AD
:10018A008F310A27803120004008E2004108E3004D
:10019A004208E4006208B0006308B1006408B200D3
:1001AA008830B3001A30B4004630B5008B31592379
:1001BA00803120003008DF003108E0003208E10019
:1001CA001830B0001C30B1004630B2005F08B300EE
:1001DA006008B4006108B5008B31592380312000D2
:1001EA003008E5003108E6003208E7006508D70064
:1001FA006608D8006708D9008C31022480312000B3
:10020A005708E5005808E6005908E700E030B00052
:10021A007B30B1004530B2006508B3006608B4000F
:10022A006708B5008B315923803120003008E5007A
:10023A003108E6003208E700CF30C0005B30C10069
:10024A003B30C2006508C3006608C4006708C500E1
:10025A008F310A27803120004008E5004108E60076
:10026A004208E7006508B0006608B1006708B200F6
:10027A000030B3008030B4003F30B5008B315923D1
:10028A00803120003008E5003108E6003208E70036
:10029A009330CD008830CE004330CF006508D000BF
:1002AA006608D1006708D20097311F2780312000E5
:1002BA004D08E5004E08E6004F08E7000030A000B0
:1002CA002030A1004130A2006508A3006608A400FE
:1002DA006708A5008C31B224803120002008E5008F
:1002EA002108E6002208E7000030C000A030C10063
:1002FA004330C2000030B000A030B1004030B2003C
:10030A000030A0001030A1004130A2006508A3000F
:10031A006608A4006708A5008C31B2248031200049
:10032A002008B3002108B4002208B5008B315923F4
:10033A00803120003008C3003108C4003208C500EB
:10034A008F310A27803120004008E5004108E60085
:10035A004208E7006508F0006608F1006708F20045
:10036A008A31D32271082000DE007008DD000800FF
:10037A0020002635B03E860001308700403FF90054
:10038A00413FFA00790896317D2681317108FC00D7
:10039A007008FB0020002608A8000130A835FF3E9F
:1003AA00031DD3292835A03E86008701403FA900B6
:1003BA00413FAA00423FAB00433FAC0021003F0847
:1003CA002000AE0021003E082000AD00AD35AE0D84
:1003DA002708F1002608F0005030F2000030F30040
:1003EA0097310427813150302000AF002330B0000C
:1003FA0070082F07B1007108303DB20031082D078F
:10040A00840032082E3D8500003FB300013FB4004E
:10041A00B501B601B309B409B509B609B30A031996
:10042A00B40A0319B50A0319B60A3308A907340826
:10043A00AA3D3508AB3D3608AC3D2608B700013069
:10044A00B735FF3E031D252A3735A03E86008701B2
:10045A002908C03F2A08C13F2B08C23F2C08C33FC6
:10046A0021003F082000A90021003E082000A80022
:10047A00A835A90D2708F1002608F0005030F2002F
:10048A000030F30097310427813150302000AA0050
:10049A002330AB0070082A07AC0071082B3DAD0071
:1004AA0028082C07860029082D3D87007B08C03FB5
:1004BA007C08C13F2608A8000130A835FF3E031D6D
:1004CA00622A2835A03E86008701403FA900413FA5
:1004DA00AA00423FAB00433FAC0021003F08200086
:1004EA00AE0021003E082000AD00AD35AE0D270854
:1004FA00F1002608F0005030F2000030F300973186
:10050A000427813150302000AF002330B00070083A
:10051A002F07B1007108303DB20031082D07840061
:10052A0032082E3D8500003FB300013FB400B501FB
:10053A00B6013308A9073408AA3D3508AB3D360889
:10054A00AC3D2608B7000130B735FF3E031DA92A86
:10055A003735A03E860087012908C03F2A08C13FD7
:10056A002B08C23F2C08C33F2708803AA8008030D6
:10057A002802031DC22A01302602031CD22A013096
:10058A002100BE070030BF3D00303F02283003196A
:10059A003E02031CD22ABE01BF010030F300003024
:1005AA00F2000030F1002830F00020002608A800F0
:1005BA000130A835FF3E031DDE2A2835A03E8600FD
:1005CA008701403FF400413FF500423FF600433FB8
:1005DA00F7008A3151227108FC007008FB007C0880
:1005EA002000A7007B08A600080020000D19532B45
:1005FA009631A12682312000AE002E082100C400C7
:10060A004308803A2000AE008F302E02031D102BC3
:10061A00A13021004202031C162B2100C201C30192
:10062A002E2D7E3021004802031C242BF4010030B9
:10063A008831762082315F30F50090302C2BF4011E
:10064A0000308831762082314E30F5009030F60045
:10065A009631EA268231F401F40A00308831762094
:10066A00823121004435B43E860001308700403F84
:10067A00F500413FF6009631EA268231FA30210030
:10068A0048020318C8010130C2070030C33D0130D7
:10069A002000AE002E082100C807FA2A2100C20154
:1006AA00C301C80129302000B0009630AF00A6303F
:1006BA00AE00AE0B5E2BAF0B5E2BB00B5E2B210098
:1006CA004408031D7C2BF401F40A0A308831762091
:1006DA00823121004435E23E86008701403FF9001D
:1006EA00413FFA00FB01FB03FC01FC0A8E2BF401DB
:1006FA00F40A0A3088317620823121004435E23EFC
:10070A0086008701403FF900413FFA00FB01FB03E5
:10071A00FC01FD018D316625823152302000B00086
:10072A002C30AF004F30AE00AE0B992BAF0B992B8C
:10073A00B00B992B0032002D15302000AF00C630C7
:10074A00AE00AE0BA62BAF0BA62B0000013021008A
:10075A00C2070030C33D20000D1C452C0230AE00FC
:10076A002E082100C5074435E23E86008701013084
:10077A00810741310318810A4435E23E8600870128
:10078A00403F2000AE00413FAF0021004435B83E53
:10079A00860001308700403F2000B000413FB10091
:1007AA003108803AB2002F08803A3202031DDF2B4B
:1007BA002E0830020318EF2B21004435B83E86007C
:1007CA00013087004435E23E84008501403F803F86
:1007DA00413F813F21004408031D072CF401F40A1C
:1007EA000A3088317620823121004435E23E860083
:1007FA008701403FF900413FFA00FB01FB03FC017E
:10080A00FC0A192CF401F40A0A3088317620823164
:10081A0021004435E23E86008701403FF900413F0E
:10082A00FA00FB01FB03FC01FD018D3166258231D3
:10083A0020309731A3278231E7302100B4000430F9
:10084A00B5001E3045020318382C07302000B000CE
:10085A001730AF006F30AE00AE0B312CAF0B312C1E
:10086A00B00B312C0000293021004502031C432C17
:10087A0028302000AE002E082100C500C201C301A5
:10088A0020008D1CDB2C0230AE002E082100C5078B
:10089A004435E23E86008701FF3081074131FF304F
:1008AA00813D7F314435BC3E860001308700403FA0
:1008BA002000AE00413FAF0021004435E23E8600F1
:1008CA008701403F2000B000413FB1003108803A23
:1008DA00B2002F08803A3202031D752C2E0830020E
:1008EA000318852C21004435BC3E86000130870060
:1008FA004435E23E84008501403F803F413F813FCD
:10090A0021004408031D9D2CF401F40A0A308831A1
:10091A007620823121004435E23E86008701403F3D
:10092A00F900413FFA00FB01FB03FC01FC0AAF2C72
:10093A00F401F40A0A3088317620823121004435E4
:10094A00E23E86008701403FF900413FFA00FB0181
:10095A00FB03FC01FD018D31662582312030973180
:10096A00A3278231E7302100B4000430B5001E30DD
:10097A0045020318CE2C07302000B0001730AF0014
:10098A006F30AE00AE0BC72CAF0BC72CB00BC72C09
:10099A000000293021004502031CD92C28302000F0
:1009AA00AE002E082100C500C201C301210065085E
:1009BA00F1006408F00096318B2682312100450847
:1009CA000319E92C0130C50220008D1C0D18002DD9
:1009DA0021003508803A2000AE0080302E02031D27
:1009EA00F92C013021003402031C002DFF302100B4
:1009FA00B407FF30B53D20000D192E2D2100430804
:100A0A00803A2000AE008F302E02031D0F2DA13038
:100A1A0021004202031CA12B2100C201C301F401DF
:100A2A0000308831762082313D30F5009030F60072
:100A3A009631EA26823152302000B0002C30AF00C5
:100A4A004F30AE00AE0B272DAF0B272DB00B272D45
:100A5A0000322100C201C301FE302000AE002E0880
:100A6A002100EE0096312E2608008831B520853106
:100A7A00230048082100E000230047082100DF0086
:100A8A00230046082100DE00230045082100DD007E
:100A9A002000E901EA0100302100DA000030D90023
:100AAA000030D8000030D7002000EF012030860047
:100ABA000230870020308400013085005030210048
:100ACA00C90016001A00C90B662D2000EB01EE3092
:100ADA002100D5000230D600EE302000ED000230B1
:100AEA00EE00EC012100E1012000E8012100D30120
:100AFA00D401DB01DC016508F1006408F0009631DD
:100B0A008B2685310D302100CB002D30CA00E23012
:100B1A00C900C90B8E2DCA0B8E2DCB0B8E2D003220
:100B2A0096312E268531FE3021006E02031C052FD8
:100B3A006508F1006408F00096318B268531F401CE
:100B4A0000308831762085318E30F5009030F600FD
:100B5A009631EA268531F4010530883176208531CF
:100B6A0021006008FA005F08F900FB01FB03FC01A1
:100B7A00FC0AFD018D316625853100309731A327A6
:100B8A00853146309731A327853120309731A32705
:100B9A00853120309731A3278531F401F40A0030DA
:100BAA008831762085318630F5009030F60096310E
:100BBA00EA26853120309731A327853121005C0848
:100BCA00FA005B08F9000530C9004908FB00FC017E
:100BDA00FD018D316625853120006B08031D982E95
:100BEA0021006308F7006208F6006008F9005F0850
:100BFA00F8008E312F26853177082000EA00760822
:100C0A00E90021005708C9005808CA005908CB0052
:100C1A005A08CC0020006F35203E8600013087003C
:100C2A00403F2100CD00413FCE004D08CF004E0885
:100C3A00D0000030D01BFF30D100D200CF09D0093C
:100C4A00D109D209CF0A0319D00A0319D10A031903
:100C5A00D20A4F08C9075008CA3D5108CB3D52086D
:100C6A00CC3D4C08DA004B08D9004A08D80049089C
:100C7A00D70020006F35203E8600013087006908C2
:100C8A00C03F6A08C13F21005708C9005808CA0076
:100C9A005908CB005A08CC0020006F35203E860048
:100CAA0001308700403F2100CD00413FCE004D0872
:100CBA00CF004E08D0000030D01BFF30D100D20048
:100CCA004F08C9075008CA3D5108CB3D5208CC3DD0
:100CDA004C08DA004B08D9004A08D8004908D7005E
:100CEA000030F3000030F2000030F1002830F0004C
:100CFA005A08F7005908F6005808F5005708F40092
:100D0A008A315122853171082100DC007008DB002C
:100D1A000130C90049082000EF0728306F02031C80
:100D2A009E2EEF019E2E2100DB01DC010130200006
:100D3A00EB0221006008D6005F08D5000A302000C7
:100D4A006C020318AF2E01302100C90049082000A7
:100D5A00EC07B82E210056082000EE0021005508A5
:100D6A002000ED00EC0121005509C9005609CA000E
:100D7A00C90A0319CA0A20006D0821004907CB00D5
:100D8A0020006E0821004A3DCC004C08803ACD0074
:100D9A0080304D02031DD32E65304B020318F22E0C
:100DAA0021005509C9005609CA00C90A0319CA0A05
:100DBA0020006D0821004907CB0020006E082100A1
:100DCA004A3DCC004C08803ACD007F304D02031DCD
:100DDA00F02E9C304B020318FA2E2100DB01DC01B5
:100DEA003C30C90049082000EB00003021005C02B9
:100DFA00323003195B020318042FDB01DC01EE0118
:100E0A000130D3070030D43D6D08803AC900540838
:100E1A00803A4902031D132F53086C020318182F36
:100E2A002100D301D40121005C085402031D1F2FA5
:100E3A005B0853020318242F20001815262F2000C0
:100E4A0018112100E1010230610203184C2F6108D8
:100E5A00C900CA0149082000A60021004A0820004A
:100E6A00A7008131BD21853121006135DD3E860033
:100E7A00870120002608C03F2708C13F0130210012
:100E8A00C9004908E10702306102031C2C2F5E08E1
:100E9A002000DE0021005D082000DD008031A02056
:100EAA00853120005E082100DE0020005D08210057
:100EBA00DD0060082000DE0021005F082000DD0060
:100ECA008031A020853120005E082100E00020004A
:100EDA005D082100DF0020000D1DB12F96312E265E
:100EEA008531F40100308831762085311B30F500D8
:100EFA009030F6009631EA268531F401F40A003082
:100F0A008831762085312C30F5009030F600963104
:100F1A00EA2685313D302100CB00E130CA007A3023
:100F2A00C900C90B962FCA0B962FCB0B962F0032EE
:100F3A0096312E2685318231FA22853115302100EB
:100F4A00CB004B30CA00D130C900C90BAA2FCA0B3B
:100F5A00AA2FCB0BAA2F000001302100C900490893
:100F6A00EE07982D6230840096308500E2308600C4
:100F7A00003087000030FF000D3096315626873149
:100F8A005D30840097308500A030860001308700EC
:100F9A000030FF00203096315626873150308400C9
:100FAA0023308500A030FE000030FF0096314A262B
:100FBA008731A0308400003085002930FE000030DF
:100FCA00FF0096314A2687312300C001C101C201C0
:100FDA00C301C401C501C601C701C801203084008C
:100FEA00023085005030FE000030FF0096314A265C
:100FFA00200085313A2DF21F16287009F600710972
:10100A00F7007209F800F60A0319F70A0319F80A31
:10101A0000307607F0000030773DF1008030783DEF
:10102A00F200F51F2C287309F6007409F7007509F8
:10103A00F800F60A0319F70A0319F80A00307607C6
:10104A00F3000030773DF4008030783DF5008030C1
:10105A00F2068030F50675087202031D080074084E
:10106A007102031D080073087002080072087104F7
:10107A007004031D4D287308860087010030C03FA5
:10108A00C13F0030F0000030F1000030F2000800EB
:10109A0072087F39F400F501F435F50D73088600FE
:1010AA0087017408C03F7508C13F710D710D013980
:1010BA00F400F50173088600870174088104413140
:1010CA0075088104730886008701823081074131DF
:1010DA00FF30813D7F31720880393F38F200F113C9
:1010EA000800F7007408031D96287708803EF5006B
:1010FA007508FA007A08F5000430F536890B82285B
:10110A007508F6007608F8007A080F39F5007508B0
:10111A00F900780880310520883179088031052066
:10112A0008007403031D08007708C03EF50075081F
:10113A00FA007A08F5000430F536890BA1287508FB
:10114A00F6007608F8007A080F39F5007508F900F4
:10115A007808803105208831790880310520080017
:10116A009731CF27883196313626883132008C0163
:10117A009631D026883196313F26883196316F26AE
:10118A00883100308031192088310930FA001E3048
:10119A00F900EB30F800F80BD028F90BD028FA0B3D
:1011AA00D028000096312E2688310530FA000F30FB
:1011BA00F900F430F800F80BE028F90BE028FA0BF4
:1011CA00E02897317D2788310930FA001E30F9006E
:1011DA00EB30F800F80BEF28F90BEF28FA0BEF28A1
:1011EA0000000800F601F31F0129F209F309F20AC7
:1011FA000319F30AF601F60AF11F0829F009F109A1
:10120A00F00A0319F10A7008710403192F29F5016C
:10121A00F50AF11B1A290130F035F10D890B112954
:10122A000130F4007408F5070E2971087302031DD2
:10123A00202970087202031C26297008F20271081C
:10124A00F33B0130F136F00C890B27290130F50206
:10125A00031D1A29760803193729F209F309F20A34
:10126A000319F30A7308F1007208F0000800F60186
:10127A00F11F4629F009F109F00A0319F10AF601EA
:10128A00F60AF31F5129F209F309F20A0319F30ABC
:10129A000130F4007408F606F701F80170087104C9
:1012AA0003198029F501F50AF11B65290130F0358A
:1012BA00F10D890B5C290130F4007408F5075929EE
:1012CA000130F735F80D890B662971087302031D81
:1012DA00702970087202031C77297008F2027108DB
:1012EA00F33B77140130F136F00C890B7829013081
:1012FA00F502031D6529760803198829F709F809F3
:10130A00F70A0319F80A7808F1007708F0000800CC
:10131A0020005308F1005208F0000330F2000030B8
:10132A00F3009731042789312000500870078400A0
:10133A005108713D8500003FD400013FD500023FAE
:10134A00D600520853040319E629FF30D207FF30AA
:10135A00D33D5308F1005208F0000330F200003088
:10136A00F300973104278931200050087007840060
:10137A005108713D8500003FC000013FC100023F96
:10138A00C2005408A0005508A1005608A2004D0842
:10139A00A3004E08A4004F08A5008C31B22489315D
:1013AA0020002008C3002108C4002208C5008F318C
:1013BA000A27893120004008D4004108D500420894
:1013CA00A5295408CD005508CE005608CF000800BC
:1013DA0073080319F529720871047004031D062A9B
:1013EA000030F0000030F1000030F2000800013057
:1013FA00F5007508F3070130F236F10CF00C890B91
:10140A00012AFE30720503191F2AFC290130F50052
:10141A007508F3070130F007003003180130F107AF
:10142A00003003180130F2070130F236F10CF00CEB
:10143A00890B1A2AFF30720503192C2A0B2A01304C
:10144A00F3020130F035F10DF20D890B272AF11B59
:10145A00322A023073020318242A73183A2AFF30F8
:10146A00F0057F30F105FF30F2050310F30C730825
:10147A00F500F601F7011030F535F60DF70D890B79
:10148A00412A7508F0047608F1047708F204740812
:10149A0003190800F21708002000A101F31F622AAD
:1014AA00F009F109F209F309F00A0319F10A03191B
:1014BA00F20A0319F30AA101A10AF71F732AF40910
:1014CA00F509F609F709F40A0319F50A0319F60AE0
:1014DA000319F70A0130F8007808A1060030A500C0
:1014EA000030A4000030A3000030A2007308720488
:1014FA00710470040319BC2AA001A00AF31B912AE3
:10150A000130F035F10DF20DF30D890B862A013009
:10151A00F8007808A007832A0130A235A30DA40D8C
:10152A00A50D890B922A73087702031DA62A720851
:10153A007602031DA62A71087502031DA62A7008E1
:10154A007402031CB12A7008F4027108F53B720890
:10155A00F63B7308F73B22140130F336F20CF10C18
:10156A00F00C890BB22A0130A002031D912A21082E
:10157A000319CA2AA209A309A409A509A20A0319D7
:10158A00A30A0319A40A0319A50A2508F3002408C3
:10159A00F2002308F1002208F00008007008F400A5
:1015AA007108F5007208F6000310750D760DF70044
:1015BA007708FD007D08031DEB2A0030F300003098
:1015CA00F2000030F1000030F00008007008F4006A
:1015DA007108F5007208F6001730F636F50CF40CAF
:1015EA00890BF22A7408F7007708F800F117FF3020
:1015FA00F005FF30F1050030F2057008F9007108B6
:10160A00FA007208FB00FC018E30FD02FD1F292B37
:10161A007D08803A8F3E03181B2B0030F300003000
:10162A00F2000030F1000030F00008000130FC3612
:10163A00FB0CFA0CF90C890B1C2B0130F400740812
:10164A00FD070319422B1B2B18307D02031C3F2B6D
:10165A000030F3000030F2000030F1000030F000FA
:10166A0008000130F935FA0DFB0DFC0D890B372BFB
:10167A000130FD027D08031D362B78080319502B13
:10168A00F909FA09FB09FC09F90A0319FA0A031903
:10169A00FB0A0319FC0A7C08F3007B08F2007A08AB
:1016AA00F1007908F000080020003308B600340879
:1016BA00B7003508B8000310370D380DB9003908DE
:1016CA00BE003E08031D702B0030B0000030B10090
:1016DA000030B20008003008B6003108B7003208FE
:1016EA00B8000310370D380DB9003908BF003F089C
:1016FA00031D862B0030B0000030B1000030B2006C
:10170A0008000030BB000030BC000030BD0089304A
:10171A003F07B6003608BE023308B6003408B700E1
:10172A003508B8001030B836B70CB60C890B982BB0
:10173A003608B9003908BF003008B6003108B700CA
:10174A003208B8001030B836B70CB60C890BA82B83
:10175A003608B9003908BF068030B6003608BF051A
:10176A00B417FF30B305FF30B4050030B505B11723
:10177A00FF30B005FF30B1050030B2051830B600B1
:10178A003608BA000130BB35BC0DBD0D890BC82B1C
:10179A0032083502031DD72B31083402031DD72B1B
:1017AA0030083302031CE02B3008B3023108B43B83
:1017BA003208B53B3B140130B335B40DB50D890B76
:1017CA00E12B0130BA02031DC72B3B08F0003C088D
:1017DA00F1003D08F2003E08B6003608F3003F0863
:1017EA00B7003708F4008931ED2170082000B000F5
:1017FA007108B1007208B200080020005708F00012
:10180A005808F1005908F2000030F3000030F400E3
:10181A000030F500883100208C310318212C21304A
:10182A002100AC000030AD0000302000D7000030AD
:10183A00D8000030D900080020005908580457047D
:10184A00031D342C22302100AC000030AD000030E2
:10185A002000D7000030D8000030D900080000303E
:10186A00C0008030C100BF30C2000030A00000308C
:10187A00A1004030A2005B30DA005A08F300570892
:10188A00F0005808F1005908F20088313B208C31E9
:10189A0070082000A3007108A4007208A5008C310A
:1018AA00B2248C3120002008C3002108C400220879
:1018BA00C5008F310A278C3120004008D700410823
:1018CA00D8004208D900FF30DB07FF30DC3D57085B
:1018DA00CD005808CE005908CF000030D000903013
:1018EA00D1000830D2000030D30089318D218C31EB
:1018FA0020004D08D7004E08D8004F08D9005708D5
:10190A00C0005808C1005908C2007230A000313026
:10191A00A1003F30A2005C08F9005B08F80097318B
:10192A003D278C3178082000A3007908A4007A08A2
:10193A00A5008C31B2248C3120002008C300210874
:10194A00C4002208C5008F310A2720004008D700AA
:10195A004108D8004208D900080020002008A60043
:10196A002108A7002208A8000310270D280DA900A6
:10197A002908AA002A08031DC92C0030A00000303B
:10198A00A1000030A20008002308A6002408A7002E
:10199A002508A8000310270D280DA9002908AF0063
:1019AA002F08031DDF2C0030A0000030A1000030FA
:1019BA00A20008002F087B3EA6002608AA072008D6
:1019CA00A6002108A7002208A8001030A836A70CF4
:1019DA00A60C890BEB2C2608A9002908AF002308BE
:1019EA00A6002408A7002508A8001030A836A70CCE
:1019FA00A60C890BFB2C2608A9002908AF06803003
:101A0A00A6002608AF05A117A417FF30A305FF30CB
:101A1A00A4050030A5050030AB000030AC00003052
:101A2A00AD000730A6002608AE00201C222D230890
:101A3A00AB072408AC3D2508AD3D0130A236A10C08
:101A4A00A00C890B232D0130A335A40DA50D890BFC
:101A5A00292D0130AE02031D1A2D0930A6002608D1
:101A6A00AE00201C3E2D2308AB072408AC3D2508F8
:101A7A00AD3D0130A236A10CA00C890B3F2D0130DF
:101A8A00AD36AC0CAB0C890B452D0130AE02031DF3
:101A9A00362D2B08F0002C08F1002D08F2002A0838
:101AAA00A6002608F3002F08A7002708F4008931AA
:101ABA00ED2170082000A0007108A1007208A200A0
:101ACA000800C030860001308700253084000030CD
:101ADA00850005302000A00016001A00A00B712D09
:101AEA000430AC000030AD00AA01AB01FA1F872D0B
:101AFA002D309731A3278D31F909FA09F90A03190B
:101B0A00FA0A8E2D7D03031D8E2D2B309731A327C4
:101B1A008D3179087A040319BB2D0A30F0000030A0
:101B2A00F1007A08F3007908F2008831F7208D3144
:101B3A0070082000A0002C08253E86008701200896
:101B4A0081000A30F0000030F1007A08F3007908C9
:101B5A00F20089313C218D317108FA007008F900D0
:101B6A00FF302000AC07FF30AD3D8E2D7B0A0319F4
:101B7A00C42DCD2D01302000AA070030AB3D200036
:101B8A002A08253E860087010108031DDE2DBF2D88
:101B9A007B082000A000A101A01BA103A009A109A4
:101BAA00A00A0319A10A2008053EAA000030213D17
:101BBA00AB002B08AD002A08AC007C08A000A101EC
:101BCA00A01BA103A009A109A00A0319A10A2008C0
:101BDA00053EA2000030213DA3002D08803AA40052
:101BEA002308803A2402031DFC2D22082C02031824
:101BFA000E2E20002C08253E860087010108303E63
:101C0A009731A3278D3101302000AC070030AD3D5C
:101C1A00E22D7C03031D1B2E2E309731A3278D3115
:101C2A0020002908303E9731A3278D3102307C06E7
:101C3A00031D08002E309731A3278D312000280874
:101C4A00303E9731A3278D3120002908303E973145
:101C5A00A327080001302100B6070030B73D7809F4
:101C6A00FA007909FB00FA0A0319FB0A76087A07CF
:101C7A00AE0077087B3DAF002F08F1002E08F00078
:101C8A006B08F3006A08F200973104278E31710855
:101C9A002100B1007008B0002F08803AFA008030A5
:101CAA007A02031D5A2E01302E02031C622E0130C5
:101CBA002100C0000030C100652E2100C001C10111
:101CCA0033084106031D6B2E3208400603196F2E96
:101CDA00B801B9014108B3004008B2003C09FA0052
:101CEA003D09FB00FA0A0319FB0A2E087A07F000DD
:101CFA002F087B3DF1006708F3006608F200973170
:101D0A0004278E3171082100AB007008AA002F0841
:101D1A00BD002E08BC003708803AFA0080307A02EB
:101D2A00031D992E15303602031CD42E21002F08CC
:101D3A00F1002E08F0006908F3006808F2009731F4
:101D4A0004278E31210038087007B8003908713D20
:101D5A00B9003908803AFA003B08803A7A02031D32
:101D6A00B82E3A0838020318BF2E21003B08B900E2
:101D7A003A08B80021006D08803AFA003908803A1A
:101D8A007A02031DCA2E38086C020318D12E2100CC
:101D9A006D08B9006C08B8002100B601B70121002E
:101DAA0038083007FA003908313DFB002A087A075B
:101DBA00A8002B087B3DA9002908803AFA003B08B5
:101DCA00803A7A02031DEB2E3A0828020318F22EF3
:101DDA0021003B08A9003A08A80021006D08803AB2
:101DEA00FA002908803A7A02031DFD2E28086C029F
:101DFA000318042F21006D08A9006C08A80021000F
:101E0A002908F7002808F600080020004008C60044
:101E1A004108C7004208C8000310470D480DC90011
:101E2A004908CC004308C6004408C7004508C80052
:101E3A000310470D480DC9004908CB004C08031987
:101E4A00322F4B084C020318392F4C03FF3A4B0729
:101E5A00C60019304602031C392F4308C000440843
:101E6A00C1004508C20008004B08031908004C08C5
:101E7A004B020318482F4B03FF3A4C07C600193090
:101E8A004602031808000630C6004608CA00C21BEC
:101E9A00CA17C51B4A17C117FF30C005FF30C10555
:101EAA000030C205C417FF30C305FF30C405003037
:101EBA00C5054B084C020318842F0130C335C40DE5
:101ECA00C50D890B632F0130CB024B084C06031951
:101EDA007F2F0130CA024A08073903197F2F622F60
:101EEA000130C236C10CC00C890B762F0130C600F6
:101EFA004608CC074C084B060319A92F752F4C0826
:101F0A004B020318A92F0130C035C10DC20D890B30
:101F1A00892F0130CC024B084C060319A52F01303A
:101F2A00CA024A0807390319A52F882F0130C53676
:101F3A00C40CC30C890B9C2F0130C6004608CB0782
:101F4A004C084B06031D9B2FCA1FBB2FFF30C00630
:101F5A00FF30C106FF30C2060130C0070030031847
:101F6A000130C107003003180130C2074A1FCD2FC4
:101F7A00FF30C306FF30C406FF30C5060130C30771
:101F8A00003003180130C407003003180130C507B8
:101F9A00CA014008C3074108C43D4208C53DC51FE0
:101FAA00E82FFF30C306FF30C406FF30C5060130F4
:101FBA00C307003003180130C4070030031801308A
:101FCA00C507CA01CA0A4308F0004408F1004508D7
:101FDA00F2004C08C6004608F3004A08C700470842
:101FEA00F4008931ED2170082000C0007108C10099
:101FFA007208C2000800003400340034003480340F
:10200A003F34F034FF34BE34E234A9343E348334EE
:10201A007634BE34AE342B343E343C34C334BD340F
:10202A00D23413343D347834D334BB3441346C3431
:10203A0074346534723420347734693474346834CF
:10204A002034553470342F3444346E3400344534DB
:10205A006E3474346534723420344B3465347934D4
:10206A00203474346F342034533465347434003477
:10207A0020342034203447346F346F3464342D34A0
:10208A0042347934653421342134203420342034E4
:10209A00003445346E347434653472342034743404
:1020AA006F342034533465346C3465346334743497
:1020BA0020340034553470342F3444346F34773438
:1020CA006E34203474346F34203441346C347434B4
:1020DA006534723400342034503469347434203412
:1020EA00543465346D3470343A34003442346134D3
:1020FA0063346B344C3469346734683474343A3436
:10210A0000344F34753474347034753474343A345A
:0C211A0000345034693474343A3400341A
:102C5C00003080310520963101308031052008008C
:102C6C00603031008D008F0191010630930092018C
:102C7C0008008030270092009101900124001F0869
:102C8C00F33904389F0008006400800101310130E1
:102C9C00FE020030FF3B7F087E04031900344B2EEC
:102CAC00FE0012001E000130FE020030FF3B7F08C8
:102CBC007E0403190034572ECA3408340B34023402
:102CCC00013400340134003404340034FF3407344C
:102CDC00403425008E01013090008F019101FF30AE
:102CEC008D008C012E00901025008E170800F3002B
:102CFC00730821009E009317131313141318842EBA
:102D0C000D08F1000C08F00008007108F3007008C1
:102D1C00F200F336F20CF336F20C72082700910035
:102D2C0070080339F2000530F235FF3E031D9A2E70
:102D3C0072359000080020008D1CAA2E2100460838
:102D4C000319AA2E0130C60220000D1CB52E21003D
:102D5C004608031DB52E0130F0007008C60721008F
:102D6C0046080800F000701CBE2E20008C17C02EE8
:102D7C0020008C13F01CC42E0C17C52E0C13701DC8
:102D8C00C92E0E14CA2E0E10F01DCE2E8E14080055
:102D9C008E1008002100940195019601990197016C
:102DAC003F3098009A019B0107309C009D019E01C9
:102DBC0022008D018E018F019001910192019301EE
:102DCC008430210093000800F801F9017508780798
:102DDC0084007608793D85001200031908007508F7
:102DEC00780784007608793D850000089731A32781
:102DFC0096310130F8070030F93DEC2EF401F50165
:102E0C00701C0C2F7208F4077308F53D0130F23575
:102E1C00F30D890B0D2F0130F136F00C890B122FAD
:102E2C0070087104031D062F7508F1007408F0007A
:102E3C00080020004F084E044D040319272F803042
:102E4C00CF065008C0005108C1005208C2004D08FE
:102E5C00C3004E08C4004F08C5008F310A2720005C
:102E6C004008CD004108CE004208CF000800FD010B
:102E7C00F91F472FF809F909F80A0319F90AFD0196
:102E8C00FD0A7808F0007908F100F2018E30FB00A1
:102E9C007B08F3007D08FC007C08F4008931ED21EF
:102EAC007008F8007108F9007208FA0008000C3478
:102EBC00123412340C34003400340034003408342E
:102ECC00043402341F340234043408340034013422
:102EDC00003403340034703490347B349034BE347A
:102EEC000A34FF340334EE3402340034003404303A
:102EFC008031052097310030803105209731F60163
:102F0C001030760203189B2F7608A03E8600013005
:102F1C00870001089731A32797310130F500750818
:102F2C00F60710307602031C8A2F00308031052002
:102F3C0097310230803105200800F40074080F39F5
:102F4C00F1007108F2007408F039F1007108F30017
:102F5C0020000C147308F1000430F136890BB32FE8
:102F6C0071089631B826973120000C150C116A3077
:102F7C00F100F10BBF2F000072089631B826973183
:102F8C0020000C150C116A30F100F10BCB2F000056
:102F9C00080020009601970198013E00B901C40178
:102FAC00CF010830E5000A30200091000730920074
:102FBC0093010A303E00B800C301CE012E00161258
:102FCC0000308B1B0130F0008B1355303D008F000F
:102FDC00AA308F000F100F303E00A30055303D007B
:102FEC008F00AA308F000F14701CFE2F8B17080057
:042FFC008B1308002B
:020000040001F9
:0A000E008C3FFF3F9F3FFF2FFF3F95
:00000001FF
