:10000000803102288731D02FFD01F91F0E28F80911
:10001000F909F80A0319F90AFD01FD0A7808F00048
:100020007908F100F2018E30FB007B08F3007D08B7
:10003000FC007C08F4008031D5207008F8007108BD
:10004000F9007208FA000800F601F11F2E28F009E5
:10005000F109F00A0319F10AF601F60AF31F39282B
:10006000F209F309F20A0319F30A0130F4007408E3
:10007000F606F701F8017008710403196828F50104
:10008000F50AF11B4D280130F035F10D890B44289C
:100090000130F4007408F50741280130F735F80DF8
:1000A000890B4E2871087302031D582870087202CC
:1000B000031C5F287008F2027108F33B77140130CB
:1000C000F136F00C890B60280130F502031D4D2834
:1000D000760803197028F709F809F70A0319F80ACE
:1000E0007808F1007708F000080020004308F100CC
:1000F0004208F0000330F2000030F3008E31072692
:10010000803120004008700784004108713D85005F
:10011000003FC400013FC500023FC600420843043F
:100120000319CE28FF30C207FF30C33D4308F1005A
:100130004208F0000330F2000030F3008E31072651
:10014000803120004008700784004108713D85001F
:10015000003FB000013FB100023FB2004408A000E0
:100160004508A1004608A2003D08A3003E08A400DF
:100170003F08A5008331A023803120002008B30070
:100180002108B4002208B5008631DA26803120002B
:100190003008C4003108C50032088D284408BD006D
:1001A0004508BE004608BF00080073080319DD2893
:1001B000720871047004031DEE280030F000003056
:1001C000F1000030F20008000130F5007508F30777
:1001D0000130F236F10CF00C890BE928FE30720583
:1001E00003190729E4280130F5007508F3070130E9
:1001F000F007003003180130F10700300318013018
:10020000F2070130F236F10CF00C890B0229FF30B5
:10021000720503191429F3280130F3020130F03577
:10022000F10DF20D890B0F29F11B1A29023073020F
:1002300003180C2973182229FF30F0057F30F105CF
:10024000FF30F2050310F30C7308F500F601F70117
:100250001030F535F60DF70D890B29297508F004D6
:100260007608F1047708F204740803190800F217FD
:100270000800F70000308D31BB2581310530F600D4
:100280000F30F500F430F400F40B4429F50B442949
:10029000F60B442903308D31662581316830F50035
:1002A000E430F400F40B5229F50B5229000003301E
:1002B0008D31662581318930F40000320032F40B33
:1002C0005D2903308D31662581318930F40000329B
:1002D0000032F40B672902308D3166258131893077
:1002E000F40000320032F40B712902308D316625A2
:1002F000813108308D31662581318930F40000323A
:100300000032F40B7F2900308D31662581310830B1
:100310008D31662581318930F40000320032F40BD2
:100320008D2900308D316625813101308D31662572
:1003300081313430F500F130F400F40B9D29F50BD8
:100340009D29003200308D316625813106308D3196
:10035000662581318930F40000320032F40BAC297B
:1003600000308D316625813177080C388D31662556
:1003700081318930F40000320032F40BBB290800CF
:1003800020005908DD005A08DE005B08DF0003107A
:100390005E0D5F0DE0006008E6006608031DD929C8
:1003A0000030DC000030DB000030DA000030D90023
:1003B00008005908DD005A08DE005B08DF0017302E
:1003C000DF36DE0CDD0C890BE0295D08E0006008FB
:1003D000E100DA17FF30D905FF30DA050030DB0520
:1003E0005908E2005A08E3005B08E400E5018E309A
:1003F000E602E61F172A6608803A8F3E0318092A8C
:100400000030DC000030DB000030DA000030D900C2
:1004100008000130E536E40CE30CE20C890B0A2AF3
:100420000130DD005D08E6070319302A092A18307B
:100430006602031C2D2A0030DC000030DB00003097
:10044000DA000030D90008000130E235E30DE40D98
:10045000E50D890B252A0130E6026608031D242AD2
:10046000610803193E2AE209E309E409E509E20A01
:100470000319E30A0319E40A0319E50A6508DC0015
:100480006408DB006308DA006208D9000800200075
:100490002308A6002408A7002508A8000310270D9C
:1004A000280DA9002908AE002E08031D5E2A003081
:1004B000A0000030A1000030A20008002008A60023
:1004C0002108A7002208A8000310270D280DA90065
:1004D0002908AF002F08031D742A0030A000003047
:1004E000A1000030A20008000030AB000030AC00DA
:1004F0000030AD0089302F07A6002608AE02230881
:10050000A6002408A7002508A8001030A836A70CCC
:10051000A60C890B862A2608A9002908AF00200806
:10052000A6002108A7002208A8001030A836A70CB2
:10053000A60C890B962A2608A9002908AF06803048
:10054000A6002608AF05A417FF30A305FF30A405B9
:100550000030A505A117FF30A005FF30A105003030
:10056000A2051830A6002608AA000130AB35AC0D54
:10057000AD0D890BB62A22082502031DC52A2108C4
:100580002402031DC52A20082302031CCE2A2008AA
:10059000A3022108A43B2208A53B2B140130A3355C
:1005A000A40DA50D890BCF2A0130AA02031DB52A7F
:1005B0002B08F0002C08F1002D08F2002E08A600F0
:1005C0002608F3002F08A7002708F4008031D52063
:1005D00070082000A0007108A1007208A2000800A5
:1005E00020004708F0004808F1004908F2000030F8
:1005F000F3000030F4000030F5008E31C426823163
:1006000003180F2B21302100B9000030BA00003050
:100610002000C7000030C8000030C90008002000DA
:10062000490848044704031D222B22302100B90049
:100630000030BA0000302000C7000030C800003091
:10064000C90008000030B0008030B100BF30B200F7
:100650000030A0000030A1004030A2004B30CA00A2
:100660004A08F3004708F0004808F1004908F20082
:100670008E31FF26823170082000A3007108A4008B
:100680007208A5008331A023823120002008B30026
:100690002108B4002208B5008631DA268231200014
:1006A0003008C7003108C8003208C900FF30CB0746
:1006B000FF30CC3D4708BD004808BE004908BF00D8
:1006C0000030C0009030C1000830C2000030C300CC
:1006D00080317520823120003D08C7003E08C800E7
:1006E0003F08C9004708B0004808B1004908B200F7
:1006F0007230A0003130A1003F30A2004C08F90058
:100700004B08F80080310420823178082000A300D3
:100710007908A4007A08A5008331A0238231200043
:100720002008B3002108B4002208B5008631DA267B
:1007300020003008C7003108C8003208C90008008E
:1007400020002008A6002108A7002208A800031006
:10075000270D280DA9002908AA002A08031DB72B78
:100760000030A0000030A1000030A20008002308E3
:10077000A6002408A7002508A8000310270D280DAF
:10078000A9002908AF002F08031DCD2B0030A000C1
:100790000030A1000030A20008002F087B3EA60018
:1007A0002608AA072008A6002108A7002208A800FA
:1007B0001030A836A70CA60C890BD92B2608A90047
:1007C0002908AF002308A6002408A7002508A800D0
:1007D0001030A836A70CA60C890BE92B2608A90017
:1007E0002908AF068030A6002608AF05A117A41778
:1007F000FF30A305FF30A4050030A5050030AB0095
:100800000030AC000030AD000730A6002608AE0076
:10081000201C102C2308AB072408AC3D2508AD3D57
:100820000130A236A10CA00C890B112C0130A3358C
:10083000A40DA50D890B172C0130AE02031D082C49
:100840000930A6002608AE00201C2C2C2308AB077C
:100850002408AC3D2508AD3D0130A236A10CA00C0A
:10086000890B2D2C0130AD36AC0CAB0C890B332C25
:100870000130AE02031D242C2B08F0002C08F100DF
:100880002D08F2002A08A6002608F3002F08A7006A
:100890002708F4008031D52070082000A0007108DE
:1008A000A1007208A2000800AC308600003087006A
:1008B000253084000030850005302000A00016009F
:1008C0001A00A00B5F2C0430AC000030AD00AA0170
:1008D000AB01FA1F752C2D308E3166268431F90953
:1008E000FA09F90A0319FA0A7C2C7D03031D7C2CF2
:1008F0002B308E316626843179087A040319A92CAD
:100900000A30F0000030F1007A08F3007908F200B4
:100910008F31BB27843170082000A0002C08253EB1
:1009200086008701200881000A30F0000030F100C5
:100930007A08F3007908F2008031242084317108AC
:10094000FA007008F900FF302000AC07FF30AD3D21
:100950007C2C7B0A0319B22CBB2C01302000AA0787
:100960000030AB3D20002A08253E860087010108A3
:10097000031DCC2CAD2C7B082000A000A101A01BE6
:10098000A103A009A109A00A0319A10A2008053E94
:10099000AA000030213DAB002B08AD002A08AC00B6
:1009A0007C08A000A101A01BA103A009A109A00A25
:1009B0000319A10A2008053EA2000030213DA30032
:1009C0002D08803AA4002308803A2402031DEA2C53
:1009D00022082C020318FC2C20002C08253E86003F
:1009E00087010108303E8E316626843101302000B7
:1009F000AC070030AD3DD02C7C03031D092D2E30FB
:100A00008E316626843120002908303E8E316626DC
:100A1000843102307C06031D08002E308E3166269C
:100A2000843120002808303E8E3166268431200033
:100A30002908303E8E31662608008F3179278531AE
:100A4000A030860000308700C1308400003085006F
:100A50000C302000E70016001A00E70B2B2D2100B8
:100A6000CF0140302000E70067082100D0000230AD
:100A70002000E70067082100D100D201D20ACD0191
:100A8000CE01D301D4010A302000E700670821001D
:100A9000D5000B30D6000230D7000B30D800023022
:100AA000D9005708F1005608F0008D318F258531A7
:100AB00021005908F1005808F0008D31A525853135
:100AC0000D302000E9002D30E800E230E700E70BB0
:100AD000672DE80B672DE90B672D00328D311F253F
:100AE000853103308D313A25853171082100C200EE
:100AF0007008C10042082000CE00210041082000FB
:100B0000CD008531FB25853120004D08D9004E08E8
:100B1000DA004F08DB008131C021853120005A08FE
:100B20002100C200200059082100C100F630D80081
:100B30000130D9005908F1005808F0008D31A52581
:100B40008531F40100308F313A2785312630F500A8
:100B50009030F6008D31D3258531F40105308F3189
:100B60003A27853121004208FA004108F900053092
:100B70002000E7006708FB00FC01FD0184315424DC
:100B8000853100308E316626853146308E316626BD
:100B90008531F401F40A00308F313A2785311B305A
:100BA000F5009030F6008D31D325853120308E311F
:100BB0006626853121005908FA005808F9000430EA
:100BC0002000E7006708FB00FC01FD01843154248C
:100BD000853120308E316626853129302000E900AC
:100BE0009630E800A630E700E70BF42DE80BF42D73
:100BF000E90BF42D712D00302000B0008030B100E1
:100C0000BF30B2004E08F9004D08F80080310420D2
:100C1000853178082000A0007908A1007A08A20098
:100C2000C030A3007F30A4004430A50082314722A9
:100C3000853120002008B3002108B4002208B50047
:100C40008631DA26853120003008D3003108D400FF
:100C50003208D5005308A0005408A1005508A2008E
:100C60009030A3001C30A4004630A50082314722FA
:100C7000853120002008D0002108D1002208D200B0
:100C80003430A0001D30A1004630A2005008A3005F
:100C90005108A4005208A500823147228531200066
:100CA0002008D6002108D7002208D8005608C7001F
:100CB0005708C8005808C9008231F0228531200049
:100CC0004708D6004808D7004908D800B030A0002F
:100CD0007930A1004530A2005608A3005708A400AF
:100CE0005808A50082314722853120002008D6000F
:100CF0002108D7002208D800CF30B0005B30B10007
:100D00003B30B2005608B3005708B4005808B5008D
:100D10008631DA26853120003008D6003108D70028
:100D20003208D8005608A0005708A1005808A200B1
:100D30000030A3008030A4003F30A500823147225C
:100D4000853120002008D6002108D7002208D800CD
:100D50009330BD008830BE004330BF005608C0004D
:100D60005708C1005808C2008E3122268531200064
:100D70003D08D6003E08D7003F08D8000030A0004C
:100D80002030A1004130A2005608A3005708A4005B
:100D90005808A5008331A02320002008D600210890
:100DA000D7002208D8005608CD005708CE005808B2
:100DB000CF00080020003008B6003108B700320824
:100DC000B8000310370D380DB9003908BC003308DE
:100DD000B6003408B7003508B8000310370D380DD9
:100DE000B9003908BB003C080319022F3B083C023C
:100DF0000318092F3C03FF3A3B07B60019303602AF
:100E0000031C092F3308B0003408B1003508B200C4
:100E100008003B08031908003C083B020318182F80
:100E20003B03FF3A3C07B6001930360203180800AE
:100E30000630B6003608BA00B21BBA17B51B3A170F
:100E4000B117FF30B005FF30B1050030B205B4175F
:100E5000FF30B305FF30B4050030B5053B083C0258
:100E60000318542F0130B335B40DB50D890B332F52
:100E70000130BB023B083C0603194F2F0130BA0278
:100E80003A08073903194F2F322F0130B236B10C0F
:100E9000B00C890B462F0130B6003608BC073C0861
:100EA0003B060319792F452F3C083B020318792F85
:100EB0000130B035B10DB20D890B592F0130BC0294
:100EC0003B083C060319752F0130BA023A0807396E
:100ED0000319752F582F0130B536B40CB30C890B9C
:100EE0006C2F0130B6003608BB073C083B06031DDB
:100EF0006B2FBA1F8B2FFF30B006FF30B106FF30CB
:100F0000B2060130B007003003180130B1070030DD
:100F100003180130B2073A1F9D2FFF30B306FF3090
:100F2000B406FF30B5060130B307003003180130B6
:100F3000B407003003180130B507BA013008B30711
:100F40003108B43D3208B53DB51FB82FFF30B306A8
:100F5000FF30B406FF30B5060130B3070030031888
:100F60000130B407003003180130B507BA01BA0ADE
:100F70003308F0003408F1003508F2003C08B600F0
:100F80003608F3003A08B7003708F4008031D5205E
:100F900070082000B0007108B1007208B2000800AB
:100FA000303084008D308500DA30860000308700D4
:100FB0000A308D3119258731563084008D308500F7
:100FC000483086000130870010308D311925873177
:100FD000EA01EB01EC01ED01EE01EF01A03084002C
:100FE0000030850021308D31132587312030840079
:100FF0000130850028308D311325200085311D2DCD
:101A2600640080010131890B142D0034FE00120080
:101A36001E00FE0B1A2D003400308D3166258D31C7
:101A460001308D3166250800603031008D008F0130
:101A560091010630930092010800083400340134E5
:101A660000340434003401340034FF340334F3000A
:101A7600730821009E009317131313141318412D96
:101A86000D08F1000C08F000080025008E01013059
:101A960090008F019101FF308D008C012E00901077
:101AA60025008E1708000C34123412340C3400341E
:101AB6000034003400340834043402341F34023451
:101AC600043408340034F30020000C1073088D3100
:101AD600BB258D3120000C150C112A30F2008D30FB
:101AE600F100F10B742DF20B742D003208008030DA
:101AF60027008E008D018C0124001F08F33904385D
:101B06009F008030270092009101900124001F0859
:101B1600F33904389F0008007108F3007008F200DA
:101B2600F336F20CF336F20C720827008D007008BB
:101B36000339F2000530F235FF3E031D9E2D723546
:101B46008C0008007108F3007008F200F336F20CFE
:101B5600F336F20C72082700910070080339F20080
:101B66000530F235FF3E031DB42D72359000080096
:101B7600F000701CC12D20008C17C32D20008C1383
:101B8600F01CC72D0C17C82D0C13701DCC2D0E1470
:101B9600CD2D0E10F01DD12D8E1408008E100800CC
:101BA600F801F9017508780784007608793D850003
:101BB6001200031908007508780784007608793D35
:101BC600850000088E3166268D310130F807003019
:101BD600F93DD52D210094019501960199019701B2
:101BE6003F3098009A019B0107309C009D019E01A1
:101BF60022008D018E018F019001910192019301C6
:101C06008430210093000800F401F501701C0F2EAA
:101C16007208F4077308F53D0130F235F30D890BB0
:101C2600102E0130F136F00C890B152E7008710458
:101C3600031D092E7508F1007408F0000800200045
:101C46003F083E043D0403192A2E8030BF06400893
:101C5600B0004108B1004208B2003D08B3003E089A
:101C6600B4003F08B5008631DA2620003008BD00F2
:101C76003108BE003208BF00080004308D316625E9
:101C86008E3100308D3166258E31F60110307602A8
:101C960003185E2E7608483E86000130870001084C
:101CA6008E3166268E310130F5007508F607103044
:101CB6007602031C4D2E00308D3166258E310230A2
:101CC6008D3166250800F40074080F39F10071089B
:101CD600F2007408F039F1007108F30020000C14CA
:101CE6007308F1000430F136890B762E71088D31B8
:101CF600BB258E3120000C150C116A30F100F10B5A
:101D0600822E000072088D31BB258E3120000C1505
:101D16000C116A30F100F10B8E2E00000800200035
:101D26009601970198013E00B901C401CF01083020
:101D3600E5000830200091009201930108303E0032
:101D4600B800C301CE012E00161200308B1B0130E5
:101D5600F0008B1355303D008F00AA308F000F1016
:101D66000E303E00A2000F30A30055303D008F001C
:101D7600AA308F000F14701CC22E8B1708008B130D
:101D86000800F21FDA2E7009F6007109F7007209D1
:101D9600F800F60A0319F70A0319F80A003076075D
:101DA600F0000030773DF1008030783DF200F51FFD
:101DB600F02E7309F6007409F7007509F800F60AA3
:101DC6000319F70A0319F80A00307607F300003002
:101DD600773DF4008030783DF5008030F2068030A3
:101DE600F50675087202031D080074087102031DCA
:101DF6000800730870020800720871047004031D5D
:101E0600112F7308860087010030C03FC13F0030A4
:101E1600F0000030F1000030F200080072087F394F
:101E2600F400F501F435F50D730886008701740892
:101E3600C03F7508C13F710D710D0139F400F50100
:101E4600730886008701740881044131750881048E
:101E5600730886008701823081074131FF30813D5A
:101E66007F31720880393F38F200F1130800F7001D
:101E76007408031D5A2F7708803EF5007508FA008E
:101E86007A08F5000430F536890B462F7508F600FA
:101E96007608F8007A080F39F5007508F900780811
:101EA6008D3166258F3179088D31662508007403DA
:101EB600031D08007708C03EF5007508FA007A0889
:101EC600F5000430F536890B652F7508F60076089F
:101ED600F8007A080F39F5007508F90078088D3191
:101EE60066258F3179088D31662508008E31922658
:101EF6008F318D3127258F3132008C018D31ED25C3
:101F06008F318D317A258F318D3148258F310030D3
:101F1600813139218F310930FA001E30F900EB305A
:101F2600F800F80B942FF90B942FFA0B942F00005E
:101F36008D311F258F310530FA000F30F900F4304E
:101F4600F800F80BA42FF90BA42FFA0BA42F8E314F
:101F560040268F310930FA001E30F900EB30F800C8
:101F6600F80BB32FF90BB32FFA0BB32F00000800B1
:101F7600F601F31FC52FF209F309F20A0319F30A52
:101F8600F601F60AF11FCC2FF009F109F00A031940
:101F9600F10A700871040319F32FF501F50AF11B14
:101FA600DE2F0130F035F10D890BD52F0130F4000D
:101FB6007408F507D22F71087302031DE42F700809
:101FC6007202031CEA2F7008F2027108F33B01301B
:101FD600F136F00C890BEB2F0130F502031DDE2FD5
:101FE60076080319FB2FF209F309F20A0319F30A1B
:101FF6007308F1007208F000080000340034003461
:10200600003480343F34F034FF34BE34E234A93433
:102016003E3483347634BE34AE342B343E343C34D2
:10202600C334BD34D23413343D347834D334BB3462
:102036004434753474347934203443347934633415
:102046006C34653400345034693474343A340034B2
:020000040001F9
:0A000E008C3FFF3F9F3FFF2FFF3F95
:00000001FF
