:10000000803102288731B72F80302700920091017C
:10001000900124001F08F33904389F000800F601FE
:10002000F31F1928F209F309F20A0319F30AF6017A
:10003000F60AF11F2028F009F109F00A0319F10A64
:100040007008710403194728F501F50AF11B3228DD
:100050000130F035F10D890B29280130F4007408C6
:10006000F507262871087302031D382870087202EC
:10007000031C3E287008F2027108F33B0130F13690
:10008000F00C890B3F280130F502031D3228760859
:1000900003194F28F209F309F20A0319F30A730846
:1000A000F1007208F000080001302100DC07003088
:1000B000DD3D7809FA007909FB00FA0A0319FB0A09
:1000C00076087A07D60077087B3DD7005708F100FD
:1000D0005608F0006D08F3006C08F2008831942097
:1000E000803171082100D9007008D8005708803A83
:1000F000FA0080307A02031D7F2801305602031C6B
:10010000872801302100E6000030E7008A2821001E
:10011000E601E7015B086706031D90285A0866069A
:1001200003199428DE01DF016708DB006608DA00A6
:100130006209FA006309FB00FA0A0319FB0A560870
:100140007A07F00057087B3DF1006908F300680862
:10015000F20088319420803171082100D3007008AA
:10016000D2005708E3005608E2005D08803AFA0022
:1001700080307A02031DBE2815305C02031CFE2865
:1001800021005708F1005608F0006B08F3006A08D8
:10019000F20088319420803121005E087007DE0073
:1001A0005F08713DDF005F08803AFA006108803A1D
:1001B0007A02031DDD2860085E020318E42821008E
:1001C0006108DF006008DE0023003508803AFA008D
:1001D00021005F08803A7A02031DF1285E0823009F
:1001E00034020318FB28230035082100DF00230018
:1001F00034082100DE002100DC01DD0121005E0861
:100200005807FA005F08593DFB0052087A07D000F2
:1002100053087B3DD1005108803AFA006108803ACA
:100220007A02031D15296008500203181C292100B9
:100230006108D1006008D00023003508803AFA0038
:1002400021005108803A7A02031D29295008230011
:10025000340203183329230035082100D10023007C
:1002600034082100D00021005108F7005008F600A2
:10027000080020004008C6004108C7004208C80026
:100280000310470D480DC9004908CC004308C600BB
:100290004408C7004508C8000310470D480DC900B1
:1002A0004908CB004C08031961294B084C0203187C
:1002B00068294C03FF3A4B07C60019304602031C5D
:1002C00068294308C0004408C1004508C20008006E
:1002D0004B08031908004C084B02031877294B03FD
:1002E000FF3A4C07C60019304602031808000630D2
:1002F000C6004608CA00C21BCA17C51B4A17C11749
:10030000FF30C005FF30C1050030C205C417FF3003
:10031000C305FF30C4050030C5054B084C02031867
:10032000B3290130C335C40DC50D890B92290130A5
:10033000CB024B084C060319AE290130CA024A0809
:1003400007390319AE2991290130C236C10CC00CFE
:10035000890BA5290130C6004608CC074C084B067E
:100360000319D829A4294C084B020318D8290130B5
:10037000C035C10DC20D890BB8290130CC024B0824
:100380004C060319D4290130CA024A080739031957
:10039000D429B7290130C536C40CC30C890BCB292D
:1003A0000130C6004608CB074C084B06031DCA297E
:1003B000CA1FEA29FF30C006FF30C106FF30C2065F
:1003C0000130C007003003180130C10700300318A6
:1003D0000130C2074A1FFC29FF30C306FF30C406A4
:1003E000FF30C5060130C307003003180130C407D1
:1003F000003003180130C507CA014008C30741088F
:10040000C43D4208C53DC51F172AFF30C306FF3053
:10041000C406FF30C5060130C307003003180130A1
:10042000C407003003180130C507CA01CA0A4308CF
:10043000F0004408F1004508F2004C08C6004608E8
:10044000F3004A08C7004708F4008B3118237008EE
:100450002000C0007108C1007208C200080000300E
:100460002000C0008030C100BF30C2005E08F9002B
:100470005D08F8008831CD20823178082000B00076
:100480007908B1007A08B200C030B3007F30B40000
:100490004430B5008D312A25823120003008C30058
:1004A0003108C4003208C500813139218231200071
:1004B0004008E3004108E4004208E5006308B0009A
:1004C0006408B1006508B2006030B3001A30B400AF
:1004D0004630B5008D312A25823120003008E000F9
:1004E0003108E1003208E2004030B0001C30B100B9
:1004F0004630B2006008B3006108B4006208B5007D
:100500008D312A25823120003008E6003108E700CD
:100510003208E8006608D7006708D8006808D900E4
:100520008D31D325823120005708E6005808E700B6
:100530005908E800A030B0007530B1004530B20075
:100540006608B3006708B4006808B5008D312A2535
:10055000823120003008E6003108E7003208E80068
:10056000CF30C0005B30C1003B30C2006608C30022
:100570006708C4006808C500813139218231200034
:100580004008E6004108E7004208E8006608B000BD
:100590006708B1006808B2000030B3008030B400D2
:1005A0003F30B5008D312A25823120003008E60029
:1005B0003108E7003208E8009330CD008830CE00E3
:1005C0004330CF006608D0006708D1006808D20029
:1005D0008831AF20823120004D08E6004E08E70048
:1005E0004F08E8000030A0002030A1004130A200F8
:1005F0006608A3006708A4006808A5008E3183265A
:10060000823120002008E6002108E7002208E800E7
:100610000030C000A030C1004330C2000030B00044
:10062000A030B1004030B2000030A0001030A10076
:100630004130A2006608A3006708A4006808A5006E
:100640008E318326823120002008B3002108B400B7
:100650002208B5008D312A25823120003008C300E0
:100660003108C4003208C50081313921200040081A
:10067000E6004108E7004208E8006608DD00670878
:10068000DE006808DF00080020002635B03E860046
:1006900001308700403FF900413FFA007908973167
:1006A000F22783317108FC007008FB002000260847
:1006B000A8000130A835FF3E031D5A2B2835C83E3F
:1006C00086008701403FA900413FAA00423FAB009E
:1006D000433FAC00210065082000AE002100640803
:1006E0002000AD00AD35AE0D2708F1002608F00062
:1006F0005030F2000030F3008831942083315030C4
:100700002000AF002330B00070082F07B10071083F
:10071000303DB20031082D07840032082E3D85009F
:10072000003FB300013FB400B501B601B309B409FD
:10073000B509B609B30A0319B40A0319B50A0319AE
:10074000B60A3308A9073408AA3D3508AB3D360878
:10075000AC3D2608B7000130B735FF3E031DAC2B7A
:100760003735C83E860087012908C03F2A08C13FA7
:100770002B08C23F2C08C33F210065082000A900B8
:10078000210064082000A800A835A90D2708F10061
:100790002608F0005030F2000030F3008831942039
:1007A000833150302000AA002330AB0070082A07A4
:1007B000AC0071082B3DAD0028082C0786002908E5
:1007C0002D3D87007B08C03F7C08C13F2608A8005C
:1007D0000130A835FF3E031DE92B2835C83E8600B1
:1007E0008701403FA900413FAA00423FAB00433F81
:1007F000AC00210065082000AE0021006408200044
:10080000AD00AD35AE0D2708F1002608F0005030E0
:10081000F2000030F3008831942083315030200002
:10082000AF002330B00070082F07B1007108303DD1
:10083000B20031082D07840032082E3D8500003FAC
:10084000B300013FB400B501B6013308A90734086D
:10085000AA3D3508AB3D3608AC3D2608B70001304F
:10086000B735FF3E031D302C3735C83E8600870163
:100870002908C03F2A08C13F2B08C23F2C08C33FAC
:100880002708803AA80080302802031D492C013037
:100890002602031C592C01302100E4070030E53DFD
:1008A00000306502283003196402031C592CE4014E
:1008B000E5010030F3000030F2000030F100283094
:1008C000F00020002608A8000130A835FF3E031DD7
:1008D000652C2835C83E86008701403FF400413F23
:1008E000F500423FF600433FF7008B317C2371084F
:1008F000FC007008FB007C082000A7007B08A60015
:1009000008008A312522843123004C08BF004B089F
:10091000BE004A08BD004908BC00CA30C10008300A
:10092000C2002100BF012300C3012100B901BA01A7
:1009300000302300B9000030B8000030B7000030AC
:10094000B6002100C7012030860002308700203029
:100950008400013085005030AA0016001A00AA0B4E
:10096000AD2CBB01EE30C5000230C600EE30C10038
:100970000230C200BC012300C0012000EF012100B1
:10098000C301C4014030AA002A08C0000230AA00F6
:100990002A08B400B501B50A2000ED01EE012100DE
:1009A000B601B7010A30AA002A08B8002300BA012C
:1009B000BB010B302100BD000230BE003E08F1003B
:1009C0003D08F00088311C2084310D302100AC003E
:1009D0002D30AB00E230AA00AA0BEC2CAB0BEC2CB8
:1009E000AC0BEC2C0032883100208431FE30210029
:1009F0004002031C702E3E08F1003D08F0008831D3
:100A00001C208431F40100308931E6218431233007
:100A1000F5009030F600883160208431F401053013
:100A20008931E621843123003F08FA003E08F900AD
:100A3000FB01FB03FC01FC0AFD018F3137278431E8
:100A400000308931132184314630893113218431BA
:100A500020308931132184312030893113218431B0
:100A6000F401F40A00308931E62184311B30F500AD
:100A70009030F60088316020843120308931132194
:100A8000843123003B08FA003A08F90005302100C0
:100A9000AA002A08FB00FC01FD018F3137278431B1
:100AA00021003B08031D0F2E23004208F7004108D8
:100AB000F6003F08F9003E08F800803154208431E8
:100AC00077082100BA007608B90023003608210013
:100AD000AA00230037082100AB00230038082100BA
:100AE000AC00230039082100AD004735203E8600C8
:100AF00001308700403FAE00413FAF002E08B000FC
:100B00002F08B1000030B11BFF30B200B300B009B4
:100B1000B109B209B309B00A0319B10A0319B20A3B
:100B20000319B30A3008AA073108AB3D3208AC3DBF
:100B30003308AD3D2D082300B90021002C08230007
:100B4000B80021002B082300B70021002A08230049
:100B5000B60021004735203E860001308700390865
:100B6000C03F3A08C13F230036082100AA002300F5
:100B700037082100AB00230038082100AC00230017
:100B800039082100AD004735203E8600013087003E
:100B9000403FAE00413FAF002E08B0002F08B1002B
:100BA0000030B11BFF30B200B3003008AA07310893
:100BB000AB3D3208AC3D3308AD3D2D082300B900F4
:100BC00021002C082300B80021002B082300B700C7
:100BD00021002A082300B6000030F3000030F200A4
:100BE0000030F1002830F0003908F7003808F6002E
:100BF0003708F5003608F4008B317C238431710806
:100C00002300BB007008BA0001302100AA002A08A6
:100C1000C70728304702031C152EC701152E2300D5
:100C2000BA01BB0101302100BB0223003F082100B3
:100C3000C60023003E082100C5000A303C0203180C
:100C4000262E0130AA002A08BC072B2E4608C20017
:100C50004508C100BC014509AA004609AB00AA0A23
:100C60000319AB0A41082A07AC0042082B3DAD002E
:100C70002D08803AAE0080302E02031D412E6530D3
:100C80002C0203185C2E21004509AA004609AB007E
:100C9000AA0A0319AB0A41082A07AC0042082B3DF7
:100CA000AD002D08803AAE007F302E02031D5A2E73
:100CB0009C302C020318642E2300BA01BB013C3087
:100CC0002100AA002A08BB00003023003B0232307A
:100CD00003193A0203186E2EBA01BB012100C001AC
:100CE0000130C3070030C43D23003508803A21009D
:100CF000AA004408803A2A02031D812E43082300DB
:100D000034020318862E2100C301C40123003B08CE
:100D100021004402031D902E23003A0821004302C3
:100D20000318952E20001815972E20001811230067
:100D3000C001023040020318C02E40082100AA0062
:100D4000AB012A082000A60021002B082000A700E4
:100D500083314423843123004035BC3E860001307A
:100D6000870020002608C03F2708C13F013021002E
:100D7000AA002A082300C00702304002031C9D2E4F
:100D80003D082000DE0023003C082000DD00823109
:100D90002F22843120005D08E9005E08EA005F0828
:100DA000EB008C318524843120006A082300BD00CB
:100DB000200069082300BC003F082000DE0023005B
:100DC0003E082000DD0082312F22843120005D08A2
:100DD000E9005E08EA005F08EB008C31852484316D
:100DE00020006A082300BF00200069082300BE001D
:100DF00020000D1C4C2F02302100AA002A082300DD
:100E0000C3070130C1070030C23D4208803A2100CB
:100E1000AA008A302A02031D102FBF30230041028E
:100E2000031C172FBE302300C1000A30C200F4019A
:100E300005308931E621843123004208FA00410857
:100E4000F900FB01FB03FC01FC0AFD018F31372790
:100E50008431FF302100AA002A08BF001E30230081
:100E600043020318412F07302100AC001730AB00BC
:100E70006F30AA00AA0B3A2FAB0B3A2FAC0B3A2FCC
:100E80000000293023004302031C4C2F283021008E
:100E9000AA002A082300C30020008D1CA02F0230C6
:100EA0002100AA002A082300C307FF30C107FF3032
:100EB000C23D4208803A2100AA0082302A02031D66
:100EC000642FEE302300410203186B2FEE30230015
:100ED000C1000230C200F40105308931E6218431BD
:100EE00023004208FA004108F900FB01FB03FC0162
:100EF000FC0AFD018F3137278431FF302100AA0021
:100F00002A08BF001E30230043020318952F073024
:100F10002100AC001730AB006F30AA00AA0B8E2F57
:100F2000AB0B8E2FAC0B8E2F000029302300430219
:100F3000031CA02F28302100AA002A082300C30088
:100F4000230043080319A62F0130C30220008D1C83
:100F50000D18B12F21003F080319B12FC001013036
:100F6000BF0201302100AA002A08C007F62CBD30BC
:100F7000840097308500E83086000030870000301C
:100F8000FF0006309731D82787313230840088300F
:100F90008500A0308600013087000030FF00163049
:100FA0009731D82787315030840023308500A03016
:100FB000FE000030FF009731CC278731C830840015
:100FC000003085002030FE000030FF009731CC2734
:100FD00087312300C401C501C601C701C801C90189
:100FE000CA01CB01CC012030840002308500503092
:100FF000FE000030FF009731CC2720008431812C87
:1010000000308831082088310130883108200800FC
:10101000F30020000C10730888314820883120002C
:101020000C150C112A30F2008D30F100F10B16284E
:10103000F20B1628003208007108F3007008F20065
:10104000F336F20CF336F20C7208270091007008A8
:101050000339F2000530F235FF3E031D2B287235AF
:10106000900008000C34123412340C340034003474
:10107000003400340834043402341F34023404349D
:10108000083400340134003403340034FF340734AE
:10109000F000701C4E2820008C17502820008C1364
:1010A000F01C54280C1755280C13701D59280E14C9
:1010B0005A280E10F01D5E288E1408008E100800AD
:1010C000F801F9017508780784007608793D8500F4
:1010D0001200031908007508780784007608793D26
:1010E000850000088931132188310130F80700306C
:1010F000F93D62282100940195019601990197011B
:101100003F3098009A019B0107309C009D019E0191
:1011100022008D018E018F019001910192019301B6
:101120008430210093000800F401F501701C9C2814
:101130007208F4077308F53D0130F235F30D890BA1
:101140009D280130F136F00C890BA228700871043B
:10115000031D96287508F1007408F00008002000AF
:101160004F084E044D040319B7288030CF065008AD
:10117000C0005108C1005208C2004D08C3004E080B
:10118000C4004F08C5008131392120004008CD003E
:101190004108CE004208CF000800FD01F91FD72802
:1011A000F809F909F80A0319F90AFD01FD0A780896
:1011B000F0007908F100F2018E30FB007B08F300AB
:1011C0007D08FC007C08F4008B3118237008F800BF
:1011D0007108F9007208FA0008000430883108200C
:1011E00088310030883108208831F60110307602CD
:1011F00003180B297608A03E8600013087000108FD
:101200008931132188310130F5007508F607103057
:101210007602031CFA280030883108208831023019
:10122000883108200800F40074080F39F1007108B3
:10123000F2007408F039F1007108F30020000C147A
:101240007308F1000430F136890B232971088831C5
:101250004820893120000C150C116A30F100F10B87
:101260002F290000720888314820893120000C1590
:101270000C116A30F100F10B3B290000080020003E
:101280009601970198013E00B901C401CF010830D1
:10129000E5000A30200091000730920093010A30E7
:1012A0003E00B800C301CE012E00161200308B1B89
:1012B0000130F0008B1355303D008F00AA308F00B5
:1012C0000F100F303E00A30055303D008F00AA30B4
:1012D0008F000F14701C6E298B1708008B130800E9
:1012E000F21F86297009F6007109F7007209F800EB
:1012F000F60A0319F70A0319F80A00307607F00016
:101300000030773DF1008030783DF200F51F9C29D8
:101310007309F6007409F7007509F800F60A031955
:10132000F70A0319F80A00307607F3000030773D1A
:10133000F4008030783DF5008030F2068030F5060C
:1013400075087202031D080074087102031D08006D
:10135000730870020800720871047004031DBD292F
:101360007308860087010030C03FC13F0030F000A5
:101370000030F1000030F200080072087F39F400FC
:10138000F501F435F50D7308860087017408C03F38
:101390007508C13F710D710D0139F400F501730835
:1013A000860087017408810441317508810473083F
:1013B00086008701823081074131FF30813D7F31D6
:1013C000720880393F38F200F1130800F700740802
:1013D000031D062A7708803EF5007508FA007A0892
:1013E000F5000430F536890BF2297508F600760809
:1013F000F8007A080F39F5007508F9007808883187
:101400000820893179088831082008007403031DF9
:1014100008007708C03EF5007508FA007A08F50064
:101420000430F536890B112A7508F6007608F800A5
:101430007A080F39F5007508F90078088831082016
:101440008931790888310820080089313F218A31A3
:101450009731C3278A3132008C0188317A208A3152
:10146000803104208A319731E4278A3100308B3172
:10147000FE238A310930FA001E30F900EB30F80003
:10148000F80B402AF90B402AFA0B402A0000883159
:1014900000208A310530FA000F30F900F430F800EE
:1014A000F80B502AF90B502AFA0B502A8831ED20FC
:1014B0008A310930FA001E30F900EB30F800F80BE1
:1014C0005F2AF90B5F2AFA0B5F2A00000800F60179
:1014D000F11F712AF009F109F00A0319F10AF60166
:1014E000F60AF31F7C2AF209F309F20A0319F30A38
:1014F0000130F4007408F606F701F8017008710471
:101500000319AB2AF501F50AF11B902A0130F035D9
:10151000F10D890B872A0130F4007408F507842A3D
:101520000130F735F80D890B912A71087302031DFC
:101530009B2A70087202031CA22A7008F20271082A
:10154000F33B77140130F136F00C890BA32A0130FC
:10155000F502031D902A76080319B32AF709F80942
:10156000F70A0319F80A7808F1007708F000080074
:1015700020005308F1005208F0000330F200003060
:10158000F300883194208A312000500870078400CD
:101590005108713D8500003FD400013FD500023F56
:1015A000D600520853040319112BFF30D207FF3025
:1015B000D33D5308F1005208F0000330F200003030
:1015C000F300883194208A3120005008700784008D
:1015D0005108713D8500003FC000013FC100023F3E
:1015E000C2005408A0005508A1005608A2004D08EA
:1015F000A3004E08A4004F08A5008E3183268A312F
:1016000020002008C3002108C4002208C500813141
:1016100039218A3120004008D4004108D500420811
:10162000D02A5408CD005508CE005608CF00080037
:1016300073080319202B720871047004031D312BE9
:101640000030F0000030F1000030F20008000130FE
:10165000F5007508F3070130F236F10CF00C890B38
:101660002C2BFE30720503194A2B272B0130F50075
:101670007508F3070130F007003003180130F10757
:10168000003003180130F2070130F236F10CF00C93
:10169000890B452BFF3072050319572B362B013070
:1016A000F3020130F035F10DF20D890B522BF11BD5
:1016B0005D2B0230730203184F2B7318652BFF301C
:1016C000F0057F30F105FF30F2050310F30C7308CD
:1016D000F500F601F7011030F535F60DF70D890B21
:1016E0006C2B7508F0047608F1047708F20474088E
:1016F00003190800F21708002000A101F31F8D2B29
:10170000F009F109F209F309F00A0319F10A0319C2
:10171000F20A0319F30AA101A10AF71F9E2BF4098B
:10172000F509F609F709F40A0319F50A0319F60A87
:101730000319F70A0130F8007808A1060030A50067
:101740000030A4000030A3000030A200730872042F
:10175000710470040319E72BA001A00AF31BBC2B32
:101760000130F035F10DF20DF30D890BB12B013085
:10177000F8007808A007AE2B0130A235A30DA40D08
:10178000A50D890BBD2B73087702031DD12B7208A1
:101790007602031DD12B71087502031DD12B700831
:1017A0007402031CDC2B7008F4027108F53B72080C
:1017B000F63B7308F73B22140130F336F20CF10CC0
:1017C000F00C890BDD2B0130A002031DBC2B21087E
:1017D0000319F52BA209A309A409A509A20A031953
:1017E000A30A0319A40A0319A50A2508F30024086B
:1017F000F2002308F1002208F0000800F700003092
:10180000883148208B310530F6000F30F500F43078
:10181000F400F40B092CF50B092CF60B092C033002
:10182000883108208B316830F500E430F400F40B87
:10183000172CF50B172C00000330883108208B3152
:101840008930F40000320032F40B222C033088314E
:1018500008208B318930F40000320032F40B2C2C3C
:101860000230883108208B318930F4000032003298
:10187000F40B362C0230883108208B310830883147
:1018800008208B318930F40000320032F40B442CF4
:101890000030883108208B310830883108208B31A6
:1018A0008930F40000320032F40B522C00308831C1
:1018B00008208B310130883108208B313430F5001D
:1018C000F130F400F40B622CF50B622C0032003086
:1018D000883108208B310630883108208B318930DF
:1018E000F40000320032F40B712C003088310820F3
:1018F0008B3177080C38883108208B318930F4001F
:1019000000320032F40B802C08002000690821000E
:10191000A00020006A082100A10020006B0821001F
:10192000A2000310210D220DA3002308A9002908FD
:10193000031DA42C00302000EC000030EB00003030
:10194000EA000030E9000800200069082100A0003A
:1019500020006A082100A10020006B082100A200DD
:101960001730A236A10CA00C890BB12C2008A300C3
:101970002308A4002000EA17FF30E905FF30EA053C
:101980000030EB0569082100A50020006A0821004D
:10199000A60020006B082100A700A8018E30A90234
:1019A000A91FF02C2908803A8F3E0318E12C003043
:1019B0002000EC000030EB000030EA000030E900CD
:1019C000080001302100A836A70CA60CA50C890B35
:1019D000E22C0130A0002008A90703190C2DE12CEE
:1019E00018302902031C082D00302000EC000030C4
:1019F000EB000030EA000030E9000800013021006F
:101A0000A535A60DA70DA80D890BFF2C0130A90245
:101A100021002908031DFE2C240803191A2DA509ED
:101A2000A609A709A809A50A0319A60A0319A70A5E
:101A30000319A80A28082000EC002100270820002C
:101A4000EB00210026082000EA00210025082000E4
:101A5000E900080020003308B6003408B700350854
:101A6000B8000310370D380DB9003908BE003E0824
:101A7000031D412D0030B0000030B1000030B20035
:101A800008003008B6003108B7003208B80003106B
:101A9000370D380DB9003908BF003F08031D572D19
:101AA0000030B0000030B1000030B200080000305B
:101AB000BB000030BC000030BD0089303F07B600DD
:101AC0003608BE023308B6003408B7003508B8003F
:101AD0001030B836B70CB60C890B692D3608B90032
:101AE0003908BF003008B6003108B7003208B80026
:101AF0001030B836B70CB60C890B792D3608B90002
:101B00003908BF068030B6003608BF05B417FF306D
:101B1000B305FF30B4050030B505B117FF30B0058F
:101B2000FF30B1050030B2051830B6003608BA00F3
:101B30000130BB35BC0DBD0D890B992D3208350226
:101B4000031DA82D31083402031DA82D30083302CF
:101B5000031CB12D3008B3023108B43B3208B53B49
:101B60003B140130B335B40DB50D890BB22D0130E6
:101B7000BA02031D982D3B08F0003C08F1003D0817
:101B8000F2003E08B6003608F3003F08B7003708F9
:101B9000F4008B31182370082000B0007108B100E8
:101BA0007208B200080020005708F0005808F10041
:101BB0005908F2000030F3000030F4000030F50066
:101BC000893170218D310318F22D21302100D4008C
:101BD0000030D50000302000D7000030D8000030A1
:101BE000D90008002000590858045704031D052E89
:101BF00022302100D4000030D50000302000D70072
:101C00000030D8000030D90008000030C00080301B
:101C1000C100BF30C2000030A0000030A100403041
:101C2000A2005B30DA005A08F3005708F0005808A9
:101C3000F1005908F2008931AB218D317008200084
:101C4000A3007108A4007208A5008E3183268D318F
:101C500020002008C3002108C4002208C5008131EB
:101C600039218D3120004008D7004108D8004208B2
:101C7000D900FF30DB07FF30DC3D5708CD005808A6
:101C8000CE005908CF000030D0009030D10008308D
:101C9000D2000030D3008A31B8228D3120004D08A7
:101CA000D7004E08D8004F08D9005708C000580880
:101CB000C1005908C2007230A0003130A1003F308D
:101CC000A2005C08F9005B08F8008831CD208D3156
:101CD00078082000A3007908A4007A08A5008E31B6
:101CE00083268D3120002008C3002108C40022086B
:101CF000C5008131392120004008D7004108D800B3
:101D00004208D900080020002008A6002108A700EA
:101D10002208A8000310270D280DA9002908AA00F1
:101D20002A08031D9A2E0030A0000030A1000030C8
:101D3000A20008002308A6002408A7002508A80080
:101D40000310270D280DA9002908AF002F08031D37
:101D5000B02E0030A0000030A1000030A20008002A
:101D60002F087B3EA6002608AA072008A600210807
:101D7000A7002208A8001030A836A70CA60C890BD3
:101D8000BC2E2608A9002908AF002308A6002408B5
:101D9000A7002508A8001030A836A70CA60C890BB0
:101DA000CC2E2608A9002908AF068030A6002608F8
:101DB000AF05A117A417FF30A305FF30A40500301D
:101DC000A5050030AB000030AC000030AD0007309E
:101DD000A6002608AE00201CF32E2308AB0724081B
:101DE000AC3D2508AD3D0130A236A10CA00C890BFD
:101DF000F42E0130A335A40DA50D890BFA2E013068
:101E0000AE02031DEB2E0930A6002608AE00201CF2
:101E10000F2F2308AB072408AC3D2508AD3D01304A
:101E2000A236A10CA00C890B102F0130AD36AC0CE2
:101E3000AB0C890B162F0130AE02031D072F2B08A8
:101E4000F0002C08F1002D08F2002A08A600260850
:101E5000F3002F08A7002708F4008B31182370081F
:101E60002000A0007108A1007208A2000800C43080
:101E70008600013087002530840000308500053061
:101E80002000A00016001A00A00B422F0430AC0066
:101E90000030AD00AA01AB01FA1F582F2D30893157
:101EA00013218F31F909FA09F90A0319FA0A5F2F88
:101EB0007D03031D5F2F2B30893113218F3179086A
:101EC0007A0403198C2F0A30F0000030F1007A08F0
:101ED000F3007908F20080310F208F317008200064
:101EE000A0002C08253E86008701200881000A30CA
:101EF000F0000030F1007A08F3007908F2008A312E
:101F000067228F317108FA007008F900FF30200055
:101F1000AC07FF30AD3D5F2F7B0A0319952F9E2F35
:101F200001302000AA070030AB3D20002A08253EE2
:101F3000860087010108031DAF2F902F7B0820002A
:101F4000A000A101A01BA103A009A109A00A0319D7
:101F5000A10A2008053EAA000030213DAB002B0855
:101F6000AD002A08AC007C08A000A101A01BA103C1
:101F7000A009A109A00A0319A10A2008053EA20090
:101F80000030213DA3002D08803AA4002308803AA8
:101F90002402031DCD2F22082C020318DF2F20005E
:101FA0002C08253E860087010108303E8931132127
:101FB0008F3101302000AC070030AD3DB32F7C03E2
:101FC000031DEC2F2E30893113218F312000290879
:101FD000303E893113218F3102307C06031D080009
:101FE0002E30893113218F3120002808303E89316D
:101FF00013218F3120002908303E89311321080038
:10200000003400340034003480343F34F034FF3482
:10201000BE34E234A9343E3483347634BE34AE3434
:102020002B343E343C34C334BD34D23413343D34C9
:102030007834D334BB344F347534743470347534DD
:1020400074343A3400345034693474343A340034DB
:102F7A000134003401340034043400346030310048
:102F8A008D008F01910106309300920108006400C0
:102F9A00800101310130FE020030FF3B7F087E04D0
:102FAA0003190034CD2FFE0012001E000130FE026C
:102FBA000030FF3B7F087E0403190034D92F250017
:102FCA008E01013090008F019101FF308D008C013C
:102FDA002E00901025008E170800F30073082100B8
:102FEA009E009317131313141318F92F0D08F100E9
:062FFA000C08F0000800C5
:020000040001F9
:0A000E008C3FFF3F9F3FFF2FFF3F95
:00000001FF
