:020000040000fa
:080000000002040000000000f2
:020000040000fa
:04000800c80200002a
:020000040000fa
:04000c00c802000026
:020000040000fa
:04001000c802000022
:020000040000fa
:04001400c80200001e
:020000040000fa
:04001800c80200001a
:020000040000fa
:04001c00c802000016
:020000040000fa
:04002000c802000012
:020000040000fa
:04002400c80200000e
:020000040000fa
:04002800c80200000a
:020000040000fa
:04002c00c802000006
:020000040000fa
:04003000c802000002
:020000040000fa
:04003400c8020000fe
:020000040000fa
:04003800c8020000fa
:020000040000fa
:04003c00c8020000f6
:020000040000fa
:04004000c8020000f2
:020000040000fa
:04004400c8020000ee
:020000040000fa
:04004800c8020000ea
:020000040000fa
:04004c00c8020000e6
:020000040000fa
:04005000c8020000e2
:020000040000fa
:04005400c8020000de
:020000040000fa
:04005800c8020000da
:020000040000fa
:04005c00c8020000d6
:020000040000fa
:04006000c8020000d2
:020000040000fa
:04006400c8020000ce
:020000040000fa
:04006800c8020000ca
:020000040000fa
:04006c00c8020000c6
:020000040000fa
:04007000c8020000c2
:020000040000fa
:04007400c8020000be
:020000040000fa
:04007800c8020000ba
:020000040000fa
:04007c00c8020000b6
:020000040000fa
:04008000c8020000b2
:020000040000fa
:04008400c8020000ae
:020000040000fa
:04008800c8020000aa
:020000040000fa
:04008c00c8020000a6
:020000040000fa
:04009000c8020000a2
:020000040000fa
:04009400c80200009e
:020000040000fa
:04009800c80200009a
:020000040000fa
:04009c00c802000096
:020000040000fa
:0400a000c802000092
:020000040000fa
:0400a400c80200008e
:020000040000fa
:0400a800c80200008a
:020000040000fa
:0400ac00c802000086
:020000040000fa
:0400b000c802000082
:020000040000fa
:0400b400c80200007e
:020000040000fa
:0400b800c80200007a
:020000040000fa
:0400bc00c802000076
:020000040000fa
:0400c000c802000072
:020000040000fa
:0400c400c80200006e
:020000040000fa
:0400c800c80200006a
:020000040000fa
:0400cc00c802000066
:020000040000fa
:0400d000c802000062
:020000040000fa
:0400d400c80200005e
:020000040000fa
:0400d800c80200005a
:020000040000fa
:0400dc00c802000056
:020000040000fa
:0400e000c802000052
:020000040000fa
:0400e400c80200004e
:020000040000fa
:0400e800c80200004a
:020000040000fa
:0400ec00c802000046
:020000040000fa
:0400f000c802000042
:020000040000fa
:0400f400c80200003e
:020000040000fa
:0400f800c80200003a
:020000040000fa
:0400fc00c802000036
:020000040000fa
:04010000c802000031
:020000040000fa
:04010400c80200002d
:020000040000fa
:04010800c802000029
:020000040000fa
:04010c00c802000025
:020000040000fa
:04011000c802000021
:020000040000fa
:04011400c80200001d
:020000040000fa
:04011800c802000019
:020000040000fa
:04011c00c802000015
:020000040000fa
:04012000c802000011
:020000040000fa
:04012400c80200000d
:020000040000fa
:04012800c802000009
:020000040000fa
:04012c00c802000005
:020000040000fa
:04013000c802000001
:020000040000fa
:04013400c8020000fd
:020000040000fa
:04013800c8020000f9
:020000040000fa
:04013c00c8020000f5
:020000040000fa
:04014000c8020000f1
:020000040000fa
:04014400c8020000ed
:020000040000fa
:04014800c8020000e9
:020000040000fa
:04014c00c8020000e5
:020000040000fa
:04015000c8020000e1
:020000040000fa
:04015400c8020000dd
:020000040000fa
:04015800c8020000d9
:020000040000fa
:04015c00c8020000d5
:020000040000fa
:04016000c8020000d1
:020000040000fa
:04016400c8020000cd
:020000040000fa
:04016800c8020000c9
:020000040000fa
:04020800c802000028
:020000040000fa
:04020c00c802000024
:020000040000fa
:04021000c802000020
:020000040000fa
:04021400c80200001c
:020000040000fa
:04021800c802000018
:020000040000fa
:04021c00c802000014
:020000040000fa
:04022000c802000010
:020000040000fa
:04022400c80200000c
:020000040000fa
:04022800c802000008
:020000040000fa
:04022c00c802000004
:020000040000fa
:04023000c802000000
:020000040000fa
:04023400c8020000fc
:020000040000fa
:04023800c8020000f8
:020000040000fa
:04023c00c8020000f4
:020000040000fa
:04024000c8020000f0
:020000040000fa
:04024400c8020000ec
:020000040000fa
:04024800c8020000e8
:020000040000fa
:04024c00c8020000e4
:020000040000fa
:04025000c8020000e0
:020000040000fa
:04025400c8020000dc
:020000040000fa
:04025800c8020000d8
:020000040000fa
:04025c00c8020000d4
:020000040000fa
:04026000c8020000d0
:020000040000fa
:04026400c8020000cc
:020000040000fa
:04026800c8020000c8
:020000040000fa
:04026c00c8020000c4
:020000040000fa
:04027000c8020000c0
:020000040000fa
:04027400c8020000bc
:020000040000fa
:04027800c8020000b8
:020000040000fa
:04027c00c8020000b4
:020000040000fa
:04028000c8020000b0
:020000040000fa
:04028400c8020000ac
:020000040000fa
:04028800c8020000a8
:020000040000fa
:04028c00c8020000a4
:020000040000fa
:04029000c8020000a0
:020000040000fa
:04029400c80200009c
:020000040000fa
:04029800c802000098
:020000040000fa
:04029c00c802000094
:020000040000fa
:0402a000c802000090
:020000040000fa
:0402a400c80200008c
:020000040000fa
:0402a800c802000088
:020000040000fa
:0402ac00c802000084
:020000040000fa
:0402b000c802000080
:020000040000fa
:0402b400c80200007c
:020000040000fa
:0402b800c802000078
:020000040000fa
:0402bc00c802000074
:020000040000fa
:0402c000c802000070
:020000040000fa
:0402c400c80200006c
:020000040000fa
:0402c800c802000068
:020000040000fa
:0402cc00c802000064
:020000040000fa
:0402d000c802000060
:020000040000fa
:0402d400c80200005c
:020000040000fa
:0402d800c802000058
:020000040000fa
:0402dc00c802000054
:020000040000fa
:0402e000c802000050
:020000040000fa
:0402e400c80200004c
:020000040000fa
:0402e800c802000048
:020000040000fa
:0402ec00c802000044
:020000040000fa
:0402f000c802000040
:020000040000fa
:0402f400c80200003c
:020000040000fa
:0402f800c802000038
:020000040000fa
:0402fc00c802000034
:020000040000fa
:04030000c80200002f
:020000040000fa
:04030400c80200002b
:020000040000fa
:04030800c802000027
:020000040000fa
:04030c00c802000023
:020000040000fa
:04031000c80200001f
:020000040000fa
:04031400c80200001b
:020000040000fa
:04031800c802000017
:020000040000fa
:04031c00c802000013
:020000040000fa
:04032000c80200000f
:020000040000fa
:04032400c80200000b
:020000040000fa
:04032800c802000007
:020000040000fa
:04032c00c802000003
:020000040000fa
:04033000c8020000ff
:020000040000fa
:04033400c8020000fb
:020000040000fa
:04033800c8020000f7
:020000040000fa
:04033c00c8020000f3
:020000040000fa
:04034000c8020000ef
:020000040000fa
:04034400c8020000eb
:020000040000fa
:04034800c8020000e7
:020000040000fa
:04034c00c8020000e3
:020000040000fa
:04035000c8020000df
:020000040000fa
:04035400c8020000db
:020000040000fa
:04035800c8020000d7
:020000040000fa
:04035c00c8020000d3
:020000040000fa
:04036000c8020000cf
:020000040000fa
:04036400c8020000cb
:020000040000fa
:04036800c8020000c7
:020000040000fa
:100400008f8720000eff20000e01880000000000f2
:10041000000020000000e000020032000001200087
:1004200020028800140007005b0007000000e000c5
:1004300003003a00a029220001002000020037003a
:100440000000200001002000810f70000100320038
:1004500014000700000020000000e000020032004d
:100460000000020000000000680a02000000000016
:100470000040da000000fe004440a900e04e2000e9
:100480000000e0000300320000002000a00188000e
:100490004440a800000006008a1f78008b1f7800e7
:1004a0000000060091018800800478000000eb0045
:1004b0001a003700e284440032a0b4009905ba0063
:1004c000e284440032a0b4009906ba00e2844400f9
:1004d00032a0b4000006eb00476fde00fd07b2005b
:1004e000636ce10003003a00ebff07000000eb0043
:1004f0000a003700606ce10004003a00005deb0088
:100500008b05e900fdff3e00040037006168e10053
:10051000010032000086eb000b00070019c7ba008b
:100520001905ba000e04e00003003a000a00e000da
:10053000e0ff3a0000000600fe07b2009e018800be
:100540008a047800f5ff3700395dba008b05e900b1
:100550000c003200295dba008b05e900080032006a
:100560000c00e00003003a00e284440032a0b40032
:10057000f5ff370019ddba008b05e900faff3a00f4
:100580008904e800e184440032a0b40000000600c1
:100590000040da000000fe000000050003f0a200a9
:1005a000889fbe008a9fbe008c1f7800fa0007005b
:1005b000010133006450e1004f0032006420e1008b
:1005c0005200320003826c0007003b000905d00096
:1005d0000306d000820f54000c065d0002003900b3
:1005e00002003200890178000306780085825500f8
:1005f00004003d000003fd008103fd008502ea00c8
:100600008b854200840f720002003b0060001000e6
:10061000e08018006011b8000005eb007a28e100c6
:100620000a00390006007800c75ddd00f707b20058
:10063000878075002d003700828171000a017800e3
:10064000610560008180d1000080d3008502e9004f
:10065000f9ff3b00060440008784480002003b008d
:1006600060041400e0841c000988a3000700320025
:100670008a81710082817100610164008904d10066
:100680000884d3008b05e800170037000978a30021
:1006900013003a000b00e000130034008b05e90062
:1006a0000804440089844c000a4474000978a300bb
:1006b0000d003a000b00e000070034008b05e90054
:1006c0000804440089844c0001003a000b0020001b
:1006d0000978a300f7ff32000001eb0002003700a9
:1006e000828171000a017800700007000cf0a700f9
:1006f00001f0a000b90037006420e10002003a00d8
:10070000838f6c00b90033000801be000200be00f8
:10071000b2003700889fbe008a9fbe008c1f780001
:100720009d000700a400330003866c006450e100c4
:100730002e0032006420e100330032006150e100fd
:100740002f0032006120e100310032008585550024
:10075000eb07b00009002000080420000500370066
:100760000804440089844c000a0031000603430059
:1007700087834b000001530081815b00f8ff330049
:100780000203be000800a0000804440089844c0055
:10079000f6ff3900c639dd00830173000100320025
:1007a000130020008904d1000884d3000998a30015
:1007b000050032000800a7000300a0008904d10052
:1007c0000884d3008b05e8008904d1000884d30095
:1007d0000001eb000281d2003400070001f0a1000b
:1007e0000cf0a70001f0a0007c0037006420e100bd
:1007f0007e0032000801be000200be00f7ff370095
:100800006120e100790032006000b800f3ff37009a
:100810000000200001f82700f0ff37000001be00b3
:10082000480007000470a70003f0a1006509b100ab
:10083000160032000d0035006828e1000600350082
:10084000f0ff2f00f1ff27000300e00013003b0042
:1008500001002800000005000000400081804800e1
:100860008502e900fcff3a0008003700f88f4200db
:1008700002003c008000eb00000005008100d10078
:100880000080d3008502e800fcff3a000300e0008e
:1008900002003b0060001000e0801800000006002d
:1008a0004f89de008201780053003700810020006c
:1008b000618055000b003d000b00200061fe2f0001
:1008c0000100e1001d0034008281710061016400bb
:1008d0008904d1000884d3000000e800faff3a0040
:1008e00071002000610064000300700002006000dd
:1008f0000900320061044400e0844c000988a5002e
:10090000050032008b05e8006808e10002003a00ab
:100910008904d1000884d300f20f20000258e100be
:1009200005003d00c75ddd00f907b2008980750054
:1009300008007800000006000bf827008b00780004
:1009400000000500c70ade00f107b200f50fb20093
:1009500008003200e1cf4200020032000170a00026
:1009600024000500810f700001003200040805001a
:1009700044000500810f700002003a0014000500d9
:100980008502e9000000400081c04800fcff3b00f8
:100990000170a000240005000004be00e9ff07006c
:1009a0000003be000405be000200be00e5ff070014
:1009b000844f7500000006000200be006450e10094
:1009c000050036006420e100020036000968a3003b
:1009d00001003a000800be000160a0004f06780048
:1009e0004f05be004f04be0000000600f0ff2f00c0
:1009f000f1ff2700f9ff3700881f78000304780013
:100a00000300e00007003d0060001000e0801800d7
:100a100060011900e081190002003b0001f02d0087
:100a2000030037000400070008f0a70001f0a00051
:100a30004f04780000000600889fbe008a9fbe0019
:100a400000827000040271000482710026003200ee
:100a50000004be000200be006011b8006b09200057
:100a6000950220000182cf000a0039000541b10043
:100a70000082cf00070039000541b1000982cf0094
:100a8000040039000541b1000882cf00010039009f
:100a90000541b10005425200120032000a003b003d
:100aa00082817100610164008100d1000080d30067
:100ab0008984d3000884d3008b05e8000442e80051
:100ac000f7ff3a00070037000804440089844c000f
:100ad00000004800818048008b05e9000442e900dd
:100ae000f9ff3a0071ff07004f05be004f04be003a
:040af00000000600fc
:020000040000fa
:100af400ff81000083ff000083810000c9fb000028
:100b0400c1810000fdb90000fd810000b9d50000dd
:100b1400d981000081ff00008181000081c50000af
:100b2400cbb3000081850000bfc5000081e1000057
:100b34009987000081c50000cbb3000081fd00004f
:100b4400a59900008181000081ff000081810000df
:100b5400ff9300008d81000081c30000ffc30000eb
:100b640081810000ffc30000bd81000081ff0000ff
:100b74008181000081810000ffb30000cf8100006b
:100b8400c9d50000a581000085bf0000c581000013
:100b94008181000081ff0000ff810000fd9d0000b5
:100ba400fd810000b9d50000d9810000fd85000059
:100bb400f9810000fdc10000fd81000081ff0000fb
:100bc4008181000081ff0000cbc3000081fd000093
:100bd40085f9000081850000bfc5000081b90000cf
:100be400d5d9000081f900008585000081ff00004f
:100bf40081810000ffc30000bd810000b9c5000071
:100c0400b9810000fdb10000fd810000fd850000f8
:100c1400f981000081ff00008181000081810000d2
:100c240081810000fdc10000fd810000fda50000e0
:100c340099810000818100008181000081ff000012
:100c4400ff8100008181000081810000818100001a
:100c54008181000081810000818100008181000088
:100c64008181000081ff00008181000081ff00007c
:100c7400cbc3000081fd000085f9000081850000e0
:100c8400bfc5000081b90000d5d9000081f900007a
:100c94008585000081ff000081810000ffc3000002
:100ca400bd810000b9c50000b9810000fdb100009c
:100cb400fd810000fd850000f981000081ff000036
:100cc400818100008181000081810000fdc100005c
:100cd400fd810000fda500009981000081810000d4
:100ce4008181000081ff000000000000020000007c
:100cf4000400000006000000080000000a000000d4
:100d04000c00000010000000140000001800000097
:100d14001c0000002000000022000000240000004d
:100d24002600000057610000746500007220000076
:100d3400546500006d7000003a0000005374000018
:100d4400656100006d200000546500006d700000b6
:100d54003a000000477200006f7500007020000028
:100d6400546500006d7000003a000000506c0000f3
:100d74006561000073650000205300006574000085
:100d8400007400006865000020540000696d0000d4
:100d940065210000002f000053650000740000006e
:100da400546100006e6b0000204c0000657600006a
:100db400656c00003a0000004c4f00005700000032
:100dc400536800006f74000020540000696d000037
:100dd400657200003a000000507200006573000064
:100de40073200000274500004e54000045520000c7
:100df40027200000007400006f20000053650000ed
:100e0400742000007468000065200000546900002c
:100e14006d650000004500004e540000455200007e
:100e2400207400006f20000053650000742000004f
:100e34005374000000610000727400002f5300001e
:100e4400746f000070200000546900006d6500009c
:100e54007300000050490000442000005365000066
:100e640074740000696e000067730000206600005f
:100e7400006f00007220000000550000702f000079
:100e8400446e0000204b00006579000073000000f0
:100e9400746f000020630000686100006e6700004a
:100ea40065000000224500006e74000065720000b9
:100eb40022200000740000006f2000004163000045
:100ec4006365000070740000005300006574000046
:100ed400506f0000696e0000742000003d20000087
:100ee400004400006561000064420000616e00007f
:100ef400642000003d00000047610000696e0000ae
:100f0400203d0000004900006e7400006567000089
:100f1400726100006c2000003d0000004465000088
:100f24007269000076610000746900007665000053
:100f3400203d000000000000ff81000081810000ce
:100f44008181000081810000818100008181000095
:100f540081810000818100008181000081ff000007
:100f64008181000081ff0000cbc3000081fd0000ef
:100f740085f9000081850000bfc5000081b900002b
:100f8400d5d9000081f900008585000081ff0000ab
:100f940081810000ffc30000bd810000b9c50000cd
:100fa400b9810000fdb10000fd810000fd85000055
:100fb400f981000081ff000081810000818100002f
:100fc40081810000fdc10000fd810000fda500003d
:100fd40099810000818100008181000081ff00006f
:100fe400537500006e0000004d6f00006e0000009d
:100ff400547500006500000057650000640000009f
:10100400546800007500000046720000690000008a
:1010140053610000740000004e5500004c000000b5
:101024004a4100004e000000464500004200000016
:101034004d410000520000004150000052000000e9
:101044004d410000590000004a5500004e000000c8
:101054004a5500004c0000004155000047000000c4
:1010640053450000500000004f43000054000000ae
:101074004e4f0000560000004445000043000000ad
:10108400280000002a0000002c0000002e000000b0
:101094003000000032000000340000003600000080
:1010a400380000003a0000003c0000003e00000050
:1010b4004000000042000000440000004600000020
:1010c400480000004a0000004c0000004e000000f0
:1010d40050000000520000005400000056000000c0
:1010e400580000005a0000005c0000005e00000090
:1010f400224500006e74000065720000222000008a
:10110400666f0000722000006e0000006578000029
:101114007420000046690000656c00006400000053
:10112400557000002f4400006e2000006b65000025
:1011340079730000207400006f00000063680000f1
:10114400616e00006765000020540000696d0000b6
:10115400652e0000005e00005e00000020200000fc
:10116400205e00005e5e00000020000020200000e1
:10117400205e00005e00000020200000200000002f
:1011840020200000205e00005e0000005374000078
:1011940061720000742f0000537400006f7000002f
:1011a400006600006f72000020000000557000000f
:1011b4002f4400006e2000004b650000797300008e
:1011c400007400006f20000063680000616e00007e
:1011d400676500002e000000456e00007465000085
:1011e400722000004b6500007920000066000000ba
:1011f4006f72000020590000657300000053000066
:101204007461000072740000204800006f750000d3
:10121400722000003d000000537400006172000061
:10122400742000004d6900006e75000074650000b4
:10123400203d000000530000746f00007020000087
:10124400486f000075720000203d0000005300004c
:10125400746f0000702000004d6900006e7500007e
:1012640074650000203d0000000000000000000044
:10127400000000004e0000000600000006ff000011
:10128400ffff000048d600002412000008240000dc
:10129400ffff0000ff0000000600000038440000cb
:1012a4008282000044380000140800003e10000050
:1012b40038100000a06000000010000010100000b2
:1012c4006060000000600000180600007c4200001e
:1012d4007c4400007e400000645200004c4a000040
:1012e4004a340000382400007e4e00004a320000d8
:1012f4003c4a0000326200001a060000764a0000f0
:10130400764c0000523c00006c6c000000ac000005
:101314006c00000010280000442800002828000069
:10132400442800001002000059060000ffff0000de
:10133400ff7c0000127c00007e5a0000343c000058
:10134400424200007e4200003c7e00004a4200000f
:101354007e0a00000a3c0000523400007e080000af
:101364007e4200007e420000304000003e7e0000cd
:10137400186600007e400000407e00001c7e0000d5
:101384007e0200007e3c0000423c00007e12000011
:101394000c7e000062fe00007e3200004e4400001d
:1013a4004a320000027e0000027e0000407e0000ff
:1013b4003e4000003e7e0000387e000066180000bb
:1013c400660e0000700e0000625a00004600000025
:1013d4007e42000006180000604200007e0000000b
:1013e400040200000440000040400000000200002d
:1013f40004740000547800007e480000303000007f
:1014040048480000304800007e380000545800006e
:101414007c0a000002980000a47c00007e08000002
:10142400704800007a40000088fa0000007e000046
:1014340018640000427e0000407c0000387c0000fc
:101444007c0400007838000044380000fc240000cc
:101454001818000024fc0000780400000448000070
:1014640054240000043e0000447c0000407c000042
:101474003c4000003c7c0000307c00006c1000000c
:101484006c9c0000a07c0000645400004c0c000024
:10149400120c0000ffff0000ffff0000ffff000030
:1014a400ffff0000ffff0000ffff0000ffff000040
:1014b400ffff0000ffff0000fc4000007cff000075
:0c14c400ffff0000ffff0000ff00000021
:020000040000fa
:1014d0003e01fa00889fbe005c0c07005e0c07000e
:1014e000ec0b07004d09070000a821006100200057
:1014f0006a0c0700d208070079040700880b070070
:101500009d0b07000040eb00004f78000040eb000f
:10151000004f78001c0037001e80fb008000400058
:10152000e06828000080400010007800cc0b070025
:10153000804478001e80fb00800040008068280006
:101540000080400010007800c50b07000004780000
:101550001e80fb00800040002068280000804000c2
:1015600010007800be0b0700459c20000002eb0035
:101570008941780008017800800078001e407800da
:10158000a40907001e4fe8001e407800e24f5000fb
:10159000e1ff360010c0b300104798000040eb0098
:1015a000204798000040eb00304798000000eb0017
:1015b000200798000040eb00604798006000b800ea
:1015c000300f9900410f99006000b800500f99004a
:1015d000610f99000000eb00400798000000eb004d
:1015e000200f98000000eb00700f99000000eb0046
:1015f000001799000000eb00101799000000eb00a5
:10160000600798008e0078004112b00005000900c4
:101610008018eb000000eb00300f98000040eb005a
:10162000005f98000040eb00604f98000000eb0066
:10163000000f98002e009000640b07004205200068
:1016400051c0b300a057280037080700001320003e
:101650000e0040004a0407004285200001132000cc
:1016600081004700060009003119780010012000b0
:10167000940b0700100f99003e0c9100ce0c9100c6
:101680006e4090000080fb0000004000000047001a
:1016900060089000cf80de0081fc07000001be00e2
:1016a0000800be00bdfb0700300f9900410f9900f4
:1016b0006e4090000080fb009e08910000004000fa
:1016c000000047007c004000010878003e0c9100bb
:1016d000ce0c91006e4090000080fb0000004000a6
:1016e0000000470060089000cf80de006cfc07001f
:1016f0000001be000800be00a9fb0700300f9900e2
:10170000410f99003e089100ce0891000200200090
:1017100003272400fffb070040fc070000007800bf
:10172000600799006e009100700799002001200069
:10173000640b0700200f99005e0c9100ee0c9100e5
:101740006e4090000080fb00c003b000000040002d
:101750000000470060089000cf80de0050fc0700ca
:101760000001be000800be008cfb0700500f99006e
:10177000610f99006e4090000080fb00ae08910060
:10178000c003b00000004000000047007c004000a3
:10179000010878005e0c9100ee0c91006e40900004
:1017a0000080fb00c003b0000000400000004700c4
:1017b00060089000cf80de0039fc07000001be0009
:1017c0000800be0076fb0700500f9900610f9900da
:1017d0006e4090000040e80060479800ee409000a6
:1017e000b0c3b30080cf5000020036000040eb00d1
:1017f000604798005e089100ee089100020020000a
:1018000003272400c3fb070004fc07000000780046
:10181000000f9900ee00900000438000808f500080
:10182000fa003200f042800000017800e0428000bf
:1018300080007800d0428000a9050700005f980072
:101840005116800000002800008060000000e000c9
:1018500003003a000e589000e14f500003003a0098
:1018600010c0b300604f9800020037000040eb004a
:10187000604f98002e409000e94f50000200360063
:101880000040eb00604f9800e0012000300f98000e
:101890003e089000e90f500002003e000040eb00bf
:1018a000604f98003e089000e90f500010003e0085
:1018b0002e4090000040e800204798002e40900005
:1018c000f44f50000200360040c1b300204798009a
:1018d0002e409000f34f500003003e00c502a800c8
:1018e0002016800002003700c502a90020168000e3
:1018f0000043800060079800a0012000f10a070063
:10190000500f98000000eb00400798000e003700d1
:101910004e00900000004000000047006000910071
:10192000300a0700800078004e0090000000400060
:1019300000004700c010b000010878004e00900081
:101940000000e800400798004e009000e10f5000b2
:10195000efff34002e0090009c0a070050438000e7
:10196000e10f50000b003a0061c0b30030c0b3007b
:101970005e070700806b2800a407070011c1b300b1
:1019800030c0b30059070700306c28009f070700dc
:101990009e003700b203070011c0b30020c0b3009f
:1019a00052070700511680000008200000806000e8
:1019b0000000e00010003200304380009307070071
:1019c000d06c28009107070091c1b30020c0b3007c
:1019d00046070700f0c2b3006b070700c03384005e
:1019e0009f0a07008041eb0012c0b30041c0b30062
:1019f000a40707000f00370020438000830707007b
:101a0000d06c28008107070091c1b30020c0b3004b
:101a100036070700f0c2b3005b070700b03384004d
:101a20008f0a07008041eb0012c0b30041c0b30031
:101a30009407070011c1b30020c0b3002b070700b3
:101a40006e0091008041eb0012c0b30041c0b300b2
:101a50008c07070010c8b3004b07070060c4b30031
:101a60004907070011c0b30030c0b3001f070700cb
:101a70004043800065070700d06c2800630707001b
:101a800011c1b30030c0b300180707000e08910061
:101a90008041eb0012c0b30041c0b30079070700da
:101aa00010c8b3003807070060c4b300360707004a
:101ab00000c2b30034070700f0c2b30032070700ca
:101ac000d0338400660a07008041eb0012c0b300e7
:101ad00041c0b3006b0707006e1091000000e000ea
:101ae0003d003a0031c0b30040c0b300ff0607001c
:101af000206d28004507070011c1b30040c0b300a6
:101b0000fa0607003e0890008041eb000041eb0020
:101b100031c0b3005b07070000c2b3001a0707001b
:101b200050c2b3001807070041c0b30050c0b30053
:101b3000ee0607002e0090008041eb000041eb0014
:101b400051c0b3004f07070001c1b30050c0b3003c
:101b5000e60607000e0890008041eb000041eb0014
:101b600051c0b3004707070061c1b30050c0b300c4
:101b7000de0607005e1091008041eb000041eb00a3
:101b800051c0b3003f0707003e089000f80f500017
:101b90001e003e0011c0b3001e40900000c0500067
:101ba000104798001e4090000004e000170032002b
:101bb00011c1b30040c0b300cc060700e06d28009f
:101bc0001207070000c2b300ef06070000c2b3000f
:101bd000ed0607000d00370031c0b30040c0b30070
:101be000c2060700206e28000807070011c1b300d5
:101bf00040c0b300bd0607006e1091008041eb00ad
:101c000012c0b30041c0b3001e0707006e48900029
:101c1000e14f5000ea003a00f04280000000e0008e
:101c200005003a0000438000e40f500002003e002f
:101c3000c502a80001003700c502a90051168000a6
:101c400000082000008060000000e0000800320072
:101c5000c01020000e0040000001780061672800dd
:101c600010c0b300220807000017990007003700d2
:101c7000c01020000e0040000001780061672800bd
:101c80000040eb001a080700700f9900c0102000f8
:101c90000e004000000178006167280020c0b300fa
:101ca0001308070010179900511680000008200043
:101cb000008060000000e0001b003200c0338400a0
:101cc000e7090700ee00910001045000f0338400a2
:101cd000e3090700800f540002003400cce2a800a2
:101ce0002b0037003e1091000000e80030179900eb
:101cf000be109100309c2000808f50000200340004
:101d00000000eb00301799008e1091003e109100fa
:101d1000808f500002003400cce2a8001c00370085
:101d2000cce2a9001a003700b0338400cc090700c8
:101d3000ee00910001045000e0338400c809070060
:101d4000800f540002003400cce2a80010003700dd
:101d50002e1091000000e80020179900ae109100ad
:101d6000309c2000808f5000020034000000eb0007
:101d700020179900fe0891002e109100808f5000ce
:101d800002003400cce2a80001003700cce2a90038
:101d9000d0338400b20907008e089100010450007e
:101da00000348400ae090700800f540002003400a4
:101db000d502a800100037004e1091000000e80086
:101dc00040179900ce109100309c2000808f500069
:101dd000020034000000eb00401799009e109100b3
:101de0004e109100808f500002003400d502a800f0
:101df00001003700d502a9000000eb00200f980079
:101e00005e109100f90f500002003c00401f2000be
:101e1000200798005e109100f90f50000600340072
:101e2000de10910080022000808f500002003c00f4
:101e30000000eb0020079800de10910080022000d7
:101e4000808f50000b003400de1091001004200041
:101e5000808f500007003c00ae0090000080200002
:101e6000808f500003003e002e0090000080e800ac
:101e700020079800de10910010042000808f500091
:101e800013003400de10910010322000808f5000cb
:101e90000f003c00ae009000f0182000808f500032
:101ea0000b0036003e4090000040e80030479800ac
:101eb0003e409000e94f5000050036002e00900093
:101ec0000000e900200798000040eb003047980030
:101ed000de109100b0132000808f5000020034000b
:101ee0004001200020079800de10910020352000de
:101ef000808f500001003400d522a800de10910030
:101f000040382000808f500006003400d522a90000
:101f100010322000501799007e1091000000e80058
:101f2000701799007e109100e90f500005003400f1
:101f3000d522a8009025200050179900a00020006d
:101f400070179900210480000008200000806000c4
:101f50000000e000130032000e0890000000e800ce
:101f6000000f98000e089000ea0f50000c003a0095
:101f70005e1091000000e80050179900de109100fb
:101f800080022000808f5000030034006e1091000a
:101f90000000e800601799000000eb00000f9800b7
:101fa00084e0a90050168000640060000000e0009a
:101fb0000a00320000802000200798000700370048
:101fc000cce2a900d502a9000000eb00601799003f
:101fd0000000eb0020079800d522a9001008070098
:101fe000204f98002e489000e14f500038003a00f2
:101ff000104380000000e00006003c000040eb00c1
:10200000604f9800104380000000e80010438800f3
:102010002f0037000a0607004205200051c0b30018
:1020200020622800c005070021c0b30030c0b30003
:10203000ae050700e06e2800f405070001c1b300fb
:1020400030c0b300a9050700d06f2800ef050700d6
:1020500013003700f2070700204f9800104380005c
:102060000000e8001043880000c42900010020009f
:102070008a09070011438000401f2000808f500014
:10208000070034006228ef00ed050700420520003c
:1020900051c0b300a0572800a30507000c0037006b
:1020a0002e489000e34f5000eaff3a002702070055
:1020b0006228ef004205200051c0b300a05728005d
:1020c0009905070000482800e10120007309070076
:1020d0002e489000e24f500038003a001043800034
:1020e0000000e00006003c000040eb00604f98005c
:1020f000104380000000e800104388002f003700e4
:10210000cf0507004205200051c0b300206228001f
:102110008505070011c0b30030c0b3007305070088
:10212000d0702800b905070001c1b30030c0b3006a
:102130006e050700d0712800b405070013003700b2
:10214000b7070700204f9800104380000000e80008
:102150001043880000c42900010020004f09070037
:1021600011438000401f2000808f50000700340082
:102170006228ef00b20507004205200051c0b300fd
:1021800020622800680507000c0037002e489000e8
:10219000e34f5000eaff3a006228ef007e03070099
:1021a0004205200051c0b300206228005e050700f0
:1021b00000482800e1012000380907002e4890005f
:1021c000e34f50001e013a00104380000000e00081
:1021d00006003c000040eb00604f98001043800078
:1021e0000000e8001043880015013700104380000c
:1021f000e10f50000a003c00910507004205200055
:1022000051c0b30020622800470507000040eb00e2
:10221000204f9800006c2c00d10220001f090700fd
:102220000040eb0020579800540037007c0707005f
:10223000204f980000c42900010020001709070062
:1022400011438000401f2000808f500007003400a1
:102250006228ef007a0507004205200051c0b30054
:10226000a057280030050700f50037002e489000e1
:102270000000fb00e10f500003003200e20f5000ad
:102280000a003200150037002e5090000040e9008f
:10229000205798002e5090000004e0000c003d00f4
:1022a0000040eb00205798000c0037002e509000a3
:1022b0000040e800205798002e509000e24f500058
:1022c0000500340020c0b3002057980003003700f9
:1022d00000000000010037000000000021c0b30032
:1022e00010c0b30001050700c072280047050700b1
:1022f00001c1b30010c0b300fc040700b073280094
:10230000420507002e5090000000fb0080004000b6
:102310004086200000804000100078003b05070048
:1023200061c0b30020c0b300f0040700f0732800c0
:102330003605070011c1b30020c0b300eb0407004d
:10234000a07428003105070071c0b30030c0b3008d
:10235000e6040700407528002c05070001c1b30002
:1023600030c0b300e1040700e0752800270507002e
:10237000104380000000e800104388002e489000c1
:10238000e34f5000a9ff3a002d0507004205200049
:1023900051c0b30020622800e304070011c0b3005d
:1023a00010c0b300d104070070762800170507009d
:1023b0002e5090000000fb00800040006067280065
:1023c0000080400010007800250807000002780017
:1023d00063b82000626d200001c1b30010c0b300db
:1023e0008b070700800078002e5090000000fb0053
:1023f00000014000606728000000410010007800e4
:10240000f807070011c0b30020c0b300b7040700ed
:1024100030772800fd0407002e5090000000fb00dc
:1024200080004000c0672800008040001000780055
:102430000b0807000002780043062000520020002d
:1024400001c1b30020c0b30071070700800078000d
:102450002e5090000000fb0000014000c0672800e3
:102460000000410010007800de07070011c0b30033
:1024700030c0b3009d040700e0772800e3040700a4
:102480002e5090000000fb008000400020682800d3
:102490000080400010007800f1070700000278007b
:1024a000830c20000001eb0001c1b30030c0b30079
:1024b00057070700800078002e5090000000fb00b6
:1024c0000001400020682800000041001000780052
:1024d000c407070011c0b30040c0b3008304070065
:1024e00050782800c90407002e5090000000fb001f
:1024f00080004000806828000080400010007800c4
:10250000d707070000027800431f20000001eb00fe
:1025100001c1b30040c0b3003d0707008000780050
:102520002e5090000000fb00000140008068280051
:102530000000410010007800aa07070011c0b30096
:1025400050c0b3006904070000792800af040700f9
:102550002e5090000000fb0080004000e068280042
:102560000080400010007800bd07070000027800de
:10257000430620000001eb0001c1b30050c0b300ce
:1025800023070700800078002e5090000000fb0019
:1025900000014000e06828000000410010007800c1
:1025a000900707002e5090000000fb0080004000c4
:1025b000e06828000080400010007800a8070700ad
:1025c000804478002e5090000000fb008000400006
:1025d000806828000080400010007800a0070700f5
:1025e000000478002e5090000000fb0080004000a6
:1025f000206828000080400010007800980707003d
:10260000800078002e509000f5ff20000002eb00c3
:1026100089417800080178007e0507006228ef00f4
:10262000870407004205200051c0b3002062280043
:102630003d04070000482800e101200017080700ba
:102640000060fe0001fc37000600fa002007980039
:10265000ae009000010f78000000eb00100798001a
:102660001e007800e90f5000060036009e0078003a
:102670006a8f50001e009000700040001007980004
:10268000f7ff37001e0090001e0040001007980062
:102690001e0090000080fa00000006000400fa000e
:1026a000100798009e009000010f78001e0078002f
:1026b0000000d100000f7800800720001e0f60008e
:1026c0001e0078004200de009e0040001e009000c8
:1026d0006f006000008040000080fa0000000600eb
:1026e0000000fa0023002000610420007205200091
:1026f00024742000014a7800024a7800034a7800d6
:1027000050052000303b8800a00a2000303b8800a4
:1027100027a6a80027e6a90031318000003020005c
:1027200001007000303188006001200020318800f5
:102730004002210020318800101220002031880042
:1027400000932200203188002826ef0026e6a8000a
:1027500026c6a80026a6a9002686a9002666a900e6
:102760002646a9002626a9002606a90027e6a800d5
:1027700027a6a9009bc0a8000080fa000000060060
:102780001400fa00881f78000004780000000000a0
:102790003131800000002100008060000000e00076
:1027a000fbff3a0031318000003020000100700052
:1027b0003031880020318000b8ff070030079800d2
:1027c00021318000010f78001e0078004800de00f3
:1027d000b2ff070040079800f00f20001e006000c5
:1027e000aeff0700500798002131800011079800c4
:1027f0001e0090004800de00a8ff07006007980058
:102800009e009000f00f200000806000a3ff0700f2
:102810007007980021318000210798002e00900059
:102820004800de009dff0700000f9800ae009000fa
:10283000f00f20000080600098ff0700100f980044
:10284000e600470006000900311c7800e800b100ee
:10285000080078004f0478000080fa0000000600ad
:102860000e00fa000e007800c5ff070031c0b3006b
:1028700010c0b3009d0307001e0078008041eb00ec
:102880000041eb0021c0b300fe030700f0c2b3001b
:10289000bd0307001e00900080004000a0832000c0
:1028a0000080400010007800d8030700f0c2b30099
:1028b000b50307002e0090008041eb000041eb00c3
:1028c00021c0b300ef030700d1c0b30010c0b300b4
:1028d000860307003e00900080004000c082200078
:1028e0000080400010007800c803070011c1b30049
:1028f00010c0b3007d0307004e0090008041eb0044
:102900000041eb0021c0b300de030700a0c3b30009
:102910009d0307005e0090008041eb000041eb004a
:1029200021c0b300d7030700a0c3b300960307007c
:102930006e0090008041eb000041eb0021c0b3002d
:10294000d00307000080fa00000006001400fa001f
:10295000889fbe006600470089ff07000040eb002b
:10296000004f78000040eb00104798000000eb009b
:1029700010079800520137001e0090000000e00090
:1029800005003a00ae0307004205200051c0b30025
:10299000e0792800640307001e0090000000e800b2
:1029a000100798009e00900000712200808f500058
:1029b000050036000000eb0010079800a003070098
:1029c00010c0b30010479800a5ff070031c0b30046
:1029d00030c0b30045030700a08728008b03070021
:1029e00001c1b30030c0b300400307008088280055
:1029f0008603070031c0b30040c0b3003b030700ab
:102a0000208928008103070011c1b30040c0b30032
:102a100036030700008a28007c0307001e40780068
:102a20000004e00005003a0031c0b30020c0b3004c
:102a30002e030700d08a2800740307001e40780088
:102a4000e14f500005003a0031c0b30020c0b30090
:102a500026030700008b28006c0307001e40780047
:102a6000e24f500005003a0061c0b30020c0b3003f
:102a70001e030700708b2800640307001e407800c7
:102a8000e34f500005003a00a1c0b30020c0b300de
:102a900016030700008b28005c0307001e40780027
:102aa000e44f50000a003a00d1c0b30020c0b30088
:102ab0000e030700e08b28005403070011c1b30088
:102ac00020c0b30009030700d08a28004f03070085
:102ad0001e407800e54f500005003a0011c1b300d8
:102ae00020c0b30001030700208c28004703070023
:102af0001e407800e64f500005003a0041c1b30087
:102b000020c0b300f9020700208c28003f03070013
:102b100043050700404798004e4090000000fb002e
:102b2000e20f500005003200e30f5000b000320009
:102b3000e10f500059003200bd0037001e40780000
:102b40000004e0000a003a00be00900030062000b9
:102b5000808f500003003a000000eb00300798001f
:102b6000030037003e0090000000e80030079800a6
:102b70001e407800e14f500009003a004e009000de
:102b8000ec0f500003003a001000200040079800ae
:102b9000030037004e0090000000e8004007980056
:102ba0001e407800e24f500009003a005e0090009d
:102bb000ff0f500003003a0010002000500798005b
:102bc000030037005e0090000000e8005007980006
:102bd0001e407800e34f500009003a006e0090005c
:102be000e60f500003003a000000eb006007980079
:102bf000030037006e0090000000e80060079800b6
:102c00001e407800e44f500009003a007e0090001a
:102c1000f70f500003003a000000eb007007980027
:102c2000030037007e0090000000e8007007980065
:102c30001e407800e54f50000a003a008e089000d0
:102c4000b0032000808f500003003a000000eb002a
:102c5000000f9800030037000e0890000000e80005
:102c6000000f98001e407800e64f50006d003a00bb
:102c70009e089000b0032000808f500003003a00af
:102c80000000eb00100f9800690037001e0890004c
:102c90000000e800100f9800650037001e40780023
:102ca0000004e00009003a003e0090000000e0004f
:102cb00003003a0030062000300798000300370078
:102cc0003e0090000000e900300798001e407800a8
:102cd000e14f500009003a004e009000e10f500013
:102ce00003003a00c00020004007980003003700ae
:102cf0004e0090000000e900400798001e40780058
:102d0000e24f500009003a005e009000e10f5000d1
:102d100003003a00f001200050079800030037003c
:102d20005e0090000000e900500798001e40780007
:102d3000e34f500009003a006e0090000000e000f0
:102d400003003a006000200060079800030037008d
:102d50006e0090000000e900600798001e407800b7
:102d6000e44f500009003a007e0090000000e000af
:102d700003003a007001200070079800030037003c
:102d80007e0090000000e900700798001e40780067
:102d9000e54f500009003a000e0890000000e000e6
:102da00003003a00b0032000000f98000300370032
:102db0000e0890000000e900000f98001e40780007
:102dc000e64f500019003a001e0890000000e00095
:102dd00003003a00b0032000100f980014003700e1
:102de0001e0890000000e900100f98001000370046
:102df0001e407800e64f500006003a000040eb000d
:102e0000004f78008e02070010c0b30010479800f2
:102e1000070037001e4078000040e800004f7800af
:102e20000300370000000000010037000000000030
:102e300058052000383b8800a80a2000383b88004d
:102e400027a6a80027e6a900313180000030200025
:102e500001007000303188003e009000fafd07004c
:102e6000203188004e009000f7fd0700c804dd0007
:102e70005e009000f4fd07000080440020318800cf
:102e80006e009000f0fd0700c804dd007e00900099
:102e9000edfd070000804400203188000e089000fe
:102ea000e9fd0700c804dd001e089000e6fd0700ec
:102eb000008044002031880027e6a80027a6a9004a
:102ec0001e4090000004e000abfe32005c020700f0
:102ed0006a68ef004f04be000080fa0000000600a0
:102ee0000600fa00000f78001107980022079800ea
:102ef0001e007800800040002084280000804000f0
:102f000010007800560507009e009000810f5000c9
:102f10000b003a001e007800800040000085280069
:102f200000804000100078004d050700ae009000c2
:102f3000810f500002003a0010c0b30070e8b700e3
:102f40001e00780080004000e085280000804000de
:102f500010007800420507009e009000810f50008d
:102f60000a003a001e00780080004000c086280059
:102f7000008040001000780039050700ae00900086
:102f8000810f500001003a007068ef0070c8bf0068
:102f90000080fa00000006000200fa000000eb00ca
:102fa000000f78006d68ef004f0037001c04070029
:102fb0006de8b700c05d20009e007800808f500053
:102fc00096003c006dc8bf000080fb00e10f500080
:102fd00003003200e20f50000900320014003700f5
:102fe0006cc8bf000040e9006ce8b7006cc8bf00c7
:102ff0000004e0000b003d006c68ef000c0037009f
:103000006cc8bf000040e8006ce8b7006cc8bf00a7
:10301000e64f50000500340060c0b3006ce8b70014
:10302000030037000000000001003700000000002e
:103030001e007800e20f500005003c00000207006f
:103040004205200051c0b300e0792800b601070016
:1030500051c0b30020c0b300a4010700808c280039
:10306000ea01070001c1b30020c0b3009f010700bf
:10307000308d2800e50107006cc8bf000000fb0090
:1030800080004000c08220000080400010007800d6
:10309000de01070051c0b30030c0b3009301070048
:1030a000808d2800d901070001c1b30030c0b300f2
:1030b0008e010700308e2800d401070051c0b300f4
:1030c00040c0b30089010700e08e2800cf0107004f
:1030d00001c1b30040c0b30084010700a08f2800e5
:1030e000ca0107001e0fe8006dc8bf00e34f500083
:1030f000aeff3a00d20107004205200051c0b300e4
:10310000e0792800880107006cc8bf000000fb00c0
:1031100080004000208428000080400010007800db
:10312000cf04070000407800420007008000fb0049
:103130006cc8bf000000fb00000140002084280094
:103140000000410010007800a60407006cc8bf0012
:103150000000fb0080004000008528000080400047
:1031600010007800be040700004078007c000700d3
:103170008000fb006cc8bf000000fb0000014000a5
:103180000085280000004100100078009504070029
:103190006cc8bf000000fb0080004000e0852800f4
:1031a0000080400010007800ad0407000040780067
:1031b000b70007008000fb006cc8bf000000fb00e8
:1031c00000014000e0852800000041001000780068
:1031d000840407006cc8bf000000fb0080004000b2
:1031e000c086280000804000100078009c04070082
:1031f00000407800f10007008000fb006cc8bf00b1
:103200000000fb0000014000c086280000004100d3
:103210001000780073040700010037000000000070
:10322000870107000000eb00000f78000080fa0023
:10323000000006000600fa00404798000000eb007e
:10324000000f7800ce409000214798000040eb002e
:103250003047980072030700304798003800370065
:103260006f030700304798001e0fe80000a62e00ed
:103270000100200009050700401f20009e00780083
:10328000808f5000040034000000eb00000f780035
:1032900030c0b3003047980021c0b30010c0b30065
:1032a00012010700109028005801070001c1b30067
:1032b00010c0b3000d0107002e4090000000fb007d
:1032c0008041eb000041eb0021c0b3006d0107001d
:1032d0003e4090000000fb00e10f50000300320070
:1032e000e20f50000a003200150037002e40900017
:1032f0000040e900204798002e4090000004e000c4
:103300000c003d0070c1b300204798000c0037004e
:103310002e4090000040e800204798002e4090008a
:10332000f74f5000050034000040eb0020479800a4
:10333000030037000000000001003700000000001b
:103340003e409000e34f5000c5ff3a000000eb0004
:10335000000f78002e4090000080fa000000060068
:103360000600fa00404798000000eb00000f7800cc
:10337000ce409000214798000040eb003047980075
:10338000270307003047980039003700240307005f
:10339000304798001e0fe800003e29004100200041
:1033a000be040700c05d20009e007800808f5000a2
:1033b000040036000000eb00000f780030c0b300be
:1033c0003047980021c0b30020c0b300c7000700f9
:1033d000e09028000d01070001c1b30020c0b30038
:1033e000c20007002e4090000000fb008041eb006f
:1033f0000041eb0021c0b300220107003e409000d5
:103400000000fb00e10f500003003200e20f50000b
:103410000a003200160037002e4090006540500030
:10342000204798002e4090000004e0000d003d0071
:1034300070c3b300204798000d0037002e40900065
:103440006540400020479800ae40900070c3b30034
:1034500080cf5000050034000040eb00204798006a
:1034600003003700000000000100370000000000ea
:103470003e409000e34f5000c4ff3a000000eb00d4
:10348000000f78002e4090000080fa000000060037
:103490000600fa00404798000000eb00000f78009b
:1034a000ce409000214798000040eb003047980044
:1034b000db0207003047980038003700d8020700c9
:1034c000304798001e0fe800003e29004100200010
:1034d00072040700c05d20009e007800808f5000bd
:1034e000040036000000eb00000f780030c0b3008d
:1034f0003047980021c0b30030c0b3007b00070004
:10350000d0912800c100070001c1b30030c0b30052
:10351000760007002e4090000000fb008041eb0089
:103520000041eb0021c0b300d60007003e409000f0
:103530000000fb00e10f500003003200e20f5000da
:103540000a003200150037002e4090000040e900cc
:10355000204798002e4090000004e0000c003d0041
:1035600070c1b300204798000c0037002e40900037
:103570000040e800204798002e409000f74f500090
:10358000050034000040eb0020479800030037009e
:103590000000000001003700000000003e409000e5
:1035a000e34f5000c5ff3a000000eb00000f780029
:1035b0002e4090000080fa00000006000600fa008d
:1035c000404798000000eb00000f7800ce409000cc
:1035d000214798000040eb00304798009002070018
:1035e00030479800390037008d02070030479800b7
:1035f0001e0fe800003e29004100200027040700bc
:10360000c05d20009e007800808f500004003600ce
:103610000000eb00000f780030c0b3003047980086
:1036200021c0b30040c0b3003000070090922800d2
:103630007600070001c1b30040c0b3002b000700b3
:103640002e4090000000fb008041eb000041eb00a9
:1036500021c0b3008b0007003e4090000000fb003b
:10366000e10f500003003200e20f50000a00320068
:10367000160037002e40900065405000204798000b
:103680002e4090000004e0000d003d0070c3b30028
:10369000204798000d0037002e4090006540400004
:1036a00020479800ae40900070c3b30080cf500018
:1036b000050034000040eb0020479800030037006d
:1036c0000000000001003700000000003e409000b4
:1036d000e34f5000c4ff3a000000eb00000f7800f9
:1036e0002e4090000080fa00000006000200fa0060
:1036f000004f78001147980000c8b3001e407000ca
:10370000804078000040eb00e30007001e4090007e
:103710000064a000804078000040eb00de0007005d
:103720000080fa00000006000800fa001007980068
:1037300041479800320798004e4090008040780042
:103740000040eb00e9ff07000000eb00000f7800ed
:10375000070037001e0090001e0040001040780057
:103760008040780010c0b300cb0007001e0fe800b7
:103770003e0090009e007800808f5000f5ff3900d9
:103780000080fa00000006000400fa0020479800bc
:103790002e4090000000fb000002b100000f7800f6
:1037a0001e0078006300b90000007800000f780068
:1037b000809328001e004000104078008040780070
:1037c00010c0b300b40007001e00e8008193280079
:1037d000614078008040780010c0b300ae00070060
:1037e0001e80e800819328006140780080407800c6
:1037f00010c0b300a80007008040eb0010c0b30069
:10380000a50007000080fa00000006000200fa0090
:10381000000f7800040037001e0078001040780088
:103820001e0fe800d8ff07001e0078001040780047
:103830000004e000f8ff3a000080fa0000000600f3
:103840000200fa000000eb00000f780004003700cf
:103850008040eb0010c0b3008f0007001e0fe8008f
:10386000701f20009e007800808f5000f8ff340009
:103870008040eb000040eb009cff07000080fa0056
:10388000000006001000fa0050079800414f980011
:10389000524f9800634f9800e40047000100090070
:1038a0008018eb008058eb0040002000000f7800eb
:1038b0000000eb00100798005e0090000000e000a0
:1038c00006003d00d0c2b300afff07005e009000cd
:1038d0000000ea0050079800180037006e4890007a
:1038e000e14f500015003a00b0c2b300a6ff070038
:1038f00012003700de009000a000200000017800d8
:10390000110009008200d8008000fd00804078008e
:10391000640047001e004000014878005e019000ee
:10392000706626000090b900c288de004f90de006d
:1039300000805000500798001e0fe9005e009000c4
:103940000000e000ebff3a004e489000e14f4000dd
:103950000b003a00030037001e0090000000e80052
:1039600010079800e40047001e009000008040000f
:10397000104078000004e000f7ff32000400370038
:103980004e4890000000fb006500100010079800f2
:103990009e009000010f7800060037006400470089
:1039a0001e004000104078000043b00076ff070082
:1039b0001e0fe8005e4890000000fb00650010004c
:1039c0009e0f5000f5ff3c005e489000e14f500014
:1039d00005003a00e0c2b3006bff07000e489000fc
:1039e0000043b00068ff07005e489000e24f5000bf
:1039f00008003a00e0c2b30063ff07007e40900079
:103a00000043b00060ff07000e4890000043b00084
:103a10005dff07000080fa00000006000000fa00c9
:103a2000d0a2a900d082a900d062a900d0e2a9004a
:103a3000d0c2a900d482a900d4a2a900d462a9004e
:103a4000d4c2a900d4c2a80011c2b3000040eb0048
:103a500011000700b1cbb3000040eb000e000700df
:103a600041c0b3000040eb000b00070041c1b300b0
:103a70000040eb000800070001c2b3000040eb006b
:103a800005000700c1c0b3000040eb0002000700c2
:103a90000080fa00000006000400fa0020479800a9
:103aa00031479800be409000114798002e4090008a
:103ab0000004e00002003a00d462a90001003700cf
:103ac000d462a800d4e2a9000040eb00004f7800c7
:103ad0000b003700d482a9001e4090000004e000d3
:103ae00001003d00d482a800d4a2a8001e4090008e
:103af0000040400010479800d4a2a9001e4fe800e3
:103b00001e407800e74f5000f2ff3600d4e2a800d4
:103b10000080fa00000006000200fa000000eb003e
:103b2000000f7800080037001e0078000040780081
:103b30008040eb00edfe070011c0b30010c0b300e1
:103b4000d5ff07001e0fe800300520009e0078001a
:103b5000808f5000f4ff34000000eb00000f78006d
:103b6000080037001e0078000040780051c0b30004
:103b7000defe070001c8b30010c0b300c6ff070097
:103b80001e0fe800300520009e007800808f500056
:103b9000f4ff34000000eb00000f7800090037004c
:103ba0001e007800004078008040780030c5b300e7
:103bb000cefe070080c0eb0010c0b300b6ff0700c8
:103bc0001e0fe8001e007800e50f5000f4ff3400df
:103bd0000000eb00000f7800090037001e0078009d
:103be00000407800804078000040eb00bffe0700f6
:103bf00080c0eb0010c0b300a7ff07001e0fe80055
:103c00001e007800e50f5000f4ff34000080fa0039
:103c1000000006000c00fa00004f78001107980021
:103c200022079800634798004407980055079800ba
:103c30001e80fb00800040000080200000804000cb
:103c40009e009000010878001e80fb00800040006c
:103c50006080200000804000ae00900001087800e5
:103c60001e81fb00ee409000c0802000000041005b
:103c7000014878001e80fb0080004000c0812000c9
:103c800000804000ce009000010878001e80fb00fc
:103c9000800040002082200000804000de00900074
:103ca000010878001e80fb00800040000081200099
:103cb000008040008000eb00010878001e80fb00bf
:103cc0008000400060812000008040008000eb0008
:103cd000010878009e80fb00808220000080400068
:103ce00011c0b300014878000080fa00000006000f
:103cf0000e00fa00004f98005107980062079800e4
:103d00000e4890000080fb0000004000de009000a4
:103d10000080400010007800d1010700800078008a
:103d20000e4890000080fb00000040006e019000f3
:103d3000000041001000780000805000100798003b
:103d40000e4890000080fb008000400000802000b2
:103d500000804000900078001e0090000088b900ac
:103d600000007800200798000e4890000081fb00ba
:103d70000e4890000080fb00800040000081200081
:103d800000804000900178000e4890000080fb0009
:103d9000800040006080200000804000900078009b
:103da0001e0090000088b90000007800808041006b
:103db000020141000081200000004100010878005c
:103dc0000e4890000080fb00800040000081200031
:103dd00000804000900078000e4890000080fb00ba
:103de00000014000c0812000000041001000780068
:103df000808f50000c003d000e4890000080fb00ba
:103e00008e4890008180fb0001814000c18120002c
:103e100081004100910078000001400000812000f5
:103e200000004100010878000e4890000080fb006f
:103e30008000400000812000008040009000780059
:103e40000e4890000080fb0000014000208220000e
:103e50000000410010007800808f50000c003400fa
:103e60000e4890000080fb008e4890008180fb008f
:103e700001814000218220008100410091007800f2
:103e8000000140000081200000004100010878008e
:103e90000e4890008080fb0080822000008040005f
:103ea000104078000004e000120032000e4890003c
:103eb0008080fb0080822000008040008040eb007a
:103ec000014878000e4890000080fb008e4890006a
:103ed0008180fb00818040006e01900081004100e4
:103ee0009100780000014000608120000000410046
:103ef000010878000e4890000080fb0000004000a0
:103f0000ee00900000804000900078000e48900085
:103f10000080fb00000140006081200000004100a3
:103f200010007800808050000e4890000081fb0057
:103f3000c080200000004100104078000080fb009d
:103f40000088b90000007800300798000e48900003
:103f50000080fb008e4890008180fb008180400043
:103f60006e01900081004100910078000001400046
:103f70006081200000004100010878000e48900098
:103f80000080fb0080004000008120000080400095
:103f9000900078002e009000808040003e0090004d
:103fa000008f50000e4890000080fb008000400011
:103fb000c081200000804000100078009e0f50005b
:103fc000060034000e4890000080fb008000400096
:103fd000c081200000804000100f78000e48900043
:103fe0000080fb0080004000208220000080400014
:103ff000100078009e0f500006003d000e48900013
:104000000080fb00800040002082200000804000f3
:10401000100f78001e0078000080fa0000000600f3
:104020000400fa000040eb00004f78005a40a8005e
:10403000c042a800c122a800c062a900c162a900b4
:10404000c462a800c562a900d00020001d010700bd
:1040500010079800c462a9005a40a9009e00900071
:10406000b00d2000808f500002003c007268ef000d
:104070007368ef009e009000b00d2000808f50000c
:10408000070034009e009000104e2000808f5000ea
:1040900003003c0010c0b300004f7800140037004c
:1040a0009e009000104e2000808f500007003400ca
:1040b0009e00900030832000808f500003003c0061
:1040c00020c0b300004f7800090037009e00900028
:1040d00030832000808f50000300340030c0b300d4
:1040e000004f7800020037000040eb00004f7800de
:1040f0001e407800e14f500003003a0010c0b300aa
:1041000072e8b7000e0037001e407800e24f500002
:1041100003003a0020c0b30072e8b700080037007f
:104120001e407800e34f500003003a0030c0b30057
:1041300072e8b700020037007268ef007368ef00a2
:1041400072c8bf000004e00023003200800020009d
:10415000010020005101070072c8bf0074e8b700d9
:1041600073c8bf000040e80073e8b70073c8bf0021
:10417000e14f500002003a0074c8bf00170037003a
:1041800073c8bf00e14f50000700360031872000a0
:104190009140780020c3b30080cf500002003e0061
:1041a00040c0b3000d0037003187200091407800f7
:1041b00020c3b30080cf50000500360000d420009b
:1041c000310020003501070074c8bf00030037002c
:1041d0000040eb00010037000040eb000080fa00d7
:1041e000000006000200fa00000f780020332000d3
:1041f0009e007800808f500002003c001e00780076
:10420000010037001e0078000080fa000000060060
:104210000c00fa0040479800514798003207980078
:104220004307980054079800de009000010f7800c3
:104230007bff0700204798003200370078ff070017
:1042400020479800b04380000000e800b043880099
:1042500000c429000100200010010700b1438000c4
:10426000803e2000808f50000400340074fd070061
:104270007628ef0030c0b30020479800de40900061
:104280004e40900019fd07008041eb0012c0b300c2
:1042900041c0b3001e0078007afd07002e40900058
:1042a0000000fb00e10f500003003200e20f50005d
:1042b00009003200130037001e0fe9003e00900095
:1042c0009e007800808f50000b003c00be009000e4
:1042d000010f78000b0037001e0fe8004e00900021
:1042e0009e007800808f500005003500ce009000c1
:1042f000010f7800030037000000000001003700c4
:10430000000000002e409000e34f5000cbff3a0029
:104310007628ef001e0078000080fa0000000600fa
:104320000000fa0005e1a9000421a800210880008e
:10433000f0cf2f0000806000200888002108800056
:10434000f0fc2f00008060000040a00020088800e2
:104350000021ef00f03f20001008880005e1a800d0
:1043600011e1a90000d324006008880011e1a80031
:104370000080fa00000006000000fa00aa21ef0009
:10438000310d800000fe2f0000806000b000b300ff
:10439000300d8800a6e1a900210d8000f03f2e001d
:1043a0000080600000c0a000200d8800ac21ef005c
:1043b000210d800080ff2f00008060006000b300ae
:1043c000200d88000080fa00000006000200fa00bc
:1043d000000f78009e007800510d88000080fa00e0
:1043e000000006000400fa00000f78001107980092
:1043f00040002400003b8800f007200000407800c7
:1044000032e0b70001e02f001e007800008040007d
:10441000000f78009e0090001e0078000108bb008d
:104420000500fc0050052000303b8800a00a200059
:10443000303b880061e7a800000000000000000099
:1044400000000000013b80000000280000806000a8
:104450000000e000fbff3a000080fa0000000600c8
:104460000200fa00000f7800f007200000407800fa
:1044700032e0b70001e02f001e007800008040000d
:10448000000f78001e0078001000ba000080fa00cb
:10449000000006000000fa0000402800001a880012
:1044a0004223ef0050002000201a88004823ef002c
:1044b0005023ef0000042000701a88000080fa00ea
:1044c000000006000400fa00100798009e0090000b
:1044d000411a8800401a8000fa0f500004003a0088
:1044e0005583a80000052000010020006b00070094
:1044f0004023a800400620000100200067000700bc
:104500004023a9000100370085a0a900001a8000ff
:10451000610060000000e000fbff32005583a9004d
:1045200001188000010f78001e0078000080fa005a
:044530000000060081
:020000040000fa
:104534002c0800002800000002000000f287f600aa
:1045440087fa8700fe870200880688000a880e0022
:104554008812880016881a00881e8800228826007f
:10456400882a88002e883200883688003a883e00df
:10457400880000006c080000060000000000000035
:10458400000800002c000000000000007608000075
:104594000200000000000000720800000400000097
:1045a400000000005408000010000000000000009b
:1045b4006408000008000000020000009486a000c7
:0c45c40086ac8600010000000000000032
:020000040000fa
:1045d0000200fa00e0002000baff0700000f780098
:1045e000b03120009e007800808f500003003c0016
:1045f0000000eb00000f78001000370020f82000ca
:104600009e007800808f5000030034004006200098
:10461000000f78000900370041ce2f001e804000b7
:10462000cf80de009ef0070052b82e00d31f24007a
:1046300038f0070079f00700000f78001e007800be
:10464000004078000080fa00000006000000fa0038
:104650000080fa00000006000000fa00d0a8200048
:104660000016880040062c0040168800f00f20003d
:1046700080168800c0002000002788000006240063
:1046800010278800e424ef00c222ef00ca22ef00c6
:0c469000d222ef000080fa0000000600bb
:020000040000fa
:10469c00f03fb1000180b10006003500ee030900c7
:1046ac0000000000403fb1000180b100fbff3d0065
:1046bc001000b000203fb00002003500008009005f
:0846cc000000000000000600e0
:020000040000fa
:0200000400fffb
:10fc000000000000000000000000000000000000f4
:10fc100000000000000000000000000000000000e4
:10fc200000000000000000000000000000000000d4
:10fc300000000000000000000000000000000000c4
:10fc400000000000000000000000000000000000b4
:10fc500000000000000000000000000000000000a4
:10fc60000000000000000000000000000000000094
:10fc70000000000000000000000000000000000084
:10fc80000000000000000000000000000000000074
:10fc90000000000000000000000000000000000064
:0cfca00000000000000000000000000058
:00000001FF
