:020000040000fa
:080000000002040000000000f2
:020000040000fa
:04000800c80200002a
:020000040000fa
:04000c00c802000026
:020000040000fa
:04001000c802000022
:020000040000fa
:04001400c80200001e
:020000040000fa
:04001800c80200001a
:020000040000fa
:04001c00c802000016
:020000040000fa
:04002000c802000012
:020000040000fa
:04002400c80200000e
:020000040000fa
:04002800c80200000a
:020000040000fa
:04002c00c802000006
:020000040000fa
:04003000c802000002
:020000040000fa
:04003400c8020000fe
:020000040000fa
:04003800c8020000fa
:020000040000fa
:04003c00c8020000f6
:020000040000fa
:04004000c8020000f2
:020000040000fa
:04004400c8020000ee
:020000040000fa
:04004800c8020000ea
:020000040000fa
:04004c00c8020000e6
:020000040000fa
:04005000c8020000e2
:020000040000fa
:04005400c8020000de
:020000040000fa
:04005800c8020000da
:020000040000fa
:04005c00c8020000d6
:020000040000fa
:04006000c8020000d2
:020000040000fa
:04006400c8020000ce
:020000040000fa
:04006800c8020000ca
:020000040000fa
:04006c00c8020000c6
:020000040000fa
:04007000c8020000c2
:020000040000fa
:04007400c8020000be
:020000040000fa
:04007800c8020000ba
:020000040000fa
:04007c00c8020000b6
:020000040000fa
:04008000c8020000b2
:020000040000fa
:04008400c8020000ae
:020000040000fa
:04008800c8020000aa
:020000040000fa
:04008c00c8020000a6
:020000040000fa
:04009000c8020000a2
:020000040000fa
:04009400c80200009e
:020000040000fa
:04009800c80200009a
:020000040000fa
:04009c00c802000096
:020000040000fa
:0400a000c802000092
:020000040000fa
:0400a400c80200008e
:020000040000fa
:0400a800c80200008a
:020000040000fa
:0400ac00c802000086
:020000040000fa
:0400b000c802000082
:020000040000fa
:0400b400c80200007e
:020000040000fa
:0400b800c80200007a
:020000040000fa
:0400bc00c802000076
:020000040000fa
:0400c000c802000072
:020000040000fa
:0400c400c80200006e
:020000040000fa
:0400c800c80200006a
:020000040000fa
:0400cc00c802000066
:020000040000fa
:0400d000c802000062
:020000040000fa
:0400d400c80200005e
:020000040000fa
:0400d800c80200005a
:020000040000fa
:0400dc00c802000056
:020000040000fa
:0400e000c802000052
:020000040000fa
:0400e400c80200004e
:020000040000fa
:0400e800c80200004a
:020000040000fa
:0400ec00c802000046
:020000040000fa
:0400f000c802000042
:020000040000fa
:0400f400c80200003e
:020000040000fa
:0400f800c80200003a
:020000040000fa
:0400fc00c802000036
:020000040000fa
:04010000c802000031
:020000040000fa
:04010400c80200002d
:020000040000fa
:04010800c802000029
:020000040000fa
:04010c00c802000025
:020000040000fa
:04011000c802000021
:020000040000fa
:04011400c80200001d
:020000040000fa
:04011800c802000019
:020000040000fa
:04011c00c802000015
:020000040000fa
:04012000c802000011
:020000040000fa
:04012400c80200000d
:020000040000fa
:04012800c802000009
:020000040000fa
:04012c00c802000005
:020000040000fa
:04013000c802000001
:020000040000fa
:04013400c8020000fd
:020000040000fa
:04013800c8020000f9
:020000040000fa
:04013c00c8020000f5
:020000040000fa
:04014000c8020000f1
:020000040000fa
:04014400c8020000ed
:020000040000fa
:04014800c8020000e9
:020000040000fa
:04014c00c8020000e5
:020000040000fa
:04015000c8020000e1
:020000040000fa
:04015400c8020000dd
:020000040000fa
:04015800c8020000d9
:020000040000fa
:04015c00c8020000d5
:020000040000fa
:04016000c8020000d1
:020000040000fa
:04016400c8020000cd
:020000040000fa
:04016800c8020000c9
:020000040000fa
:04020800c802000028
:020000040000fa
:04020c00c802000024
:020000040000fa
:04021000c802000020
:020000040000fa
:04021400c80200001c
:020000040000fa
:04021800c802000018
:020000040000fa
:04021c00c802000014
:020000040000fa
:04022000c802000010
:020000040000fa
:04022400c80200000c
:020000040000fa
:04022800c802000008
:020000040000fa
:04022c00c802000004
:020000040000fa
:04023000c802000000
:020000040000fa
:04023400c8020000fc
:020000040000fa
:04023800c8020000f8
:020000040000fa
:04023c00c8020000f4
:020000040000fa
:04024000c8020000f0
:020000040000fa
:04024400c8020000ec
:020000040000fa
:04024800c8020000e8
:020000040000fa
:04024c00c8020000e4
:020000040000fa
:04025000c8020000e0
:020000040000fa
:04025400c8020000dc
:020000040000fa
:04025800c8020000d8
:020000040000fa
:04025c00c8020000d4
:020000040000fa
:04026000c8020000d0
:020000040000fa
:04026400c8020000cc
:020000040000fa
:04026800c8020000c8
:020000040000fa
:04026c00c8020000c4
:020000040000fa
:04027000c8020000c0
:020000040000fa
:04027400c8020000bc
:020000040000fa
:04027800c8020000b8
:020000040000fa
:04027c00c8020000b4
:020000040000fa
:04028000c8020000b0
:020000040000fa
:04028400c8020000ac
:020000040000fa
:04028800c8020000a8
:020000040000fa
:04028c00c8020000a4
:020000040000fa
:04029000c8020000a0
:020000040000fa
:04029400c80200009c
:020000040000fa
:04029800c802000098
:020000040000fa
:04029c00c802000094
:020000040000fa
:0402a000c802000090
:020000040000fa
:0402a400c80200008c
:020000040000fa
:0402a800c802000088
:020000040000fa
:0402ac00c802000084
:020000040000fa
:0402b000c802000080
:020000040000fa
:0402b400c80200007c
:020000040000fa
:0402b800c802000078
:020000040000fa
:0402bc00c802000074
:020000040000fa
:0402c000c802000070
:020000040000fa
:0402c400c80200006c
:020000040000fa
:0402c800c802000068
:020000040000fa
:0402cc00c802000064
:020000040000fa
:0402d000c802000060
:020000040000fa
:0402d400c80200005c
:020000040000fa
:0402d800c802000058
:020000040000fa
:0402dc00c802000054
:020000040000fa
:0402e000c802000050
:020000040000fa
:0402e400c80200004c
:020000040000fa
:0402e800c802000048
:020000040000fa
:0402ec00c802000044
:020000040000fa
:0402f000c802000040
:020000040000fa
:0402f400c80200003c
:020000040000fa
:0402f800c802000038
:020000040000fa
:0402fc00c802000034
:020000040000fa
:04030000c80200002f
:020000040000fa
:04030400c80200002b
:020000040000fa
:04030800c802000027
:020000040000fa
:04030c00c802000023
:020000040000fa
:04031000c80200001f
:020000040000fa
:04031400c80200001b
:020000040000fa
:04031800c802000017
:020000040000fa
:04031c00c802000013
:020000040000fa
:04032000c80200000f
:020000040000fa
:04032400c80200000b
:020000040000fa
:04032800c802000007
:020000040000fa
:04032c00c802000003
:020000040000fa
:04033000c8020000ff
:020000040000fa
:04033400c8020000fb
:020000040000fa
:04033800c8020000f7
:020000040000fa
:04033c00c8020000f3
:020000040000fa
:04034000c8020000ef
:020000040000fa
:04034400c8020000eb
:020000040000fa
:04034800c8020000e7
:020000040000fa
:04034c00c8020000e3
:020000040000fa
:04035000c8020000df
:020000040000fa
:04035400c8020000db
:020000040000fa
:04035800c8020000d7
:020000040000fa
:04035c00c8020000d3
:020000040000fa
:04036000c8020000cf
:020000040000fa
:04036400c8020000cb
:020000040000fa
:04036800c8020000c7
:020000040000fa
:10040000ef8b20000eff20000e018800000000008e
:10041000000020000000e000020032000001200087
:1004200020028800140007005b0007000000e000c5
:1004300003003a000074220001002000020037008f
:100440000000200001002000810f70000100320038
:1004500014000700000020000000e000020032004d
:100460000000020000000000fc0d0200000000007f
:100470000040da000000fe004440a900a06d20000a
:100480000000e0000300320000002000a00188000e
:100490004440a800000006008a1f78008b1f7800e7
:1004a0000000060091018800800478000000eb0045
:1004b0001a003700e284440032a0b4009905ba0063
:1004c000e284440032a0b4009906ba00e2844400f9
:1004d00032a0b4000006eb00476fde00fd07b2005b
:1004e000636ce10003003a00ebff07000000eb0043
:1004f0000a003700606ce10004003a00005deb0088
:100500008b05e900fdff3e00040037006168e10053
:10051000010032000086eb000b00070019c7ba008b
:100520001905ba000e04e00003003a000a00e000da
:10053000e0ff3a0000000600fe07b2009e018800be
:100540008a047800f5ff3700395dba008b05e900b1
:100550000c003200295dba008b05e900080032006a
:100560000c00e00003003a00e284440032a0b40032
:10057000f5ff370019ddba008b05e900faff3a00f4
:100580008904e800e184440032a0b40000000600c1
:100590000040da000000fe000000050003f0a200a9
:1005a000889fbe008a9fbe008c1f78001b01070039
:1005b000220133006450e1004f0032006420e1006a
:1005c0005200320003826c0007003b000905d00096
:1005d0000306d000820f54000c065d0002003900b3
:1005e00002003200890178000306780085825500f8
:1005f00004003d000003fd008103fd008502ea00c8
:100600008b854200840f720002003b0060001000e6
:10061000e08018006011b8000005eb007a28e100c6
:100620000a00390006007800c75ddd00f707b20058
:10063000878075002d003700828171000a017800e3
:10064000610560008180d1000080d3008502e9004f
:10065000f9ff3b00060440008784480002003b008d
:1006600060041400e0841c000988a3000700320025
:100670008a81710082817100610164008904d10066
:100680000884d3008b05e800170037000978a30021
:1006900013003a000b00e000130034008b05e90062
:1006a0000804440089844c000a4474000978a300bb
:1006b0000d003a000b00e000070034008b05e90054
:1006c0000804440089844c0001003a000b0020001b
:1006d0000978a300f7ff32000001eb0002003700a9
:1006e000828171000a017800910007000cf0a700d8
:1006f00001f0a000da0037006420e10002003a00b7
:10070000838f6c00da0033000801be000200be00d7
:10071000d3003700889fbe008a9fbe008c1f7800e0
:10072000be000700c500330003866c006450e10082
:100730002e0032006420e100330032006150e100fd
:100740002f0032006120e100310032008585550024
:10075000eb07b00009002000080420000500370066
:100760000804440089844c000a0031000603430059
:1007700087834b000001530081815b00f8ff330049
:100780000203be000800a0000804440089844c0055
:10079000f6ff3900c639dd00830173000100320025
:1007a000130020008904d1000884d3000998a30015
:1007b000050032000800a7000300a0008904d10052
:1007c0000884d3008b05e8008904d1000884d30095
:1007d0000001eb000281d2005500070001f0a100ea
:1007e0000cf0a70001f0a0009d0037006420e1009c
:1007f0009f0032000801be000200be00f7ff370074
:100800006120e1009a0032006000b800f3ff370079
:100810000000200001f82700f0ff3700140020003e
:100820002e013700f4ff2f002c0137000001be001d
:10083000650007000470a70003f0a1006509b1007e
:10084000160032000d0035006828e1000600350072
:10085000f0ff2f00f1ff27000300e00013003b0032
:1008600001002800000005000000400081804800d1
:100870008502e900fcff3a0008003700f88f4200cb
:1008800002003c008000eb00000005008100d10068
:100890000080d3008502e800fcff3a000300e0007e
:1008a00002003b0060001000e0801800000006001d
:1008b0000001be00440007000470a70003f0a1007f
:1008c00003f8a30013003a006509b10010003200dc
:1008d000090035006928e100020035000100280008
:1008e0000000050000004000818048008502e9000a
:1008f000fcff3a0000000600f88f420005003500ba
:100900008100d1000080d3008502e800fcff3a009e
:10091000000006008000eb00000005004f89de00ab
:1009200082017800080137006011b8001601370015
:1009300081002000618055000b003d000b0020006d
:1009400061fe2f000100e1001d0034008281710072
:10095000610164008904d1000884d3000000e8002c
:10096000faff3a007100200061006400030070008b
:10097000020060000900320061044400e0844c0081
:100980000988a500050032008b05e8006808e10031
:1009900002003a008904d1000884d300f20f20003d
:1009a0000258e10005003d00c75ddd00f907b20017
:1009b0008980750008007800000006000bf8270009
:1009c0008b00780000000500c70ade00f107b200c6
:1009d000f50fb20008003200e1cf42000200320001
:1009e0000170a00024000500810f7000010032009a
:1009f0000408050044000500810f700002003a0061
:100a0000140005008502e9000000400081c0480094
:100a1000fcff3b000170a000240005000004be00a4
:100a2000e9ff07000003be000405be000200be008f
:100a3000e5ff0700844f7500000006000200be00bd
:100a40006450e100050036006420e1000200360039
:100a50000968a30001003a000800be000160a00080
:100a60004f0678004f05be004f04be000000060090
:100a7000f0ff2f00f1ff2700f9ff3700889fbe002d
:100a80008a9fbe008c9fbe00870007008504780007
:100a90000005be006420e10049003e006220e10044
:100aa00003003200090035000bf8a30044003200b7
:100ab0000bf8a3000800320010022000e045880077
:100ac000f0ff2f00f1ff27003d00370001f82f0055
:100ad000000020003a0037003d000700affe07008d
:100ae0000006be000a00be00324f200053f3230070
:100af0004cff0700060034000c00be003400070065
:100b0000a6fe07000006be000a00be000200370075
:100b10008904e9000c00be002d0007002e0007002c
:100b20002b0007009efe07000001be000c00be0067
:100b3000f8fe07000005be000001be002600070009
:100b40000006be00a2f32300430d2c0094fe070014
:100b5000809fbe000c00be00d2e32700d3f02b0024
:100b60001d0007004f01be00eafe07000006be00a0
:100b70000a01be00180007000a01be0088fe070037
:100b80000006be006148b90064ff07000005be0012
:100b900032082800e3952b000f0007000c01be006f
:100ba0007ffe07000006be000a00be00020028000b
:100bb00013f32300080007000c01be0078fe0700b5
:100bc0004f06be004f05be004f04be0000000600e9
:100bd00003f0230002000500889fbe008a9fbe002c
:100be0008c1f78008dff070094ff330003866c0094
:100bf0006450e100240032006420e100270032004c
:100c00006150e100220032006120e1002100320049
:100c10008b854200eb07b1000134b800003ab80000
:100c20000804420089844a00013ab8000030b80044
:100c30008880400009014a000400330000004000a1
:100c400081804800020149008b05e900c909dd00e7
:100c5000830170000100320013002000c814de0080
:100c60004814dd004709de001200b200c808de00ab
:100c7000088470002eff070001f0a1000cf0a7000f
:100c800001f0a00076ff37006120e10078ff32001c
:100c90000801be000200be00f7ff37006150e1000e
:100ca000fcff3a0072ff37000003be0046ff07005a
:100cb0006220e100020032000600be0005000500cf
:100cc000e507b100f107b20004f023008480700052
:100cd00007f0a70001f0a00024000500889fbe00d7
:100ce0008a9fbe00841f78004cff07004f007800e9
:100cf00011003300f0ff2f00838f6c0006003b00d3
:100d0000040565000a00a7000800370009f0a600e6
:100d10001000200008003700820f5400838f5c0011
:100d2000030039001000200001003e0000002000f8
:100d300009f0a7000000ea004f05be004f04be0006
:100d40000000e00000000600881f7800030478001f
:100d50000300e00007003d0060001000e080180084
:100d600060011900e081190002003b0001f02d0034
:100d7000030037000400070008f0a70001f0a000fe
:100d80004f04780000000600889fbe008a9fbe00c6
:100d9000008270000402710004827100260032009b
:100da0000004be000200be006011b8006b09200004
:100db000950220000182cf000a0039000541b100f0
:100dc0000082cf00070039000541b1000982cf0041
:100dd000040039000541b1000882cf00010039004c
:100de0000541b10005425200120032000a003b00ea
:100df00082817100610164008100d1000080d30014
:100e00008984d3000884d3008b05e8000442e800fd
:100e1000f7ff3a00070037000804440089844c00bb
:100e200000004800818048008b05e9000442e90089
:100e3000f9ff3a00befe07004f05be004f04be009a
:040e400000000600a8
:020000040000fa
:100e4400ff81000083ff000083810000c9fb0000d4
:100e5400c1810000fdb90000fd810000b9d500008a
:100e6400d981000081ff00008181000081c500005c
:100e7400cbb3000081850000bfc5000081e1000004
:100e84009987000081c50000cbb3000081fd0000fc
:100e9400a59900008181000081ff0000818100008c
:100ea400ff9300008d81000081c30000ffc3000098
:100eb40081810000ffc30000bd81000081ff0000ac
:100ec4008181000081810000ffb30000cf81000018
:100ed400c9d50000a581000085bf0000c5810000c0
:100ee4008181000081ff0000ff810000fd9d000062
:100ef400fd810000b9d50000d9810000fd85000006
:100f0400f9810000fdc10000fd81000081ff0000a7
:100f14008181000081ff0000cbc3000081fd00003f
:100f240085f9000081850000bfc5000081b900007b
:100f3400d5d9000081f900008585000081ff0000fb
:100f440081810000ffc30000bd810000b9c500001d
:100f5400b9810000fdb10000fd810000fd850000a5
:100f6400f981000081ff000081810000818100007f
:100f740081810000fdc10000fd810000fda500008d
:100f840099810000818100008181000081ff0000bf
:100f9400ff810000818100008181000081810000c7
:100fa4008181000081810000818100008181000035
:100fb4008181000081ff00008181000081ff000029
:100fc400cbc3000081fd000085f90000818500008d
:100fd400bfc5000081b90000d5d9000081f9000027
:100fe4008585000081ff000081810000ffc30000af
:100ff400bd810000b9c50000b9810000fdb1000049
:10100400fd810000fd850000f981000081ff0000e2
:10101400818100008181000081810000fdc1000008
:10102400fd810000fda50000998100008181000080
:101034008181000081ff0000ff0100000101000028
:101044000101000001010000010100000101000094
:101054000101000001010000010100000101000084
:1010640001010000010100000101000001810000f4
:10107400c1c10000c1810000010100000181000024
:10108400c1c10000c1c1000001c10000e161000054
:10109400e1c100008101000081c10000c1810000a4
:1010a40081010000010100000101000001010000b4
:1010b4000101000001010000010100000101000024
:1010c4000101000001010000010100000101000014
:1010d40001010000010100000101000001ff000006
:1010e400ff000000000000000000000000000000fd
:1010f40000000000000000000000000000000000ec
:1011040000000000c0400000e0b00000100000003b
:101114001c3e00007e7f00007f7f00007f7f000078
:101124007f000000000700000f0c00000c0400000a
:10113400000700000f0c00000c0f0000071c00004b
:101144001f07000006060000703c00001f0b000093
:101154001be60000f2bc00006c38000098d00000d0
:10116400e0b000006040000040000000000000000b
:10117400000000000000000000000000000000006b
:101184000000000000ff0000ff000000000000005d
:10119400000000000000000000000000000000004b
:1011a400000000000000000000000000000000003b
:1011b400000d00000f0600000703000000000000ff
:1011c400000000000000000000000000000000001b
:1011d4000000000000c00000f07700001fc80000fd
:1011e400c00000000000000000000000000000003b
:1011f40000000000000000000000000001010000e9
:1012040000070000070c00000c01000001000000b2
:1012140000000000000000000000000000000000ca
:1012240000000000000000000000000000ff0000bb
:10123400ff000000000000000000000000000000ab
:10124400000000000000000000000000000000009a
:10125400000000000000000000000000000000008a
:10126400000000000000000000000000808000007a
:1012740080800000c0c00000c0c00000deff00008d
:10128400f1e00000c0e10000ffdf0000c4c0000086
:10129400c0c00000c0c00000c0c0000000000000ca
:1012a400000000000000000000000000000000003a
:1012b400000000000000000000000000000000002a
:1012c400000000000000000000000000000000001a
:1012d4000000000000ff0000ff000000000000000c
:1012e40000000000000000000000000000000000fa
:1012f40000000000000000000000000000000000ea
:1013040000000000000000000000000000000000d9
:1013140000000000c7cf00009d910000b7bf00008f
:10132400b8e00000c08000008080000080800000e1
:101334008080000080c00000c0e00000b89f000072
:1013440087c10000c0600000000000000000000031
:101354000000000000000000000000000000000089
:101364000000000000000000000000000000000079
:1013740000000000000000000000000000ff00006a
:10138400ff800000808000008080000080800000da
:101394008080000080800000808000008080000049
:1013a4008080000080800000808000008080000039
:1013b4008080000080800000808000008081000028
:1013c4008383000083830000838300008383000001
:1013d40083830000838300008383000083830000f1
:1013e40083830000838300008381000081800000e8
:1013f40080800000808000008080000080800000e9
:1014040080800000808000008080000080800000d8
:1014140080800000808000008080000080800000c8
:101424008080000080ff000006000000080000002b
:101434000a0000000c0000000e0000001000000074
:1014440012000000140000001600000057610000a4
:101454007465000072200000546500006d70000087
:101464003a00000053740000656100006d20000024
:10147400546500006d7000003a00000047720000df
:101484006f75000070200000546500006d7000004e
:101494003a000000507200006573000073200000e1
:1014a40022540000696d00006522000020740000d1
:1014b4006f20000053650000740000007468000091
:1014c400652000004375000072720000656e000024
:1014d40074200000546900006d6500000054000091
:1014e400616e00006b2000004c6500007665000012
:1014f4006c3a0000004c00004f57000000530000fd
:10150400686f000074200000546900006d650000dd
:10151400723a00000050000072650000737300000e
:1015240020220000454e00005445000052220000d5
:10153400204b000065790000007400006f2000005b
:1015440053650000742000007468000065200000ea
:10155400546900006d6500000050000072650000d1
:101564007373000020220000454e00005445000023
:1015740052220000207400006f2000005365000018
:10158400742000005374000061720000742f000086
:10159400537400006f70000020540000696d000057
:1015a400657300000050000049440000205300000f
:1015b40065740000746900006e6700007320000009
:1015c400666f000072000000557000002f44000098
:1015d4006e2000004b650000797300002074000049
:1015e4006f20000043680000616e00006765000022
:1015f4000020000020220000456e000074650000f9
:1016040072220000207400006f200000416300007b
:101614006365000070740000200000005365000042
:10162400745000006f6900006e740000203d0000db
:101634002000000047610000696e0000203d0000aa
:10164400004900006e7400006567000072610000cc
:101654006c2000003d000000446500007269000039
:10166400766100007469000076650000203d00008a
:1016740000000000ff8100008181000081810000e2
:10168400818100008181000081810000818100004e
:10169400818100008181000081ff000081810000c0
:1016a40081ff0000cbc3000081fd000085f900002c
:1016b40081850000bfc5000081b90000d5d90000b4
:1016c40081f900008585000081ff00008181000010
:1016d400ffc30000bd810000b9c50000b98100004e
:1016e400fdb10000fd810000fd850000f9810000ce
:1016f40081ff000081810000818100008181000060
:10170400fdc10000fd810000fda5000099810000dd
:10171400818100008181000081ff00005375000079
:101724006e0000004d6f00006e0000005475000054
:101734006500000057650000640000005468000064
:10174400750000004672000069000000536100004b
:10175400740000004e5500004c0000004a41000097
:101764004e00000046450000420000004d410000cc
:101774005200000041500000520000004d410000a2
:10178400590000004a5500004e0000004a55000070
:101794004c00000041550000470000005345000084
:1017a400500000004f430000540000004e4f000062
:1017b40056000000444500004300000028000000db
:1017c4002a0000002c0000002e0000003000000061
:1017d4003200000034000000360000003800000031
:1017e4003a0000003c0000003e0000004000000001
:1017f40042000000440000004600000048000000d1
:101804004a0000004c0000004e00000050000000a0
:101814005200000054000000560000005800000070
:101824005a0000005c0000005e0000002245000039
:101834006e74000065720000222000003d2000004c
:101844006e650000787400002046000069650000a1
:101854006c64000000550000702f0000446e00000e
:10186400207400006f20000063680000616e0000b7
:101874006765000020540000696d000065000000e9
:101884005e5e000000200000202000005e5e00007c
:101894005e00000020200000202000005e5e0000aa
:1018a4000020000020200000002000002020000074
:1018b4005e5e00000053000074610000727400005a
:1018c4002f530000746f000070200000666f00004a
:1018d4007220000000550000702f0000446e0000cc
:1018e400204b00006579000073200000746f000035
:1018f40020630000686f00006f7300006500000043
:10190400456e000074650000722000004b65000005
:1019140079200000746f00002053000065740000fb
:10192400005300007461000072740000204800003d
:101934006f750000722000003d200000005300007d
:101944007461000072740000204d0000696e000094
:1019540075740000652000003d2000000053000065
:10196400746f000070200000486f00007572000062
:10197400203d000000530000746f00007020000040
:101984004d6900006e75000074650000203d000084
:101994000000000000000000000000004e000000f5
:1019a4000600000006ff0000ffff000048d600000c
:1019b4002412000008240000ffff0000ff000000c4
:1019c4000600000038440000828200004438000011
:1019d400140800003e10000038100000a060000051
:1019e40000100000101000006060000000600000a3
:1019f400180600007c4200007c4400007e40000089
:101a0400645200004c4a00004a34000038240000ac
:101a14007e4e00004a3200003c4a00003262000060
:101a24001a060000764a0000764c0000523c000082
:101a34006c6c000000ac00006c000000102800007a
:101a44004428000028280000442800001002000058
:101a540059060000ffff0000ff7c0000127c00001c
:101a64007e5a0000343c0000424200007e420000e6
:101a74003c7e00004a4200007e0a00000a3c00004e
:101a8400523400007e0800007e4200007e420000c6
:101a9400304000003e7e0000186600007e400000da
:101aa400407e00001c7e00007e0200007e3c0000a0
:101ab400423c00007e1200000c7e000062fe00002a
:101ac4007e3200004e4400004a320000027e0000d4
:101ad400027e0000407e00003e4000003e7e00008a
:101ae400387e000066180000660e0000700e0000cc
:101af400625a0000460000007e4200000618000002
:101b0400604200007e000000040200000440000067
:101b140040400000000200000474000054780000fb
:101b24007e48000030300000484800003048000083
:101b34007e380000545800007c0a0000029800001f
:101b4400a47c00007e080000704800007a40000079
:101b540088fa0000007e000018640000427e000045
:101b6400407c0000387c00007c04000078380000d1
:101b740044380000fc2400001818000024fc000075
:101b8400780400000448000054240000043e0000cf
:101b9400447c0000407c00003c4000003c7c000091
:101ba400307c00006c1000006c9c0000a07c0000e5
:101bb400645400004c0c0000120c0000ffff0000f5
:101bc400ffff0000ffff0000ffff0000ffff000019
:101bd400ffff0000ffff0000ffff0000ffff000009
:101be400fc4000007cff0000ffff0000ffff00003e
:041bf400ff000000ee
:020000040000fa
:101bf8008c01fa00889fbe00350d0700fb0b07001b
:101c0800170c07000040eb00004f78000040eb0085
:101c1800004f78001a0037001e80fb00800040004b
:101c280020a228000080400010007800f00c070077
:101c3800800478001e80fb0080004000c0a12800be
:101c48000080400010007800e90c070000047800cc
:101c58001e80fb008000400060a12800008040003a
:101c680010007800e20c0700800078001e40780021
:101c78008901780008017800c30907001e4fe800b1
:101c88001e407800e24f5000e3ff36000040eb00b2
:101c9800104798000040eb00204798000040eb00f8
:101ca80030479800f0004700950009008018eb00c5
:101cb8000000eb00601f99000000eb00701f990006
:101cc8000000eb00002799000000eb0010279900a6
:101cd8000000eb00202799000000eb003027990056
:101ce8000040eb00404798006000b800402799008a
:101cf800512799006000b800602799007127990062
:101d08006000b800002f9900112f99000000eb0027
:101d1800300798000040eb00004f98000e01780053
:101d28004215b000060009000019eb000000eb00a6
:101d3800103799000000eb00203799000000eb00f5
:101d480030379900606d200040379900409c200092
:101d58005037990080702000603799004083200038
:101d68007037990020b22000003f9900608620005b
:101d7800103f99000000eb00500798000000eb00ae
:101d8800203f99000000eb00303f99000000eb0075
:101d9800403f99000000eb00503f9900004b2000a5
:101da800603f99000000eb00700798004205200092
:101db80051c0b30020722800380807005016800070
:101dc8004b00de00614060000080fb00202f99007e
:101dd80051168000004020000080600000f0a7003d
:101de8000000ea000000e9004f00de00302f9900f3
:101df80011168000000820000080600000f0a70095
:101e08000000ea000000e9004f00de00402f9900c2
:101e180091168000002020000080600000f0a700dc
:101e28000000ea000000e9004f00de00502f990092
:101e3800e01720000e00400046040700c18720007c
:101e4800e21720000201470006000900b2187800d6
:101e5800900020007f0c0700102799004e24910065
:101e6800de2491004e4090000080fb0000004000fe
:101e78000000470000089000cf80de00a5fa0700a8
:101e88000001be000800be00c2f907004027990003
:101e9800512799004e4090000080fb009e20910041
:101ea8000000400000004700700040000108780072
:101eb8004e249100de2491004e4090000080fb00eb
:101ec800000040000000470000089000cf80de00be
:101ed80090fa07000001be000800be00aef9070036
:101ee80040279900512799004e209100de2091004b
:101ef800020020008324240004fa07006afa07007d
:101f080000007800601f99000000eb00510c0700ea
:101f1800202799006e249100fe2491004e409000e5
:101f28000080fb002003b0000000400000004700d4
:101f380000089000cf80de0076fa07000001be009e
:101f48000800be0093f907006027990071279900df
:101f58004e4090000080fb00ae2091002003b000ae
:101f680000004000000047007000400001087800b1
:101f78006e249100fe2491004e4090000080fb00ea
:101f88002003b00000004000000047000008900057
:101f9800cf80de005ffa07000001be000800be0027
:101fa8007df9070060279900712799006e2091003c
:101fb800fe2091000200200083242400d3f90700aa
:101fc80039fa070000007800701f990040002000cf
:101fd800200c0700302799000e2c91009e2c9100b0
:101fe8004e4090000080fb004006b000000040001a
:101ff8000000470000089000cf80de0045fa070087
:102008000001be000800be0062f90700002f990019
:10201800112f99004e4090000080fb00be209100d7
:102028004006b0000000400000004700700040007b
:10203800010878000e2c91009e2c91004e409000d3
:102048000080fb004006b000000040000000470090
:1020580000089000cf80de002efa07000001be00c5
:102068000800be004cf90700002f9900112f9900b5
:102078004e4090000040e80040479800ce40900055
:1020880010c3b30080cf5000020036000040eb00c0
:10209800404798000e2891009e28910002002000d9
:1020a8008324240099f90700fff90700000078004d
:1020b80000279900de00900040448000808f500087
:1020c800fa0032003044800000017800204480008b
:1020d80080007800104480006c05070092e8b70083
:1020e8002e289100e10f50000300320092c8bf0073
:1020f800e14f50000a003a0010002000602f9900bc
:102108002e289100e10f500002003a00ac28ef00a1
:1021180005003700604580006045880002003700f0
:102128000000eb00602f99001e409000f34f500014
:10213800020034000000eb00602f9900e00120004d
:10214800700798007e009000e90f500002003e00e2
:102158000000eb00602f99007e009000eb0f50000c
:1021680009003e001e4090000040e800104798001b
:102178001e409000f44f50000b00340040c1b300e3
:1021880010479800080037001e4090000040e90002
:10219800104798001e4090000004e00002003d0037
:1021a8000040eb00104798001e409000e14f50009f
:1021b8000a0034002e409000ef4f50000300340016
:1021c800c502a9002016800004003700c502a80037
:1021d8002e4090000040e800204798006e3891009b
:1021e8000000e800603f99004044800050079800d4
:1021f8000000eb00300798000f0037003e00900009
:102208000000400000004700601891006a090700bc
:10221800a5f90700800078003e009000000040000b
:1022280000004700c013b000010878003e0090008d
:102238000000e800300798003e009000e20f5000d0
:10224800eeff36006e2891000000e0008a003200a0
:10225800fe2891006e289100808f50000a003200fd
:10226800540707004205200051c0b300207228001f
:102278000a07070041c0b30010c0b300f806070002
:1022880000c2b3001d07070080448000e10f500022
:102298000b003a008040eb0040c0b300f006070096
:1022a800c0a428003607070011c0b30040c0b3001f
:1022b800eb06070000a62800310707007b0037005f
:1022c8005c03070011c0b30020c0b300e406070098
:1022d8004e2891000000e0000f003200f04480001a
:1022e8002707070011c0b30000c3b300dc060700ce
:1022f8007e1891008041eb0012c0b30041c0b300ca
:102308003d070700b0c7b300fc06070060c4b30070
:10231800fa0607000e003700e0448000180707009f
:1023280011c0b30000c3b300cd0607006e189100ba
:102338008041eb0012c0b30041c0b3002e07070074
:10234800b0c7b300ed06070060c4b300eb06070092
:1023580021c0b30020c0b300c106070000458000bb
:102368000707070021c0b30000c3b300bc0607007d
:102378000e2091008041eb0012c0b30041c0b300b1
:102388001d070700b0c7b300dc06070060c4b30030
:10239800da06070000c2b300d80607003e389100ed
:1023a8000000e00026003a0031c0b30020c0b300ae
:1023b800ab06070010a72800f106070031c0b300dc
:1023c80000c3b300a60607007e0090008041eb0022
:1023d8000041eb0080c0eb000707070050c2b300c4
:1023e800c606070000c2b300c406070000c2b30057
:1023f800c20607007e009000f80f50002b003e0038
:102408000e30910061001000003799000e309100e5
:102418000000e0002500320031c0b30000c3b30063
:102428008f060700d0a72800d506070000c2b30012
:10243800b206070000c2b300b00607001b00370051
:1024480031c0b30020c0b3008506070010a82800db
:10245800cb06070031c0b30000c3b30080060700f5
:102468003e3891008041eb0012c0b30041c0b30078
:10247800e10607000d003700821f20008040eb00b6
:10248800e08128008506070041c0b30010c0b300f2
:102498007306070000c2b30098060700ee389100e3
:1024a800004b200000804000603f99006e2891009a
:1024b8000000e000ab003200304480000000e00083
:1024c80005003a0040448000e40f500002003e003e
:1024d800c502a80001003700c502a9000e2491001a
:1024e800d0448000c20a0700080178008000780004
:1024f80020c0b300d1070700caf807000000780021
:10250800303799003e309100500d88004e289100d8
:102518000000e0000c003200fe189100c04480006a
:10252800010178008000780010c0b300c3070700dd
:10253800bcf8070000007800203799002e30910081
:10254800000d88000b003700ee189100d044800081
:1025580001017800800078000040eb00b707070011
:10256800b0f8070000007800103799001e3091007d
:10257800000d88003e2891000000e0006300320052
:102588000000eb00503f99002e389100f40f5000e6
:1025980002003e0080022000b00c88002e38910016
:1025a800f40f500005003600ae389100800220007c
:1025b800808f500001003e009621ef00ae38910058
:1025c80080022000808f50000b003600ae3891004a
:1025d80010042000808f500007003e00b10c8000de
:1025e80000102000808f500003003e00b00c8000d7
:1025f8000080e800b00c8800ae389100100420007c
:10260800808f500013003600ae3891001032200041
:10261800808f50000f003e00b10c80007002200037
:10262800808f50000b0036003e4090000040e800cc
:10263800304798003e409000e94f500005003600b2
:10264800b00c80000000e900b00c88000040eb00ee
:1026580030479800ae38910060132000808f5000fa
:102668000200360080022000b00c8800ae389100cd
:1026780020352000808f500001003600c422a800b9
:10268800ae38910040382000808f50000600360098
:10269800c422a90010322000203f99004e38910032
:1026a8000000e800403f99004e389100e90f5000c3
:1026b80005003600c422a80090252000203f99007c
:1026c800a0002000403f990021048000000820005d
:1026d800008060000000e0001c0032002e389100ed
:1026e8000000e800203f9900ae38910080022000e9
:1026f800808f5000030036003e3891000000e8004b
:10270800303f990084e0a90010003700c422a900d6
:102718000000eb00403f990011e1a9000000eb0028
:10272800203f99009621ef005e3891000000e800f4
:10273800503f9900de389100300d2300808f500003
:10274800020036000000eb00303f99005e2891003f
:102758000000e0000900320000102000b00c8800e2
:1027680006003700a021ef00aa21ef000000eb00cf
:10277800303f99009621ef00c422a9003e2891001d
:102788000000e00007003a004e2891000000e00039
:1027980004003a005e2891000000e00001003a00c1
:1027a8009621ef0065090700004f98000e48900039
:1027b800e14f50003a003a000000eb00603f9900fa
:1027c800a04480000000e00006003c000000eb0090
:1027d800602f9900a04480000000e800a044880011
:1027e8002b003700f30507004205200051c0b30055
:1027f800a07c2800a905070011c0b30040c0b300a1
:1028080097050700d0a82800dd05070021c0b30000
:1028180040c0b30092050700f0a92800d8050700ba
:102828001300370045090700004f9800a0448000b6
:102838000000e800a044880000c42900010020002e
:10284800600a0700a1448000401f2000808f5000cc
:10285800070034009428ef00d60507004205200041
:1028680051c0b300a07c28008c0507000800370081
:102878000e489000e24f5000eaff3a002802070095
:102888009428ef0000482800e10120004d0a0700c5
:102898004205200051c0b300207228007f050700c0
:1028a8000e489000e24f500035003a000000eb005f
:1028b800603f9900a04480000000e00006003c0052
:1028c8000000eb00602f9900a04480000000e800a1
:1028d800a04488002a003700b605070042052000fa
:1028e80051c0b300a07c28006c05070011c0b300dc
:1028f8000040eb005a050700f0aa2800a0050700d1
:10290800130037000d090700004f9800a04480000d
:102918000000e800a044880000c42900010020004d
:10292800280a0700a1448000401f2000808f500023
:10293800070034009428ef009e0507004205200098
:1029480051c0b300a07c2800540507000c003700d4
:102958000e489000e24f5000eaff3a009428ef003a
:10296800790307004205200051c0b30020722800f7
:102978004a05070000482800e1012000110a070065
:102988000e489000e34f500009013a000000eb00a8
:10299800603f9900a04480000000e00006003c0071
:1029a8000000eb00602f9900a04480000000e800c0
:1029b800a0448800f9003700a0448000e10f5000cf
:1029c8000a003c007b0507004205200051c0b30007
:1029d800a07c2800310507000040eb00004f98005c
:1029e800006c2c00d1022000f60907000040eb0023
:1029f800404f980045003700d0080700004f980066
:102a080000c4290001002000ee090700a14480004d
:102a1800401f2000808f5000020034009428ef00ef
:102a2800de0037000e4890000080fb00e30f5000e6
:102a380005003200e40f50000c003200e10f500096
:102a4800d5003200150037004e4890000040e900dc
:102a5800404f98004e4890000004e0000c003d00f4
:102a68000040eb00404f98000c0037004e489000a3
:102a78000040e800404f98004e489000e24f500058
:102a88000500340020c0b300404f98000300370011
:102a98000000000001003700000000008040eb004b
:102aa8000040eb00ee04070050ad28003405070095
:102ab80011c0b3000040eb00e90407004e48900045
:102ac8000000fb0080004000c0892000008040001a
:102ad800100078002a05070031c0b3000040eb0061
:102ae800df04070060ae28002505070041c0b300d9
:102af8000040eb00da040700b0af2800200507000b
:102b0800a04480000000e800a04488000e4890001f
:102b1800e24f5000b8ff3a000040eb00004f980029
:102b2800240507004205200051c0b300a07c2800fe
:102b3800da0407008040eb000040eb00c8040700ff
:102b480000b128000e0507004e4890000000fb0069
:102b5800800040006089200000804000100078005c
:102b680023090700800078004e4890000000fb0011
:102b78000000400000004700703191004e4890006e
:102b88000000fb00000040000000470040309100ba
:102b98000102780082017800000178008040eb0093
:102ba800c0c2b3005b070700800078004e48900061
:102bb8000000fb0000014000608920000000410087
:102bc80010007800eb08070011c0b3000040eb00cc
:102bd800a3040700c0b12800e90407004e4890008c
:102be8000000fb008000400060a128000080400039
:102bf80010007800fe08070000027800830c20000f
:102c08000001eb0011c0b300c0c2b30041070700c8
:102c1800800078004e4890000000fb000001400052
:102c280060a128000000410010007800d1080700ca
:102c380021c0b3000040eb008904070030b228002f
:102c4800cf0407004e4890000000fb0080004000c1
:102c5800c0a128000080400010007800e4080700a8
:102c680000027800431f20000001eb0021c0b300e0
:102c7800c0c2b30027070700800078004e489000c4
:102c88000000fb0000014000c0a128000000410036
:102c980010007800b708070031c0b3000040eb000f
:102ca8006f040700e0b22800b50407004e48900002
:102cb8000000fb008000400020a2280000804000a7
:102cc80010007800ca0807000002780043062000b8
:102cd8000001eb0031c0b300c0c2b3000d0707000c
:102ce800800078004e4890000000fb000001400082
:102cf80020a2280000004100100078009d0807006d
:102d08004e4890000000fb008000400020a22800f0
:102d18000080400010007800b508070080047800a3
:102d28004e4890000000fb0080004000c0a1280031
:102d38000080400010007800ad080700000478000b
:102d48004e4890000000fb008000400060a1280071
:102d58000080400010007800a5080700890178006d
:102d680008017800800078004e489000860507002a
:102d78009428ef008f0407004205200051c0b300db
:102d8800207228004504070000482800e1012000bf
:102d98000c09070001003700000000008504070047
:102da8004205200051c0b300207228003b040700f0
:102db8000e489000e44f50000b003a00f40407005e
:102dc80000a8210061002000fe0807007904070020
:102dd8000000eb00603f99004205200051c0b3009d
:102de800207228002d040700ee389100f04a2000d8
:102df800808f500004003600c522a800004b200038
:102e0800603f990001003700c522a9006e28910093
:102e1800702f99000060fe00e8fb37000600fa00fa
:102e280020079800ae009000010f78000000eb002a
:102e3800100798001e007800e90f500006003600c1
:102e48009e0078006a8f50001e00900070004000bd
:102e580010079800f7ff37001e0090001e00400082
:102e6800100798001e0090000080fa00000006007d
:102e78000400fa00100798009e009000010f7800e7
:102e88001e0078000000d100000f780080072000a5
:102e98001e0f60001e0078004200de009e00400009
:102ea8001e0090006f006000008040000080fa0063
:102eb800000006000000fa00230020006104200042
:102ec8007205200024742000014a7800024a780024
:102ed800034a780050052000303b8800a00a2000f3
:102ee800303b880027a6a80027e6a90031318000da
:102ef800003020000100700030318800600120009f
:102f08002031880040022100203188001012200062
:102f18002031880000932200203188002826ef0005
:102f280026e6a80026c6a80026a6a9002686a90087
:102f38002666a9002646a9002626a9002606a90075
:102f480027e6a80027a6a9009bc0a8000080fa00d1
:102f5800000006001400fa00881f780000047800ba
:102f68000000000031318000000021000080600076
:102f78000000e000fbff3a00313180000030200003
:102f8800010070003031880020318000b8ff070050
:102f98003007980021318000010f78001e0078006a
:102fa8004800de00b2ff070040079800f00f20003d
:102fb8001e006000aeff0700500798002131800016
:102fc800110798001e0090004800de00a8ff0700c7
:102fd800600798009e009000f00f200000806000bd
:102fe800a3ff07007007980021318000210798008f
:102ff8002e0090004800de009dff0700000f98009b
:10300800ae009000f00f20000080600098ff0700dd
:10301800100f9800e600470006000900311c7800f0
:10302800e800b100080078004f0478000080fa003a
:10303800000006000e00fa000e007800c5ff070029
:103048008040eb000040eb00850307001e0078007d
:103058008041eb000041eb0021c0b300e60307000c
:10306800f0c2b300a50307001e00900080004000d6
:10307800208620000080400010007800c003070070
:10308800f0c2b3009d0307002e0090008041eb00c2
:103098000041eb0021c0b300d70307008040eb00dc
:1030a80050c2b3006e0307003e009000800040004d
:1030b800408520000080400010007800b003070021
:1030c8008040eb0020c3b300650307004e0090006a
:1030d8008041eb000041eb0021c0b300c6030700ac
:1030e800a0c3b300850307005e0090008041eb0099
:1030f8000041eb0021c0b300bf030700a0c3b30029
:103108007e0307006e0090008041eb000041eb0059
:1031180021c0b300b80307000080fa0000000600d1
:103128001400fa00889fbe006600470089ff070068
:103138000040eb00004f78000040eb00104798007b
:103148000000eb0010079800480137001e009000af
:103158000000e00005003a00960307004205200041
:1031680051c0b300c0b328004c0307001e009000f4
:103178000000e800100798009e00900000712200ef
:10318800808f5000050036000000eb001007980003
:103198008803070010c0b30010479800a5ff070078
:1031a80021c0b30040c0b3002d03070080c1280030
:1031b8007303070031c0b30040c0b3002803070001
:1031c800d0c228006e0307001e4078000004e0000b
:1031d80005003a0011c0b3000040eb0020030700cf
:1031e80020c42800660307001e407800e14f500005
:1031f80005003a0011c0b3000040eb0018030700b7
:1032080050c428005e0307001e407800e24f5000bb
:1032180005003a0011c0b300c0c0b3001003070096
:10322800c0c42800560307001e407800e34f500032
:1032380005003a0011c0b30090c1b30008030700ad
:1032480050c428004e0307001e407800e44f500089
:103258000a003a0011c0b30050c2b30000030700cf
:1032680030c528004603070011c0b30020c3b300cf
:10327800fb02070020c42800410307001e40780015
:10328800e54f500005003a0011c0b30020c3b30059
:10329800f302070070c52800390307001e407800b4
:1032a800e64f500005003a0011c0b300e0c3b30078
:1032b800eb02070070c52800310307009f060700ce
:1032c800404798004e4090000000fb00e30f50007c
:1032d8005d003200e40f500003003200e20f50009e
:1032e800ae003200bd0037001e4078000004e00048
:1032f8000a003a00be00900030062000808f50007f
:1033080003003a000000eb00300798000300370084
:103318003e0090000000e800300798001e4078004a
:10332800e14f500009003a004e009000ec0f5000a9
:1033380003003a00100020004007980003003700ff
:103348004e0090000000e800400798001e407800fa
:10335800e24f500009003a005e009000ff0f500055
:1033680003003a00100020005007980003003700bf
:103378005e0090000000e800500798001e407800aa
:10338800e34f500009003a006e009000e60f50002d
:1033980003003a000000eb006007980003003700c4
:1033a8006e0090000000e800600798001e4078005a
:1033b800e44f500009003a007e009000f70f5000db
:1033c80003003a000000eb00700798000300370084
:1033d8007e0090000000e800700798001e4078000a
:1033e800e54f50000a003a008e089000b003200014
:1033f800808f500003003a000000eb00000f980097
:10340800030037000e0890000000e800000f980045
:103418001e407800e64f50006d003a009e0890006c
:10342800b0032000808f500003003a000000eb003a
:10343800100f9800690037001e0890000000e8008f
:10344800100f9800650037001e4078000004e00067
:1034580009003a003e0090000000e00003003a0036
:103468003006200030079800030037003e00900027
:103478000000e900300798001e407800e14f500036
:1034880009003a004e009000e10f500003003a0096
:10349800c000200040079800030037004e0090004d
:1034a8000000e900400798001e407800e24f5000f5
:1034b80009003a005e009000e10f500003003a0056
:1034c800f001200050079800030037005e009000cc
:1034d8000000e900500798001e407800e34f5000b4
:1034e80009003a006e0090000000e00003003a0076
:1034f8006000200060079800030037006e0090000d
:103508000000e900600798001e407800e44f500072
:1035180009003a007e0090000000e00003003a0035
:103528007001200070079800030037007e009000ab
:103538000000e900700798001e407800e54f500031
:1035480009003a000e0890000000e00003003a006d
:10355800b0032000000f9800030037000e08900009
:103568000000e900000f98001e407800e64f500068
:1035780019003a001e0890000000e00003003a001d
:10358800b0032000100f9800140037001e089000a8
:103598000000e900100f9800100037001e40780066
:1035a800e64f500006003a000040eb00004f78005c
:1035b8008002070010c0b3001047980007003700ca
:1035c8001e4078000040e800004f780003003700f4
:1035d800000000000100370000000000580520002e
:1035e800383b8800a80a2000383b880027a6a80096
:1035f80027e6a9003131800000302000010070006a
:10360800303188003e00900004fe07002031880019
:103618004e00900001fe0700c804dd005e00900027
:10362800fefd070000804400203188006e009000f5
:10363800fafd0700c804dd007e009000f7fd0700d2
:1036480000804400203188000e089000f3fd070038
:10365800c804dd001e089000f0fd0700008044004b
:103668002031880027e6a80027a6a9001e40900060
:103678000004e000b5fe32004e0207009028ef007b
:103688004f04be000080fa00000006000600fa00a1
:10369800000f780011079800220798001e00780094
:1036a8008000400000be2800008040001000780024
:1036b8004f0607009e009000810f50000b003a0053
:1036c8001e00780080004000e0be28000080400016
:1036d8001000780046060700ae009000810f5000e9
:1036e80002003a0010002000604588001e007800a3
:1036f80080004000c0bf2800008040001000780013
:103708003b0607009e009000810f50000a003a0017
:103718001e00780080004000a0c028000080400003
:103728001000780032060700ae009000810f5000ac
:1037380001003a00ac28ef006045800000407800a6
:103748000080fa00000006000200fa000000eb000a
:10375800000f7800af68ef004000370077050700da
:10376800afe8b700c05d20009e007800808f500051
:1037780087003c00afc8bf000080fb00e30f50008b
:1037880003003200e40f5000090032001400370033
:10379800aec8bf000040e900aee8b700aec8bf0041
:1037a8000004e0000b003d00ae68ef000c0037009d
:1037b800aec8bf000040e800aee8b700aec8bf0022
:1037c800e64f50000500340060c0b300aee8b70013
:1037d800030037000000000001003700000000006f
:1037e8001e007800e20f500005003c00f1010700c0
:1037f8004205200051c0b300c0b32800a70107004c
:1038080011c0b3000040eb0095010700d0c52800a7
:10381800db010700aec8bf000000fb0080004000cd
:10382800408520000080400010007800d401070087
:1038380031c0b3000040eb0089010700d0c6280062
:10384800cf01070041c0b3000040eb00840107002e
:1038580020c82800ca0107001e0fe800afc8bf0033
:10386800e24f5000bdff3a00d20107004205200098
:1038780051c0b300c0b3280088010700aec8bf001c
:103888000000fb008000400000be280000804000cf
:1038980010007800d60507000040780042000700b5
:1038a8008000fb00aec8bf000000fb000001400024
:1038b80000be28000000410010007800ad05070098
:1038c800aec8bf000000fb0080004000e0be28003a
:1038d8000080400010007800c5050700004078000f
:1038e8007c0007008000fb00aec8bf000000fb00a2
:1038f80000014000e0be28000000410010007800f0
:103908009c050700aec8bf000000fb008000400017
:10391800c0bf28000080400010007800b4050700f0
:1039280000407800b70007008000fb00aec8bf0069
:103938000000fb0000014000c0bf2800000041005b
:10394800100078008b050700aec8bf000000fb0020
:1039580080004000a0c028000080400010007800cf
:10396800a305070000407800f10007008000fb0075
:10397800aec8bf000000fb0000014000a0c0280046
:1039880000004100100078007a05070001003700a8
:1039980000000000870107000000eb00000f78001e
:1039a8000080fa00000006000600fa004047980070
:1039b8000000eb00000f7800ce40900021479800ef
:1039c8000040eb0030479800dc04070030479800bf
:1039d80038003700d9040700304798001e0fe80068
:1039e80000a62e0001002000f6050700401f200059
:1039f8009e007800808f5000040034000000eb0027
:103a0800000f780020c0b3003047980011c0b30001
:103a18000040eb001201070030c9280058010700d8
:103a280011c0b300d0c3b3000d0107002e409000b1
:103a38000000fb008041eb000041eb0021c0b30017
:103a48006d0107003e4090000000fb00e30f5000ae
:103a580003003200e40f50000a003200150037005e
:103a68002e4090000040e900204798002e4090002a
:103a78000004e0000c003d0070c1b300204798002e
:103a88000c0037002e4090000040e80020479800c6
:103a98002e409000f74f5000050034000040eb0026
:103aa800204798000300370000000000010037009d
:103ab800000000003e409000e24f5000c5ff3a0071
:103ac8000000eb00000f78002e4090000080fa0004
:103ad800000006000600fa00404798000000eb00ce
:103ae800000f7800ce409000214798000040eb007e
:103af8003047980091040700304798003900370094
:103b08008e040700304798001e0fe800003e290089
:103b180041002000ab050700c05d20009e00780032
:103b2800808f5000040036000000eb00000f780082
:103b380020c0b3003047980021c0b3000040eb001c
:103b4800c700070010ca28000d01070021c0b300f4
:103b5800d0c3b300c20007002e4090000000fb0055
:103b68008041eb000041eb0021c0b30022010700b7
:103b78003e4090000000fb00e30f500003003200bd
:103b8800e40f50000a003200160037002e40900063
:103b980065405000204798002e4090000004e00047
:103ba8000d003d0070c3b300204798000d0037009a
:103bb8002e4090006540400020479800ae4090009d
:103bc80070c3b30080cf5000050034000040eb0004
:103bd800204798000300370000000000010037006c
:103be800000000003e409000e24f5000c4ff3a0041
:103bf8000000eb00000f78002e4090000080fa00d3
:103c0800000006000600fa00404798000000eb009c
:103c1800000f7800ce409000214798000040eb004c
:103c280030479800450407003047980038003700af
:103c380042040700304798001e0fe800003e2900a4
:103c4800410020005f050700c05d20009e0078004d
:103c5800808f5000040036000000eb00000f780051
:103c680020c0b3003047980031c0b3000040eb00db
:103c78007b00070010cb2800c100070031c0b3004b
:103c8800d0c3b300760007002e4090000000fb0070
:103c98008041eb000041eb0021c0b300d6000700d3
:103ca8003e4090000000fb00e30f5000030032008c
:103cb800e40f50000a003200150037002e40900033
:103cc8000040e900204798002e4090000004e000e2
:103cd8000c003d0070c1b300204798000c0037006d
:103ce8002e4090000040e800204798002e409000a9
:103cf800f74f5000050034000040eb0020479800c3
:103d08000300370000000000010037000000000039
:103d18003e409000e24f5000c5ff3a000000eb0023
:103d2800000f78002e4090000080fa000000060086
:103d38000600fa00404798000000eb00000f7800ea
:103d4800ce409000214798000040eb003047980093
:103d5800fa0307003047980039003700f7030700d7
:103d6800304798001e0fe800003e2900410020005f
:103d780014050700c05d20009e007800808f500069
:103d8800040036000000eb00000f780020c0b300ec
:103d98003047980041c0b3000040eb0030000700f6
:103da800d0cb28007600070041c0b300d0c3b300d1
:103db8002b0007002e4090000000fb008041eb0024
:103dc8000041eb0021c0b3008b0007003e4090008b
:103dd8000000fb00e30f500003003200e40f500026
:103de8000a003200160037002e409000654050004f
:103df800204798002e4090000004e0000d003d0090
:103e080070c3b300204798000d0037002e40900083
:103e18006540400020479800ae40900070c3b30052
:103e280080cf5000050034000040eb002047980088
:103e38000300370000000000010037000000000008
:103e48003e409000e24f5000c4ff3a000000eb00f3
:103e5800000f78002e4090000080fa000000060055
:103e68000200fa00004f78001147980000c8b3001c
:103e78001e407000804078000040eb00e30007001f
:103e88001e4090000064a000804078000040eb00d5
:103e9800de0007000080fa00000006000800fa00b3
:103ea8001007980041479800320798004e4090004c
:103eb800804078000040eb00e9ff07000000eb00bd
:103ec800000f7800070037001e0090001e00400019
:103ed800104078008040780010c0b300cb00070085
:103ee8001e0fe8003e0090009e007800808f500072
:103ef800f5ff39000080fa00000006000400fa000f
:103f0800204798002e4090000000fb000002b100fe
:103f1800000f78001e0078006300b90000007800e8
:103f2800000f7800c0cc28001e0040001040780028
:103f38008040780010c0b300b40007001e00e800fd
:103f4800c1cc2800614078008040780010c0b300e0
:103f5800ae0007001e80e800c1cc28006140780050
:103f68008040780010c0b300a80007008040eb0034
:103f780010c0b300a50007000080fa00000006008a
:103f88000200fa00000f7800040037001e007800d5
:103f9800104078001e0fe800d8ff07001e007800c8
:103fa800104078000004e000f8ff3a000080fa00b2
:103fb800000006000200fa000000eb00000f780085
:103fc800040037008040eb0010c0b3008f000700ea
:103fd8001e0fe800701f20009e007800808f5000a0
:103fe800f8ff34008040eb000040eb009cff070026
:103ff8000080fa00000006001000fa005007980040
:10400800414f9800524f9800634f9800e4004700d2
:10401800010009008018eb008058eb0040002000e8
:10402800000f78000000eb00100798005e00900079
:104038000000e00006003d00d0c2b300afff07005b
:104048005e0090000000ea00500798001800370052
:104058006e489000e14f500015003a00b0c2b3001e
:10406800a6ff070012003700de009000a000200025
:1040780000017800110009008200d8008000fd00ce
:1040880080407800640047001e0040000148780026
:104098005e019000706626000090b900c288de00bc
:1040a8004f90de0000805000500798001e0fe90076
:1040b8005e0090000000e000ebff3a004e489000e0
:1040c800e14f40000b003a00030037001e0090004b
:1040d8000000e80010079800e40047001e00900068
:1040e80000804000104078000004e000f7ff320034
:1040f800040037004e4890000000fb0065001000e7
:10410800100798009e009000010f78000600370005
:10411800640047001e004000104078000043b000d3
:1041280076ff07001e0fe8005e4890000000fb00c5
:10413800650010009e0f5000f5ff3c005e4890009f
:10414800e14f500005003a00e0c2b3006bff0700e2
:104158000e4890000043b00068ff07005e489000da
:10416800e24f500008003a00e0c2b30063ff0700c6
:104178007e4090000043b00060ff07000e489000aa
:104188000043b0005dff07000080fa000000060051
:104198000000fa00d0a2a900d082a900d062a9002c
:1041a800d0e2a900d0c2a900d482a900d4a2a90053
:1041b800d462a900d4c2a900d4c2a80011c2b30015
:1041c8000040eb0011000700f1cbb3000040eb000a
:1041d8000e00070041c0b3000040eb000b000700d1
:1041e80041c1b3000040eb000800070001c2b30062
:1041f8000040eb0005000700c1c0b3000040eb0021
:10420800020007000080fa00000006000400fa001f
:104218002047980031479800be4090001147980009
:104228002e4090000004e00002003a00d462a90089
:1042380001003700d462a800d4e2a9000040eb00d6
:10424800004f78000b003700d482a9001e40900070
:104258000004e00001003d00d482a800d4a2a80018
:104268001e4090000040400010479800d4a2a900ca
:104278001e4fe8001e407800e74f5000f2ff36005e
:10428800d4e2a8000080fa00000006000200fa004c
:104298000000eb00000f7800080037001e007800cf
:1042a800004078008040eb00edfe070011c0b3002d
:1042b80010c0b300d5ff07001e0fe800300520002e
:1042c8009e007800808f5000f4ff34000000eb005f
:1042d800000f7800080037001e00780000407800c2
:1042e80051c0b300defe070001c8b30010c0b30020
:1042f800c6ff07001e0fe800300520009e0078006a
:10430800808f5000f4ff34000000eb00000f7800ad
:10431800090037001e0078000040780080407800cf
:1043280030c5b300cefe070080c0eb0010c0b3005c
:10433800b6ff07001e0fe8001e007800e50f5000ca
:10434800f4ff34000000eb00000f7800090037008c
:104358001e00780000407800804078000040eb00a4
:10436800bffe070080c0eb0010c0b300a7ff070026
:104378001e0fe8001e007800e50f5000f4ff34001f
:104388000080fa00000006000800fa00881f780084
:10439800004f78001107980022079800330798000b
:1043a8001e04fb001e009000cf80de0059f10700bc
:1043b800c241dd0002802000028141000089be0068
:1043c8001e04fb002e009000cf80de0051f1070094
:1043d800c241dd00c2802000028141000089be0088
:1043e8001e04fb003e009000cf80de0049f107006c
:1043f800c241dd0082812000028141000089be00a7
:104408001e00fb00c200dd00a082200000814000e9
:104418006000b8000089be001e00fb00c200dd007d
:1044280020842000008140006000b8000089be00a0
:104438004f0478000080fa00000006001600fa0019
:10444800889fbe008a1f780000579800110f9800b7
:10445800220f98006000b8002007980031079800e4
:104468009e0890002e089000008050008000eb000d
:104478002bf1070040079800510798000e50900054
:104488000080fb00c200dd000080200000804000aa
:104498001000be004e019000de019000ccf1070034
:1044a80060079800710798000e5090000085fb0087
:1044b8000e5090000080fb00c200dd00a0822000aa
:1044c800008040001004be000e5090000080fb00e9
:1044d800c200dd00c0802000008040001000be0047
:1044e8004e019000de019000b9f107000001be0006
:1044f8000800be0028f00700c251dd00a28220009b
:10450800028141000089be000e5090000080fb002f
:10451800c200dd00a0822000008040001004be0020
:104528000e5090000080fb0080004000e0842000d6
:104538000080400010007800cf80de00f5f0070012
:104548001ac0b3000001be000800be00b1f00700a9
:104558000000e000010035000045eb000a04e0001f
:104568000e0032000e5090000084fb000e509000a8
:104578000080fb0080004000e084200000804000b4
:1045880010007800cf80de00e2f00700c241dd00b5
:10459800a2822000028141000089be000e509000d6
:1045a8000080fb00c200dd00a082200000804000e7
:1045b8001004be000e5090000080fb0080004000f8
:1045c800408220000080400010007800cf80de008c
:1045d800d0f007001ac0b3000001be000800be00fa
:1045e8008ef007000000e00001003c000045eb00f1
:1045f8000a04e0000e0032000e5090000084fb0018
:104608000e5090000080fb00800040004082200097
:104618000080400010007800cf80de00bdf0070069
:10462800c241dd00a2822000028141000089be0053
:104638000e5090000080fb00c200dd006083200067
:10464800008040001000be000001be004e00900037
:10465800de009000cfef07000002be000e50900071
:104668000080fb00c200dd00808120000080400047
:104678001000be000001be000400be0054f1070097
:1046880020079800310798000e5090000080fb002a
:10469800c200dd0060832000008040004e019000d1
:1046a800de0190000288be000e5090000080fb00e2
:1046b800c200dd00a0822000008040001000be0083
:1046c8006e019000fe019000b3ef07002e019000ec
:1046d800be019000b0ef0700008fbe000e509000a2
:1046e8000080fb0080004000e08420000080400043
:1046f80010007800cf80de0086f0070018c0b300f5
:104708001e01be0045f007000000e00001003c006b
:104718000044eb000804e000090032000e5090004d
:104728000080fb0080004000e08420000080400002
:1047380010007800cf80de0076f00700008fbe0002
:104748000e5090000080fb00800040004082200056
:104758000080400010007800cf80de006df0070078
:1047680018c0b3001e01be002af007000000e000d8
:10477800010035000044eb000804e00009003200a5
:104788000e5090000080fb00800040004082200016
:104798000080400010007800cf80de005df0070048
:1047a800008fbe001e00be004f0578004f04be00fb
:1047b8000080fa00000006000200fa00000f7800ee
:1047c8001e0078008000eb0055f007000001be00d5
:1047d80000002f00f1572400ccef07000200200052
:1047e80003f823006bef07000001be0000802600dd
:1047f800c1612400c5ef07002045880031458800c5
:10480800204580003145800002802a00d3612400c1
:10481800beef0700404588005145880040458000ac
:104828005145800093f007004045880051458800b5
:104838004045800051458000b2072100a35724005d
:10484800b2ef070040458800514588004045800088
:1048580051458000f2f02c00b3b523004eef07005d
:1048680040458800514588004045800051458000fa
:104878000001be000000200001f82300a3ef07009c
:1048880040458800514588004045800051458000da
:1048980032332900833824003eef07004045880062
:1048a80051458800404580005145800002002000a5
:1048b80003122400c6f007004045880051458800cf
:1048c800404580005145800002002000031124006b
:1048d800bff0070002002000030a24008bef070046
:1048e80002002000033a24002bef0700404588000f
:1048f800514588004045800051458000eaef070097
:10490800000078008000eb0005f007000080fa0046
:10491800000006000c00fa00404798005147980034
:10492800320798004307980054079800de0090006b
:10493800010f780001010700204798003300370075
:10494800fe00070020479800104580000000e8009e
:104958001045880000c42900010020001902070042
:1049680011458000803e2000808f500004003400f4
:1049780090fd0700a228ef000040eb0020479800b8
:10498800de4090004e40900035fd07008041eb006e
:1049980012c0b30041c0b3001e00780096fd0700a6
:1049a8002e4090000000fb00e30f5000030032008f
:1049b800e40f500009003200130037001e0fe90011
:1049c8003e0090009e007800808f50000b003c0055
:1049d800be009000010f78000b0037001e0fe800a2
:1049e8004e0090009e007800808f50000500350032
:1049f800ce009000010f780003003700000000008f
:104a080001003700000000000060fe002e4090000a
:104a1800e24f5000caff3a00a228ef001e007800bb
:104a28000080fa00000006000400fa000040eb00d5
:104a3800004f78005a40a800c042a800c122a80030
:104a4800c062a900c162a900c462a800c562a90029
:104a5800d00020007f01070010079800c462a90059
:104a68005a40a9009e009000b00d2000808f500091
:104a780002003c00b868ef00b968ef009e009000a3
:104a8800b00d2000808f5000070034009e00900079
:104a9800104e2000808f500003003c0010c0b3006f
:104aa800004f7800140037009e009000104e200040
:104ab800808f5000070034009e0090003083200053
:104ac800808f500003003c0020c0b300004f7800e6
:104ad800090037009e00900030832000808f50002e
:104ae8000300340030c0b300004f780002003700e4
:104af8000040eb00004f78001e407800e14f500066
:104b080003003a0010c0b300b8e8b7000e00370041
:104b18001e407800e24f500003003a0020c0b30066
:104b2800b8e8b700080037001e407800e34f50008f
:104b380003003a0030c0b300b8e8b70002003700fd
:104b4800b868ef00b968ef00b8c8bf000004e0001b
:104b58002300320080002000010020009901070096
:104b6800b8c8bf00bae8b700b9c8bf000040e8003d
:104b7800b9e8b700b9c8bf00e14f500002003a00d9
:104b8800bac8bf0017003700b9c8bf00e14f5000ce
:104b980007003600918b20009140780020c3b300b5
:104ba80080cf500002003e0040c0b3000d00370027
:104bb800918b20009140780020c3b30080cf500033
:104bc8000500360000d42000310020007d010700d8
:104bd800bac8bf00030037000040eb0001003700ef
:104be8000040eb000080fa00000006000000fa0018
:104bf80005e1a9000421a80021088000f0cf2f00ba
:104c0800008060002008880021088000f0fc2f0048
:104c1800008060000050a0002008880005e1a8007e
:104c280011e1a90081088000000320000100700044
:104c380080088800e03020006008880011e1a800a2
:104c480013e1a90091088000000320000100700012
:104c58009008880013e1a8000080fa000000060010
:104c68000000fa009621ef0000102000a00c880038
:104c7800900c8000f001b300900c880092e1a9002c
:104c8800810c8000f03f2e000080600000c0a00072
:104c9800800c88009821ef00810c800080ff2f0095
:104ca800008060006000b300800c8800a021ef0045
:104cb80040e82100f00c8800e00c8000f001b3000f
:104cc800e00c88009ce1a900d10c8000f03f2e0088
:104cd8000080600000a0a000d00c8800d10c8000eb
:104ce80080ff2f00008060006000b300d00c8800b7
:104cf800aa21ef0040e82100400d8800300d800017
:104d0800f001b300300d8800a6e1a900210d800054
:104d1800f03f2e000080600000a0a000200d880059
:104d2800210d800080ff2f00008060006000b3002c
:104d3800200d88000080fa00000006000000fa003c
:104d480070002000c300070090458800914580004e
:104d5800c05d2000808f500007003600914580001c
:104d680090872000808f500003003e0010c0b300e1
:104d7800b4e8b7001e0037009145800090872000f6
:104d8800808f5000070036009145800010a8200051
:104d9800808f500003003e0020c0b300b4e8b70085
:104da800130037009145800010a82000808f500024
:104db8000700360091458000d0dd2000808f50002c
:104dc80003003e0030c0b300b4e8b7000800370065
:104dd80091458000e0dd2000808f50000300360000
:104de80040c0b300b4e8b70001003700b468ef0072
:104df800b4c8bf000004e00019003200418b200055
:104e080091407800b5c8bf0080cf50000400320040
:104e1800b4c8bf00b5e8b700b668ef0013003700a4
:104e2800b6c8bf000040e800b6e8b700b6c8bf0083
:104e3800e14f500002003a00b5c8bf000c0037002f
:104e4800b6c8bf00ea4f50000700340000122a001d
:104e580071002000db000700b5c8bf000400370060
:104e6800b668ef0001003700000000000040eb00ca
:084e78000080fa0000000600b2
:020000040000fa
:104e8000ac0800000600000000000000540800000c
:104e90002800000002000000908b94008b988b008b
:104ea0009c8ba0008ba48b00a88bac008bb08b00dc
:104eb000b48bb8008bbc8b00c08bc4008bc88b003c
:104ec000cc8bd0008bd48b00d88bdc008b00000007
:104ed000a20800000a00000000000000b80800005e
:104ee0000400000000000000000800002a0000008c
:104ef000020000000000480042000000484200009c
:104f000000484200000070004100000070410000b5
:104f1000007041000000c80041000000c8410000ce
:104f200000c84100ff1fff001fff1f002a080000ec
:104f30002a00000000000000b20800000600000087
:104f4000000000007c0800001a00000000000000c3
:104f5000960800000c0000000200000000000200a3
:104f600000040000288a34008a408a00bc0800003f
:0c4f700002000000000000000000000033
:020000040000fa
:104f7c000400fa00000f780011079800400024008c
:104f8c00003b8800f00720000040780032e0b700ba
:104f9c0001e02f001e00780000804000000f780018
:104fac009e0090001e0078000108bb000500fc006c
:104fbc0050052000303b8800a00a2000303b8800c0
:104fcc0061e7a800000000000000000000000000e5
:104fdc00013b800000002800008060000000e00021
:104fec00fbff3a000080fa00000006000200fa0005
:104ffc00000f7800f00720000040780032e0b70086
:10500c0001e02f001e00780000804000000f7800a7
:10501c001e0078001000ba000080fa0000000600a4
:10502c000000fa0000402800001a88004223ef001c
:10503c0050002000201a88004823ef005023ef0076
:10504c0000042000701a88000080fa00000006009e
:10505c000400fa00100798009e009000411a880086
:10506c00401a8000fa0f500004003a005583a80043
:10507c000005200001002000510007004023a8007b
:10508c0040062000010020004d0007004023a9002d
:10509c000100370085a0a900001a800061006000a3
:1050ac000000e000fbff32005583a90001188000ce
:1050bc00010f78001e0078000080fa000000060046
:1050cc000000fa000080fa00000006000000fa0060
:1050dc001008200000168800c0c028004016880068
:1050ec003020200080168800100020000027880047
:1050fc00c0002800102788003000200020278800de
:10510c00c222ef00ca22ef00d222ef0000202800ba
:10511c00700388009000200080038800e8ff0700df
:10512c00bfff070019fc070000a821006100200048
:10513c00230007009efb07005df707000080fa00c4
:10514c00000006000200fa00e0002000c0ff07008b
:10515c00000f7800b03120009e007800808f500046
:10516c0003003c000000eb00000f7800100037003b
:10517c0020f820009e007800808f5000030034003f
:10518c0040062000000f78000900370041ce2f00a8
:10519c001e804000cf80de00dded070052b82e00ef
:1051ac00d31f240058ed07009ded0700000f780079
:1051bc001e007800004078000080fa000000060015
:020000040000fa
:1051cc00f03fb1000180b10006003500ee0309008c
:1051dc0000000000403fb1000180b100fbff3d002a
:1051ec001000b000203fb000020035000080090024
:0851fc000000000000000600a5
:020000040000fa
:0200000400fffb
:10fc000000000000000000000000000000000000f4
:10fc100000000000000000000000000000000000e4
:10fc200000000000000000000000000000000000d4
:10fc300000000000000000000000000000000000c4
:10fc400000000000000000000000000000000000b4
:10fc500000000000000000000000000000000000a4
:10fc60000000000000000000000000000000000094
:10fc70000000000000000000000000000000000084
:10fc80000000000000000000000000000000000074
:10fc90000000000000000000000000000000000064
:0cfca00000000000000000000000000058
:020000040000fa
:0200000401f009
:04000000ffff0000fe
:020000040000fa
:0200000401f009
:04000800ffff0000f6
:020000040000fa
:0200000401f009
:04000c00ffff0000f2
:020000040000fa
:0200000401f009
:04001000bbff000032
:020000040000fa
:0200000401f009
:04001400ffff0000ea
:020000040000fa
:0200000401f009
:04001800ffff0000e6
:020000040000fa
:0200000401f009
:04001c00ffff0000e2
:020000040000fa
:0200000401f009
:04002000ffff0000de
:00000001FF
