:020000040000fa
:080000000002040000000000f2
:020000040000fa
:04000800c80200002a
:020000040000fa
:04000c00c802000026
:020000040000fa
:04001000c802000022
:020000040000fa
:04001400c80200001e
:020000040000fa
:04001800c80200001a
:020000040000fa
:04001c00c802000016
:020000040000fa
:04002000c802000012
:020000040000fa
:04002400c80200000e
:020000040000fa
:04002800c80200000a
:020000040000fa
:04002c00c802000006
:020000040000fa
:04003000c802000002
:020000040000fa
:04003400c8020000fe
:020000040000fa
:04003800c8020000fa
:020000040000fa
:04003c00c8020000f6
:020000040000fa
:04004000c8020000f2
:020000040000fa
:04004400c8020000ee
:020000040000fa
:04004800c8020000ea
:020000040000fa
:04004c00c8020000e6
:020000040000fa
:04005000c8020000e2
:020000040000fa
:04005400c8020000de
:020000040000fa
:04005800c8020000da
:020000040000fa
:04005c00c8020000d6
:020000040000fa
:04006000c8020000d2
:020000040000fa
:04006400c8020000ce
:020000040000fa
:04006800c8020000ca
:020000040000fa
:04006c00c8020000c6
:020000040000fa
:04007000c8020000c2
:020000040000fa
:04007400c8020000be
:020000040000fa
:04007800c8020000ba
:020000040000fa
:04007c00c8020000b6
:020000040000fa
:04008000c8020000b2
:020000040000fa
:04008400c8020000ae
:020000040000fa
:04008800c8020000aa
:020000040000fa
:04008c00c8020000a6
:020000040000fa
:04009000c8020000a2
:020000040000fa
:04009400c80200009e
:020000040000fa
:04009800c80200009a
:020000040000fa
:04009c00c802000096
:020000040000fa
:0400a000c802000092
:020000040000fa
:0400a400c80200008e
:020000040000fa
:0400a800c80200008a
:020000040000fa
:0400ac00c802000086
:020000040000fa
:0400b000c802000082
:020000040000fa
:0400b400c80200007e
:020000040000fa
:0400b800c80200007a
:020000040000fa
:0400bc00c802000076
:020000040000fa
:0400c000c802000072
:020000040000fa
:0400c400c80200006e
:020000040000fa
:0400c800c80200006a
:020000040000fa
:0400cc00c802000066
:020000040000fa
:0400d000c802000062
:020000040000fa
:0400d400c80200005e
:020000040000fa
:0400d800c80200005a
:020000040000fa
:0400dc00c802000056
:020000040000fa
:0400e000c802000052
:020000040000fa
:0400e400c80200004e
:020000040000fa
:0400e800c80200004a
:020000040000fa
:0400ec00c802000046
:020000040000fa
:0400f000c802000042
:020000040000fa
:0400f400c80200003e
:020000040000fa
:0400f800c80200003a
:020000040000fa
:0400fc00c802000036
:020000040000fa
:04010000c802000031
:020000040000fa
:04010400c80200002d
:020000040000fa
:04010800c802000029
:020000040000fa
:04010c00c802000025
:020000040000fa
:04011000c802000021
:020000040000fa
:04011400c80200001d
:020000040000fa
:04011800c802000019
:020000040000fa
:04011c00c802000015
:020000040000fa
:04012000c802000011
:020000040000fa
:04012400c80200000d
:020000040000fa
:04012800c802000009
:020000040000fa
:04012c00c802000005
:020000040000fa
:04013000c802000001
:020000040000fa
:04013400c8020000fd
:020000040000fa
:04013800c8020000f9
:020000040000fa
:04013c00c8020000f5
:020000040000fa
:04014000c8020000f1
:020000040000fa
:04014400c8020000ed
:020000040000fa
:04014800c8020000e9
:020000040000fa
:04014c00c8020000e5
:020000040000fa
:04015000c8020000e1
:020000040000fa
:04015400c8020000dd
:020000040000fa
:04015800c8020000d9
:020000040000fa
:04015c00c8020000d5
:020000040000fa
:04016000c8020000d1
:020000040000fa
:04016400c8020000cd
:020000040000fa
:04016800c8020000c9
:020000040000fa
:04020800c802000028
:020000040000fa
:04020c00c802000024
:020000040000fa
:04021000c802000020
:020000040000fa
:04021400c80200001c
:020000040000fa
:04021800c802000018
:020000040000fa
:04021c00c802000014
:020000040000fa
:04022000c802000010
:020000040000fa
:04022400c80200000c
:020000040000fa
:04022800c802000008
:020000040000fa
:04022c00c802000004
:020000040000fa
:04023000c802000000
:020000040000fa
:04023400c8020000fc
:020000040000fa
:04023800c8020000f8
:020000040000fa
:04023c00c8020000f4
:020000040000fa
:04024000c8020000f0
:020000040000fa
:04024400c8020000ec
:020000040000fa
:04024800c8020000e8
:020000040000fa
:04024c00c8020000e4
:020000040000fa
:04025000c8020000e0
:020000040000fa
:04025400c8020000dc
:020000040000fa
:04025800c8020000d8
:020000040000fa
:04025c00c8020000d4
:020000040000fa
:04026000c8020000d0
:020000040000fa
:04026400c8020000cc
:020000040000fa
:04026800c8020000c8
:020000040000fa
:04026c00c8020000c4
:020000040000fa
:04027000c8020000c0
:020000040000fa
:04027400c8020000bc
:020000040000fa
:04027800c8020000b8
:020000040000fa
:04027c00c8020000b4
:020000040000fa
:04028000c8020000b0
:020000040000fa
:04028400c8020000ac
:020000040000fa
:04028800c8020000a8
:020000040000fa
:04028c00c8020000a4
:020000040000fa
:04029000c8020000a0
:020000040000fa
:04029400c80200009c
:020000040000fa
:04029800c802000098
:020000040000fa
:04029c00c802000094
:020000040000fa
:0402a000c802000090
:020000040000fa
:0402a400c80200008c
:020000040000fa
:0402a800c802000088
:020000040000fa
:0402ac00c802000084
:020000040000fa
:0402b000c802000080
:020000040000fa
:0402b400c80200007c
:020000040000fa
:0402b800c802000078
:020000040000fa
:0402bc00c802000074
:020000040000fa
:0402c000c802000070
:020000040000fa
:0402c400c80200006c
:020000040000fa
:0402c800c802000068
:020000040000fa
:0402cc00c802000064
:020000040000fa
:0402d000c802000060
:020000040000fa
:0402d400c80200005c
:020000040000fa
:0402d800c802000058
:020000040000fa
:0402dc00c802000054
:020000040000fa
:0402e000c802000050
:020000040000fa
:0402e400c80200004c
:020000040000fa
:0402e800c802000048
:020000040000fa
:0402ec00c802000044
:020000040000fa
:0402f000c802000040
:020000040000fa
:0402f400c80200003c
:020000040000fa
:0402f800c802000038
:020000040000fa
:0402fc00c802000034
:020000040000fa
:04030000c80200002f
:020000040000fa
:04030400c80200002b
:020000040000fa
:04030800c802000027
:020000040000fa
:04030c00c802000023
:020000040000fa
:04031000c80200001f
:020000040000fa
:04031400c80200001b
:020000040000fa
:04031800c802000017
:020000040000fa
:04031c00c802000013
:020000040000fa
:04032000c80200000f
:020000040000fa
:04032400c80200000b
:020000040000fa
:04032800c802000007
:020000040000fa
:04032c00c802000003
:020000040000fa
:04033000c8020000ff
:020000040000fa
:04033400c8020000fb
:020000040000fa
:04033800c8020000f7
:020000040000fa
:04033c00c8020000f3
:020000040000fa
:04034000c8020000ef
:020000040000fa
:04034400c8020000eb
:020000040000fa
:04034800c8020000e7
:020000040000fa
:04034c00c8020000e3
:020000040000fa
:04035000c8020000df
:020000040000fa
:04035400c8020000db
:020000040000fa
:04035800c8020000d7
:020000040000fa
:04035c00c8020000d3
:020000040000fa
:04036000c8020000cf
:020000040000fa
:04036400c8020000cb
:020000040000fa
:04036800c8020000c7
:020000040000fa
:10040000af8b20000eff20000e01880000000000ce
:10041000000020000000e000020032000001200087
:1004200020028800140007005b0007000000e000c5
:1004300003003a00005022000100200002003700b3
:100440000000200001002000810f70000100320038
:1004500014000700000020000000e000020032004d
:1004600000000200000000003e0d0200000000003d
:100470000040da000000fe004440a900406e200069
:100480000000e0000300320000002000a00188000e
:100490004440a800000006008a1f78008b1f7800e7
:1004a0000000060091018800800478000000eb0045
:1004b0001a003700e284440032a0b4009905ba0063
:1004c000e284440032a0b4009906ba00e2844400f9
:1004d00032a0b4000006eb00476fde00fd07b2005b
:1004e000636ce10003003a00ebff07000000eb0043
:1004f0000a003700606ce10004003a00005deb0088
:100500008b05e900fdff3e00040037006168e10053
:10051000010032000086eb000b00070019c7ba008b
:100520001905ba000e04e00003003a000a00e000da
:10053000e0ff3a0000000600fe07b2009e018800be
:100540008a047800f5ff3700395dba008b05e900b1
:100550000c003200295dba008b05e900080032006a
:100560000c00e00003003a00e284440032a0b40032
:10057000f5ff370019ddba008b05e900faff3a00f4
:100580008904e800e184440032a0b40000000600c1
:100590000040da000000fe000000050003f0a200a9
:1005a000889fbe008a9fbe008c1f78001b01070039
:1005b000220133006450e1004f0032006420e1006a
:1005c0005200320003826c0007003b000905d00096
:1005d0000306d000820f54000c065d0002003900b3
:1005e00002003200890178000306780085825500f8
:1005f00004003d000003fd008103fd008502ea00c8
:100600008b854200840f720002003b0060001000e6
:10061000e08018006011b8000005eb007a28e100c6
:100620000a00390006007800c75ddd00f707b20058
:10063000878075002d003700828171000a017800e3
:10064000610560008180d1000080d3008502e9004f
:10065000f9ff3b00060440008784480002003b008d
:1006600060041400e0841c000988a3000700320025
:100670008a81710082817100610164008904d10066
:100680000884d3008b05e800170037000978a30021
:1006900013003a000b00e000130034008b05e90062
:1006a0000804440089844c000a4474000978a300bb
:1006b0000d003a000b00e000070034008b05e90054
:1006c0000804440089844c0001003a000b0020001b
:1006d0000978a300f7ff32000001eb0002003700a9
:1006e000828171000a017800910007000cf0a700d8
:1006f00001f0a000da0037006420e10002003a00b7
:10070000838f6c00da0033000801be000200be00d7
:10071000d3003700889fbe008a9fbe008c1f7800e0
:10072000be000700c500330003866c006450e10082
:100730002e0032006420e100330032006150e100fd
:100740002f0032006120e100310032008585550024
:10075000eb07b00009002000080420000500370066
:100760000804440089844c000a0031000603430059
:1007700087834b000001530081815b00f8ff330049
:100780000203be000800a0000804440089844c0055
:10079000f6ff3900c639dd00830173000100320025
:1007a000130020008904d1000884d3000998a30015
:1007b000050032000800a7000300a0008904d10052
:1007c0000884d3008b05e8008904d1000884d30095
:1007d0000001eb000281d2005500070001f0a100ea
:1007e0000cf0a70001f0a0009d0037006420e1009c
:1007f0009f0032000801be000200be00f7ff370074
:100800006120e1009a0032006000b800f3ff370079
:100810000000200001f82700f0ff3700140020003e
:10082000ca003700f4ff2f00c80037000001be00e7
:10083000650007000470a70003f0a1006509b1007e
:10084000160032000d0035006828e1000600350072
:10085000f0ff2f00f1ff27000300e00013003b0032
:1008600001002800000005000000400081804800d1
:100870008502e900fcff3a0008003700f88f4200cb
:1008800002003c008000eb00000005008100d10068
:100890000080d3008502e800fcff3a000300e0007e
:1008a00002003b0060001000e0801800000006001d
:1008b0000001be00440007000470a70003f0a1007f
:1008c00003f8a30013003a006509b10010003200dc
:1008d000090035006928e100020035000100280008
:1008e0000000050000004000818048008502e9000a
:1008f000fcff3a0000000600f88f420005003500ba
:100900008100d1000080d3008502e800fcff3a009e
:10091000000006008000eb00000005004f89de00ab
:1009200082017800a40037006011b800b2003700df
:1009300081002000618055000b003d000b0020006d
:1009400061fe2f000100e1001d0034008281710072
:10095000610164008904d1000884d3000000e8002c
:10096000faff3a007100200061006400030070008b
:10097000020060000900320061044400e0844c0081
:100980000988a500050032008b05e8006808e10031
:1009900002003a008904d1000884d300f20f20003d
:1009a0000258e10005003d00c75ddd00f907b20017
:1009b0008980750008007800000006000bf8270009
:1009c0008b00780000000500c70ade00f107b200c6
:1009d000f50fb20008003200e1cf42000200320001
:1009e0000170a00024000500810f7000010032009a
:1009f0000408050044000500810f700002003a0061
:100a0000140005008502e9000000400081c0480094
:100a1000fcff3b000170a000240005000004be00a4
:100a2000e9ff07000003be000405be000200be008f
:100a3000e5ff0700844f7500000006000200be00bd
:100a40006450e100050036006420e1000200360039
:100a50000968a30001003a000800be000160a00080
:100a60004f0678004f05be004f04be000000060090
:100a7000f0ff2f00f1ff2700f9ff3700889fbe002d
:100a80008a9fbe008c1f7800e4ff0700ebff330055
:100a900003866c006450e100240032006420e10011
:100aa000270032006150e100220032006120e100a5
:100ab000210032008b854200eb07b1000134b80001
:100ac000003ab8000804420089844a00013ab8009c
:100ad0000030b8008880400009014a00040033005b
:100ae0000000400081804800020149008b05e900b8
:100af000c909dd00830170000100320013002000ed
:100b0000c814de004814dd004709de001200b20000
:100b1000c808de000884700085ff070001f0a1000e
:100b20000cf0a70001f0a000cdff37006120e1002c
:100b3000cfff32000801be000200be00f7ff370001
:100b40006150e100fcff3a00c9ff3700889fbe00fa
:100b50008a9fbe00841f7800b0ff07004f00780016
:100b600011003300f0ff2f00838f6c0006003b0064
:100b7000040565000a00a7000800370009f0a60078
:100b80001000200008003700820f5400838f5c00a3
:100b9000030039001000200001003e00000020008a
:100ba00009f0a7000000ea004f05be004f04be0098
:100bb0000000e00000000600881f780003047800b1
:100bc0000300e00007003d0060001000e080180016
:100bd00060011900e081190002003b0001f02d00c6
:100be000030037000400070008f0a70001f0a00090
:100bf0004f04780000000600889fbe008a9fbe0058
:100c0000008270000402710004827100260032002c
:100c10000004be000200be006011b8006b09200095
:100c2000950220000182cf000a0039000541b10081
:100c30000082cf00070039000541b1000982cf00d2
:100c4000040039000541b1000882cf0001003900dd
:100c50000541b10005425200120032000a003b007b
:100c600082817100610164008100d1000080d300a5
:100c70008984d3000884d3008b05e8000442e8008f
:100c8000f7ff3a00070037000804440089844c004d
:100c900000004800818048008b05e9000442e9001b
:100ca000f9ff3a0022ff07004f05be004f04be00c7
:040cb000000006003a
:020000040000fa
:100cb400ff81000083ff000083810000c9fb000066
:100cc400c1810000fdb90000fd810000b9d500001c
:100cd400d981000081ff00008181000081c50000ee
:100ce400cbb3000081850000bfc5000081e1000096
:100cf4009987000081c50000cbb3000081fd00008e
:100d0400a59900008181000081ff0000818100001d
:100d1400ff9300008d81000081c30000ffc3000029
:100d240081810000ffc30000bd81000081ff00003d
:100d34008181000081810000ffb30000cf810000a9
:100d4400c9d50000a581000085bf0000c581000051
:100d54008181000081ff0000ff810000fd9d0000f3
:100d6400fd810000b9d50000d9810000fd85000097
:100d7400f9810000fdc10000fd81000081ff000039
:100d84008181000081ff0000cbc3000081fd0000d1
:100d940085f9000081850000bfc5000081b900000d
:100da400d5d9000081f900008585000081ff00008d
:100db40081810000ffc30000bd810000b9c50000af
:100dc400b9810000fdb10000fd810000fd85000037
:100dd400f981000081ff0000818100008181000011
:100de40081810000fdc10000fd810000fda500001f
:100df40099810000818100008181000081ff000051
:100e0400ff81000081810000818100008181000058
:100e140081810000818100008181000081810000c6
:100e24008181000081ff00008181000081ff0000ba
:100e3400cbc3000081fd000085f90000818500001e
:100e4400bfc5000081b90000d5d9000081f90000b8
:100e54008585000081ff000081810000ffc3000040
:100e6400bd810000b9c50000b9810000fdb10000da
:100e7400fd810000fd850000f981000081ff000074
:100e8400818100008181000081810000fdc100009a
:100e9400fd810000fda50000998100008181000012
:100ea4008181000081ff0000ff01000001010000ba
:100eb4000101000001010000010100000101000026
:100ec4000101000001010000010100000101000016
:100ed4000101000001010000010100000181000086
:100ee400c1c10000c18100000101000001810000b6
:100ef400c1c10000c1c1000001c10000e1610000e6
:100f0400e1c100008101000081c10000c181000035
:100f14008101000001010000010100000101000045
:100f240001010000010100000101000001010000b5
:100f340001010000010100000101000001010000a5
:100f440001010000010100000101000001ff000097
:100f5400ff0000000000000000000000000000008e
:100f6400000000000000000000000000000000007d
:100f740000000000c0400000e0b0000010000000cd
:100f84001c3e00007e7f00007f7f00007f7f00000a
:100f94007f000000000700000f0c00000c0400009c
:100fa400000700000f0c00000c0f0000071c0000dd
:100fb4001f07000006060000703c00001f0b000025
:100fc4001be60000f2bc00006c38000098d0000062
:100fd400e0b000006040000040000000000000009d
:100fe40000000000000000000000000000000000fd
:100ff4000000000000ff0000ff00000000000000ef
:1010040000000000000000000000000000000000dc
:1010140000000000000000000000000000000000cc
:10102400000d00000f060000070300000000000090
:1010340000000000000000000000000000000000ac
:101044000000000000c00000f07700001fc800008e
:10105400c0000000000000000000000000000000cc
:10106400000000000000000000000000010100007a
:1010740000070000070c00000c0100000100000044
:10108400000000000000000000000000000000005c
:1010940000000000000000000000000000ff00004d
:1010a400ff0000000000000000000000000000003d
:1010b400000000000000000000000000000000002c
:1010c400000000000000000000000000000000001c
:1010d400000000000000000000000000808000000c
:1010e40080800000c0c00000c0c00000deff00001f
:1010f400f1e00000c0e10000ffdf0000c4c0000018
:10110400c0c00000c0c00000c0c00000000000005b
:1011140000000000000000000000000000000000cb
:1011240000000000000000000000000000000000bb
:1011340000000000000000000000000000000000ab
:101144000000000000ff0000ff000000000000009d
:10115400000000000000000000000000000000008b
:10116400000000000000000000000000000000007b
:10117400000000000000000000000000000000006b
:1011840000000000c7cf00009d910000b7bf000021
:10119400b8e00000c0800000808000008080000073
:1011a4008080000080c00000c0e00000b89f000004
:1011b40087c10000c06000000000000000000000c3
:1011c400000000000000000000000000000000001b
:1011d400000000000000000000000000000000000b
:1011e40000000000000000000000000000ff0000fc
:1011f400ff8000008080000080800000808000006c
:1012040080800000808000008080000080800000da
:1012140080800000808000008080000080800000ca
:1012240080800000808000008080000080810000b9
:101234008383000083830000838300008383000092
:101244008383000083830000838300008383000082
:101254008383000083830000838100008180000079
:10126400808000008080000080800000808000007a
:10127400808000008080000080800000808000006a
:10128400808000008080000080800000808000005a
:101294008080000080ff00000c00000010000000af
:1012a40014000000180000001c00000020000000d2
:1012b4002200000024000000260000005761000006
:1012c4007465000072200000546500006d70000019
:1012d4003a00000053740000656100006d200000b6
:1012e400546500006d7000003a0000004772000071
:1012f4006f75000070200000546500006d700000e0
:101304003a00000050720000657300007320000072
:1013140022540000696d0000652200002074000062
:101324006f20000053650000740000007468000022
:10133400652000004375000072720000656e0000b5
:1013440074200000546900006d6500000054000022
:10135400616e00006b2000004c65000076650000a3
:101364006c3a0000004c00004f570000005300008e
:10137400686f000074200000546900006d6500006f
:10138400723a0000005000007265000073730000a0
:1013940020220000454e0000544500005222000067
:1013a400204b000065790000007400006f200000ed
:1013b400536500007420000074680000652000007c
:1013c400546900006d650000005000007265000063
:1013d4007373000020220000454e000054450000b5
:1013e40052220000207400006f20000053650000aa
:1013f400742000005374000061720000742f000018
:10140400537400006f70000020540000696d0000e8
:1014140065730000005000004944000020530000a0
:1014240065740000746900006e670000732000009a
:10143400666f000072000000557000002f44000029
:101444006e2000004b6500007973000020740000da
:101454006f20000043680000616e000067650000b3
:101464000020000020220000456e0000746500008a
:1014740072220000207400006f200000416300000d
:1014840063650000707400002000000053650000d4
:10149400745000006f6900006e740000203d00006d
:1014a4002000000044650000616400004261000007
:1014b4006e640000203d00000047000061690000e8
:1014c4006e2000003d000000496e000074650000bd
:1014d40067720000616c0000203d000000440000c1
:1014e400657200006976000061740000697600008e
:1014f400652000003d000000ff81000081810000a4
:1015040081810000818100008181000081810000cf
:1015140081810000818100008181000081ff000041
:101524008181000081ff0000cbc3000081fd000029
:1015340085f9000081850000bfc5000081b9000065
:10154400d5d9000081f900008585000081ff0000e5
:1015540081810000ffc30000bd810000b9c5000007
:10156400b9810000fdb10000fd810000fd8500008f
:10157400f981000081ff0000818100008181000069
:1015840081810000fdc10000fd810000fda5000077
:1015940099810000818100008181000081ff0000a9
:1015a400537500006e0000004d6f00006e000000d7
:1015b40054750000650000005765000064000000d9
:1015c40054680000750000004672000069000000c5
:1015d40053610000740000004e5500004c000000f0
:1015e4004a4100004e000000464500004200000051
:1015f4004d41000052000000415000005200000024
:101604004d410000590000004a5500004e00000002
:101614004a5500004c0000004155000047000000fe
:1016240053450000500000004f43000054000000e8
:101634004e4f0000560000004445000043000000e7
:10164400280000002a0000002c0000002e000000ea
:1016540030000000320000003400000036000000ba
:10166400380000003a0000003c0000003e0000008a
:10167400400000004200000044000000460000005a
:10168400480000004a0000004c0000004e0000002a
:1016940050000000520000005400000056000000fa
:1016a400580000005a0000005c0000005e000000ca
:1016b400224500006e7400006572000022200000c4
:1016c4003d2000006e650000787400002046000094
:1016d400696500006c64000000550000702f000074
:1016e400446e0000207400006f2000006368000056
:1016f400616e00006765000020540000696d000001
:10170400650000005e5e0000002000002020000054
:101714005e5e00005e00000020200000202000002b
:101724005e5e000000200000202000000020000079
:10173400202000005e5e0000005300007461000081
:10174400727400002f530000746f000070200000ba
:10175400666f00007220000000550000702f00002a
:10176400446e0000204b00006579000073200000e7
:10177400746f000020630000686f00006f73000046
:1017840065000000456e00007465000072200000d2
:101794004b65000079200000746f000020530000a6
:1017a400657400000053000074610000727400004e
:1017b400204800006f750000722000003d200000ea
:1017c400005300007461000072740000204d00009a
:1017d400696e000075740000652000003d20000063
:1017e40000530000746f000070200000486f000078
:1017f40075720000203d000000530000746f00006b
:10180400702000004d6900006e75000074650000d2
:10181400203d000000000000000000000000000067
:101824004e0000000600000006ff0000ffff00005d
:1018340048d600002412000008240000ffff000026
:10184400ff0000000600000038440000828200000f
:1018540044380000140800003e1000003810000056
:10186400a060000000100000101000006060000084
:1018740000600000180600007c4200007c44000068
:101884007e400000645200004c4a00004a340000cc
:10189400382400007e4e00004a3200003c4a00001a
:1018a400326200001a060000764a0000764c0000fe
:1018b400523c00006c6c000000ac00006c000000a6
:1018c40010280000442800002828000044280000b4
:1018d4001002000059060000ffff0000ff7c00001a
:1018e400127c00007e5a0000343c0000424200009a
:1018f4007e4200003c7e00004a4200007e0a000056
:101904000a3c0000523400007e0800007e420000c1
:101914007e420000304000003e7e00001866000059
:101924007e400000407e00001c7e00007e0200001d
:101934007e3c0000423c00007e1200000c7e000051
:1019440062fe00007e3200004e4400004a32000075
:10195400027e0000027e0000407e00003e40000047
:101964003e7e0000387e000066180000660e00000f
:10197400700e0000625a0000460000007e42000023
:1019840006180000604200007e000000040200000f
:101994000440000040400000000200000474000005
:1019a400547800007e4800003030000048480000b1
:1019b400304800007e380000545800007c0a0000c3
:1019c40002980000a47c00007e080000704800001b
:1019d4007a40000088fa0000007e000018640000cd
:1019e400427e0000407c0000387c00007c04000043
:1019f4007838000044380000fc2400001818000067
:101a040024fc000078040000044800005424000072
:101a1400043e0000447c0000407c00003c40000088
:101a24003c7c0000307c00006c1000006c9c0000ca
:101a3400a07c0000645400004c0c0000120c000058
:101a4400ffff0000ffff0000ffff0000ffff00009a
:101a5400ffff0000ffff0000ffff0000ffff00008a
:101a6400ffff0000fc4000007cff0000ffff0000bf
:081a7400ffff0000ff0000006d
:020000040000fa
:101a7c00cc01fa00889fbe00a50c07001c0c0700c7
:101a8c00310c07000040eb00004f78000040eb00e9
:101a9c00004f78001a0037001e80fb0080004000c9
:101aac00a09528000080400010007800600c070012
:101abc00800478001e80fb008000400040952800c8
:101acc000080400010007800590c070000047800da
:101adc001e80fb0080004000e09428000080400045
:101aec0010007800520c0700800078001e4078002f
:101afc008901780008017800a20907001e4fe80050
:101b0c001e407800e24f5000e3ff360010c0b300d7
:101b1c00104798000040eb00204798000040eb0075
:101b2c00304798000000eb00200798000040eb00c5
:101b3c0060479800004b2000400798000040eb00e5
:101b4c00204f98006000b800208f9900318f9900c9
:101b5c006000b800408f9900518f99006000b80068
:101b6c00608f9900718f99000000eb00600798005e
:101b7c000000eb00700798000040eb000057980045
:101b8c0010c0b3007057980010c0b300005f9800ed
:101b9c0010c0b300105f980010c0b300205f980015
:101bac000000eb00009799000000eb0010979900e3
:101bbc000000eb0020979900606d20003097990091
:101bcc00409c20004097990080702000509799000d
:101bdc00408320006097990020b2200070979900f4
:101bec0060862000009f99000000eb00100f980009
:101bfc008e007800211bb000050009008018eb0056
:101c0c000000eb00600f98000040eb00405798007c
:101c1c000040eb00505798004205200051c0b30023
:101c2c00a06528001c0807005116800000802000c9
:101c3c000080600000f0a7000000ea000000e9004e
:101c4c004f00de00705798005116800000402000b5
:101c5c000080600000f0a7000000ea000000e9002e
:101c6c004f00de00005f9800111680000008200075
:101c7c000080600000f0a7000000ea000000e9000e
:101c8c004f00de00105f98009116800000202000ad
:101c9c000080600000f0a7000000ea000000e900ee
:101cac004f00de00205f9800e01b20000e0040007b
:101cbc0028040700c2872000e11b20008100470098
:101ccc00060009003119780040002000f10b0700d4
:101cdc00708799002e8c9100be8c91002e4890003c
:101cec000080fb0000004000000047000010900046
:101cfc00cf80de0006fb07000001be000800be001e
:101d0c0023fa0700208f9900318f99002e489000fc
:101d1c000080fb00fe8091000000400000004700a6
:101d2c000002b000010878002e8c9100be8c91004e
:101d3c002e4890000080fb0000004000000047008f
:101d4c0000109000cf80de00f1fa07000001be0009
:101d5c000800be000ffa0700208f9900318f990000
:101d6c002e889100be8891000200200003272400d9
:101d7c0065fa0700cbfa070000007800408799004d
:101d8c0050002000c30b0700008f99004e8c91006f
:101d9c00de8c91002e4890000080fb00c003b00048
:101dac00000040000000470000109000cf80de00d3
:101dbc00d7fa07000001be000800be00f4f90700c6
:101dcc00408f9900518f99002e4890000080fb00a5
:101ddc008e889100c003b000000040000000470056
:101dec000002b000010878004e8c9100de8c91004e
:101dfc002e4890000080fb00c003b00000004000a3
:101e0c000000470000109000cf80de00c0fa0700f1
:101e1c000001be000800be00def90700408f9900eb
:101e2c00518f99002e4890000040e800204f9800f8
:101e3c00ae489000b0c3b30080cf50000200360013
:101e4c000040eb00204f98004e889100de889100f6
:101e5c0002002000032724002bfa070091fa070048
:101e6c00000078005087990060002000890b070063
:101e7c00108f99006e8c9100fe8c91002e48900072
:101e8c000080fb008007b00000004000000047000d
:101e9c0000109000cf80de009dfa07000001be000c
:101eac000800be00baf90700608f9900718f990085
:101ebc002e4890000080fb009e8891008007b000a7
:101ecc0000004000000047000002b000010878004c
:101edc006e8c9100fe8c91002e4890000080fb00cf
:101eec008007b00000004000000047000010900088
:101efc00cf80de0086fa07000001be000800be009d
:101f0c00a4f90700608f9900718f99002e489000fa
:101f1c000040e800204f9800ae489000b0c3b300da
:101f2c0080cf5000020036000040eb00204f98009c
:101f3c006e889100fe889100020020000327240087
:101f4c00f1f9070057fa0700000078006087990044
:101f5c009e08900040448000808f500009013200a0
:101f6c00304480000001780020448000800078001c
:101f7c00104480004505070090e8b7007e509000a3
:101f8c00e14f50000300320090c8bf00e14f5000f9
:101f9c000a003a0010c0b300405798007e509000e1
:101fac00e14f500002003a00a868ef00050037002e
:101fbc00a8c8bf00a8e8b700020037000040eb003b
:101fcc00405798002e409000f34f50000200340010
:101fdc000040eb0040579800e0012000600f980093
:101fec006e089000e90f500002003e000040eb002c
:101ffc00405798006e089000eb0f500009003e000f
:10200c002e4090000040e800204798002e409000a1
:10201c00f44f50000b00340040c1b300204798002f
:10202c00080037002e4090000040e900204798003f
:10203c002e4090000004e00002003d000040eb0048
:10204c00204798002e409000e14f50000a003400c9
:10205c003e409000ef4f500003003400c502a90031
:10206c002016800004003700c502a8003e409000f6
:10207c000040e800304798004e0090000000e80057
:10208c004007980040448000100f9800a0012000e9
:10209c00000b0700700f98000000eb006007980021
:1020ac000e0037006e00900000004000000047005a
:1020bc0040809100b0090700800078006e0090000d
:1020cc0000004000000047008018b00001087800b4
:1020dc006e0090000000e800600798006e00900011
:1020ec00e10f5000efff36004e5090000004e0006e
:1020fc0097003200de5090004e50900080cf500080
:10210c00050032002a0707004205200051c0b30029
:10211c00a0652800e006070030458000e10f500064
:10212c000b003a008040eb0040c0b300cb06070028
:10213c00409828001107070011c0b30040c0b3003d
:10214c00c6060700809928000c0707008d00370091
:10215c003803070011c0b30020c0b300bf0607004e
:10216c001e5890000004e0000f0032001045800063
:10217c000207070011c0b30000c3b300b706070085
:10218c005e8091008041eb0012c0b30041c0b300ef
:10219c0018070700b0c7b300d706070060c4b30028
:1021ac00d50607000e00370000458000f306070037
:1021bc0011c0b30000c3b300a80607004e80910005
:1021cc008041eb0012c0b30041c0b3000907070007
:1021dc00b0c7b300c806070060c4b300c60607004a
:1021ec0021c0b30020c0b3009c060700204580002e
:1021fc00e206070021c0b30000c3b3009706070036
:10220c006e8091008041eb0012c0b30041c0b3005e
:10221c00f8060700b0c7b300b706070060c4b300e8
:10222c00b506070000c2b300b30607005e98910024
:10223c000000e00027003a0031c0b30020c0b3001a
:10224c0086060700909a2800cc06070031c0b30020
:10225c0000c3b300810607006e0890008041eb00bc
:10226c000041eb0080c0eb00e206070050c2b30057
:10227c00a106070000c2b3009f06070000c2b3000e
:10228c009d0607006e089000f80f50001e003e00df
:10229c0011c0b3001e40900000c0500010479800c1
:1022ac001e4090000004e0001700320031c0b30063
:1022bc0000c3b30069060700509b2800af06070057
:1022cc0000c2b3008c06070000c2b3008a060700e8
:1022dc000d00370031c0b30020c0b3005f0607000b
:1022ec00909b2800a506070031c0b30000c3b300c3
:1022fc005a0607005e9891008041eb0012c0b300b3
:10230c0041c0b300bb06070041c0b3000040eb0066
:10231c00520607002e9091008041eb000041eb002b
:10232c0051c0b300b306070041c0b30080c1b30075
:10233c004a0607004e5090000000fb008041eb0065
:10234c000041eb0011c0b300aa0607000d003700d6
:10235c00821f20008040eb00607528004e060700ad
:10236c0041c0b30010c0b3003c06070000c2b3006c
:10237c0061060700ce009000004b2000008040005a
:10238c00400798004e509000e14f500068003a0012
:10239c00304480000000e00005003a00404480001a
:1023ac00e40f500002003e00c502a80001003700f7
:1023bc00c502a9006e849100c04480001c0a07006d
:1023cc00080178008000780020c0b3009a0707004d
:1023dc0013f9070000007800209799000e58900020
:1023ec00e14f500042003a000000eb0070079800eb
:1023fc00ce98910010042000808f50000c00340007
:10240c00ce98910010322000808f500008003c00c4
:10241c006e4090000040e800604798006e409000cd
:10242c00e94f5000020036000040eb006047980076
:10243c00ce98910020352000808f50000100340090
:10244c00c422a800ce98910040382000808f500004
:10245c0006003400c422a90010322000409f9900cd
:10246c006e9891000000e800609f99006e989100b2
:10247c00e90f500005003400c422a800902520006c
:10248c00409f9900a0002000609f990021048000cb
:10249c0000082000008060000000e00027003200ef
:1024ac002e0090000000e800200798002e009000fd
:1024bc00ea0f50000c003a004e9891000000e80022
:1024cc00409f9900ce98910080022000808f500090
:1024dc00030034005e9891000000e800509f9900c2
:1024ec000000eb002007980084e0a90013003700df
:1024fc00c422a9000000eb00609f990011e1a90023
:10250c000000eb00409f99007e0090000000e80066
:10251c0070079800fe009000300d2300808f500053
:10252c00060036000000eb00509f990003003700b6
:10253c000000eb00509f9900c422a900de080700a0
:10254c00005798000e509000e14f50003a003a00ae
:10255c000000eb0040079800904480000000e00071
:10256c0006003c000040eb0040579800904480006f
:10257c000000e800904488002b0037000c06070090
:10258c004205200051c0b30020702800c20507008e
:10259c0011c0b30040c0b300b0050700509c280028
:1025ac00f605070021c0b30040c0b300ab0507001f
:1025bc00709d2800f105070013003700be080700c6
:1025cc0000579800904480000000e8009044880078
:1025dc0000c4290001002000090a07009144800072
:1025ec00401f2000808f5000070034009228ef001d
:1025fc00ef0507004205200051c0b30020702800f1
:10260c00a5050700080037000e509000e24f50005f
:10261c00eaff3a00420207009228ef000048280027
:10262c00e1012000f60907004205200051c0b3006b
:10263c00a0652800980507000e509000e24f50004e
:10264c0035003a000000eb004007980090448000f1
:10265c000000e00006003c000040eb0040579800f2
:10266c00904480000000e800904488002a00370065
:10267c00cf0507004205200051c0b3002070280090
:10268c008505070011c0b3000040eb00730507007f
:10269c00709e2800b9050700130037008608070054
:1026ac0000579800904480000000e8009044880097
:1026bc0000c4290001002000d109070091448000ca
:1026cc00401f2000808f5000070034009228ef003c
:1026dc00b70507004205200051c0b3002070280048
:1026ec006d0507000c0037000e509000e24f5000b3
:1026fc00eaff3a009228ef009203070042052000ff
:10270c0051c0b300a06528006305070000482800ed
:10271c00e1012000ba0907000e509000e34f500071
:10272c0023013a000000eb00400798009044800021
:10273c000000e00006003c000040eb004057980011
:10274c00904480000000e80090448800130137009a
:10275c0090448000e10f50000a003c0094050700f3
:10276c004205200051c0b300207028004a05070024
:10277c000040eb0000579800006c2c00d1022000a8
:10278c009f0907000040eb00605798004500370098
:10279c00490807000057980000c4290001002000d8
:1027ac009709070091448000401f2000808f500043
:1027bc00020034009228ef00f80037000e50900011
:1027cc000080fb00e30f500005003200e40f5000c6
:1027dc000c003200e10f5000ef0032001500370002
:1027ec006e5090000040e900605798006e509000c9
:1027fc000004e0000c003d000040eb006057980026
:10280c000c0037006e5090000040e80060579800b4
:10281c006e509000e24f50000500340020c0b30011
:10282c0060579800030037000000000001003700db
:10283c00000000008040eb000040eb0007050700a3
:10284c00d0a028004d05070011c0b3000040eb00dc
:10285c00020507006e5090000000fb008000400055
:10286c00008a20000080400010007800430507001b
:10287c0031c0b3000040eb00f8040700e0a12800d1
:10288c003e05070041c0b3000040eb00f304070015
:10289c0030a3280039050700904480000000e800b0
:1028ac00904488000e509000e24f5000b8ff3a0060
:1028bc000040eb00005798003d0507004205200042
:1028cc0051c0b30020702800f30407008040eb00d7
:1028dc000040eb00e104070080a428002705070056
:1028ec006e5090000000fb008000400040892000ea
:1028fc000080400010007800cd08070080007800b0
:10290c006e5090000000fb000000400000004700eb
:10291c00609191006e5090000000fb0000004000a0
:10292c00000047003090910001027800820178008d
:10293c00000178008040eb00c0c2b300990707008b
:10294c00800078006e5090000000fb0000014000f9
:10295c004089200000004100100078009508070015
:10296c0011c0b3000040eb00bc04070040a52800d8
:10297c00020507006e5090000000fb008000400034
:10298c00a08920000080400010007800a8080700f3
:10299c0000027800430620005200200011c0b30052
:1029ac00c0c2b3007f070700800078006e50900013
:1029bc000000fb0000014000a08920000000410045
:1029cc00100078007b08070021c0b3000040eb002a
:1029dc00a2040700f0a52800e80407006e50900040
:1029ec000000fb0080004000e094280000804000c4
:1029fc00100078008e08070000027800830c20007d
:102a0c000001eb0021c0b300c0c2b3006507070092
:102a1c00800078006e5090000000fb000001400028
:102a2c00e0942800000041001000780061080700c5
:102a3c0031c0b3000040eb008804070060a62800fa
:102a4c00ce0407006e5090000000fb008000400098
:102a5c0040952800008040001000780074080700a2
:102a6c0000027800431f20000001eb0031c0b300ce
:102a7c00c0c2b3004b070700800078006e50900076
:102a8c000000fb00000140004095280000004100c0
:102a9c00100078004708070041c0b3000040eb006d
:102aac006e04070010a72800b40407006e509000b5
:102abc000000fb0080004000a09528000080400032
:102acc00100078005a080700000278004306200026
:102adc000001eb0041c0b300c0c2b30031070700d6
:102aec00800078006e5090000000fb000001400058
:102afc00a095280000004100100078002d08070068
:102b0c006e5090000000fb0080004000a095280053
:102b1c000080400010007800450807008004780011
:102b2c006e5090000000fb00800040004095280093
:102b3c0000804000100078003d0807000004780079
:102b4c006e5090000000fb0080004000e0942800d4
:102b5c0000804000100078003508070089017800db
:102b6c0008017800800078006e5090008505070001
:102b7c009228ef008e0407004205200051c0b300dc
:102b8c00a06528004404070000482800e10120004b
:102b9c009b080700010037000000000084040700b8
:102bac004205200051c0b300a06528003a0407007c
:102bbc000e509000e44f50000b003a00f304070055
:102bcc0000a82100610020008d0807007804070090
:102bdc000000eb00400798004205200051c0b300f4
:102bec00a06528002c040700ce009000f04a2000bd
:102bfc00808f500004003600c522a800004b200036
:102c0c004007980001003700c522a9004e519000e2
:102c1c00525798000060fe0003fc37000600fa00d3
:102c2c0020079800ae009000010f78000000eb0028
:102c3c00100798001e007800e90f500006003600bf
:102c4c009e0078006a8f50001e00900070004000bb
:102c5c0010079800f7ff37001e0090001e00400080
:102c6c00100798001e0090000080fa00000006007b
:102c7c000400fa00100798009e009000010f7800e5
:102c8c001e0078000000d100000f780080072000a3
:102c9c001e0f60001e0078004200de009e00400007
:102cac001e0090006f006000008040000080fa0061
:102cbc00000006000000fa00230020006104200040
:102ccc007205200024742000014a7800024a780022
:102cdc00034a780050052000303b8800a00a2000f1
:102cec00303b880027a6a80027e6a90031318000d8
:102cfc00003020000100700030318800600120009d
:102d0c002031880040022100203188001012200060
:102d1c002031880000932200203188002826ef0003
:102d2c0026e6a80026c6a80026a6a9002686a90085
:102d3c002666a9002646a9002626a9002606a90073
:102d4c0027e6a80027a6a9009bc0a8000080fa00cf
:102d5c00000006001400fa00881f780000047800b8
:102d6c000000000031318000000021000080600074
:102d7c000000e000fbff3a00313180000030200001
:102d8c00010070003031880020318000b8ff07004e
:102d9c003007980021318000010f78001e00780068
:102dac004800de00b2ff070040079800f00f20003b
:102dbc001e006000aeff0700500798002131800014
:102dcc00110798001e0090004800de00a8ff0700c5
:102ddc00600798009e009000f00f200000806000bb
:102dec00a3ff07007007980021318000210798008d
:102dfc002e0090004800de009dff0700000f980099
:102e0c00ae009000f00f20000080600098ff0700db
:102e1c00100f9800e600470006000900311c7800ee
:102e2c00e800b100080078004f0478000080fa0038
:102e3c00000006000e00fa000e007800c5ff070027
:102e4c008040eb000040eb00840307001e0078007c
:102e5c008041eb000041eb0021c0b300e50307000b
:102e6c00f0c2b300a40307001e00900080004000d5
:102e7c00208620000080400010007800bf0307006f
:102e8c00f0c2b3009c0307002e0090008041eb00c1
:102e9c000041eb0021c0b300d60307008040eb00db
:102eac0050c2b3006d0307003e009000800040004c
:102ebc00408520000080400010007800af03070020
:102ecc008040eb0020c3b300640307004e00900069
:102edc008041eb000041eb0021c0b300c5030700ab
:102eec00a0c3b300840307005e0090008041eb0098
:102efc000041eb0021c0b300be030700a0c3b30028
:102f0c007d0307006e0090008041eb000041eb0058
:102f1c0021c0b300b70307000080fa0000000600d0
:102f2c001400fa00889fbe006600470089ff070066
:102f3c000040eb00004f78000040eb001047980079
:102f4c000000eb0010079800480137001e009000ad
:102f5c000000e00005003a00950307004205200040
:102f6c0051c0b300e0a728004b0307001e009000df
:102f7c000000e800100798009e00900000712200ed
:102f8c00808f5000050036000000eb001007980001
:102f9c008703070010c0b30010479800a5ff070077
:102fac0021c0b30040c0b3002c030700a0b528001b
:102fbc007203070031c0b30040c0b3002703070001
:102fcc00f0b628006d0307001e4078000004e000f6
:102fdc0005003a0011c0b3000040eb001f030700ce
:102fec0040b82800650307001e407800e14f5000f0
:102ffc0005003a0011c0b3000040eb0017030700b6
:10300c0070b828005d0307001e407800e24f5000a6
:10301c0005003a0011c0b300c0c0b3000f03070095
:10302c00e0b82800550307001e407800e34f50001d
:10303c0005003a0011c0b30090c1b30007030700ac
:10304c0070b828004d0307001e407800e44f500074
:10305c000a003a0011c0b30050c2b300ff020700cf
:10306c0050b928004503070011c0b30020c3b300ba
:10307c00fa02070040b82800400307001e40780001
:10308c00e54f500005003a0011c0b30020c3b30057
:10309c00f202070090b92800380307001e407800a0
:1030ac00e64f500005003a0011c0b300e0c3b30076
:1030bc00ea02070090b9280030030700fe0507005c
:1030cc00404798004e4090000000fb00e30f50007a
:1030dc005d003200e40f500003003200e20f50009c
:1030ec00ae003200bd0037001e4078000004e00046
:1030fc000a003a00be00900030062000808f50007d
:10310c0003003a000000eb00300798000300370082
:10311c003e0090000000e800300798001e40780048
:10312c00e14f500009003a004e009000ec0f5000a7
:10313c0003003a00100020004007980003003700fd
:10314c004e0090000000e800400798001e407800f8
:10315c00e24f500009003a005e009000ff0f500053
:10316c0003003a00100020005007980003003700bd
:10317c005e0090000000e800500798001e407800a8
:10318c00e34f500009003a006e009000e60f50002b
:10319c0003003a000000eb006007980003003700c2
:1031ac006e0090000000e800600798001e40780058
:1031bc00e44f500009003a007e009000f70f5000d9
:1031cc0003003a000000eb00700798000300370082
:1031dc007e0090000000e800700798001e40780008
:1031ec00e54f50000a003a008e089000b003200012
:1031fc00808f500003003a000000eb00000f980095
:10320c00030037000e0890000000e800000f980043
:10321c001e407800e64f50006d003a009e0890006a
:10322c00b0032000808f500003003a000000eb0038
:10323c00100f9800690037001e0890000000e8008d
:10324c00100f9800650037001e4078000004e00065
:10325c0009003a003e0090000000e00003003a0034
:10326c003006200030079800030037003e00900025
:10327c000000e900300798001e407800e14f500034
:10328c0009003a004e009000e10f500003003a0094
:10329c00c000200040079800030037004e0090004b
:1032ac000000e900400798001e407800e24f5000f3
:1032bc0009003a005e009000e10f500003003a0054
:1032cc00f001200050079800030037005e009000ca
:1032dc000000e900500798001e407800e34f5000b2
:1032ec0009003a006e0090000000e00003003a0074
:1032fc006000200060079800030037006e0090000b
:10330c000000e900600798001e407800e44f500070
:10331c0009003a007e0090000000e00003003a0033
:10332c007001200070079800030037007e009000a9
:10333c000000e900700798001e407800e54f50002f
:10334c0009003a000e0890000000e00003003a006b
:10335c00b0032000000f9800030037000e08900007
:10336c000000e900000f98001e407800e64f500066
:10337c0019003a001e0890000000e00003003a001b
:10338c00b0032000100f9800140037001e089000a6
:10339c000000e900100f9800100037001e40780064
:1033ac00e64f500006003a000040eb00004f78005a
:1033bc007f02070010c0b3001047980007003700c9
:1033cc001e4078000040e800004f780003003700f2
:1033dc00000000000100370000000000580520002c
:1033ec00383b8800a80a2000383b880027a6a80094
:1033fc0027e6a90031318000003020000100700068
:10340c00303188003e00900004fe07002031880017
:10341c004e00900001fe0700c804dd005e00900025
:10342c00fefd070000804400203188006e009000f3
:10343c00fafd0700c804dd007e009000f7fd0700d0
:10344c0000804400203188000e089000f3fd070036
:10345c00c804dd001e089000f0fd07000080440049
:10346c002031880027e6a80027a6a9001e4090005e
:10347c000004e000b5fe32004d020700a668ef0024
:10348c004f04be000080fa00000006000600fa009f
:10349c00000f780011079800220798001e00780092
:1034ac008000400020b2280000804000100078000e
:1034bc00df0507009e009000810f50000b003a00c2
:1034cc001e0078008000400000b3280000804000ff
:1034dc0010007800d6050700ae009000810f500058
:1034ec0002003a0010c0b300a8e8b7001e00780034
:1034fc0080004000e0b328000080400010007800fd
:10350c00cb0507009e009000810f50000a003a0086
:10351c001e00780080004000c0b4280000804000ed
:10352c0010007800c2050700ae009000810f50001b
:10353c0001003a00a868ef00a8c8bf000080fa009c
:10354c00000006000200fa000000eb00000f7800fb
:10355c00aa68ef0040003700d7040700aae8b700bc
:10356c00c05d20009e007800808f500087003c00da
:10357c00aac8bf000080fb00e30f5000030032001c
:10358c00e40f50000900320014003700a9c8bf0036
:10359c000040e900a9e8b700a9c8bf000004e0009a
:1035ac000b003d00a968ef000c003700a9c8bf0054
:1035bc000040e800a9e8b700a9c8bf00e64f5000da
:1035cc000500340060c0b300a9e8b7000300370061
:1035dc000000000001003700000000001e00780011
:1035ec00e20f500005003c00f101070042052000ed
:1035fc0051c0b300e0a72800a701070011c0b30019
:10360c000040eb0095010700f0b92800db01070032
:10361c00a9c8bf000000fb008000400040852000ce
:10362c000080400010007800d401070031c0b300c6
:10363c000040eb0089010700f0ba2800cf01070019
:10364c0041c0b3000040eb008401070040bc2800df
:10365c00ca0107001e0fe800aac8bf00e24f5000c5
:10366c00bdff3a00d20107004205200051c0b30053
:10367c00e0a7280088010700a9c8bf000000fb00d4
:10368c008000400020b2280000804000100078002c
:10369c006705070000407800420007008000fb002f
:1036ac00a9c8bf000000fb000001400020b22800a8
:1036bc0000004100100078003e050700a9c8bf00bb
:1036cc000000fb008000400000b328000080400098
:1036dc001000780056050700004078007c000700b9
:1036ec008000fb00a9c8bf000000fb0000014000e7
:1036fc0000b3280000004100100078002d050700e1
:10370c00a9c8bf000000fb0080004000e0b3280007
:10371c00008040001000780045050700004078004c
:10372c00b70007008000fb00a9c8bf000000fb0029
:10373c0000014000e0b328000000410010007800b8
:10374c001c050700a9c8bf000000fb00800040005a
:10375c00c0b4280000804000100078003405070039
:10376c0000407800f10007008000fb00a9c8bf00f2
:10377c000000fb0000014000c0b428000000410024
:10378c00100078000b050700010037000000000056
:10379c00870107000000eb00000f78000080fa00a2
:1037ac00000006000600fa00404798000000eb00fd
:1037bc00000f7800ce409000214798000040eb00ad
:1037cc00304798003c040700304798003800370019
:1037dc0039040700304798001e0fe80000a62e00a1
:1037ec000100200086050700401f20009e00780085
:1037fc00808f5000040034000000eb00000f7800b4
:10380c0020c0b3003047980011c0b3000040eb005b
:10381c001201070050bd28005801070011c0b30069
:10382c00d0c3b3000d0107002e4090000000fb0038
:10383c008041eb000041eb0021c0b3006d0107009b
:10384c003e4090000000fb00e30f500003003200ec
:10385c00e40f50000a003200150037002e40900093
:10386c000040e900204798002e4090000004e00042
:10387c000c003d0070c1b300204798000c003700cd
:10388c002e4090000040e800204798002e40900009
:10389c00f74f5000050034000040eb002047980023
:1038ac00030037000000000001003700000000009a
:1038bc003e409000e24f5000c5ff3a000000eb0084
:1038cc00000f78002e4090000080fa0000000600e7
:1038dc000600fa00404798000000eb00000f78004b
:1038ec00ce409000214798000040eb0030479800f4
:1038fc00f10307003047980039003700ee0307004a
:10390c00304798001e0fe800003e290041002000bf
:10391c003b050700c05d20009e007800808f5000a2
:10392c00040036000000eb00000f780020c0b3004c
:10393c003047980021c0b3000040eb00c7000700df
:10394c0030be28000d01070021c0b300d0c3b30066
:10395c00c20007002e4090000000fb008041eb00ed
:10396c000041eb0021c0b300220107003e40900053
:10397c000000fb00e30f500003003200e40f500086
:10398c000a003200160037002e40900065405000af
:10399c00204798002e4090000004e0000d003d00f0
:1039ac0070c3b300204798000d0037002e409000e4
:1039bc006540400020479800ae40900070c3b300b3
:1039cc0080cf5000050034000040eb0020479800e9
:1039dc000300370000000000010037000000000069
:1039ec003e409000e24f5000c4ff3a000000eb0054
:1039fc00000f78002e4090000080fa0000000600b6
:103a0c000600fa00404798000000eb00000f780019
:103a1c00ce409000214798000040eb0030479800c2
:103a2c00a50307003047980038003700a2030700b1
:103a3c00304798001e0fe800003e2900410020008e
:103a4c00ef040700c05d20009e007800808f5000be
:103a5c00040036000000eb00000f780020c0b3001b
:103a6c003047980031c0b3000040eb007b000700ea
:103a7c0030bf2800c100070031c0b300d0c3b30071
:103a8c00760007002e4090000000fb008041eb0008
:103a9c000041eb0021c0b300d60007003e4090006f
:103aac000000fb00e30f500003003200e40f500055
:103abc000a003200150037002e4090000040e9004b
:103acc00204798002e4090000004e0000c003d00c0
:103adc0070c1b300204798000c0037002e409000b6
:103aec000040e800204798002e409000f74f50000f
:103afc00050034000040eb0020479800030037001d
:103b0c000000000001003700000000003e40900063
:103b1c00e24f5000c5ff3a000000eb00000f7800a8
:103b2c002e4090000080fa00000006000600fa000b
:103b3c00404798000000eb00000f7800ce4090004a
:103b4c00214798000040eb00304798005a030700cb
:103b5c00304798003900370057030700304798006a
:103b6c001e0fe800003e290041002000a4040700bd
:103b7c00c05d20009e007800808f5000040036004d
:103b8c000000eb00000f780020c0b3003047980015
:103b9c0041c0b3000040eb0030000700f0bf28002c
:103bac007600070041c0b300d0c3b3002b00070060
:103bbc002e4090000000fb008041eb000041eb0028
:103bcc0021c0b3008b0007003e4090000000fb00ba
:103bdc00e30f500003003200e40f50000a003200e3
:103bec00160037002e40900065405000204798008a
:103bfc002e4090000004e0000d003d0070c3b300a7
:103c0c00204798000d0037002e4090006540400082
:103c1c0020479800ae40900070c3b30080cf500096
:103c2c00050034000040eb002047980003003700eb
:103c3c000000000001003700000000003e40900032
:103c4c00e24f5000c4ff3a000000eb00000f780078
:103c5c002e4090000080fa00000006000200fa00de
:103c6c00004f78001147980000c8b3001e40700048
:103c7c00804078000040eb00e30007001e409000fd
:103c8c000064a000804078000040eb00de000700dc
:103c9c000080fa00000006000800fa0010079800e7
:103cac0041479800320798004e40900080407800c1
:103cbc000040eb00e9ff07000000eb00000f78006c
:103ccc00070037001e0090001e00400010407800d6
:103cdc008040780010c0b300cb0007001e0fe80036
:103cec003e0090009e007800808f5000f5ff390058
:103cfc000080fa00000006000400fa00204798003b
:103d0c002e4090000000fb000002b100000f780074
:103d1c001e0078006300b90000007800000f7800e6
:103d2c00e0c028001e004000104078008040780061
:103d3c0010c0b300b40007001e00e800e1c028006a
:103d4c00614078008040780010c0b300ae000700de
:103d5c001e80e800e1c028006140780080407800b7
:103d6c0010c0b300a80007008040eb0010c0b300e7
:103d7c00a50007000080fa00000006000200fa000f
:103d8c00000f7800040037001e0078001040780007
:103d9c001e0fe800d8ff07001e00780010407800c6
:103dac000004e000f8ff3a000080fa000000060072
:103dbc000200fa000000eb00000f7800040037004e
:103dcc008040eb0010c0b3008f0007001e0fe8000e
:103ddc00701f20009e007800808f5000f8ff340088
:103dec008040eb000040eb009cff07000080fa00d5
:103dfc00000006001000fa0050079800414f980090
:103e0c00524f9800634f9800e400470001000900ee
:103e1c008018eb008058eb0040002000000f780069
:103e2c000000eb00100798005e0090000000e0001e
:103e3c0006003d00d0c2b300afff07005e0090004b
:103e4c000000ea0050079800180037006e489000f8
:103e5c00e14f500015003a00b0c2b300a6ff0700b6
:103e6c0012003700de009000a00020000001780056
:103e7c00110009008200d8008000fd00804078000d
:103e8c00640047001e004000014878005e0190006d
:103e9c00706626000090b900c288de004f90de00ec
:103eac0000805000500798001e0fe9005e00900043
:103ebc000000e000ebff3a004e489000e14f40005c
:103ecc000b003a00030037001e0090000000e800d1
:103edc0010079800e40047001e009000008040008e
:103eec00104078000004e000f7ff320004003700b7
:103efc004e4890000000fb00650010001007980071
:103f0c009e009000010f7800060037006400470007
:103f1c001e004000104078000043b00076ff070000
:103f2c001e0fe8005e4890000000fb0065001000ca
:103f3c009e0f5000f5ff3c005e489000e14f500092
:103f4c0005003a00e0c2b3006bff07000e4890007a
:103f5c000043b00068ff07005e489000e24f50003d
:103f6c0008003a00e0c2b30063ff07007e409000f7
:103f7c000043b00060ff07000e4890000043b00003
:103f8c005dff07000080fa00000006000000fa0048
:103f9c00d0a2a900d082a900d062a900d0e2a900c9
:103fac00d0c2a900d482a900d4a2a900d462a900cd
:103fbc00d4c2a900d4c2a80011c2b3000040eb00c7
:103fcc0011000700b1cbb3000040eb000e0007005e
:103fdc0041c0b3000040eb000b00070041c1b3002f
:103fec000040eb000800070001c2b3000040eb00ea
:103ffc0005000700c1c0b3000040eb000200070041
:10400c000080fa00000006000400fa002047980027
:10401c0031479800be409000114798002e40900008
:10402c000004e00002003a00d462a900010037004d
:10403c00d462a800d4e2a9000040eb00004f780045
:10404c000b003700d482a9001e4090000004e00051
:10405c0001003d00d482a800d4a2a8001e4090000c
:10406c000040400010479800d4a2a9001e4fe80061
:10407c001e407800e74f5000f2ff3600d4e2a80053
:10408c000080fa00000006000200fa000000eb00bd
:10409c00000f7800080037001e0078000040780000
:1040ac008040eb00edfe070011c0b30010c0b30060
:1040bc00d5ff07001e0fe800300520009e00780099
:1040cc00808f5000f4ff34000000eb00000f7800ec
:1040dc00080037001e0078000040780051c0b30083
:1040ec00defe070001c8b30010c0b300c6ff070016
:1040fc001e0fe800300520009e007800808f5000d5
:10410c00f4ff34000000eb00000f780009003700ca
:10411c001e007800004078008040780030c5b30065
:10412c00cefe070080c0eb0010c0b300b6ff070046
:10413c001e0fe8001e007800e50f5000f4ff34005d
:10414c000000eb00000f7800090037001e0078001b
:10415c0000407800804078000040eb00bffe070074
:10416c0080c0eb0010c0b300a7ff07001e0fe800d3
:10417c001e007800e50f5000f4ff34000080fa00b8
:10418c00000006000800fa00881f7800004f780035
:10419c001107980022079800330798001e04fb00b3
:1041ac001e009000cf80de00d9f10700c241dd0077
:1041bc0002802000028141000089be001e04fb0029
:1041cc002e009000cf80de00d1f10700c241dd004f
:1041dc00c2802000028141000089be001e04fb0049
:1041ec003e009000cf80de00c9f10700c241dd0027
:1041fc0082812000028141000089be001e00fb006c
:10420c00c200dd00a0822000008140006000b800e8
:10421c000089be001e00fb00c200dd0020842000cf
:10422c00008140006000b8000089be004f04780097
:10423c000080fa00000006001600fa00889fbe00fd
:10424c008a1f780000579800110f9800220f9800d1
:10425c006000b80020079800310798009e08900075
:10426c002e089000008050008000eb00abf107009e
:10427c0040079800510798000e5090000080fb00fa
:10428c00c200dd0000802000008040001000be0055
:10429c004e019000de019000f5f1070060079800d8
:1042ac00710798000e5090000085fb000e50900096
:1042bc000080fb00c200dd00a082200000804000d6
:1042cc001004be000e5090000080fb00c200dd0008
:1042dc00c0802000008040001000be004e01900005
:1042ec00de019000e2f107000001be000800be00f4
:1042fc00a8f00700c251dd00a2822000028141001b
:10430c000089be000e5090000080fb00c200dd0052
:10431c00a0822000008040001004be000e509000cf
:10432c000080fb0080004000e08420000080400002
:10433c0010007800cf80de0075f107001ac0b300c2
:10434c000001be000800be0031f107000000e000d3
:10435c00010035000045eb000a04e0000e003200bd
:10436c000e5090000084fb000e5090000080fb006b
:10437c0080004000e08420000080400010007800a5
:10438c00cf80de0062f10700c241dd00a282200076
:10439c00028141000089be000e5090000080fb009d
:1043ac00c200dd00a0822000008040001004be008e
:1043bc000e5090000080fb008000400040822000e6
:1043cc000080400010007800cf80de0050f1070024
:1043dc001ac0b3000001be000800be000ef10700b9
:1043ec000000e00001003c000045eb000a04e00086
:1043fc000e0032000e5090000084fb000e50900016
:10440c000080fb00800040004082200000804000c3
:10441c0010007800cf80de003df10700c241dd00c6
:10442c00a2822000028141000089be000e50900043
:10443c000080fb00c200dd00608320000080400093
:10444c001000be000001be004e009000de00900087
:10445c004ff007000002be000e5090000080fb00e1
:10446c00c200dd0080812000008040001000be00f2
:10447c000001be000400be007df10700200798007b
:10448c00310798000e5090000080fb00c200dd0048
:10449c0060832000008040004e019000de019000ff
:1044ac000288be000e5090000080fb00c200dd00b0
:1044bc00a0822000008040001000be006e01900021
:1044cc00fe01900033f007002e019000be01900019
:1044dc0030f00700008fbe000e5090000080fb00f3
:1044ec0080004000e0842000008040001000780034
:1044fc00cf80de0006f1070018c0b3001e01be001d
:10450c00c5f007000000e00001003c000044eb0097
:10451c000804e000090032000e5090000080fb00ff
:10452c0080004000e08420000080400010007800f3
:10453c00cf80de00f6f00700008fbe000e5090001a
:10454c000080fb0080004000408220000080400082
:10455c0010007800cf80de00edf0070018c0b3002b
:10456c001e01be00aaf007000000e00001003500ab
:10457c000044eb000804e000090032000e509000eb
:10458c000080fb0080004000408220000080400042
:10459c0010007800cf80de00ddf00700008fbe0039
:1045ac001e00be004f0578004f04be000080fa00cc
:1045bc00000006000400fa000040eb00004f7800f9
:1045cc005a40a800c042a800c122a800c062a9009d
:1045dc00c162a900c462a800c562a900d000200075
:1045ec00ac01070010079800c462a9005a40a9004a
:1045fc009e009000b00d2000808f500002003c0007
:10460c00b468ef00b568ef009e009000b00d20007c
:10461c00808f5000070034009e009000104e200048
:10462c00808f500003003c0010c0b300004f780096
:10463c00140037009e009000104e2000808f500018
:10464c00070034009e00900030832000808f5000c3
:10465c0003003c0020c0b300004f78000900370075
:10466c009e00900030832000808f500003003400a7
:10467c0030c0b300004f7800020037000040eb0060
:10468c00004f78001e407800e14f500003003a00c4
:10469c0010c0b300b4e8b7000e0037001e4078001d
:1046ac00e24f500003003a0020c0b300b4e8b7005a
:1046bc00080037001e407800e34f500003003a001a
:1046cc0030c0b300b4e8b70002003700b468ef00a4
:1046dc00b568ef00b4c8bf000004e000230032004e
:1046ec008000200001002000c5010700b4c8bf00f5
:1046fc00b6e8b700b5c8bf000040e800b5e8b700a1
:10470c00b5c8bf00e14f500002003a00b6c8bf0068
:10471c0017003700b5c8bf00e14f50000700360046
:10472c00518b20009140780020c3b30080cf500003
:10473c0002003e0040c0b3000d003700518b20003a
:10474c009140780020c3b30080cf500005003600a4
:10475c0000d4200031002000a9010700b6c8bf001a
:10476c00030037000040eb00010037000040eb0075
:10477c000080fa00000006000200fa00000f78002a
:10478c00203320009e007800808f500002003c00f7
:10479c001e007800010037001e0078000080fa002f
:1047ac00000006000c00fa004047980051479800a2
:1047bc00320798004307980054079800de009000d9
:1047cc00010f78003c0007002047980033003700a9
:1047dc003900070020479800c04580000000e80021
:1047ec00c045880000c42900010020008401070096
:1047fc00c1458000803e2000808f500004003400b2
:10480c006bfd0700b828ef000040eb002047980034
:10481c00de4090004e40900010fd07008041eb0000
:10482c0012c0b30041c0b3001e00780071fd070038
:10483c002e4090000000fb00e30f500003003200fc
:10484c00e40f500009003200130037001e0fe9007e
:10485c003e0090009e007800808f50000b003c00c2
:10486c00be009000010f78000b0037001e0fe8000f
:10487c004e0090009e007800808f5000050035009f
:10488c00ce009000010f78000300370000000000fc
:10489c0001003700000000000060fe002e40900078
:1048ac00e24f5000caff3a00b828ef001e00780013
:1048bc000080fa00000006000000fa0070002000e2
:1048cc00f40007007045880071458000c05d200031
:1048dc00808f5000070036007145800090872000c3
:1048ec00808f500003003e0010c0b300b0e8b7004a
:1048fc001e0037007145800090872000808f50008b
:10490c00070036007145800010a82000808f5000f1
:10491c0003003e0020c0b300b0e8b700130037001e
:10492c007145800010a82000808f500007003600d1
:10493c0071458000d0dd2000808f500003003e00c8
:10494c0030c0b300b0e8b7000800370071458000f4
:10495c00e0dd2000808f50000300360040c0b30023
:10496c00b0e8b70001003700b068ef00b0c8bf0076
:10497c000004e00019003200018b20009140780007
:10498c00b1c8bf0080cf500004003200b0c8bf00d7
:10499c00b1e8b700b268ef0013003700b2c8bf002f
:1049ac000040e800b2e8b700b2c8bf00e14f5000c9
:1049bc0002003a00b1c8bf000c003700b2c8bf00fb
:1049cc00ea4f50000700340000122a00710020004a
:1049dc000b010700b1c8bf0004003700b268ef003c
:1049ec0001003700000000000040eb000080fa00de
:0449fc0000000600b1
:020000040000fa
:104a0000a808000006000000000000005408000094
:104a10002800000002000000d28ad6008ada8a004c
:104a2000de8ae2008ae68a00ea8aee008af28a00da
:104a3000f68afa008afe8a00028b06008b0a8b0037
:104a40000e8b12008b168b001a8b1e008b00000041
:104a5000b80800000200000000000000b4080000d8
:104a60000400000000000000000800002a00000010
:104a70000200000000004800420000004842000020
:104a8000004842000000700041000000704100003a
:104a9000007041000000c80041000000c841000053
:104aa00000c84100ff1fff001fff1f002a08000071
:104ab0002a00000000000000ae0800000600000010
:104ac000000000007c08000018000000000000004a
:104ad0009408000014000000020000000000020022
:104ae0000004000006000800000a000060896c0055
:0c4af0008978890001000000000000002f
:020000040000fa
:104afc000000fa0005e1a9000421a80021088000ab
:104b0c00f0cf2f0000806000200888002108800072
:104b1c00f0fc2f00008060000040a00020088800fe
:104b2c000021ef00f03f20001008880005e1a800ec
:104b3c0011e1a90000d324006008880011e1a8004d
:104b4c000080fa00000006000000fa00aa21ef0025
:104b5c00310d800000fe2f0000806000b000b3001b
:104b6c00300d8800a6e1a900210d8000f03f2e0039
:104b7c000080600000c0a000200d8800ac21ef0078
:104b8c00210d800080ff2f00008060006000b300ca
:104b9c00200d88000080fa00000006000200fa00d8
:104bac00000f78009e007800510d88000080fa00fc
:104bbc00000006000400fa00000f780011079800ae
:104bcc0040002400003b8800f007200000407800e3
:104bdc0032e0b70001e02f001e007800008040009a
:104bec00000f78009e0090001e0078000108bb00aa
:104bfc000500fc0050052000303b8800a00a200076
:104c0c00303b880061e7a8000000000000000000b5
:104c1c0000000000013b80000000280000806000c4
:104c2c000000e000fbff3a000080fa0000000600e4
:104c3c000200fa00000f7800f00720000040780016
:104c4c0032e0b70001e02f001e0078000080400029
:104c5c00000f78001e0078001000ba000080fa00e7
:104c6c00000006000000fa0000402800001a88002e
:104c7c004223ef0050002000201a88004823ef0048
:104c8c005023ef0000042000701a88000080fa0006
:104c9c00000006000400fa00100798009e00900027
:104cac00411a8800401a8000fa0f500004003a00a4
:104cbc005583a800000520000100200050000700cb
:104ccc004023a80040062000010020004c000700f3
:104cdc004023a9000100370085a0a900001a80001c
:104cec00610060000000e000fbff32005583a9006a
:104cfc0001188000010f78001e0078000080fa0077
:104d0c00000006000000fa000080fa000000060017
:104d1c000000fa000008200000168800c0c0200027
:104d2c00401688003020200080168800e024ef0018
:104d3c00c0002000102788003000200020278800a9
:104d4c00c222ef00ca22ef00d222ef00002028007e
:104d5c00700388009000200080038800e9ff0700a2
:104d6c00c0ff070089fc070000a82100610020009b
:104d7c00230007000efc0700cef707000080fa00a6
:104d8c00000006000200fa00e0002000c1ff07004e
:104d9c00000f7800b03120009e007800808f50000a
:104dac0003003c000000eb00000f780010003700ff
:104dbc0020f820009e007800808f50000300340003
:104dcc0040062000000f78000900370041ce2f006c
:104ddc001e804000cf80de00cdee070052b82e00c2
:104dec00d31f240048ee07008dee0700000f78005b
:104dfc001e007800004078000080fa0000000600d9
:020000040000fa
:104e0c00f03fb1000180b10006003500ee0309004f
:104e1c0000000000403fb1000180b100fbff3d00ed
:104e2c001000b000203fb0000200350000800900e7
:084e3c00000000000000060068
:020000040000fa
:0200000400fffb
:10fc000000000000000000000000000000000000f4
:10fc100000000000000000000000000000000000e4
:10fc200000000000000000000000000000000000d4
:10fc300000000000000000000000000000000000c4
:10fc400000000000000000000000000000000000b4
:10fc500000000000000000000000000000000000a4
:10fc60000000000000000000000000000000000094
:10fc70000000000000000000000000000000000084
:10fc80000000000000000000000000000000000074
:10fc90000000000000000000000000000000000064
:0cfca00000000000000000000000000058
:020000040000fa
:0200000401f009
:04000000ffff0000fe
:020000040000fa
:0200000401f009
:04000800ffff0000f6
:020000040000fa
:0200000401f009
:04000c00ffff0000f2
:020000040000fa
:0200000401f009
:04001000bbff000032
:020000040000fa
:0200000401f009
:04001400ffff0000ea
:020000040000fa
:0200000401f009
:04001800ffff0000e6
:020000040000fa
:0200000401f009
:04001c00ffff0000e2
:020000040000fa
:0200000401f009
:04002000ffff0000de
:00000001FF
