:020000040000fa
:080000000002040000000000f2
:020000040000fa
:04000800c80200002a
:020000040000fa
:04000c00c802000026
:020000040000fa
:04001000c802000022
:020000040000fa
:04001400c80200001e
:020000040000fa
:04001800c80200001a
:020000040000fa
:04001c00c802000016
:020000040000fa
:04002000c802000012
:020000040000fa
:04002400c80200000e
:020000040000fa
:04002800c80200000a
:020000040000fa
:04002c00c802000006
:020000040000fa
:04003000c802000002
:020000040000fa
:04003400c8020000fe
:020000040000fa
:04003800c8020000fa
:020000040000fa
:04003c00c8020000f6
:020000040000fa
:04004000c8020000f2
:020000040000fa
:04004400c8020000ee
:020000040000fa
:04004800c8020000ea
:020000040000fa
:04004c00c8020000e6
:020000040000fa
:04005000c8020000e2
:020000040000fa
:04005400c8020000de
:020000040000fa
:04005800c8020000da
:020000040000fa
:04005c00c8020000d6
:020000040000fa
:04006000c8020000d2
:020000040000fa
:04006400c8020000ce
:020000040000fa
:04006800c8020000ca
:020000040000fa
:04006c00c8020000c6
:020000040000fa
:04007000c8020000c2
:020000040000fa
:04007400c8020000be
:020000040000fa
:04007800c8020000ba
:020000040000fa
:04007c00c8020000b6
:020000040000fa
:04008000c8020000b2
:020000040000fa
:04008400c8020000ae
:020000040000fa
:04008800c8020000aa
:020000040000fa
:04008c00c8020000a6
:020000040000fa
:04009000c8020000a2
:020000040000fa
:04009400c80200009e
:020000040000fa
:04009800c80200009a
:020000040000fa
:04009c00c802000096
:020000040000fa
:0400a000c802000092
:020000040000fa
:0400a400c80200008e
:020000040000fa
:0400a800c80200008a
:020000040000fa
:0400ac00c802000086
:020000040000fa
:0400b000c802000082
:020000040000fa
:0400b400c80200007e
:020000040000fa
:0400b800c80200007a
:020000040000fa
:0400bc00c802000076
:020000040000fa
:0400c000c802000072
:020000040000fa
:0400c400c80200006e
:020000040000fa
:0400c800c80200006a
:020000040000fa
:0400cc00c802000066
:020000040000fa
:0400d000c802000062
:020000040000fa
:0400d400c80200005e
:020000040000fa
:0400d800c80200005a
:020000040000fa
:0400dc00c802000056
:020000040000fa
:0400e000c802000052
:020000040000fa
:0400e400c80200004e
:020000040000fa
:0400e800c80200004a
:020000040000fa
:0400ec00c802000046
:020000040000fa
:0400f000c802000042
:020000040000fa
:0400f400c80200003e
:020000040000fa
:0400f800c80200003a
:020000040000fa
:0400fc00c802000036
:020000040000fa
:04010000c802000031
:020000040000fa
:04010400c80200002d
:020000040000fa
:04010800c802000029
:020000040000fa
:04010c00c802000025
:020000040000fa
:04011000c802000021
:020000040000fa
:04011400c80200001d
:020000040000fa
:04011800c802000019
:020000040000fa
:04011c00c802000015
:020000040000fa
:04012000c802000011
:020000040000fa
:04012400c80200000d
:020000040000fa
:04012800c802000009
:020000040000fa
:04012c00c802000005
:020000040000fa
:04013000c802000001
:020000040000fa
:04013400c8020000fd
:020000040000fa
:04013800c8020000f9
:020000040000fa
:04013c00c8020000f5
:020000040000fa
:04014000c8020000f1
:020000040000fa
:04014400c8020000ed
:020000040000fa
:04014800c8020000e9
:020000040000fa
:04014c00c8020000e5
:020000040000fa
:04015000c8020000e1
:020000040000fa
:04015400c8020000dd
:020000040000fa
:04015800c8020000d9
:020000040000fa
:04015c00c8020000d5
:020000040000fa
:04016000c8020000d1
:020000040000fa
:04016400c8020000cd
:020000040000fa
:04016800c8020000c9
:020000040000fa
:04020800c802000028
:020000040000fa
:04020c00c802000024
:020000040000fa
:04021000c802000020
:020000040000fa
:04021400c80200001c
:020000040000fa
:04021800c802000018
:020000040000fa
:04021c00c802000014
:020000040000fa
:04022000c802000010
:020000040000fa
:04022400c80200000c
:020000040000fa
:04022800c802000008
:020000040000fa
:04022c00c802000004
:020000040000fa
:04023000c802000000
:020000040000fa
:04023400c8020000fc
:020000040000fa
:04023800c8020000f8
:020000040000fa
:04023c00c8020000f4
:020000040000fa
:04024000c8020000f0
:020000040000fa
:04024400c8020000ec
:020000040000fa
:04024800c8020000e8
:020000040000fa
:04024c00c8020000e4
:020000040000fa
:04025000c8020000e0
:020000040000fa
:04025400c8020000dc
:020000040000fa
:04025800c8020000d8
:020000040000fa
:04025c00c8020000d4
:020000040000fa
:04026000c8020000d0
:020000040000fa
:04026400c8020000cc
:020000040000fa
:04026800c8020000c8
:020000040000fa
:04026c00c8020000c4
:020000040000fa
:04027000c8020000c0
:020000040000fa
:04027400c8020000bc
:020000040000fa
:04027800c8020000b8
:020000040000fa
:04027c00c8020000b4
:020000040000fa
:04028000c8020000b0
:020000040000fa
:04028400c8020000ac
:020000040000fa
:04028800c8020000a8
:020000040000fa
:04028c00c8020000a4
:020000040000fa
:04029000c8020000a0
:020000040000fa
:04029400c80200009c
:020000040000fa
:04029800c802000098
:020000040000fa
:04029c00c802000094
:020000040000fa
:0402a000c802000090
:020000040000fa
:0402a400c80200008c
:020000040000fa
:0402a800c802000088
:020000040000fa
:0402ac00c802000084
:020000040000fa
:0402b000c802000080
:020000040000fa
:0402b400c80200007c
:020000040000fa
:0402b800c802000078
:020000040000fa
:0402bc00c802000074
:020000040000fa
:0402c000c802000070
:020000040000fa
:0402c400c80200006c
:020000040000fa
:0402c800c802000068
:020000040000fa
:0402cc00c802000064
:020000040000fa
:0402d000c802000060
:020000040000fa
:0402d400c80200005c
:020000040000fa
:0402d800c802000058
:020000040000fa
:0402dc00c802000054
:020000040000fa
:0402e000c802000050
:020000040000fa
:0402e400c80200004c
:020000040000fa
:0402e800c802000048
:020000040000fa
:0402ec00c802000044
:020000040000fa
:0402f000c802000040
:020000040000fa
:0402f400c80200003c
:020000040000fa
:0402f800c802000038
:020000040000fa
:0402fc00c802000034
:020000040000fa
:04030000c80200002f
:020000040000fa
:04030400c80200002b
:020000040000fa
:04030800c802000027
:020000040000fa
:04030c00c802000023
:020000040000fa
:04031000c80200001f
:020000040000fa
:04031400c80200001b
:020000040000fa
:04031800c802000017
:020000040000fa
:04031c00c802000013
:020000040000fa
:04032000c80200000f
:020000040000fa
:04032400c80200000b
:020000040000fa
:04032800c802000007
:020000040000fa
:04032c00c802000003
:020000040000fa
:04033000c8020000ff
:020000040000fa
:04033400c8020000fb
:020000040000fa
:04033800c8020000f7
:020000040000fa
:04033c00c8020000f3
:020000040000fa
:04034000c8020000ef
:020000040000fa
:04034400c8020000eb
:020000040000fa
:04034800c8020000e7
:020000040000fa
:04034c00c8020000e3
:020000040000fa
:04035000c8020000df
:020000040000fa
:04035400c8020000db
:020000040000fa
:04035800c8020000d7
:020000040000fa
:04035c00c8020000d3
:020000040000fa
:04036000c8020000cf
:020000040000fa
:04036400c8020000cb
:020000040000fa
:04036800c8020000c7
:020000040000fa
:100400002f8c20000eff20000e018800000000004d
:10041000000020000000e000020032000001200087
:1004200020028800140007005b0007000000e000c5
:1004300003003a00a07922000100200002003700ea
:100440000000200001002000810f70000100320038
:1004500014000700000020000000e000020032004d
:100460000000020000000000080e02000000000072
:100470000040da000000fe004440a900606e200049
:100480000000e0000300320000002000a00188000e
:100490004440a800000006008a1f78008b1f7800e7
:1004a0000000060091018800800478000000eb0045
:1004b0001a003700e284440032a0b4009905ba0063
:1004c000e284440032a0b4009906ba00e2844400f9
:1004d00032a0b4000006eb00476fde00fd07b2005b
:1004e000636ce10003003a00ebff07000000eb0043
:1004f0000a003700606ce10004003a00005deb0088
:100500008b05e900fdff3e00040037006168e10053
:10051000010032000086eb000b00070019c7ba008b
:100520001905ba000e04e00003003a000a00e000da
:10053000e0ff3a0000000600fe07b2009e018800be
:100540008a047800f5ff3700395dba008b05e900b1
:100550000c003200295dba008b05e900080032006a
:100560000c00e00003003a00e284440032a0b40032
:10057000f5ff370019ddba008b05e900faff3a00f4
:100580008904e800e184440032a0b40000000600c1
:100590000040da000000fe000000050003f0a200a9
:1005a000889fbe008a9fbe008c1f78001b01070039
:1005b000220133006450e1004f0032006420e1006a
:1005c0005200320003826c0007003b000905d00096
:1005d0000306d000820f54000c065d0002003900b3
:1005e00002003200890178000306780085825500f8
:1005f00004003d000003fd008103fd008502ea00c8
:100600008b854200840f720002003b0060001000e6
:10061000e08018006011b8000005eb007a28e100c6
:100620000a00390006007800c75ddd00f707b20058
:10063000878075002d003700828171000a017800e3
:10064000610560008180d1000080d3008502e9004f
:10065000f9ff3b00060440008784480002003b008d
:1006600060041400e0841c000988a3000700320025
:100670008a81710082817100610164008904d10066
:100680000884d3008b05e800170037000978a30021
:1006900013003a000b00e000130034008b05e90062
:1006a0000804440089844c000a4474000978a300bb
:1006b0000d003a000b00e000070034008b05e90054
:1006c0000804440089844c0001003a000b0020001b
:1006d0000978a300f7ff32000001eb0002003700a9
:1006e000828171000a017800910007000cf0a700d8
:1006f00001f0a000da0037006420e10002003a00b7
:10070000838f6c00da0033000801be000200be00d7
:10071000d3003700889fbe008a9fbe008c1f7800e0
:10072000be000700c500330003866c006450e10082
:100730002e0032006420e100330032006150e100fd
:100740002f0032006120e100310032008585550024
:10075000eb07b00009002000080420000500370066
:100760000804440089844c000a0031000603430059
:1007700087834b000001530081815b00f8ff330049
:100780000203be000800a0000804440089844c0055
:10079000f6ff3900c639dd00830173000100320025
:1007a000130020008904d1000884d3000998a30015
:1007b000050032000800a7000300a0008904d10052
:1007c0000884d3008b05e8008904d1000884d30095
:1007d0000001eb000281d2005500070001f0a100ea
:1007e0000cf0a70001f0a0009d0037006420e1009c
:1007f0009f0032000801be000200be00f7ff370074
:100800006120e1009a0032006000b800f3ff370079
:100810000000200001f82700f0ff3700140020003e
:100820002e013700f4ff2f002c0137000001be001d
:10083000650007000470a70003f0a1006509b1007e
:10084000160032000d0035006828e1000600350072
:10085000f0ff2f00f1ff27000300e00013003b0032
:1008600001002800000005000000400081804800d1
:100870008502e900fcff3a0008003700f88f4200cb
:1008800002003c008000eb00000005008100d10068
:100890000080d3008502e800fcff3a000300e0007e
:1008a00002003b0060001000e0801800000006001d
:1008b0000001be00440007000470a70003f0a1007f
:1008c00003f8a30013003a006509b10010003200dc
:1008d000090035006928e100020035000100280008
:1008e0000000050000004000818048008502e9000a
:1008f000fcff3a0000000600f88f420005003500ba
:100900008100d1000080d3008502e800fcff3a009e
:10091000000006008000eb00000005004f89de00ab
:1009200082017800080137006011b8001601370015
:1009300081002000618055000b003d000b0020006d
:1009400061fe2f000100e1001d0034008281710072
:10095000610164008904d1000884d3000000e8002c
:10096000faff3a007100200061006400030070008b
:10097000020060000900320061044400e0844c0081
:100980000988a500050032008b05e8006808e10031
:1009900002003a008904d1000884d300f20f20003d
:1009a0000258e10005003d00c75ddd00f907b20017
:1009b0008980750008007800000006000bf8270009
:1009c0008b00780000000500c70ade00f107b200c6
:1009d000f50fb20008003200e1cf42000200320001
:1009e0000170a00024000500810f7000010032009a
:1009f0000408050044000500810f700002003a0061
:100a0000140005008502e9000000400081c0480094
:100a1000fcff3b000170a000240005000004be00a4
:100a2000e9ff07000003be000405be000200be008f
:100a3000e5ff0700844f7500000006000200be00bd
:100a40006450e100050036006420e1000200360039
:100a50000968a30001003a000800be000160a00080
:100a60004f0678004f05be004f04be000000060090
:100a7000f0ff2f00f1ff2700f9ff3700889fbe002d
:100a80008a9fbe008c9fbe00870007008504780007
:100a90000005be006420e10049003e006220e10044
:100aa00003003200090035000bf8a30044003200b7
:100ab0000bf8a30008003200100220000046880056
:100ac000f0ff2f00f1ff27003d00370001f82f0055
:100ad000000020003a0037003d000700affe07008d
:100ae0000006be000a00be00324f200053f3230070
:100af0004cff0700060034000c00be003400070065
:100b0000a6fe07000006be000a00be000200370075
:100b10008904e9000c00be002d0007002e0007002c
:100b20002b0007009efe07000001be000c00be0067
:100b3000f8fe07000005be000001be002600070009
:100b40000006be00a2f32300430d2c0094fe070014
:100b5000809fbe000c00be00d2e32700d3f02b0024
:100b60001d0007004f01be00eafe07000006be00a0
:100b70000a01be00180007000a01be0088fe070037
:100b80000006be006148b90064ff07000005be0012
:100b900032082800e3952b000f0007000c01be006f
:100ba0007ffe07000006be000a00be00020028000b
:100bb00013f32300080007000c01be0078fe0700b5
:100bc0004f06be004f05be004f04be0000000600e9
:100bd00003f0230002000500889fbe008a9fbe002c
:100be0008c1f78008dff070094ff330003866c0094
:100bf0006450e100240032006420e100270032004c
:100c00006150e100220032006120e1002100320049
:100c10008b854200eb07b1000134b800003ab80000
:100c20000804420089844a00013ab8000030b80044
:100c30008880400009014a000400330000004000a1
:100c400081804800020149008b05e900c909dd00e7
:100c5000830170000100320013002000c814de0080
:100c60004814dd004709de001200b200c808de00ab
:100c7000088470002eff070001f0a1000cf0a7000f
:100c800001f0a00076ff37006120e10078ff32001c
:100c90000801be000200be00f7ff37006150e1000e
:100ca000fcff3a0072ff37000003be0046ff07005a
:100cb0006220e100020032000600be0005000500cf
:100cc000e507b100f107b20004f023008480700052
:100cd00007f0a70001f0a00024000500889fbe00d7
:100ce0008a9fbe00841f78004cff07004f007800e9
:100cf00011003300f0ff2f00838f6c0006003b00d3
:100d0000040565000a00a7000800370009f0a600e6
:100d10001000200008003700820f5400838f5c0011
:100d2000030039001000200001003e0000002000f8
:100d300009f0a7000000ea004f05be004f04be0006
:100d40000000e00000000600881f7800030478001f
:100d50000300e00007003d0060001000e080180084
:100d600060011900e081190002003b0001f02d0034
:100d7000030037000400070008f0a70001f0a000fe
:100d80004f04780000000600889fbe008a9fbe00c6
:100d9000008270000402710004827100260032009b
:100da0000004be000200be006011b8006b09200004
:100db000950220000182cf000a0039000541b100f0
:100dc0000082cf00070039000541b1000982cf0041
:100dd000040039000541b1000882cf00010039004c
:100de0000541b10005425200120032000a003b00ea
:100df00082817100610164008100d1000080d30014
:100e00008984d3000884d3008b05e8000442e800fd
:100e1000f7ff3a00070037000804440089844c00bb
:100e200000004800818048008b05e9000442e90089
:100e3000f9ff3a00befe07004f05be004f04be009a
:040e400000000600a8
:020000040000fa
:100e4400ff81000083ff000083810000c9fb0000d4
:100e5400c1810000fdb90000fd810000b9d500008a
:100e6400d981000081ff00008181000081c500005c
:100e7400cbb3000081850000bfc5000081e1000004
:100e84009987000081c50000cbb3000081fd0000fc
:100e9400a59900008181000081ff0000818100008c
:100ea400ff9300008d81000081c30000ffc3000098
:100eb40081810000ffc30000bd81000081ff0000ac
:100ec4008181000081810000ffb30000cf81000018
:100ed400c9d50000a581000085bf0000c5810000c0
:100ee4008181000081ff0000ff810000fd9d000062
:100ef400fd810000b9d50000d9810000fd85000006
:100f0400f9810000fdc10000fd81000081ff0000a7
:100f14008181000081ff0000cbc3000081fd00003f
:100f240085f9000081850000bfc5000081b900007b
:100f3400d5d9000081f900008585000081ff0000fb
:100f440081810000ffc30000bd810000b9c500001d
:100f5400b9810000fdb10000fd810000fd850000a5
:100f6400f981000081ff000081810000818100007f
:100f740081810000fdc10000fd810000fda500008d
:100f840099810000818100008181000081ff0000bf
:100f9400ff810000818100008181000081810000c7
:100fa4008181000081810000818100008181000035
:100fb4008181000081ff00008181000081ff000029
:100fc400cbc3000081fd000085f90000818500008d
:100fd400bfc5000081b90000d5d9000081f9000027
:100fe4008585000081ff000081810000ffc30000af
:100ff400bd810000b9c50000b9810000fdb1000049
:10100400fd810000fd850000f981000081ff0000e2
:10101400818100008181000081810000fdc1000008
:10102400fd810000fda50000998100008181000080
:101034008181000081ff0000ff0100000101000028
:101044000101000001010000010100000101000094
:101054000101000001010000010100000101000084
:1010640001010000010100000101000001810000f4
:10107400c1c10000c1810000010100000181000024
:10108400c1c10000c1c1000001c10000e161000054
:10109400e1c100008101000081c10000c1810000a4
:1010a40081010000010100000101000001010000b4
:1010b4000101000001010000010100000101000024
:1010c4000101000001010000010100000101000014
:1010d40001010000010100000101000001ff000006
:1010e400ff000000000000000000000000000000fd
:1010f40000000000000000000000000000000000ec
:1011040000000000c0400000e0b00000100000003b
:101114001c3e00007e7f00007f7f00007f7f000078
:101124007f000000000700000f0c00000c0400000a
:10113400000700000f0c00000c0f0000071c00004b
:101144001f07000006060000703c00001f0b000093
:101154001be60000f2bc00006c38000098d00000d0
:10116400e0b000006040000040000000000000000b
:10117400000000000000000000000000000000006b
:101184000000000000ff0000ff000000000000005d
:10119400000000000000000000000000000000004b
:1011a400000000000000000000000000000000003b
:1011b400000d00000f0600000703000000000000ff
:1011c400000000000000000000000000000000001b
:1011d4000000000000c00000f07700001fc80000fd
:1011e400c00000000000000000000000000000003b
:1011f40000000000000000000000000001010000e9
:1012040000070000070c00000c01000001000000b2
:1012140000000000000000000000000000000000ca
:1012240000000000000000000000000000ff0000bb
:10123400ff000000000000000000000000000000ab
:10124400000000000000000000000000000000009a
:10125400000000000000000000000000000000008a
:10126400000000000000000000000000808000007a
:1012740080800000c0c00000c0c00000deff00008d
:10128400f1e00000c0e10000ffdf0000c4c0000086
:10129400c0c00000c0c00000c0c0000000000000ca
:1012a400000000000000000000000000000000003a
:1012b400000000000000000000000000000000002a
:1012c400000000000000000000000000000000001a
:1012d4000000000000ff0000ff000000000000000c
:1012e40000000000000000000000000000000000fa
:1012f40000000000000000000000000000000000ea
:1013040000000000000000000000000000000000d9
:1013140000000000c7cf00009d910000b7bf00008f
:10132400b8e00000c08000008080000080800000e1
:101334008080000080c00000c0e00000b89f000072
:1013440087c10000c0600000000000000000000031
:101354000000000000000000000000000000000089
:101364000000000000000000000000000000000079
:1013740000000000000000000000000000ff00006a
:10138400ff800000808000008080000080800000da
:101394008080000080800000808000008080000049
:1013a4008080000080800000808000008080000039
:1013b4008080000080800000808000008081000028
:1013c4008383000083830000838300008383000001
:1013d40083830000838300008383000083830000f1
:1013e40083830000838300008381000081800000e8
:1013f40080800000808000008080000080800000e9
:1014040080800000808000008080000080800000d8
:1014140080800000808000008080000080800000c8
:101424008080000080ff000006000000080000002b
:101434000a0000000c0000000e0000001000000074
:1014440012000000140000001600000057610000a4
:101454007465000072200000546500006d70000087
:101464003a00000053740000656100006d20000024
:10147400546500006d7000003a00000047720000df
:101484006f75000070200000546500006d7000004e
:101494003a000000507200006573000073200000e1
:1014a40022540000696d00006522000020740000d1
:1014b4006f20000053650000740000007468000091
:1014c400652000004375000072720000656e000024
:1014d40074200000546900006d6500000054000091
:1014e400616e00006b2000004c6500007665000012
:1014f4006c3a0000004c00004f57000000530000fd
:10150400686f000074200000546900006d650000dd
:10151400723a000000500000756d00007020000059
:101524004f75000074700000757400003a000000ec
:101534005072000065730000732000002245000013
:101544004e54000045520000222000004b6500006c
:1015540079000000746f00002053000065740000df
:10156400207400006865000020540000696d0000cc
:1015740065000000507200006573000073200000d5
:10158400224500004e540000455200002220000075
:10159400746f0000205300006574000020530000a5
:1015a40074610000727400002f530000746f000017
:1015b40070200000546900006d6500007300000095
:1015c400504900004420000053650000747400007a
:1015d400696e000067730000206600006f720000ef
:1015e40000550000702f0000446e0000204b0000e6
:1015f4006579000073200000746f00002043000030
:10160400686100006e670000650000002020000093
:10161400224500006e740000657200002220000064
:10162400746f0000204100006363000065700000d7
:10163400742000000053000065740000506f000027
:10164400696e0000742000003d2000000047000087
:10165400616900006e2000003d000000496e00003a
:101664007465000067720000616c0000203d00009a
:101674000044000065720000697600006174000097
:1016840069760000652000003d000000ff81000035
:10169400818100008181000081810000818100003e
:1016a400818100008181000081810000818100002e
:1016b40081ff00008181000081ff0000cbc3000096
:1016c40081fd000085f9000081850000bfc5000090
:1016d40081b90000d5d9000081f90000858500009a
:1016e40081ff000081810000ffc30000bd81000074
:1016f400b9c50000b9810000fdb10000fd81000002
:10170400fd850000f981000081ff00008181000057
:101714008181000081810000fdc10000fd81000085
:10172400fda50000998100008181000081810000f5
:1017340081ff0000537500006e0000004d6f000033
:101744006e0000005475000065000000576500003d
:101754006400000054680000750000004672000038
:101764006900000053610000740000004e55000041
:101774004c0000004a4100004e00000046450000b5
:10178400420000004d4100005200000041500000a2
:10179400520000004d410000590000004a5500006d
:1017a4004e0000004a5500004c0000004155000066
:1017b4004700000053450000500000004f43000064
:1017c400540000004e4f0000560000004445000045
:1017d40043000000280000002a0000002c00000044
:1017e4002e00000030000000320000003400000031
:1017f40036000000380000003a0000003c00000001
:101804003e000000400000004200000044000000d0
:1018140046000000480000004a0000004c000000a0
:101824004e00000050000000520000005400000070
:1018340056000000580000005a0000005c00000040
:101844005e000000224500006e7400006572000016
:10185400222000003d2000006e6500007874000026
:1018640020460000696500006c640000005500001b
:10187400702f0000446e0000207400006f200000f0
:1018840063680000616e000067650000205400007a
:10189400696d0000650000005e5e0000002000002d
:1018a400202000005e5e00005e000000202000009a
:1018b400202000005e5e00000020000020200000c8
:1018c40000200000202000005e5e000000530000a5
:1018d40074610000727400002f530000746f0000e4
:1018e40070200000666f00007220000000550000a8
:1018f400702f0000446e0000204b0000657900004a
:1019040073200000746f000020630000686f000003
:101914006f73000065000000456e000074650000f0
:10192400722000004b65000079200000746f0000f5
:10193400205300006574000000530000746100002f
:1019440072740000204800006f75000072200000cf
:101954003d20000000530000746100007274000018
:10196400204d0000696e00007574000065200000c1
:101974003d20000000530000746f00007020000040
:10198400486f000075720000203d00000053000005
:10199400746f0000702000004d6900006e75000037
:1019a40074650000203d00000000000000000000fd
:1019b400000000004e0000000600000006ff0000ca
:1019c400ffff000048d60000241200000824000095
:1019d400ffff0000ff000000060000003844000084
:1019e4008282000044380000140800003e10000009
:1019f40038100000a060000000100000101000006b
:101a04006060000000600000180600007c420000d6
:101a14007c4400007e400000645200004c4a0000f8
:101a24004a340000382400007e4e00004a32000090
:101a34003c4a0000326200001a060000764a0000a8
:101a4400764c0000523c00006c6c000000ac0000be
:101a54006c00000010280000442800002828000022
:101a6400442800001002000059060000ffff000097
:101a7400ff7c0000127c00007e5a0000343c000011
:101a8400424200007e4200003c7e00004a420000c8
:101a94007e0a00000a3c0000523400007e08000068
:101aa4007e4200007e420000304000003e7e000086
:101ab400186600007e400000407e00001c7e00008e
:101ac4007e0200007e3c0000423c00007e120000ca
:101ad4000c7e000062fe00007e3200004e440000d6
:101ae4004a320000027e0000027e0000407e0000b8
:101af4003e4000003e7e0000387e00006618000074
:101b0400660e0000700e0000625a000046000000dd
:101b14007e42000006180000604200007e000000c3
:101b240004020000044000004040000000020000e5
:101b340004740000547800007e4800003030000037
:101b440048480000304800007e3800005458000027
:101b54007c0a000002980000a47c00007e080000bb
:101b6400704800007a40000088fa0000007e0000ff
:101b740018640000427e0000407c0000387c0000b5
:101b84007c0400007838000044380000fc24000085
:101b94001818000024fc0000780400000448000029
:101ba40054240000043e0000447c0000407c0000fb
:101bb4003c4000003c7c0000307c00006c100000c5
:101bc4006c9c0000a07c0000645400004c040000e5
:101bd4000a040000ffff0000ffff0000ffff0000f9
:101be400ffff0000ffff0000ffff0000ffff0000f9
:101bf400ffff0000ffff0000fc4000007cff00002e
:0c1c0400ffff0000ffff0000ff000000d9
:020000040000fa
:101c10008e01fa00889fbe007c0d0700220c070091
:101c20003e0c07000040eb00004f78000040eb0046
:101c3000004f78001a0037001e80fb008000400033
:101c400020a228000080400010007800180d070036
:101c5000800478001e80fb0080004000c0a12800a6
:101c60000080400010007800110d0700000478008b
:101c70001e80fb008000400060a128000080400022
:101c8000100078000a0d0700800078001e407800e0
:101c90008901780008017800ea0907001e4fe80072
:101ca0001e407800e24f5000e3ff36000000eb00da
:101cb000100798000040eb00404798000040eb0000
:101cc000504798000040eb0060479800f200470042
:101cd000950009008018eb000000eb00701f9900d0
:101ce0000000eb00002799000000eb00102799008e
:101cf0000000eb00202799000000eb00302799003e
:101d00000000eb00402799000040eb00704798006e
:101d10006000b80050279900612799006000b80062
:101d200070279900012f99006000b800102f9900ca
:101d3000212f99000000eb00400798000040eb00c5
:101d4000204f98000e0178006215b00006000900cf
:101d50000019eb000000eb00203799000000eb00b9
:101d6000303799000000eb0040379900606d20008b
:101d700050379900409c2000603799008070200007
:101d80007037990040832000003f990020b2200066
:101d9000103f990060862000203f99000000eb0072
:101da000600798000000eb00303f99000000eb0056
:101db000403f99000000eb00503f99000000eb000d
:101dc000603f9900004b2000703f99000000eb003d
:101dd000000f98004205200051c0b3002072280077
:101de0005d08070051168000008020000080600020
:101df00000f0a7000000ea000000e9004f00de004c
:101e0000302f9900511680000040200000806000b3
:101e100000f0a7000000ea000000e9004f00de002b
:101e2000402f9900111680000008200000806000fb
:101e300000f0a7000000ea000000e9004f00de000b
:101e4000502f990091168000002020000080600033
:101e500000f0a7000000ea000000e9004f00de00eb
:101e6000602f9900001820000e0040006804070051
:101e70000188200002182000020147000600090026
:101e8000b218780090002000a20c070020279900cb
:101e90005e249100ee2491007e4090000080fb00c3
:101ea000000040000000470010089000cf80de00d6
:101eb0009afa07000001be000800be00b7f907004b
:101ec00050279900612799007e4090000080fb0018
:101ed000ae2091000000400000004700720040006a
:101ee000010878005e249100ee2491007e4090006d
:101ef0000080fb0000004000000047001008900038
:101f0000cf80de0085fa07000001be000800be0099
:101f1000a3f9070050279900612799005e209100de
:101f2000ee2091000200200083242400f9f907002c
:101f30005ffa070000007800701f99000000eb00b6
:101f4000740c0700302799007e2491008e2c91009c
:101f50007e4090000080fb002003b00000004000a5
:101f60000000470010089000cf80de006bfa0700e9
:101f70000001be000800be0088f907007027990024
:101f8000012f99007e4090000080fb00be20910050
:101f90002003b00000004000000047007200400035
:101fa000010878007e2491008e2c91007e409000e4
:101fb0000080fb002003b00000004000000047004c
:101fc00010089000cf80de0054fa07000001be0028
:101fd0000800be0072f9070070279900012f9900d0
:101fe0007e2091008e28910002002000832424008e
:101ff000c8f907002efa07000000780000279900b2
:1020000040002000430c0700402799001e2c91003f
:10201000ae2c91007e4090000080fb004006b00096
:10202000000040000000470010089000cf80de0054
:102030003afa07000001be000800be0057f9070089
:10204000102f9900212f99007e4090000080fb0006
:10205000ce2091004006b000000040000000470084
:1020600072004000010878001e2c9100ae2c9100f7
:102070007e4090000080fb004006b0000000400061
:102080000000470010089000cf80de0023fa070010
:102090000001be000800be0041f90700102f9900a2
:1020a000212f99007e4090000040e8007047980082
:1020b000fe40900010c3b30080cf500002003600f5
:1020c0000040eb00704798001e289100ae28910058
:1020d00002002000832424008ef90700f4f9070091
:1020e0000000780010279900ee0090006044800006
:1020f000808f5000f50032005044800000017800cd
:102100004044800080007800304480008e05070045
:1021100096e8b7003e289100e10f5000030032001e
:1021200096c8bf00e14f50000a003a00100020009e
:10213000702f99003e289100e10f500002003a00f4
:10214000b028ef00050037008045800080458800fa
:10215000020037000000eb00702f99004e40900005
:10216000f34f5000020034000000eb00702f990084
:10217000e0012000000f98000e089000e90f5000c9
:1021800002003e000000eb00702f99000e08900046
:10219000eb0f500009003e004e4090000040e80068
:1021a000404798004e409000f44f50000b00340020
:1021b00040c1b30040479800080037004e409000ef
:1021c0000040e900404798004e4090000004e000c5
:1021d00002003d000040eb00404798004e40900058
:1021e000e14f50000a0034005e409000ef4f500075
:1021f00003003400c502a900201680000400370047
:10220000c502a8005e4090000040e80050479800da
:102210007e3891000000e800703f99006044800023
:10222000600798000000eb00400798000f0037009f
:102230004e00900000004000000047007018910020
:102240008c0907009af90700800078004e00900082
:102250000000400000004700e013b00001087800d3
:102260004e0090000000e800400798004e009000eb
:10227000e20f5000eeff36007e2891000000e000e3
:10228000850032008e3091007e289100808f5000b2
:1022900005003200760707004205200051c0b30058
:1022a000207228002c070700a0448000e10f500096
:1022b0000b003a008040eb0040c0b3001707070056
:1022c000c0a428005d07070011c0b30040c0b300e0
:1022d0001207070000a62800580707007b003700f8
:1022e0008303070011c0b30020c0b3000b07070031
:1022f0005e2891000000e0000f00320010458000d1
:102300004e07070011c0b30000c3b3000307070066
:102310000e2091008041eb0012c0b30041c0b30019
:1023200064070700b0c7b3002307070060c4b30009
:10233000210707000e003700004580003f07070017
:1023400011c0b30000c3b300f40607007e1891006b
:102350008041eb0012c0b30041c0b3005507070035
:10236000b0c7b3001407070060c4b300120707002a
:1023700021c0b30020c0b300e8060700204580005c
:102380002e07070021c0b30000c3b300e306070017
:102390001e2091008041eb0012c0b30041c0b30089
:1023a00044070700b0c7b3000307070060c4b300c9
:1023b0000107070000c2b300ff0607004e38910076
:1023c0000000e00026003a0031c0b30020c0b30096
:1023d000d206070010a728001807070031c0b30075
:1023e00000c3b300cd0607000e0890008041eb004b
:1023f0000041eb0080c0eb002e07070050c2b30085
:10240000ed06070000c2b300eb06070000c2b300f0
:10241000e90607000e089000f80f50002b003e0060
:102420001e30910061001000103799001e3091009d
:102430000000e0002500320031c0b30000c3b3004b
:10244000b6060700d0a72800fc06070000c2b300ac
:10245000d906070000c2b300d70607001b003700eb
:1024600031c0b30020c0b300ac06070010a828009c
:10247000f206070031c0b30000c3b300a70607008f
:102480004e3891008041eb0012c0b30041c0b30050
:10249000080707000d003700821f20008040eb0076
:1024a000e0812800ac06070041c0b30010c0b300b3
:1024b0009a06070000c2b300bf060700fe3891006d
:1024c000004b200000804000703f99007e28910062
:1024d0000000e000d2003200504480000000e00024
:1024e00005003a0060448000e40f500002003e0006
:1024f000c502a80001003700c502a9001e249100f2
:10250000f0448000ea0a07000801780080007800a3
:1025100020c0b300f8070700c4f8070000007800e7
:10252000403799004e309100500d88005e28910090
:102530000000e0000c0032008e209100e04480009a
:10254000010178008000780010c0b300ea0707009e
:10255000b6f8070000007800303799003e3091004f
:10256000000d88000b003700fe189100f044800039
:1025700001017800800078000040eb00de070700d2
:10258000aaf8070000007800203799002e3091004b
:10259000000d88004e2891000000e0008a00320003
:1025a00041c0b30020c0b3005c060700d0a82800db
:1025b000a20607001e0090008041eb000041eb00e6
:1025c00031c0b300bb06070050c2b3007a06070053
:1025d00000c2b3007806070000c2b3007606070009
:1025e00011e1a8000000eb00603f99003e38910027
:1025f000f40f500002003e0080022000b00c880062
:102600003e389100f40f500005003600be389100ae
:1026100080022000808f500001003e009621ef00d4
:10262000be38910080022000808f500017003600d5
:10263000be38910010042000808f500013003e002f
:10264000b10c800000102000808f50000f003e0071
:102650006e4090000040e800604798006e40900097
:10266000e54f500009003600b10c8000f00f20004b
:10267000808f500003003e00b00c800070004000ce
:10268000b00c88000040eb0060479800be38910015
:1026900010042000808f500012003600be389100d8
:1026a00010322000808f50000e003e00b00c8000e1
:1026b000f90f50000b0036006e4090000040e8001b
:1026c000604798006e409000ef4f500005003600c4
:1026d000b00c80000000e900b00c88000040eb0066
:1026e00060479800be38910080162000808f50000f
:1026f00002003600a0012000b00c8800be38910016
:1027000080252000808f5000010036009621ef00c8
:10271000be38910020352000808f50000100360027
:10272000c422a800be38910070352000808f500070
:1027300006003600c422a900a0332000303f9900d3
:102740005e3891000000e800503f99005e3891002b
:10275000e90f500005003600c422a8009025200093
:10276000303f9900a0002000503f990021048000d4
:1027700000082000008060000000e0000b00320034
:102780003e3891000000e800303f9900be389100cb
:1027900080022000808f5000030036004e389100e8
:1027a0000000e800403f990084e0a900b10c8000df
:1027b000400620000088b900000078004800de00d4
:1027c0001007980010003700c422a9000000eb0099
:1027d000503f990011e1a9000000eb00303f990043
:1027e0009621ef006e3891000000e800603f9900ec
:1027f000ee389100300d2300808f5000020036002b
:102800000000eb00403f99006e2891000000e000be
:102810000900320000102000b00c880006003700cc
:10282000a021ef00aa21ef000000eb00403f99003b
:102830009621ef00c422a9004e2891000000e0007c
:1028400007003a005e2891000000e00004003a0012
:102850006e2891000000e00001003a009621ef0090
:1028600065090700204f98002e489000e14f500066
:102870003a003a000000eb00703f9900c04480002d
:102880000000e00006003c000000eb00702f990003
:10289000c04480000000e800c04488002b003700de
:1028a000f30507004205200051c0b300a07c2800ba
:1028b000a905070011c0b30040c0b3009705070089
:1028c000a0a92800dd05070021c0b30040c0b30067
:1028d00092050700c0aa2800d8050700130037009a
:1028e00045090700204f9800c04480000000e80020
:1028f000c044880000c42900010020005d0a0700d0
:10290000c1448000401f2000808f50000700340029
:102910009828ef00d60507004205200051c0b300fb
:10292000a07c28008c050700080037002e48900086
:10293000e24f5000eaff3a00280207009828ef0013
:1029400000482800e10120004a0a07004205200053
:1029500051c0b300207228007f0507002e48900068
:10296000e24f500035003a000000eb00703f990044
:10297000c04480000000e00006003c000000eb00c6
:10298000702f9900c04480000000e800c044880017
:102990002a003700b60507004205200051c0b300e9
:1029a000a07c28006c05070011c0b3000040eb00bc
:1029b0005a050700c0ab2800a00507001300370028
:1029c0000d090700204f9800c04480000000e80077
:1029d000c044880000c4290001002000250a070027
:1029e000c1448000401f2000808f50000700340049
:1029f0009828ef009e0507004205200051c0b30053
:102a0000a07c2800540507000c0037002e489000d9
:102a1000e24f5000eaff3a009828ef0079030700e0
:102a20004205200051c0b300207228004a0507006b
:102a300000482800e10120000e0a07002e489000ff
:102a4000e34f500009013a000000eb00703f99008d
:102a5000c04480000000e00006003c000000eb00e5
:102a6000702f9900c04480000000e800c044880036
:102a7000f9003700c0448000e10f50000a003c001c
:102a80007b0507004205200051c0b300a07c280050
:102a9000310507000040eb00204f9800006c2c002f
:102aa000d1022000f30907000040eb00604f9800be
:102ab00045003700d0080700204f980000c42900c7
:102ac00001002000eb090700c1448000401f2000e6
:102ad000808f5000020034009828ef00de0037009d
:102ae0002e4890000080fb00e30f500005003200ec
:102af000e40f50000c003200e10f5000d50032000e
:102b0000150037006e4890000040e900604f9800c3
:102b10006e4890000004e0000c003d000040eb0017
:102b2000604f98000c0037006e4890000040e800ad
:102b3000604f98006e489000e24f5000050034004e
:102b400020c0b300604f9800030037000000000071
:102b500001003700000000008040eb000040eb0067
:102b6000ee04070020ae28003405070011c0b300b2
:102b70000040eb00e90407006e4890000000fb00f5
:102b800080004000008a2000008040001000780093
:102b90002a05070031c0b3000040eb00df04070046
:102ba00030af28002505070041c0b3000040eb000e
:102bb000da04070080b0280020050700c044800028
:102bc0000000e800c04488002e489000e24f50000a
:102bd000b8ff3a000040eb00204f980024050700a2
:102be0004205200051c0b300a07c2800da04070091
:102bf0008040eb000040eb00c8040700d0b1280083
:102c00000e0507006e4890000000fb0080004000a9
:102c1000a0892000008040001000780024090700ef
:102c2000800078006e4890000000fb00000040002b
:102c300000004700003991006e4890000000fb0042
:102c40000000400000004700503091000102780071
:102c500082017800000178008040eb00c0c2b30020
:102c60005b070700800078006e4890000000fb00c2
:102c700000014000a0892000000041001000780001
:102c8000ec08070011c0b3000040eb00a3040700ec
:102c900090b22800e90407006e4890000000fb0095
:102ca0008000400060a128000080400010007800f3
:102cb000ff08070000027800830c20000001eb00f1
:102cc00011c0b300c0c2b300410707008000780004
:102cd0006e4890000000fb000001400060a1280049
:102ce0000000410010007800d208070021c0b300a6
:102cf0000040eb008904070000b32800cf04070060
:102d00006e4890000000fb0080004000c0a1280039
:102d10000080400010007800e508070000027800fd
:102d2000431f20000001eb0021c0b300c0c2b3006c
:102d300027070700800078006e4890000000fb0025
:102d400000014000c0a128000000410010007800f0
:102d5000b808070031c0b3000040eb006f04070063
:102d6000b0b32800b50407006e4890000000fb00d7
:102d70008000400020a22800008040001000780061
:102d8000cb08070000027800430620000001eb009a
:102d900031c0b300c0c2b3000d0707008000780047
:102da0006e4890000000fb000001400020a22800b7
:102db00000004100100078009e0807006e48900057
:102dc0000000fb008000400020a22800008040009e
:102dd00010007800b6080700800478006e48900064
:102de0000000fb0080004000c0a1280000804000df
:102df00010007800ae080700000478006e489000cc
:102e00000000fb008000400060a12800008040001e
:102e100010007800a60807008901780008017800f2
:102e2000800078006e489000860507009828ef0023
:102e30008f0407004205200051c0b3002072280013
:102e40004504070000482800e101200009090700a7
:102e50000100370000000000850407004205200043
:102e600051c0b300207228003b0407002e48900098
:102e7000e44f50000b003a00f404070000a82100c2
:102e800061002000fb080700790407000000eb0048
:102e9000703f99004205200051c0b3002072280005
:102ea0002d040700fe389100f04a2000808f50006a
:102eb00004003600c522a800004b2000703f990096
:102ec00001003700c522a9007e2891000037990033
:102ed0000060fe00c3fb37000600fa0020079800e0
:102ee000ae009000010f78000000eb001007980082
:102ef0001e007800e90f5000060036009e007800a2
:102f00006a8f50001e00900070004000100798006b
:102f1000f7ff37001e0090001e00400010079800c9
:102f20001e0090000080fa00000006000400fa0075
:102f3000100798009e009000010f78001e00780096
:102f40000000d100000f7800800720001e0f6000f5
:102f50001e0078004200de009e0040001e0090002f
:102f60006f006000008040000080fa000000060052
:102f70000000fa00230020006104200072052000f8
:102f800024742000014a7800024a7800034a78003d
:102f900050052000303b8800a00a2000303b88000c
:102fa00027a6a80027e6a9003131800000302000c4
:102fb000010070003031880060012000203188005d
:102fc00040022100203188001012200020318800aa
:102fd00000932200203188002826ef0026e6a80072
:102fe00026c6a80026a6a8002686a9002666a9004f
:102ff0002646a9002626a9002606a90027e6a8003d
:1030000027a6a9009bc0a8000080fa0000000600c7
:103010001400fa00881f7800000478000000000007
:103020003131800000002100008060000000e000dd
:10303000fbff3a00313180000030200001007000b9
:103040003031880020318000b8ff07003007980039
:1030500021318000010f78001e0078004800de005a
:10306000b2ff070040079800f00f20001e0060002c
:10307000aeff07005007980021318000110798002b
:103080001e0090004800de00a8ff070060079800bf
:103090009e009000f00f200000806000a3ff07005a
:1030a0007007980021318000210798002e009000c1
:1030b0004800de009dff0700000f9800ae00900062
:1030c000f00f20000080600098ff0700100f9800ac
:1030d000e600470006000900311c7800e800b10056
:1030e000080078004f0478000080fa000000060015
:1030f0000e00fa000e007800c5ff07008040eb00cc
:103100000040eb00850307001e0078008041eb00c3
:103110000041eb0021c0b300e6030700f0c2b3009a
:10312000a50307001e00900080004000e080200002
:103130000080400010007800c0030700f0c2b30018
:103140009d0307002e0090008041eb000041eb0042
:1031500021c0b300d70307008040eb0050c2b3008a
:103160006e0307003e0090008000400000802000b9
:103170000080400010007800b00307008040eb00a2
:1031800020c3b300650307004e0090008041eb00b0
:103190000041eb0021c0b300c6030700a0c3b30089
:1031a000850307005e0090008041eb000041eb00ca
:1031b00021c0b300bf030700a0c3b3007e03070014
:1031c0006e0090008041eb000041eb0021c0b30095
:1031d000b80307000080fa00000006001400fa009f
:1031e000889fbe006600470089ff07000040eb0093
:1031f000004f78000040eb00104798000000eb0003
:1032000010079800480137001e0090000000e00001
:1032100005003a00960307004205200051c0b300a4
:1032200080b428004c0307001e0090000000e80056
:10323000100798009e00900000712200808f5000bf
:10324000050036000000eb00100798008803070017
:1032500010c0b30010479800a5ff070021c0b300bd
:1032600040c0b3002d03070040c2280073030700cd
:1032700031c0b30040c0b3002803070090c328004a
:103280006e0307001e4078000004e00005003a00cd
:1032900011c0b3000040eb0020030700e0c4280089
:1032a000660307001e407800e14f500005003a0019
:1032b00011c0b3000040eb001803070010c5280040
:1032c0005e0307001e407800e24f500005003a0000
:1032d00011c0b300c0c0b3001003070080c52800b0
:1032e000560307001e407800e34f500005003a00e7
:1032f00011c0b30090c1b3000803070010c5280037
:103300004e0307001e407800e44f50000a003a00c8
:1033100011c0b30050c2b30000030700f0c528007d
:103320004603070011c0b30020c3b300fb0207002f
:10333000e0c42800410307001e407800e54f50001c
:1033400005003a0011c0b30020c3b300f302070028
:1033500030c62800390307001e407800e64f5000b1
:1033600005003a0011c0b300e0c3b300eb02070050
:1033700030c62800310307009f0607004047980029
:103380004e4090000000fb00e30f50005d00320053
:10339000e40f500003003200e20f5000ae00320094
:1033a000bd0037001e4078000004e0000a003a002b
:1033b000be00900030062000808f500003003a00cd
:1033c0000000eb0030079800030037003e0090003b
:1033d0000000e800300798001e407800e14f5000e0
:1033e00009003a004e009000ec0f500003003a0034
:1033f0001000200040079800030037004e009000a6
:103400000000e800400798001e407800e24f50009e
:1034100009003a005e009000ff0f500003003a00e0
:103420001000200050079800030037005e00900055
:103430000000e800500798001e407800e34f50005d
:1034400009003a006e009000e60f500003003a00b9
:103450000000eb0060079800030037006e0090004a
:103460000000e800600798001e407800e44f50001c
:1034700009003a007e009000f70f500003003a0068
:103480000000eb0070079800030037007e009000fa
:103490000000e800700798001e407800e54f5000db
:1034a0000a003a008e089000b0032000808f500080
:1034b00003003a000000eb00000f98000300370003
:1034c0000e0890000000e800000f98001e407800f1
:1034d000e64f50006d003a009e089000b0032000b7
:1034e000808f500003003a000000eb00100f98009e
:1034f000690037001e0890000000e800100f9800d7
:10350000650037001e4078000004e00009003a0022
:103510003e0090000000e00003003a00300620006a
:1035200030079800030037003e0090000000e900db
:10353000300798001e407800e14f500009003a0023
:103540004e009000e10f500003003a00c000200040
:1035500040079800030037004e0090000000e9008b
:10356000400798001e407800e24f500009003a00e2
:103570005e009000e10f500003003a00f0012000cf
:1035800050079800030037005e0090000000e9003b
:10359000500798001e407800e34f500009003a00a1
:1035a0006e0090000000e00003003a006000200080
:1035b00060079800030037006e0090000000e900eb
:1035c000600798001e407800e44f500009003a0060
:1035d0007e0090000000e00003003a00700120002f
:1035e00070079800030037007e0090000000e9009b
:1035f000700798001e407800e54f500009003a001f
:103600000e0890000000e00003003a00b003200024
:10361000000f9800030037000e0890000000e9003a
:10362000000f98001e407800e64f500019003a0045
:103630001e0890000000e00003003a00b0032000e4
:10364000100f9800140037001e0890000000e900d9
:10365000100f9800100037001e407800e64f500011
:1036600006003a000040eb00004f7800800207009f
:1036700010c0b30010479800070037001e407800c4
:103680000040e800004f7800030037000000000011
:10369000010037000000000058052000383b88007a
:1036a000a80a2000383b880027a6a80027e6a90022
:1036b000313180000030200001007000303188007e
:1036c0003e00900004fe0700203188004e0090006c
:1036d00001fe0700c804dd005e009000fefd07004b
:1036e00000804400203188006e009000fafd070041
:1036f000c804dd007e009000f7fd07000080440054
:10370000203188000e089000f3fd0700c804dd009a
:103710001e089000f0fd0700008044002031880062
:1037200027e6a80027a6a9001e4090000004e0009c
:10373000b5fe32004e0207009428ef004f04be0091
:103740000080fa00000006000600fa00000f780072
:1037500011079800220798001e00780080004000a2
:10376000c0be28000080400010007800500607000e
:103770009e009000810f50000b003a001e00780060
:1037800080004000a0bf28000080400010007800aa
:1037900047060700ae009000810f500002003a007b
:1037a00010002000804588001e0078008000400046
:1037b00080c0280000804000100078003c06070010
:1037c0009e009000810f50000a003a001e00780011
:1037d0008000400060c12800008040001000780098
:1037e00033060700ae009000810f500001003a0040
:1037f000b028ef0080458000004078000080fa008b
:10380000000006000200fa000000eb00000f780044
:10381000b368ef004000370077050700b3e8b70052
:10382000c05d20009e007800808f500087003c0023
:10383000b3c8bf000080fb00e30f5000030032005c
:10384000e40f50000900320014003700b2c8bf0076
:103850000040e900b2e8b700b2c8bf000004e000d1
:103860000b003d00b268ef000c003700b2c8bf008b
:103870000040e800b2e8b700b2c8bf00e64f500011
:103880000500340060c0b300b2e8b70003003700a1
:103890000000000001003700000000001e0078005a
:1038a000e20f500005003c00f10107004205200036
:1038b00051c0b30080b42800a701070011c0b300b5
:1038c0000040eb009501070090c62800db010700cf
:1038d000b2c8bf000000fb00800040000080200054
:1038e0000080400010007800d401070031c0b30010
:1038f0000040eb008901070090c72800cf010700b6
:1039000041c0b3000040eb0084010700e0c828007c
:10391000ca0107001e0fe800b3c8bf00e24f500005
:10392000bdff3a00d20107004205200051c0b3009c
:1039300080b4280088010700b2c8bf000000fb0067
:1039400080004000c0be28000080400010007800c9
:10395000d705070000407800420007008000fb0008
:10396000b2c8bf000000fb0000014000c0be28003c
:103970000000410010007800ae050700b2c8bf008b
:103980000000fb0080004000a0bf28000080400035
:1039900010007800c6050700004078007c00070092
:1039a0008000fb00b2c8bf000000fb000001400027
:1039b000a0bf280000004100100078009d0507000e
:1039c000b2c8bf000000fb008000400080c028009b
:1039d0000080400010007800b50507000040780026
:1039e000b70007008000fb00b2c8bf000000fb006a
:1039f0000001400080c02800000041001000780055
:103a00008c050700b2c8bf000000fb00800040002a
:103a100060c128000080400010007800a405070065
:103a200000407800f10007008000fb00b2c8bf0032
:103a30000000fb000001400060c1280000004100c0
:103a4000100078007b05070001003700000000002f
:103a5000870107000000eb00000f78000080fa00eb
:103a6000000006000600fa00404798000000eb0046
:103a7000000f7800ce409000214798000040eb00f6
:103a800030479800dc0407003047980038003700c2
:103a9000d9040700304798001e0fe80000a62e004a
:103aa00001002000f3050700401f20009e00780061
:103ab000808f5000040034000000eb00000f7800fd
:103ac00020c0b3003047980011c0b3000040eb00a5
:103ad00012010700f0c928005801070011c0b30007
:103ae000d0c3b3000d0107002e4090000000fb0082
:103af0008041eb000041eb0021c0b3006d010700e5
:103b00003e4090000000fb00e30f50000300320035
:103b1000e40f50000a003200150037002e409000dc
:103b20000040e900204798002e4090000004e0008b
:103b30000c003d0070c1b300204798000c00370016
:103b40002e4090000040e800204798002e40900052
:103b5000f74f5000050034000040eb00204798006c
:103b600003003700000000000100370000000000e3
:103b70003e409000e24f5000c5ff3a000000eb00cd
:103b8000000f78002e4090000080fa000000060030
:103b90000600fa00404798000000eb00000f780094
:103ba000ce409000214798000040eb00304798003d
:103bb0009104070030479800390037008e04070051
:103bc000304798001e0fe800003e29004100200009
:103bd000a8050700c05d20009e007800808f50007f
:103be000040036000000eb00000f780020c0b30096
:103bf0003047980021c0b3000040eb00c700070029
:103c0000d0ca28000d01070021c0b300d0c3b30003
:103c1000c20007002e4090000000fb008041eb0036
:103c20000041eb0021c0b300220107003e4090009c
:103c30000000fb00e30f500003003200e40f5000cf
:103c40000a003200160037002e40900065405000f8
:103c5000204798002e4090000004e0000d003d0039
:103c600070c3b300204798000d0037002e4090002d
:103c70006540400020479800ae40900070c3b300fc
:103c800080cf5000050034000040eb002047980032
:103c900003003700000000000100370000000000b2
:103ca0003e409000e24f5000c4ff3a000000eb009d
:103cb000000f78002e4090000080fa0000000600ff
:103cc0000600fa00404798000000eb00000f780063
:103cd000ce409000214798000040eb00304798000c
:103ce00045040700304798003800370042040700b9
:103cf000304798001e0fe800003e290041002000d8
:103d00005c050700c05d20009e007800808f500099
:103d1000040036000000eb00000f780020c0b30064
:103d20003047980031c0b3000040eb007b00070033
:103d3000d0cb2800c100070031c0b300d0c3b3000e
:103d4000760007002e4090000000fb008041eb0051
:103d50000041eb0021c0b300d60007003e409000b8
:103d60000000fb00e30f500003003200e40f50009e
:103d70000a003200150037002e4090000040e90094
:103d8000204798002e4090000004e0000c003d0009
:103d900070c1b300204798000c0037002e409000ff
:103da0000040e800204798002e409000f74f500058
:103db000050034000040eb00204798000300370066
:103dc0000000000001003700000000003e409000ad
:103dd000e24f5000c5ff3a000000eb00000f7800f2
:103de0002e4090000080fa00000006000600fa0055
:103df000404798000000eb00000f7800ce40900094
:103e0000214798000040eb0030479800fa03070074
:103e10003047980039003700f70307003047980013
:103e20001e0fe800003e2900410020001105070098
:103e3000c05d20009e007800808f50000400360096
:103e40000000eb00000f780020c0b300304798005e
:103e500041c0b3000040eb003000070090cc2800c8
:103e60007600070041c0b300d0c3b3002b000700a9
:103e70002e4090000000fb008041eb000041eb0071
:103e800021c0b3008b0007003e4090000000fb0003
:103e9000e30f500003003200e40f50000a0032002c
:103ea000160037002e4090006540500020479800d3
:103eb0002e4090000004e0000d003d0070c3b300f0
:103ec000204798000d0037002e40900065404000cc
:103ed00020479800ae40900070c3b30080cf5000e0
:103ee000050034000040eb00204798000300370035
:103ef0000000000001003700000000003e4090007c
:103f0000e24f5000c4ff3a000000eb00000f7800c1
:103f10002e4090000080fa00000006000200fa0027
:103f2000004f78001147980000c8b3001e40700091
:103f3000804078000040eb00e30007001e40900046
:103f40000064a000804078000040eb00de00070025
:103f50000080fa00000006000800fa001007980030
:103f600041479800320798004e409000804078000a
:103f70000040eb00e9ff07000000eb00000f7800b5
:103f8000070037001e0090001e004000104078001f
:103f90008040780010c0b300cb0007001e0fe8007f
:103fa0003e0090009e007800808f5000f5ff3900a1
:103fb0000080fa00000006000400fa002047980084
:103fc0002e4090000000fb000002b100000f7800be
:103fd0001e0078006300b90000007800000f780030
:103fe00080cd28001e0040001040780080407800fe
:103ff00010c0b300b40007001e00e80081cd280007
:10400000614078008040780010c0b300ae00070027
:104010001e80e80081cd2800614078008040780053
:1040200010c0b300a80007008040eb0010c0b30030
:10403000a50007000080fa00000006000200fa0058
:10404000000f7800040037001e0078001040780050
:104050001e0fe800d8ff07001e007800104078000f
:104060000004e000f8ff3a000080fa0000000600bb
:104070000200fa000000eb00000f78000400370097
:104080008040eb0010c0b3008f0007001e0fe80057
:10409000701f20009e007800808f5000f8ff3400d1
:1040a0008040eb000040eb009cff07000080fa001e
:1040b000000006001000fa0050079800414f9800d9
:1040c000524f9800634f9800e40047000100090038
:1040d0008018eb008058eb0040002000000f7800b3
:1040e0000000eb00100798005e0090000000e00068
:1040f00006003d00d0c2b300afff07005e00900095
:104100000000ea0050079800180037006e48900041
:10411000e14f500015003a00b0c2b300a6ff0700ff
:1041200012003700de009000a0002000000178009f
:10413000110009008200d8008000fd008040780056
:10414000640047001e004000014878005e019000b6
:10415000706626000090b900c288de004f90de0035
:1041600000805000500798001e0fe9005e0090008c
:104170000000e000ebff3a004e489000e14f4000a5
:104180000b003a00030037001e0090000000e8001a
:1041900010079800e40047001e00900000804000d7
:1041a000104078000004e000f7ff32000400370000
:1041b0004e4890000000fb006500100010079800ba
:1041c0009e009000010f7800060037006400470051
:1041d0001e004000104078000043b00076ff07004a
:1041e0001e0fe8005e4890000000fb006500100014
:1041f0009e0f5000f5ff3c005e489000e14f5000dc
:1042000005003a00e0c2b3006bff07000e489000c3
:104210000043b00068ff07005e489000e24f500086
:1042200008003a00e0c2b30063ff07007e40900040
:104230000043b00060ff07000e4890000043b0004c
:104240005dff07000080fa00000006000000fa0091
:10425000d0a2a900d082a900d062a900d0e2a90012
:10426000d0c2a900d482a900d4a2a900d462a90016
:10427000d4c2a900d4c2a80011c2b3000040eb0010
:1042800011000700e1cbb3000040eb000e00070077
:1042900051c0b3000040eb000b00070041c1b30068
:1042a0000040eb000800070001c2b3000040eb0033
:1042b00005000700c1c0b3000040eb00020007008a
:1042c0000080fa00000006000400fa002047980071
:1042d00031479800be409000114798002e40900052
:1042e0000004e00002003a00d462a9000100370097
:1042f000d462a800d4e2a9000040eb00004f78008f
:104300000b003700d482a9001e4090000004e0009a
:1043100001003d00d482a800d4a2a8001e40900055
:104320000040400010479800d4a2a9001e4fe800aa
:104330001e407800e74f5000f2ff3600d4e2a8009c
:104340000080fa00000006000200fa000000eb0006
:10435000000f7800080037001e0078000040780049
:104360008040eb00edfe070011c0b30010c0b300a9
:10437000d5ff07001e0fe800300520009e007800e2
:10438000808f5000f4ff34000000eb00000f780035
:10439000080037001e0078000040780051c0b300cc
:1043a000defe070001c8b30010c0b300c6ff07005f
:1043b0001e0fe800300520009e007800808f50001e
:1043c000f4ff34000000eb00000f78000900370014
:1043d0001e007800004078008040780030c5b300af
:1043e000cefe070080c0eb0010c0b300b6ff070090
:1043f0001e0fe8001e007800e50f5000f4ff3400a7
:104400000000eb00000f7800090037001e00780064
:1044100000407800804078000040eb00bffe0700bd
:1044200080c0eb0010c0b300a7ff07001e0fe8001c
:104430001e007800e50f5000f4ff34000080fa0001
:10444000000006000800fa00881f7800004f78007e
:104450001107980022079800330798001e04fb00fc
:104460001e009000cf80de002cf10700c241dd006d
:10447000c2822000028141000089be001e04fb00b0
:104480002e009000cf80de0024f10700c241dd0045
:1044900082832000028141000089be001e04fb00cf
:1044a0003e009000cf80de001cf10700c241dd001d
:1044b00042842000028141000089be001e00fb00f2
:1044c000c200dd0060852000008140006000b8006f
:1044d0000089be001e00fb00c200dd00e086200057
:1044e000008140006000b8000089be004f047800e1
:1044f0000080fa00000006001600fa00889fbe0047
:104500008a1f780000579800110f9800220f98001a
:104510006000b80020079800310798009e089000be
:104520002e089000008050008000eb00fef0070095
:1045300040079800510798000e5090000080fb0043
:10454000c200dd00c0822000008040001000be00dc
:104550004e019000de0190009ff107006007980077
:10456000710798000e5090000085fb000e509000df
:104570000080fb00c200dd0060852000008040005c
:104580001004be000e5090000080fb00c200dd0051
:1045900080832000008040001000be004e0190008b
:1045a000de0190008cf107000001be000800be0093
:1045b000fbef0700c251dd0062852000028141004f
:1045c0000089be000e5090000080fb00c200dd009c
:1045d00060852000008040001004be000e50900056
:1045e0000080fb0080004000a08720000080400089
:1045f00010007800cf80de00c8f007001ac0b300ba
:104600000001be000800be0084f007000000e000ca
:10461000010035000045eb000a04e0000e00320006
:104620000e5090000084fb000e5090000080fb00b4
:1046300080004000a087200000804000100078002b
:10464000cf80de00b5f00700c241dd0062852000aa
:10465000028141000089be000e5090000080fb00e6
:10466000c200dd0060852000008040001004be0014
:104670000e5090000080fb0080004000008520006c
:104680000080400010007800cf80de00a3f007001b
:104690001ac0b3000001be000800be0061f00700b0
:1046a0000000e00001003c000045eb000a04e000cf
:1046b0000e0032000e5090000084fb000e5090005f
:1046c0000080fb008000400000852000008040004a
:1046d00010007800cf80de0090f00700c241dd00be
:1046e00062852000028141000089be000e509000ca
:1046f0000080fb00c200dd0020862000008040001a
:104700001000be000001be004e009000de009000d0
:10471000a2ef07000002be000e5090000080fb00d8
:10472000c200dd0040842000008040001000be0078
:104730000001be000400be0027f10700200798001a
:10474000310798000e5090000080fb00c200dd0091
:1047500020862000008040004e019000de01900085
:104760000288be000e5090000080fb00c200dd00f9
:1047700060852000008040001000be006e019000a7
:10478000fe01900086ef07002e019000be01900010
:1047900083ef0700008fbe000e5090000080fb00ea
:1047a00080004000a08720000080400010007800ba
:1047b000cf80de0059f0070018c0b3001e01be0014
:1047c00018f007000000e00001003c000044eb008e
:1047d0000804e000090032000e5090000080fb0049
:1047e00080004000a087200000804000100078007a
:1047f000cf80de0049f00700008fbe000e50900011
:104800000080fb0080004000008520000080400008
:1048100010007800cf80de0040f0070018c0b30021
:104820001e01be00fdef07000000e00001003500a2
:104830000044eb000804e000090032000e50900034
:104840000080fb00800040000085200000804000c8
:1048500010007800cf80de0030f00700008fbe002f
:104860001e00be004f0578004f04be000080fa0015
:10487000000006000200fa00000f78001e00780019
:104880008000eb0028f007000001be0000002f00b0
:10489000f15724009fef07000200200003f82300d7
:1048a0003eef07000001be0000802600c161240029
:1048b00098ef07004045880051458800404580003a
:1048c0005145800002802a00d361240091ef070047
:1048d0006045880071458800604580007145800012
:1048e00066f00700604588007145880060458000db
:1048f00071458000b2072100a357240085ef07000f
:1049000060458800714588006045800071458000e1
:10491000f2f02c00b3b5230021ef070060458800ba
:104920007145880060458000714580000001be002f
:104930000000200001f8230076ef070060458800a2
:104940007145880060458000714580003233290040
:104950008338240011ef0700604588007145880006
:104960006045800071458000020020000312240091
:1049700099f0070060458800714588006045800017
:1049800071458000020020000311240092f007000e
:1049900002002000030a24005eef0700020020004e
:1049a000033a2400feee0700604588007145880048
:1049b0006045800071458000bdef07000000780071
:1049c0008000eb00d8ef07000080fa00000006002e
:1049d0000c00fa00404798005147980032079800b1
:1049e0004307980054079800de009000010f7800fc
:1049f000010107002047980033003700fe00070040
:104a000020479800304580000000e80030458800cd
:104a100000c4290001002000160207003145800073
:104a2000803e2000808f50000400340090fd07007d
:104a3000a628ef000040eb0020479800de409000e1
:104a40004e40900035fd07008041eb0012c0b300de
:104a500041c0b3001e00780096fd07002e40900074
:104a60000000fb00e30f500003003200e40f500091
:104a700009003200130037001e0fe9003e009000cd
:104a80009e007800808f50000b003c00be0090001c
:104a9000010f78000b0037001e0fe8004e00900059
:104aa0009e007800808f500005003500ce009000f9
:104ab000010f7800030037000000000001003700fc
:104ac000000000000060fe002e409000e24f500009
:104ad000caff3a00a628ef001e0078000080fa0006
:104ae000000006000400fa000040eb00004f7800d0
:104af0005a40a800c042a800c122a800c062a90074
:104b0000c162a900c462a800c562a900d00020004b
:104b10008001070010079800c462a9005a40a9004c
:104b20009e009000b00d2000808f500002003c00dd
:104b3000bc68ef00bd68ef009e009000b00d200043
:104b4000808f5000070034009e009000104e20001f
:104b5000808f500003003c0010c0b300004f78006d
:104b6000140037009e009000104e2000808f5000ef
:104b7000070034009e00900030832000808f50009a
:104b800003003c0020c0b300004f7800090037004c
:104b90009e00900030832000808f5000030034007e
:104ba00030c0b300004f7800020037000040eb0037
:104bb000004f78001e407800e14f500003003a009b
:104bc00010c0b300bce8b7000e0037001e407800ec
:104bd000e24f500003003a0020c0b300bce8b70029
:104be000080037001e407800e34f500003003a00f1
:104bf00030c0b300bce8b70002003700bc68ef006b
:104c0000bd68ef00bcc8bf000004e0002300320014
:104c1000800020000100200096010700bcc8bf00f2
:104c2000bee8b700bdc8bf000040e800bde8b7005f
:104c3000bdc8bf00e14f500002003a00bec8bf002f
:104c400017003700bdc8bf00e14f50000700360015
:104c5000d18b20009140780020c3b30080cf50005a
:104c600002003e0040c0b3000d003700d18b200091
:104c70009140780020c3b30080cf5000050036007b
:104c800000d42000310020007a010700bec8bf0018
:104c9000030037000040eb00010037000040eb004c
:104ca0000080fa00000006000000fa0005e1a900fb
:104cb0000421a80021088000f0cf2f0000806000b0
:104cc0002008880021088000f0fc2f000080600090
:104cd0000050a0002008880005e1a80011e1a9000b
:104ce0008108800000032000010070008008880017
:104cf000e03020006008880011e1a80013e1a9005d
:104d000091088000000320000100700090088800d6
:104d100013e1a8000080fa00000006000000fa007d
:104d20009621ef0000102000a00c8800900c80005d
:104d3000f001b300900c880092e1a900810c800082
:104d4000f03f2e000080600000c0a000800c8800b2
:104d50009821ef00810c800080ff2f000080600010
:104d60006000b300800c8800a021ef0040e8210023
:104d7000f00c8800e00c8000f001b300e00c88002b
:104d80009ce1a900d10c8000f03f2e000080600063
:104d900000a0a000d00c8800d10c800080ff2f0064
:104da000008060006000b300d00c8800aa21ef00f2
:104db00040e82100400d8800300d8000f001b30074
:104dc000300d8800a6e1a900210d8000f03f2e00e3
:104dd0000080600000a0a000200d8800210d800050
:104de00080ff2f00008060006000b300200d88006d
:104df0000080fa00000006000000fa0070002000a9
:104e0000c4000700b0458800b1458000c05d2000a7
:104e1000808f500007003600b14580009087200049
:104e2000808f500003003e0010c0b300b8e8b70008
:104e30001e003700b145800090872000808f500011
:104e400007003600b145800010a82000808f500078
:104e500003003e0020c0b300b8e8b70013003700dd
:104e6000b145800010a82000808f50000700360058
:104e7000b1458000d0dd2000808f500003003e004f
:104e800030c0b300b8e8b70008003700b145800073
:104e9000e0dd2000808f50000300360040c0b300ea
:104ea000b8e8b70001003700b868ef00b8c8bf0025
:104eb0000004e00019003200818b2000914078004e
:104ec000b9c8bf0080cf500004003200b8c8bf008e
:104ed000b9e8b700ba68ef0013003700bac8bf00de
:104ee0000040e800bae8b700bac8bf00e14f500080
:104ef00002003a00b9c8bf000c003700bac8bf00b2
:104f0000ea4f50000700340000122a007100200010
:104f1000d8000700b9c8bf0004003700ba68ef0026
:104f200001003700000000000040eb000080fa00a4
:044f30000000060077
:020000040000fa
:104f3400b0080000060000000000000000080000a7
:104f44002c000000020000009c8ba0008ba48b00ae
:104f5400a88bac008bb08b00b48bb8008bbc8b00df
:104f6400c08bc4008bc88b00cc8bd0008bd48b003f
:104f7400d88bdc008be08b00e48be8008b173700c8
:104f840017370000a60800000a0000000000000017
:104f9400bc08000004000000000000002c08000011
:104fa4002a00000002000000000048004200000047
:104fb4004842000000484200000070004100000028
:104fc40070410000007041000000c8004100000072
:104fd400c841000000c84100ff1fff001fff1f0061
:104fe400560800002a00000000000000b608000077
:104ff4000600000000000000800800001a00000005
:10500400000000009a0800000c00000002000000ec
:105014000000020000040000288a34008a408a004c
:10502400c0080000020000000000000000000000b2
:020000040000fa
:105034000400fa00000f78001107980040002400d3
:10504400003b8800f00720000040780032e0b70001
:1050540001e02f001e00780000804000000f78005f
:105064009e0090001e0078000108bb000500fc00b3
:1050740050052000303b8800a00a2000303b880007
:1050840061e7a8000000000000000000000000002c
:10509400013b800000002800008060000000e00068
:1050a400fbff3a000080fa00000006000200fa004c
:1050b400000f7800f00720000040780032e0b700cd
:1050c40001e02f001e00780000804000000f7800ef
:1050d4001e0078001000ba000080fa0000000600ec
:1050e4000000fa0000402800001a88004223ef0064
:1050f40050002000201a88004823ef005023ef00be
:1051040000042000701a88000080fa0000000600e5
:105114000400fa00100798009e009000411a8800cd
:10512400401a8000fa0f500004003a005583a8008a
:1051340000052000010020004d0007004023a800c6
:105144004006200001002000490007004023a90078
:105154000100370085a0a900001a800061006000ea
:105164000000e000fbff32005583a9000118800015
:10517400010f78001e0078000080fa00000006008d
:105184000200fa00e0002000e1ff0700000f7800b1
:10519400b03120009e007800808f500003003c0056
:1051a4000000eb00000f78001000370020f820000a
:1051b4009e007800808f50000300340040062000d9
:1051c400000f78000900370041ce2f001e804000f8
:1051d400cf80de00d0ed070052b82e00d31f24008c
:1051e4004bed070090ed0700000f78001e007800db
:1051f400004078000080fa00000006000000fa0079
:105204000080fa00000006000000fa0010082000e8
:1052140000168800c0c028004016880030202000f6
:10522400801688001000200000278800c000280095
:10523400102788003000200020278800c222ef00b9
:10524400ca22ef00d222ef00ecff0700a4ff070000
:10525400fdfb070000a821006100200004000700f6
:1052640082fb070041f707000080fa0000000600f7
:020000040000fa
:10527400f03fb1000180b10006003500ee030900e3
:1052840000000000403fb1000180b100fbff3d0081
:105294001000b000203fb00002003500008009007b
:0852a4000000000000000600fc
:020000040000fa
:0200000400fffb
:10fc000000000000000000000000000000000000f4
:10fc100000000000000000000000000000000000e4
:10fc200000000000000000000000000000000000d4
:10fc300000000000000000000000000000000000c4
:10fc400000000000000000000000000000000000b4
:10fc500000000000000000000000000000000000a4
:10fc60000000000000000000000000000000000094
:10fc70000000000000000000000000000000000084
:10fc80000000000000000000000000000000000074
:10fc90000000000000000000000000000000000064
:0cfca00000000000000000000000000058
:020000040000fa
:0200000401f009
:04000000ffff0000fe
:020000040000fa
:0200000401f009
:04000800ffff0000f6
:020000040000fa
:0200000401f009
:04000c00ffff0000f2
:020000040000fa
:0200000401f009
:04001000bbff000032
:020000040000fa
:0200000401f009
:04001400ffff0000ea
:020000040000fa
:0200000401f009
:04001800ffff0000e6
:020000040000fa
:0200000401f009
:04001c00ffff0000e2
:020000040000fa
:0200000401f009
:04002000ffff0000de
:00000001FF
