:020000040000fa
:080000000002040000000000f2
:020000040000fa
:100008009a0200009a0200009a0200009a02000078
:100018009a0200009a0200009a0200009a02000068
:100028009a0200009a0200009a0200009a02000058
:100038009a0200009a0200009a0200009a02000048
:020000040000fa
:020000040000fa
:10040000ef8a20000eff20000e018800000000008f
:10041000000020000000e000020032000001200087
:10042000200288000c000700603822000100200034
:1004300011000700000020000000e0000200320070
:10044000000002000000000038140200000000005c
:100450000040da000000fe004440a900c04e200029
:100460000000e0000300320000002000a00188002e
:100470004440a80000000600910188008000780038
:100480000000eb0015003700e280400032a0b4000d
:100490009101ba00e280400032a0b4009102ba009b
:1004a000e280400032a0b4000002eb00472bde00e7
:1004b000f507b200602ce10004003a000059eb009f
:1004c0008301e900fdff3e00040037006128e100e0
:1004d000010032000082eb00040007001101ba00a5
:1004e0000200e000e8ff3a00000006003159ba00bf
:1004f0008301e9000c0032002159ba008301e900b0
:10050000080032000400e00003003a00e2804000ee
:1005100032a0b400f5ff370011d9ba008301e90019
:10052000faff3a008100e800e180400032a0b40008
:10053000000006000040da000000fe0003f0a20008
:10054000889fbe008a9fbe008c1f78001b01070099
:10055000220133006450e1004f0032006420e100ca
:100560005200320003826c0007003b000905d000f6
:100570000306d000820f54000c065d000200390013
:100580000200320089017800030678008582550058
:1005900004003d000003fd008103fd008502ea0028
:1005a0008b854200840f720002003b006000100047
:1005b000e08018006011b8000005eb007a28e10027
:1005c0000a00390006007800c75ddd00f707b200b9
:1005d000878075002d003700828171000a01780044
:1005e000610560008180d1000080d3008502e900b0
:1005f000f9ff3b00060440008784480002003b00ee
:1006000060041400e0841c000988a3000700320085
:100610008a81710082817100610164008904d100c6
:100620000884d3008b05e800170037000978a30081
:1006300013003a000b00e000130034008b05e900c2
:100640000804440089844c000a4474000978a3001b
:100650000d003a000b00e000070034008b05e900b4
:100660000804440089844c0001003a000b0020007b
:100670000978a300f7ff32000001eb000200370009
:10068000828171000a017800910007000cf0a70038
:1006900001f0a000da0037006420e10002003a0017
:1006a000838f6c00da0033000801be000200be0038
:1006b000d3003700889fbe008a9fbe008c1f780041
:1006c000be000700c500330003866c006450e100e3
:1006d0002e0032006420e100330032006150e1005e
:1006e0002f0032006120e100310032008585550085
:1006f000eb07b000090020000804200005003700c7
:100700000804440089844c000a00310006034300b9
:1007100087834b000001530081815b00f8ff3300a9
:100720000203be000800a0000804440089844c00b5
:10073000f6ff3900c639dd00830173000100320085
:10074000130020008904d1000884d3000998a30075
:10075000050032000800a7000300a0008904d100b2
:100760000884d3008b05e8008904d1000884d300f5
:100770000001eb000281d2005500070001f0a1004a
:100780000cf0a70001f0a0009d0037006420e100fc
:100790009f0032000801be000200be00f7ff3700d4
:1007a0006120e1009a0032006000b800f3ff3700da
:1007b0000000200001f82700f0ff3700140020009f
:1007c000ca003700f4ff2f00c80037000001be0048
:1007d000650007000470a70003f0a1006509b100df
:1007e000160032000d0035006828e10006003500d3
:1007f000f0ff2f00f1ff27000300e00013003b0093
:100800000100280000000500000040008180480031
:100810008502e900fcff3a0008003700f88f42002b
:1008200002003c008000eb00000005008100d100c8
:100830000080d3008502e800fcff3a000300e000de
:1008400002003b0060001000e0801800000006007d
:100850000001be00440007000470a70003f0a100df
:1008600003f8a30013003a006509b100100032003c
:10087000090035006928e100020035000100280068
:100880000000050000004000818048008502e9006a
:10089000fcff3a0000000600f88f4200050035001a
:1008a0008100d1000080d3008502e800fcff3a00ff
:1008b000000006008000eb00000005004f89de000c
:1008c00082017800a40037006011b800b200370040
:1008d00081002000618055000b003d000b002000ce
:1008e00061fe2f000100e1001d00340082817100d3
:1008f000610164008904d1000884d3000000e8008d
:10090000faff3a00710020006100640003007000eb
:10091000020060000900320061044400e0844c00e1
:100920000988a500050032008b05e8006808e10091
:1009300002003a008904d1000884d300f20f20009d
:100940000258e10005003d00c75ddd00f907b20077
:100950008980750008007800000006000bf8270069
:100960008b00780000000500c70ade00f107b20026
:10097000f50fb20008003200e1cf42000200320061
:100980000170a00024000500810f700001003200fa
:100990000408050044000500810f700002003a00c1
:1009a000140005008502e9000000400081c04800f5
:1009b000fcff3b000170a000240005000004be0005
:1009c000e9ff07000003be000405be000200be00f0
:1009d000e5ff0700844f7500000006000200be001e
:1009e0006450e100050036006420e100020036009a
:1009f0000968a30001003a000800be000160a000e1
:100a00004f0678004f05be004f04be0000000600f0
:100a1000f0ff2f00f1ff2700f9ff3700889fbe008d
:100a20008a9fbe008c1f7800e4ff0700ebff3300b5
:100a300003866c006450e100240032006420e10071
:100a4000270032006150e100220032006120e10005
:100a5000210032008b854200eb07b1000134b80061
:100a6000003ab8000804420089844a00013ab800fc
:100a70000030b8008880400009014a0004003300bb
:100a80000000400081804800020149008b05e90018
:100a9000c909dd008301700001003200130020004d
:100aa000c814de004814dd004709de001200b20061
:100ab000c808de000884700085ff070001f0a1006f
:100ac0000cf0a70001f0a000cdff37006120e1008d
:100ad000cfff32000801be000200be00f7ff370062
:100ae0006150e100fcff3a00c9ff3700889fbe005b
:100af0008a9fbe00841f7800b0ff07004f00780077
:100b000011003300f0ff2f00838f6c0006003b00c4
:100b1000040565000a00a7000800370009f0a600d8
:100b20001000200008003700820f5400838f5c0003
:100b3000030039001000200001003e0000002000ea
:100b400009f0a7000000ea004f05be004f04be00f8
:100b50000000e00000000600881f78000304780011
:100b60000300e00007003d0060001000e080180076
:100b700060011900e081190002003b0001f02d0026
:100b8000030037000400070008f0a70001f0a000f0
:100b90004f04780000000600889fbe008a9fbe00b8
:100ba000008270000402710004827100260032008d
:100bb0000004be000200be006011b8006b092000f6
:100bc000950220000182cf000a0039000541b100e2
:100bd0000082cf00070039000541b1000982cf0033
:100be000040039000541b1000882cf00010039003e
:100bf0000541b10005425200120032000a003b00dc
:100c000082817100610164008100d1000080d30005
:100c10008984d3000884d3008b05e8000442e800ef
:100c2000f7ff3a00070037000804440089844c00ad
:100c300000004800818048008b05e9000442e9007b
:100c4000f9ff3a0022ff07004f05be004f04be0027
:040c5000000006009a
:020000040000fa
:100c5400ff81000083ff000083810000c9fb0000c6
:100c6400c1810000fdb90000fd810000b9d500007c
:100c7400d981000081ff00008181000081c500004e
:100c8400cbb3000081850000bfc5000081e10000f6
:100c94009987000081c50000cbb3000081fd0000ee
:100ca400a59900008181000081ff0000818100007e
:100cb400ff9300008d81000081c30000ffc300008a
:100cc40081810000ffc30000bd81000081ff00009e
:100cd4008181000081810000ffb30000cf8100000a
:100ce400c9d50000a581000085bf0000c5810000b2
:100cf4008181000081ff0000ff810000fd9d000054
:100d0400fd810000b9d50000d9810000fd850000f7
:100d1400f9810000fdc10000fd81000081ff000099
:100d24008181000081ff0000cbc3000081fd000031
:100d340085f9000081850000bfc5000081b900006d
:100d4400d5d9000081f900008585000081ff0000ed
:100d540081810000ffc30000bd810000b9c500000f
:100d6400b9810000fdb10000fd810000fd85000097
:100d7400f981000081ff0000818100008181000071
:100d840081810000fdc10000fd810000fda500007f
:100d940099810000818100008181000081ff0000b1
:100da400ff810000818100008181000081810000b9
:100db4008181000081810000818100008181000027
:100dc4008181000081ff00008181000081ff00001b
:100dd400cbc3000081fd000085f90000818500007f
:100de400bfc5000081b90000d5d9000081f9000019
:100df4008585000081ff000081810000ffc30000a1
:100e0400bd810000b9c50000b9810000fdb100003a
:100e1400fd810000fd850000f981000081ff0000d4
:100e2400818100008181000081810000fdc10000fa
:100e3400fd810000fda50000998100008181000072
:100e44008181000081ff00000c0000001000000000
:100e540014000000180000001c0000002000000026
:100e6400220000002400000026000000576100005a
:100e74007465000072200000546500006d7000006d
:100e84003a00000053740000656100006d2000000a
:100e9400546500006d7000003a00000047720000c5
:100ea4006f75000070200000546500006d70000034
:100eb4003a000000507200006573000073200000c7
:100ec40022540000696d00006522000020740000b7
:100ed4006f20000053650000740000007468000077
:100ee400652000004375000072720000656e00000a
:100ef40074200000546900006d6500000054000077
:100f0400616e00006b2000004c65000076650000f7
:100f14006c3a0000004c00004f57000000530000e2
:100f2400686f000074200000546900006d650000c3
:100f3400723a0000005000007265000073730000f4
:100f440020220000454e00005445000052220000bb
:100f5400204b000065790000007400006f20000041
:100f640053650000742000007468000065200000d0
:100f7400546900006d6500000050000072650000b7
:100f84007373000020220000454e00005445000009
:100f940052220000207400006f20000053650000fe
:100fa400742000005374000061720000742f00006c
:100fb400537400006f70000020540000696d00003d
:100fc40065730000005000004944000020530000f5
:100fd40065740000746900006e67000073200000ef
:100fe400666f000072000000557000002f4400007e
:100ff4006e2000004b65000079730000207400002f
:101004006f20000043680000616e00006765000007
:101014000020000020220000456e000074650000de
:1010240072220000207400006f2000004163000061
:101034006365000070740000200000005365000028
:10104400745000006f6900006e740000203d0000c1
:10105400200000004465000061640000426100005b
:101064006e640000203d000000470000616900003c
:101074006e2000003d000000496e00007465000011
:1010840067720000616c0000203d00000044000015
:1010940065720000697600006174000069760000e2
:1010a400652000003d000000ff81000081810000f8
:1010b4008181000081810000818100008181000024
:1010c40081810000818100008181000081ff000096
:1010d4008181000081ff0000cbc3000081fd00007e
:1010e40085f9000081850000bfc5000081b90000ba
:1010f400d5d9000081f900008585000081ff00003a
:1011040081810000ffc30000bd810000b9c500005b
:10111400b9810000fdb10000fd810000fd850000e3
:10112400f981000081ff00008181000081810000bd
:1011340081810000fdc10000fd810000fda50000cb
:1011440099810000818100008181000081ff0000fd
:10115400537500006e0000004d6f00006e0000002b
:10116400547500006500000057650000640000002d
:101174005468000075000000467200006900000019
:1011840053610000740000004e5500004c00000044
:101194004a4100004e0000004645000042000000a5
:1011a4004d41000052000000415000005200000078
:1011b4004d410000590000004a5500004e00000057
:1011c4004a5500004c000000415500004700000053
:1011d40053450000500000004f430000540000003d
:1011e4004e4f00005600000044450000430000003c
:1011f400280000002a0000002c0000002e0000003f
:10120400300000003200000034000000360000000e
:10121400380000003a0000003c0000003e000000de
:1012240040000000420000004400000046000000ae
:10123400480000004a0000004c0000004e0000007e
:10124400500000005200000054000000560000004e
:10125400580000005a0000005c0000005e0000001e
:10126400224500006e740000657200002220000018
:101274003d2000006e6500007874000020460000e8
:10128400696500006c64000000550000702f0000c8
:10129400446e0000207400006f20000063680000aa
:1012a400616e00006765000020540000696d000055
:1012b400650000005e5e00000020000020200000a9
:1012c4005e5e00005e000000202000002020000080
:1012d4005e5e0000002000002020000000200000ce
:1012e400202000005e5e00000053000074610000d6
:1012f400727400002f530000746f0000702000000f
:10130400666f00007220000000550000702f00007e
:10131400446e0000204b000065790000732000003b
:10132400746f000020630000686f00006f7300009a
:1013340065000000456e0000746500007220000026
:101344004b65000079200000746f000020530000fa
:1013540065740000005300007461000072740000a2
:10136400204800006f750000722000003d2000003e
:10137400005300007461000072740000204d0000ee
:10138400696e000075740000652000003d200000b7
:1013940000530000746f000070200000486f0000cc
:1013a40075720000203d000000530000746f0000bf
:1013b400702000004d6900006e7500007465000027
:1013c400203d0000000000000000000000000000bc
:1013d4004e0000000600000006ff0000ffff0000b2
:1013e40048d600002412000008240000ffff00007b
:1013f400ff00000006000000384400008282000064
:1014040044380000140800003e10000038100000aa
:10141400a0600000001000001010000060600000d8
:1014240000600000180600007c4200007c440000bc
:101434007e400000645200004c4a00004a34000020
:10144400382400007e4e00004a3200003c4a00006e
:10145400326200001a060000764a0000764c000052
:10146400523c00006c6c000000ac00006c000000fa
:101474001028000044280000282800004428000008
:101484001002000059060000ffff0000ff7c00006e
:10149400127c00007e5a0000343c000042420000ee
:1014a4007e4200003c7e00004a4200007e0a0000aa
:1014b4000a3c0000523400007e0800007e42000016
:1014c4007e420000304000003e7e000018660000ae
:1014d4007e400000407e00001c7e00007e02000072
:1014e4007e3c0000423c00007e1200000c7e0000a6
:1014f40062fe00007e3200004e4400004a320000ca
:10150400027e0000027e0000407e00003e4000009b
:101514003e7e0000387e000066180000660e000063
:10152400700e0000625a0000460000007e42000077
:1015340006180000604200007e0000000402000063
:101544000440000040400000000200000474000059
:10155400547800007e480000303000004848000005
:10156400304800007e380000545800007c0a000017
:1015740002980000a47c00007e080000704800006f
:101584007a40000088fa0000007e00001864000021
:10159400427e0000407c0000387c00007c04000097
:1015a4007838000044380000fc24000018180000bb
:1015b40024fc0000780400000448000054240000c7
:1015c400043e0000447c0000407c00003c400000dd
:1015d4003c7c0000307c00006c1000006c9c00001f
:1015e400a07c0000645400004c0c0000120c0000ad
:1015f400ffff0000ffff0000ffff0000ffff0000ef
:10160400ffff0000ffff0000ffff0000ffff0000de
:10161400ffff0000fc4000007cff0000ffff000013
:08162400ffff0000ff000000c1
:020000040000fa
:10162c000600fa00200798002e029000040f7800a4
:10163c000002eb00140798001e027800e90f52001c
:10164c00060036001e0278006a0f52001e0290003f
:10165c007002420014079800f7ff37001e0290003a
:10166c001e024200140798001e029000040078002d
:10167c000080fa00000006000400fa001007980031
:10168c001e029000040f78001e0278000402d100a4
:10169c00040f7800840720001e0f62001e027800e1
:1016ac004222de009e0242001e0290006f02620087
:1016bc0004824200040078000080fa00000006005a
:1016cc000000fa00270020006504200076052000a9
:1016dc0020742000054878000648780007487800f8
:1016ec0054052000343b8800a40a2000343b8800b9
:1016fc0027a6a80027e6a900343180000480a000aa
:10170c000490a0003431880064012000243188004a
:10171c004402210024318800141220002431880056
:10172c0004932200243188000002eb00443188002d
:10173c0026e6a80026c6a80026a6a9002686a9008b
:10174c002666a9002646a9002626a9002606a90079
:10175c0027e6a80027a6a9009bc0a8000080fa00d5
:10176c00000006001400fa00881f780000047800be
:10177c00000000003531800004002100048262006a
:10178c00e00f5200fbff3a00343180000480a000cf
:10179c000490a000343188002431800004007800cb
:1017ac00b5ff070000027800340798002431800050
:1017bc00040f78001e0278004822de000400780036
:1017cc00adff07000002780044079800f40f2000da
:1017dc001e02620004007800a7ff070000027800d8
:1017ec005407980024318000140798001e029000c2
:1017fc004822de00040078009fff070000027800fa
:10180c00640798009e029000f40f2000048262008e
:10181c000400780098ff0700000278007407980015
:10182c0024318000240798002e0290004822de000c
:10183c000400780090ff070000027800040f980065
:10184c00ae029000f40f20000482620004007800c5
:10185c0089ff070000027800140f98006602470009
:10186c0006000900341c7800e800b100080078007c
:10187c004f0478000080fa00000006000e00fa0009
:10188c000e007800b7ff07008040eb000040eb0033
:10189c00510807001e0278008041eb000041eb006c
:1018ac0021c0b30004007800b3080700f0c2b300f5
:1018bc00710807001e02900084024200248620005a
:1018cc000482420014027800040078008b080700a0
:1018dc00f0c2b300680807002e0290008041eb00b4
:1018ec000041eb0021c0b30004007800a2080700ff
:1018fc008040eb0050c2b300370807003e02900056
:10190c0084024200448520000482420014027800c4
:10191c0004007800790807008040eb0020c3b30076
:10192c002d0807004e0290008041eb000041eb00b7
:10193c0021c0b300040078008f080700a0c3b300d7
:10194c004d0807005e0290008041eb000041eb0067
:10195c0021c0b3000400780087080700a0c3b300bf
:10196c00450807006e0290008041eb000041eb003f
:10197c0021c0b300040078007f0807000080fa0043
:10198c00000006001400fa00889fbe0066024700a3
:10199c000400780073ff07000042eb00044f78004e
:1019ac000042eb00144798000002eb00140798006b
:1019bc00570137001e029000e00f520005003a005c
:1019cc005c0807004205200051c0b3006085280068
:1019dc00110807001e0290000402e800140798008a
:1019ec009e02900004712200848f52000500360084
:1019fc000002eb00140798004e08070014c0b30057
:101a0c00144798009dff070021c0b30040c0b300ed
:101a1c00f1070700209328003808070031c0b300f5
:101a2c0040c0b300ec07070070942800330807008f
:101a3c001e427800e04f520005003a0011c0b3007e
:101a4c000040eb00e4070700c09528002b080700b6
:101a5c001e427800e14f520005003a0011c0b3005d
:101a6c000040eb00dc070700f09528002308070076
:101a7c001e427800e24f520005003a0011c0b3003c
:101a8c00c0c0b300d4070700609628001b080700ed
:101a9c001e427800e34f520005003a0011c0b3001b
:101aac0090c1b300cc070700f0952800130807007d
:101abc001e427800e44f52000a003a0011c0b300f5
:101acc0050c2b300c4070700d09628000b080700cb
:101adc0011c0b30020c3b300bf070700c095280096
:101aec00060807001e427800e54f520005003a0038
:101afc0011c0b30020c3b300b7070700109728002c
:101b0c00fe0707001e427800e64f520005003a001f
:101b1c0011c0b300e0c3b300af0707001097280053
:101b2c00f6070700320a0700004278004447980085
:101b3c004e4290000402fb00e30f52005d003200a5
:101b4c00e40f520003003200e20f5200ae003200ec
:101b5c00bd0037001e427800e04f52000a003a00e8
:101b6c00be02900034062000848f520003003a001d
:101b7c000002eb0034079800030037003e0290008f
:101b8c000402e800340798001e427800e14f52002e
:101b9c0009003a004e029000ec0f520003003a008c
:101bac001400200044079800030037004e029000f8
:101bbc000402e800440798001e427800e24f5200ed
:101bcc0009003a005e029000ff0f520003003a0039
:101bdc001400200054079800030037005e029000a8
:101bec000402e800540798001e427800e34f5200ac
:101bfc0009003a006e029000e60f520003003a0012
:101c0c000002eb0064079800030037006e0290009e
:101c1c000402e800640798001e427800e44f52006a
:101c2c0009003a007e029000f70f520003003a00c0
:101c3c000002eb0074079800030037007e0290004e
:101c4c000402e800740798001e427800e54f520029
:101c5c000a003a008e0a9000b4032000848f5200d0
:101c6c0003003a000002eb00040f98000300370059
:101c7c000e0a90000402e800040f98001e4278003f
:101c8c00e64f52006d003a009e0a9000b40320000b
:101c9c00848f520003003a000002eb00140f9800ee
:101cac00690037001e0a90000402e800140f980027
:101cbc00650037001e427800e04f520009003a00e0
:101ccc003e029000e00f520003003a003406200060
:101cdc0034079800030037003e0290000402e9002c
:101cec00340798001e427800e14f520009003a0078
:101cfc004e029000e10f520003003a00c400200095
:101d0c0044079800030037004e0290000402e900db
:101d1c00440798001e427800e24f520009003a0036
:101d2c005e029000e10f520003003a00f401200023
:101d3c0054079800030037005e0290000402e9008b
:101d4c00540798001e427800e34f520009003a00f5
:101d5c006e029000e00f520003003a006400200075
:101d6c0064079800030037006e0290000402e9003b
:101d7c00640798001e427800e44f520009003a00b4
:101d8c007e029000e00f520003003a007401200024
:101d9c0074079800030037007e0290000402e900eb
:101dac00740798001e427800e54f520009003a0073
:101dbc000e0a9000e00f520003003a00b40320001a
:101dcc00040f9800030037000e0a90000402e9008b
:101ddc00040f98001e427800e64f520019003a009a
:101dec001e0a9000e00f520003003a00b4032000da
:101dfc00140f9800140037001e0a90000402e9002a
:101e0c00140f9800100037001e427800e64f520065
:101e1c0006003a000042eb00044f7800450707002b
:101e2c0014c0b30014479800070037001e42780016
:101e3c000442e800044f7800030037000000000063
:101e4c00010037000000000058052000383b8800d6
:101e5c00a80a2000383b880027a6a80027e6a9007e
:101e6c00343180000480a0000490a000343188003c
:101e7c003e02900004007800e9fd070000027800a3
:101e8c00243188004e02900004007800e4fd070025
:101e9c0000027800c824dd005e0290000400780087
:101eac00dffd070000027800048244002431880022
:101ebc006e02900004007800d9fd07000002780043
:101ecc00c824dd007e02900004007800d4fd0700d9
:101edc000002780004824400243188000e0a90002d
:101eec0004007800cefd070000027800c824dd0055
:101efc001e0a900004007800c9fd0700000278005b
:101f0c00048244002431880027e6a80027a6a900f3
:101f1c001e429000e04f5200a6fe3200050707005b
:101f2c000042eb0004437800e5882000864a7800e4
:101f3c004f04be000080fa00000006000600fa0004
:101f4c00000f780011079800220798001e027800f5
:101f5c0084024200a48f28000482420014027800fc
:101f6c0004007800760a0700000278009e029000b8
:101f7c00850f52000f003a001e02780084024200c6
:101f8c008490280004824200140278000400780037
:101f9c006b0a070000027800ae029000850f520019
:101fac0004003a0014c0b30004437800a58a200052
:101fbc00864a78001e027800840242006491280050
:101fcc000482420014027800040078005c0a0700c6
:101fdc00000278009e029000850f52000f003a001c
:101fec001e027800840242004492280004824200bf
:101ffc001402780004007800510a070000027800ef
:10200c00ae029000850f520004003a000042eb0033
:10201c0004437800a58a2000864a7800a48a200010
:10202c0014427800044078000080fa00000006009a
:10203c000200fa000002eb00040f78000042eb00f3
:10204c0004437800758a2000864a780053003700d4
:10205c00e70807000042780004437800758a2000e6
:10206c00864a7800c45d20009e027800848f52005e
:10207c00b8003c00748a2000144278000482fb00f3
:10208c00e30f520003003200e40f52001000320044
:10209c0021003700648a2000144278000442e900d1
:1020ac0004437800658a2000864a7800648a200000
:1020bc0014427800e04f520014003d000042eb0047
:1020cc0004437800658a2000864a780012003700a5
:1020dc00648a2000144278000442e800044378002b
:1020ec00658a2000864a7800648a200014427800b1
:1020fc00e64f52000700340064c0b300044378007c
:10210c00658a2000864a7800030037000000000032
:10211c0001003700000000001e027800e20f5200a0
:10212c0005003c00830607004205200051c0b300a7
:10213c00608528003806070011c0b3000040eb0092
:10214c0025060700709728006c060700648a20009b
:10215c00144278000402fb008402420044852000f3
:10216c000482420014027800040078006306070021
:10217c0031c0b3000040eb00170607007098280030
:10218c005e06070041c0b3000040eb0012060700da
:10219c00c0992800590607001e0fe800748a200019
:1021ac0014427800e24f5200a9ff3a006106070082
:1021bc004205200051c0b3006085280016060700b8
:1021cc00648a2000144278000402fb00840242005e
:1021dc00a48f2800048242001402780004007800c6
:1021ec00d709070000027800044278000440780008
:1021fc005e000700004278008402fb00648a200025
:10220c00144278000402fb0004034200a48f28004f
:10221c000402430014027800850078000400780062
:10222c00a6090700648a2000144278000402fb000f
:10223c008402420084902800048242001402780038
:10224c0004007800be090700000278000442780000
:10225c000440780094000700004278008402fb00e0
:10226c00648a2000144278000402fb00040342003c
:10227c008490280004024300140278008500780042
:10228c00040078008d090700648a2000144278004d
:10229c000402fb0084024200649128000482420084
:1022ac001402780004007800a509070000027800e9
:1022bc000442780004407800cb000700004278000c
:1022cc008402fb00648a2000144278000402fb00a4
:1022dc0004034200649128000402430014027800b5
:1022ec00850078000400780074090700648a2000d7
:1022fc00144278000402fb0084024200449228003d
:10230c000482420014027800040078008c09070053
:10231c0000027800044278000440780001010700b4
:10232c00004278008402fb00648a2000144278008a
:10233c000402fb0004034200449228000402430000
:10234c001402780085007800040078005b0907000f
:10235c000100370000000000f60507000002eb004a
:10236c00040f78000080fa00000006000600fa0056
:10237c00404798000002eb00040f78004e4290009a
:10238c00244798000042eb003447980018080700d7
:10239c0000427800344798003a00370014080700d0
:1023ac0000427800344798001e0fe80000a62e006b
:1023bc0001002000e5090700441f20009e02780060
:1023cc00848f5200040034000002eb00040f7800ec
:1023dc0024c0b3003447980011c0b3000040eb0098
:1023ec007d050700d09a2800c405070011c0b30072
:1023fc00d0c3b300780507002e4290000402fb0006
:10240c008041eb000041eb0021c0b30004007800d8
:10241c00d90507003e4290000402fb00e30f520076
:10242c0003003200e40f52000a003200150037009e
:10243c002e4290000442e900244798002e4290005e
:10244c00e04f52000c003d0074c1b30024479800cb
:10245c000c0037002e4290000442e80024479800fc
:10246c002e429000f74f5200050034000042eb0062
:10247c0024479800030037000000000001003700db
:10248c00000000003e429000e24f5200c3ff3a00b1
:10249c000002eb00040f78002e42900004407800fc
:1024ac000080fa00000006000600fa004047980081
:1024bc000002eb00040f78004e4290002447980075
:1024cc000042eb0034479800c9070700004278002f
:1024dc00344798003b003700c507070000427800de
:1024ec00344798001e0fe800003e290041002000f0
:1024fc0096090700c45d20009e027800848f52006c
:10250c00040036000002eb00040f780024c0b30076
:10251c003447980021c0b3000040eb002e050700a3
:10252c00b09b28007505070021c0b300d0c3b300d1
:10253c00290507002e4290000402fb008041eb00ad
:10254c000041eb0021c0b300040078008a050700ad
:10255c003e4290000402fb00e30f520003003200e5
:10256c00e40f52000a003200160037002e42900091
:10257c0065425200244798002e429000e04f5200d2
:10258c000d003d0074c3b300244798000d003700c4
:10259c002e4290006542420024479800ae429000c3
:1025ac0074c3b30084cf5200050034000042eb002a
:1025bc00244798000300370000000000010037009a
:1025cc00000000003e429000e24f5200c2ff3a0071
:1025dc000002eb00040f78002e42900004407800bb
:1025ec000080fa00000006000600fa004047980040
:1025fc000002eb00040f78004e4290002447980034
:10260c000042eb003447980079070700004278003d
:10261c00344798003a0037007507070000427800ed
:10262c00344798001e0fe800003e290041002000ae
:10263c0046090700c45d20009e027800848f52007a
:10264c00040036000002eb00040f780024c0b30035
:10265c003447980031c0b3000040eb00de040700a3
:10266c00b09c28002505070031c0b300d0c3b300cf
:10267c00d90407002e4290000402fb008041eb00bd
:10268c000041eb0021c0b300040078003a050700bc
:10269c003e4290000402fb00e30f520003003200a4
:1026ac00e40f52000a003200150037002e42900051
:1026bc000442e900244798002e429000e04f52005b
:1026cc000c003d0074c1b300244798000c00370087
:1026dc002e4290000442e800244798002e429000bd
:1026ec00f74f5200050034000042eb0024479800dd
:1026fc00030037000000000001003700000000005c
:10270c003e429000e24f5200c3ff3a000002eb0041
:10271c00040f78002e429000044078000080fa00ec
:10272c00000006000600fa00404798000002eb008b
:10273c00040f78004e429000244798000042eb00b2
:10274c00344798002a070700004278003447980065
:10275c003b003700260707000042780034479800fa
:10276c001e0fe800003e290041002000f70807007a
:10277c00c45d20009e027800848f52000400360055
:10278c000002eb00040f780024c0b300344798001b
:10279c0041c0b3000040eb008f040700709d28007f
:1027ac00d604070041c0b300d0c3b3008a040700ad
:1027bc002e4290000402fb008041eb000041eb0034
:1027cc0021c0b30004007800eb0407003e429000e7
:1027dc000402fb00e30f520003003200e40f52002e
:1027ec000a003200160037002e429000654252005b
:1027fc00244798002e429000e04f52000d003d00ff
:10280c0074c3b300244798000d0037002e4290008b
:10281c006542420024479800ae42900074c3b30056
:10282c0084cf5200050034000042eb00244798008e
:10283c00030037000000000001003700000000001a
:10284c003e429000e24f5200c2ff3a000002eb0001
:10285c00040f78002e429000044078000080fa00ab
:10286c0000000600c001fa00889fbe009a0807000d
:10287c00df070700f40707000042eb00044f780065
:10288c000042eb00044f7800220037009e42780093
:10289c000582fb008402420024732800048242005b
:1028ac0014027800040078002508070080047800e2
:1028bc009e4278000582fb0084024200c47228000c
:1028cc000482420014027800040078001c080700ff
:1028dc00000478009e4278000582fb0084024200ce
:1028ec00647228000482420014027800040078000c
:1028fc0013080700800278001e42780089017800d6
:10290c0008017800850078000440780082050700f3
:10291c001e4fe8001e427800e24f5200dbff3600eb
:10292c0014c0b300144798000042eb0024479800f1
:10293c000002eb00240798000042eb00644798006b
:10294c000002eb00440798000042eb00244f980073
:10295c006022b800248f9900358f99006022b8004e
:10296c00448f9900558f99006022b800648f9900ac
:10297c00758f99000002eb00640798000002eb00d1
:10298c00740798000042eb000457980014c0b30081
:10299c006457980014c0b3007457980014c0b30067
:1029ac00045f980014c0b300145f98000002eb00a1
:1029bc00049799000002eb00149799000002eb00b9
:1029cc00249799000002eb00140f98000e02780077
:1029dc00641ab00005000900001aeb000002eb00bd
:1029ec00540f98000042eb00445f98000042eb004b
:1029fc00445798004205200051c0b300a062280043
:102a0c0005040700541680007002620004f0a70051
:102a1c000402ea000402e9004f22de007457980019
:102a2c0055168000040220000482620004f0a70006
:102a3c000402ea000402e9004f22de00045f980061
:102a4c00541680006802620004f0a7000402ea0039
:102a5c000402e9004f22de00145f9800241b2000c2
:102a6c000e024200040078003efb0700058920009e
:102a7c00241b20000402470006000900b41a780049
:102a8c0010012000cd070700000278007487990020
:102a9c002e8c9100be8c91002e4a90000482fb007b
:102aac00040242000402470004129000cfa2de0090
:102abc000400be007ef707000002be000401be0049
:102acc000800be009af607000002be00248f990091
:102adc00358f99002e4a90000482fb00fe829100f3
:102aec0004024200040247000402b000050a780008
:102afc002e8c9100be8c91002e4a90000482fb001b
:102b0c00040242000402470004129000cfa2de002f
:102b1c000400be0066f707000002be000401be0000
:102b2c000800be0083f607000002be00248f990047
:102b3c00358f99002e8a9100be8a910002002000e8
:102b4c00032724000400be00d7f607000002be00d5
:102b5c000400be003bf707000002be000402780030
:102b6c0044879900c00020009407070000027800f9
:102b7c00048f99004e8c9100de8c91002e4a9000af
:102b8c000482fb00c403b0000402420004024700ac
:102b9c0004129000cfa2de000400be0044f7070030
:102bac000002be000401be000800be0060f6070073
:102bbc000002be00448f9900558f99002e4a900058
:102bcc000482fb008e8a9100c403b0000402420010
:102bdc00040247000402b000050a78004e8c9100f4
:102bec00de8c91002e4a90000482fb00c403b000de
:102bfc00040242000402470004129000cfa2de003f
:102c0c000400be002af707000002be000401be004b
:102c1c000800be0047f607000002be00448f990072
:102c2c00558f99002e4a90000442e800244f9800da
:102c3c00ae4a9000b4c3b30084cf520002003600f9
:102c4c000042eb00244f98004e8a9100de8a9100de
:102c5c0002002000032724000400be0092f60700a7
:102c6c000002be000400be00f6f607000002be0023
:102c7c000402780054879900200120004f070700b8
:102c8c0000027800148f99006e8c9100fe8c9100dc
:102c9c002e4a90000482fb008407b000040242001c
:102cac000402470004129000cfa2de000400be0014
:102cbc00fff607000002be000401be000800be00c3
:102ccc001bf607000002be00648f9900758f9900f7
:102cdc002e4a90000482fb009e8a91008407b0006b
:102cec0004024200040247000402b000050a780006
:102cfc006e8c9100fe8c91002e4a90000482fb0099
:102d0c008407b00004024200040247000412900041
:102d1c00cfa2de000400be00e5f607000002be00f4
:102d2c000401be000800be0002f607000002be004f
:102d3c00648f9900758f99002e4a90000442e80028
:102d4c00244f9800ae4a9000b4c3b30084cf520015
:102d5c00020036000042eb00244f98006e8a91006e
:102d6c00fe8a910002002000032724000400be000c
:102d7c004df607000002be000400be00b1f60700cd
:102d8c000002be0004027800648799009e0a90003d
:102d9c00e4448000848f5200e1003200d44480006f
:102dac0004037800c444800084027800b44480009a
:102dbc000601780085007800040078005ffc0700ad
:102dcc0000427800445f98006e529000e14f520030
:102ddc00030032004e5a9000e14f520003003a00bb
:102dec0014c0b30044579800020037000042eb00b7
:102dfc00445798002e429000e94f520002003600d2
:102e0c000042eb0044579800e4012000540f980056
:102e1c005e0a9000e90f520002003e000042eb00f7
:102e2c00445798005e0a9000e90f520010003e00d3
:102e3c002e4290000442e800244798002e42900055
:102e4c00f44f52000200360044c1b30024479800ee
:102e5c002e429000f34f520003003e00c502a80022
:102e6c002416800002003700c502a9002416800039
:102e7c004e0290000402e80044079800e4448000ed
:102e8c00140f9800a0012000cc0607000002780067
:102e9c00740f98000002eb006407980010003700d4
:102eac006e0290000402420004024700448291002a
:102ebc0004007800bc05070000027800840278004a
:102ecc006e02900004024200040247008418b00015
:102edc00050a78006e0290000402e800640798006e
:102eec006e029000e10f5200edff3600744480003a
:102efc00e10f52000b003a008040eb0040c0b300e1
:102f0c00b5020700c0752800fc02070011c0b30011
:102f1c0040c0b300b002070000772800f70207009a
:102f2c007f00370055fa070011c0b30020c0b30072
:102f3c00a90207000e5a9000e04f52001100320017
:102f4c005444800004007800ec02070011c0b30068
:102f5c0000c3b300a00207005e8291008041eb0029
:102f6c0012c0b30041c0b300040078000203070094
:102f7c00b0c7b300c002070060c4b300be020700b4
:102f8c00100037004444800004007800db02070086
:102f9c0011c0b30000c3b3008f0207004e82910032
:102fac008041eb0012c0b30041c0b30004007800b4
:102fbc00f1020700b0c7b300af02070060c4b30052
:102fcc00ad02070021c0b30020c0b300820207008d
:102fdc006444800004007800c802070021c0b300dc
:102fec0000c3b3007c0207006e8291008041eb00ad
:102ffc0012c0b30041c0b30004007800de02070029
:10300c00b0c7b3009c02070060c4b3009a0207006b
:10301c0000c2b300980207007e929100e00f5200ac
:10302c0028003a0031c0b30020c0b3006a02070088
:10303c0010782800b102070031c0b30000c3b30000
:10304c00650207005e0a90008041eb000041eb0036
:10305c0080c0eb0004007800c702070050c2b30028
:10306c008502070000c2b3008302070000c2b30050
:10307c00810207005e0a9000f80f52001f003e000c
:10308c0015c0b3001e42900004c2520014479800b1
:10309c001e429000e04f52001800320031c0b300c5
:1030ac0000c3b3004c020700d0782800930207003d
:1030bc0000c2b3007002070000c2b3006e0207002a
:1030cc000e00370031c0b30020c0b300420207002d
:1030dc00107928008902070031c0b30000c3b30087
:1030ec003d0207007e9291008041eb0012c0b300bc
:1030fc0041c0b300040078009f02070041c0b30038
:10310c000040eb00340207002e9291008041eb004e
:10311c000041eb0051c0b300040078009602070098
:10312c004e529000e14f520069003a00d4448000a6
:10313c00e00f520005003a00e4448000e40f520016
:10314c0002003e00c502a80001003700c502a9001c
:10315c006e829100040178002103200020c0b3008e
:10316c00a00307000002be000400be0094f5070097
:10317c000002be0004027800249799007e52900051
:10318c00e14f520042003a000002eb007407980035
:10319c00ee92910014042000848f52000c00340035
:1031ac00ee92910014322000848f520008003c00f3
:1031bc006e4290000442e800644798006e42900012
:1031cc00e94f5200020036000042eb0064479800c1
:1031dc00ee92910024352000848f520001003400bf
:1031ec00d522a800ee92910044382000848f520022
:1031fc0006003400d522a9001432200064979900ef
:10320c000e9a91000402e800049f99000e9a910016
:10321c00e90f520005003400d522a80094252000a7
:10322c0064979900a4002000049f99002504800055
:10323c000408200004826200e00f520027003200d4
:10324c002e0290000402e800240798002e02900041
:10325c00ea0f52000c003a006e9291000402e80052
:10326c0064979900ee92910084022000848f5200a2
:10327c00030034007e9291000402e80074979900d8
:10328c000002eb002407980084e0a900130037002b
:10329c00d522a9000002eb00049f990011e1a900be
:1032ac000002eb00649799007e0290000402e80093
:1032bc0074079800fe029000340d2300848f520096
:1032cc00060036000002eb007497990003003700eb
:1032dc000002eb0074979900d522a9004404070062
:1032ec0000427800045798000e529000e14f5200b3
:1032fc003c003a00c522a900f4448000e00f5200c3
:10330c0006003c000042eb0044579800f444800057
:10331c000402e800f44488002e0037000502070080
:10332c004205200051c0b300206d2800ba010700ef
:10333c0011c0b30040c0b300a7010700d07928002a
:10334c00ee01070021c0b30040c0b300a20107008a
:10335c00f07a2800e9010700150037002404070063
:10336c000042780004579800f44480000402e800fe
:10337c00f444880000c4290001002000f305070074
:10338c00f5448000441f2000848f52000800340054
:10339c000002eb00f4448800e6010700420520001f
:1033ac0051c0b300206d28009b01070009003700b5
:1033bc000e529000e24f5200e8ff3a0071f90700fc
:1033cc000002eb00f444880000482800e1012000d2
:1033dc00de0507004205200051c0b300a0622800a2
:1033ec008d0107000e529000e24f520037003a0058
:1033fc00c522a900f4448000e00f520006003c00f6
:10340c000042eb0044579800f44480000402e800aa
:10341c00f44488002d003700c60107004205200047
:10342c0051c0b300206d28007b01070011c0b30010
:10343c000040eb0068010700f07b2800af0107009b
:10344c0015003700ea030700004278000457980083
:10345c00f44480000402e800f444880000c429000d
:10346c0001002000b9050700f5448000441f20002e
:10347c00848f5200080034000002eb00f4448800f2
:10348c00ac0107004205200051c0b300206d28009c
:10349c00610107000d0037000e529000e24f520000
:1034ac00e8ff3a000002eb00f4448800e0fa070061
:1034bc004205200051c0b300a0622800560107004d
:1034cc0000482800e1012000a00507000e529000e2
:1034dc00e34f52002a013a00c522a900f4448000af
:1034ec00e00f520006003c000042eb0044579800ed
:1034fc00f44480000402e800f44488002001370002
:10350c00f4448000e10f52000a003c0089010700de
:10351c004205200051c0b300206d28003e01070079
:10352c000042eb0004579800006c2c00d1022000e4
:10353c00860507000042eb00545798004b003700fb
:10354c00ab030700004278000457980000c4290020
:10355c00010020007d050700f5448000441f200079
:10356c00848f5200080034000002eb00f444880001
:10357c00700107004205200051c0b300a062280072
:10358c0025010700fe0037000e5290000482fb005c
:10359c00e30f520003003200e40f52000a00320025
:1035ac00150037005e5290000442e9005457980011
:1035bc005e529000e04f52000c003d000042eb00c8
:1035cc00545798000c0037005e5290000442e800fb
:1035dc00545798005e529000e24f520005003400a0
:1035ec0024c0b300545798000300370000000000bb
:1035fc0001003700000000008040eb000040eb00b1
:10360c00f5000700507e28003c01070011c0b300f4
:10361c000040eb00f00007005e5290000402fb003b
:10362c008402420084882000048242001402780044
:10363c00040078003101070031c0b3000040eb00fa
:10364c00e5000700607f28002c01070041c0b30093
:10365c000040eb00e0000700b080280027010700c5
:10366c00f44480000402e800f44488000e529000f8
:10367c00e24f5200b2ff3a000042eb0004579800b0
:10368c002c0107004205200051c0b300206d28001a
:10369c00e10007008040eb000040eb00ce0007008b
:1036ac0000822800150107005e5290000402fb0006
:1036bc0084024200c4872000048242001402780075
:1036cc00040078009e0407000002780063b8200014
:1036dc00626d20008040eb00c0c2b300be03070047
:1036ec00800278005e5290000402fb00040342004a
:1036fc00c48720000402430014027800850078007f
:10370c00040078006d04070011c0b3000040eb000a
:10371c00b1000700c0822800f80007005e5290003c
:10372c000402fb0084024200248820000482420030
:10373c00140278000400780081040700000278006d
:10374c00430620005200200011c0b300c0c2b300d9
:10375c00a1030700800278005e5290000402fb0077
:10376c000403420024882000040243001402780061
:10377c0085007800040078005004070021c0b300d5
:10378c000040eb009400070070832800db0007006a
:10379c005e5290000402fb00840242006472280016
:1037ac0004824200140278000400780064040700cc
:1037bc0000027800830c20000001eb0021c0b30054
:1037cc00c0c2b30084030700800278005e529000f0
:1037dc000402fb000403420064722800040243004c
:1037ec001402780085007800040078003304070088
:1037fc0031c0b3000040eb0077000700e0832800e5
:10380c00be0007005e5290000402fb0084024200de
:10381c00c47228000482420014027800040078006c
:10382c004704070000027800431f20000001eb0052
:10383c0031c0b300c0c2b300670307008002780038
:10384c005e5290000402fb0004034200c472280084
:10385c00040243001402780085007800040078000c
:10386c001604070041c0b3000040eb005a000700eb
:10387c0090842800a10007005e5290000402fb0017
:10388c00840242002473280004824200140278004f
:10389c00040078002a040700000278004306200088
:1038ac000001eb0041c0b300c0c2b3004a030700e3
:1038bc00800278005e5290000402fb000403420078
:1038cc002473280004024300140278008500780059
:1038dc0004007800f90307005e5290000402fb001c
:1038ec0084024200247328000482420014027800ef
:1038fc000400780012040700800478005e529000e7
:10390c000402fb0084024200c472280004824200bc
:10391c001402780004007800090407000004780001
:10392c005e5290000402fb00840242006472280084
:10393c00048242001402780004007800000407009e
:10394c000002780089017800080178008400780072
:10395c005e509000700107000002eb00f4448800f8
:10396c00740007004205200051c0b300a06228007b
:10397c002900070000482800e1012000730407001b
:10398c000e529000e44f52000a003a00e200070089
:10399c0000a82100610020006c04070065000700ee
:1039ac00c522a9004205200051c0b300a062280026
:1039bc0019000700ce02900004d22f00848f520011
:1039cc0003003600c522a8000002eb004407980053
:1039dc000060fe000bfc37000200fa00004f78007c
:1039ec001147980004c8b3001e427200844078004e
:1039fc000040eb00e70007009e42900004c4b300b7
:103a0c0004c27200844078000040eb00e100070023
:103a1c000080fa00000006000800fa001007980069
:103a2c0041479800320798004e429000844078003d
:103a3c000040eb00e8ff07000002eb00040f7800e9
:103a4c00070037001e0290001e024200144278004c
:103a5c008440780010c0b300ce0007001e0fe800b1
:103a6c003e0290009e027800848f5200f5ff3900d0
:103a7c000080fa00000006000400fa0020479800bd
:103a8c002e4290000402fb000402b100040f7800e7
:103a9c001e0278006322b90004027800040f78003b
:103aac00649e28001e024200144278008440780074
:103abc0010c0b300b70007001e02e800659e280086
:103acc0065427a008440780010c0b300b100070052
:103adc001e82e800659e280065427a0084407800ca
:103aec0010c0b300ab0007008040eb0010c0b30067
:103afc00a80007000080fa00000006000200fa008f
:103b0c00000f7800050037001e0278001442780080
:103b1c001e0fe80004407800d7ff07001e02780053
:103b2c0014427800e04f5200f7ff3a000080fa0090
:103b3c00000006000200fa000002eb00040f7800ff
:103b4c00040037008040eb0010c0b3009100070068
:103b5c001e0fe800741f20009e027800848f520014
:103b6c00f8ff34008040eb000040eb009aff0700a8
:103b7c000080fa00000006001000fa0050079800c0
:103b8c00414f9800524f9800634f980064004700d3
:103b9c00010009000018eb000058eb004400200065
:103bac00040f78000002eb00140798005e029000ee
:103bbc00e00f520006003d00d0c2b300aeff07007c
:103bcc005e0290000402ea005407980016003700c9
:103bdc006e4a9000e14f520013003a00b0c2b3009d
:103bec00a5ff070010003700de029000a4002000a3
:103bfc00110009008402d800010278008442780088
:103c0c00640247001e024200054a7800de02900062
:103c1c00a4002000110009008402d80000027800e2
:103c2c00540798001e0fe9005e029000e00f52004e
:103c3c00edff3a004e4a9000e14f42000b003a0073
:103c4c00030037001e0290000402e80014079800dd
:103c5c00e40247001e0290000482420014427800e5
:103c6c00e04f5200f7ff3200040037004e4a90003c
:103c7c000402fb0065021200140798001e0290005b
:103c8c00040f780007003700640247001e02420050
:103c9c00144278000443b0000440780076ff07001b
:103cac001e0fe8005e4a90000402fb006502120041
:103cbc009e0f5200f4ff3c005e4a9000e14f520010
:103ccc0006003a00e0c2b3006bff07000e4a9000fa
:103cdc000443b0000440780067ff07005e4a900080
:103cec00e24f52000a003a00e0c2b30062ff070044
:103cfc007e4290000443b000044078005eff070051
:103d0c000e4a90000443b000044078005aff0700ac
:103d1c000080fa00000006000000fa00d0a2a90002
:103d2c00d082a900d062a900d0e2a900d0c2a9001b
:103d3c00d482a900d4a2a900d462a900d4c2a9003b
:103d4c00d4c2a80011c2b3000040eb001100070060
:103d5c00b1cbb3000040eb000e00070041c0b30034
:103d6c000040eb000b00070041c1b3000040eb002a
:103d7c000800070001c2b3000040eb00050007007b
:103d8c00c1c0b3000040eb00020007000080fa0045
:103d9c00000006000400fa00204798003147980004
:103dac003e429000144798002e429000e04f520083
:103dbc0002003a00d462a90001003700d462a800c6
:103dcc00d4e2a9000042eb00044f78000b0037004e
:103ddc00d482a9001e429000e04f520001003d0029
:103dec00d482a800d4a2a8001e4290000442420033
:103dfc0014479800d4a2a9001e4fe8001e42780078
:103e0c00e74f5200f2ff3600d4e2a8000080fa001f
:103e1c00000006000200fa000002eb00040f78001c
:103e2c00090037001e027800044278008040eb0045
:103e3c0004407800e8fe070011c0b30010c0b300c6
:103e4c00d4ff07001e0fe800340520009e02780006
:103e5c00848f5200f3ff34000002eb00040f780053
:103e6c00090037001e0278000442780051c0b300ec
:103e7c0004407800d8fe070001c8b30010c0b3009e
:103e8c00c4ff07001e0fe800340520009e027800d6
:103e9c00848f5200f3ff34000002eb00040f780013
:103eac00090037001e027800044278008440780034
:103ebc0030c5b300c8fe070080c0eb0010c0b300d3
:103ecc00b4ff07001e0fe8001e027800e50f520039
:103edc00f4ff34000002eb00040f780009003700f7
:103eec001e02780004427800844078000040eb0009
:103efc00b9fe070080c0eb0010c0b300a5ff07009f
:103f0c001e0fe8001e027800e50f5200f4ff34008b
:103f1c000080fa00000006000800fa00881f7800f4
:103f2c00004f78001107980022079800330798007b
:103f3c001e04fb001e029000cfa2de000400be0097
:103f4c005bf207000002be00c243dd0006802000c9
:103f5c0006834300048bbe001e04fb002e0290005f
:103f6c00cfa2de000400be0051f207000002be002a
:103f7c00c243dd00c680200006834300048bbe00d4
:103f8c001e04fb003e029000cfa2de000400be0027
:103f9c0047f207000002be00c243dd00868120000c
:103fac0006834300048bbe001e02fb00c222dd0010
:103fbc00a4822000048342006022b800048bbe005f
:103fcc001e02fb00c222dd00248420000483420078
:103fdc006022b800048bbe004f0478000080fa0009
:103fec00000006001600fa00889fbe008a1f7800a9
:103ffc0000579800110f9800220f98006022b8000b
:10400c0024079800350798009e0a90002e0a90000d
:10401c0004825200050020000400be0027f20700b5
:10402c000002be0044079800550798000e529000fd
:10403c000482fb00c222dd000480200004824200c6
:10404c001402be004e019000de0190000400be0080
:10405c006ff207000002be00640798007507980015
:10406c000e5290000485fb000e5290000482fb005f
:10407c00c222dd00a4822000048242001404be008f
:10408c000e5290000482fb00c222dd00c48020008e
:10409c00048242001402be004e019000de0190002a
:1040ac000400be005af207000002be000401be006c
:1040bc000800be001ff107000002be00c253dd0065
:1040cc00a682200006834300048bbe000e52900093
:1040dc000482fb00c222dd00a48220000482420084
:1040ec001404be000e5290000482fb0084024200b5
:1040fc00e48420000482420014027800cfa2de0087
:10410c000400be00eaf107000002be001ac0b300b2
:10411c000401be000800be00a5f1070000027800f3
:10412c00e00f5200010035000045eb00e04f550058
:10413c00100032000e5290000484fb000e529000ce
:10414c000482fb0084024200e484200004824200ca
:10415c0014027800cfa2de000400be00d4f10700e8
:10416c000002be00c243dd00a6822000068343008d
:10417c00048bbe000e5290000482fb00c222dd00b4
:10418c00a4822000048242001404be000e5290004f
:10419c000482fb008402420044822000048242001c
:1041ac0014027800cfa2de000400be00c0f10700ac
:1041bc000002be001ac0b3000401be000800be001d
:1041cc007df1070000027800e00f520001003c0076
:1041dc000045eb00e04f5500100032000e529000ed
:1041ec000484fb000e5290000482fb008402420007
:1041fc00448220000482420014027800cfa2de0028
:10420c000400be00aaf107000002be00c243dd009c
:10421c00a682200006834300048bbe000e52900041
:10422c000482fb00c222dd00648320000482420071
:10423c001402be000401be004e009000de0090008f
:10424c00bbf007000002be000403be000e5290003b
:10425c000482fb00c222dd00848120000482420023
:10426c001402be000401be000600be00e8f1070007
:10427c000002be0024079800350798000e529000eb
:10428c000482fb00c222dd00648320000482420011
:10429c004e039000de039000068abe000e52900082
:1042ac000482fb00c222dd00a482200004824200b2
:1042bc001402be006e019000fe0190000400be00ce
:1042cc009cf007000002be002e019000be01900081
:1042dc000400be0097f007000002be00048fbe0071
:1042ec000e5290000482fb0084024200e484200001
:1042fc000482420014027800cfa2de000400be004b
:10430c006bf107000002be0018c0b3001e01be0016
:10431c000400be0028f1070000027800e00f5200f4
:10432c0001003c000044eb00e04f54000b00320055
:10433c000e5290000482fb0084024200e4842000b0
:10434c000482420014027800cfa2de000400be00fa
:10435c0057f107000002be00048fbe000e52900001
:10436c000482fb008402420044822000048242004a
:10437c0014027800cfa2de000400be004cf107004e
:10438c000002be0018c0b3001e01be000400be0037
:10439c0007f1070000027800e00f52000100350021
:1043ac000044eb00e04f54000b0032000e52900022
:1043bc000482fb00840242004482200004824200fa
:1043cc0014027800cfa2de000400be0038f1070012
:1043dc000002be00048fbe001e02be000400be0020
:1043ec004f0578004f04be000080fa000000060064
:1043fc000000fa0070002000700107000002780035
:10440c000445880005458000c45d2000848f52005f
:10441c00090036000545800094872000848f5200e7
:10442c0005003e0014c0b30004437800258a200028
:10443c00864a7800270037000545800094872000c5
:10444c00848f5200090036000545800014a8200016
:10445c00848f520005003e0024c0b3000443780052
:10446c00258a2000864a78001a003700054580000e
:10447c0014a82000848f52000900360005458000e6
:10448c00d4dd2000848f520005003e0034c0b30000
:10449c0004437800258a2000864a78000d003700f6
:1044ac0005458000e4dd2000848f520005003600b5
:1044bc0044c0b30004437800258a2000864a780063
:1044cc00040037000042eb0004437800258a2000ea
:1044dc00864a7800248a200014427800e04f52006b
:1044ec0027003200258a200095427800348a20006b
:1044fc001442780084cf52000a003200248a200033
:10450c001442780004437800358a2000864a7800eb
:10451c000042eb0004437800458a2000864a78006c
:10452c001d003700448a2000144278000442e80041
:10453c0004437800458a2000864a7800448a20008b
:10454c0014427800e14f520003003a00348a2000f4
:10455c001442780011003700448a2000144278007d
:10456c00ea4f52000b00340000122a0071002000a8
:10457c0076010700348a20001442780007003700c7
:10458c000042eb0004437800458a2000864a7800fc
:10459c0001003700000000000042eb0004407800ee
:1045ac000080fa00000006000200fa00000f7800fc
:1045bc00243320009e027800848f520002003c00bd
:1045cc001e027800010037001e02780004007800fb
:1045dc000080fa00000006000c00fa00404798002a
:1045ec0051479800320798004307980054079800e9
:1045fc005e029000040f78007dff070000427800f7
:10460c00244798003500370079ff070000427800f6
:10461c0024479800644580000402e8006445880043
:10462c0000c42900010020004801070065458000f6
:10463c00843e2000848f5200050034003dfd0700ad
:10464c000002eb00644588000042eb002447980010
:10465c00de4090004e409000dffc07008041eb00f4
:10466c0012c0b30041c0b3001e00780042fd070029
:10467c002e4290000402fb00e30f520003003200b4
:10468c00e40f520009003200130037001e0fe9003e
:10469c003e0290009e027800848f52000b003c007a
:1046ac003e029000040f78000b0037001e0fe8004c
:1046bc004e0290009e027800848f52000500350057
:1046cc004e029000040f7800030037000000000039
:1046dc0001003700000000000060fe002e42900038
:1046ec00e24f5200c8ff3a000002eb00644588001c
:1046fc001e027800040078000080fa00000006001a
:020000040000fa
:10470c00a0080000060000000000000000080000e7
:10471c002a000000020000000000480042000000d7
:10472c0048420000004842000000700041000000b8
:10473c0070410000007041000000c8004100000002
:10474c00c841000000c84100ff1fff001fff1f00f1
:10475c002a0800002a000000000000005408000095
:10476c002800000002000000aa88ae0088b2880071
:10477c00b688ba0088be8800c288c60088ca88007d
:10478c00ce88d20088d68800da88de0088e28800dd
:10479c00e688ea0088ee8800f288f60088000000bf
:1047ac00a60800000600000000000000ac08000095
:1047bc000200000000000000900800001000000043
:1047cc00000000007c080000140000000200000043
:1047dc00000002000004000006000800000a0000af
:1047ec00388744008750870001000000000000005b
:020000040000fa
:1047fc000000fa0005e1a9000421a80024088000ab
:10480c000480a1000490a1002408880024088000e2
:10481c000440a0000450a100240888000002eb0012
:10482c0004088800f43f20001408880005e1a80063
:10483c0011e1a90004d324006408880011e1a80048
:10484c000080fa00000006000000fa000002eb00f5
:10485c00540d8800350d800004fe2f000482620088
:10486c00b400b300340d8800a6e1a900240d80002b
:10487c0004a0a10004b0a10004c0a000240d880075
:10488c000002eb00640d8800240d80000400a100e0
:10489c000410a0000420a000240d88000080fa0061
:1048ac00000006000200fa00000f78001e027800db
:1048bc00540d88000080fa00000006000400fa0085
:1048cc00000f78001107980044002400043b880076
:1048dc00f4072000044278000443780025032000ec
:1048ec00864a780005e02f001e0278000482420000
:1048fc00040f78009e0290001e027800050abb008f
:10490c000500fc0054052000343b8800a40a20005c
:10491c00343b880061e7a8000000000000000000a4
:10492c0000000000053b80000400280004826200a7
:10493c00e00f5200fbff3a000080fa000000060076
:10494c000200fa00000f7800f407200004427800ff
:10495c000443780025032000864a780005e02f00e8
:10496c001e02780004824200040f78001e027800b8
:10497c001402ba00040078000080fa00000006005f
:10498c000000fa0004402800041a88000002eb0022
:10499c00141a880054002000241a88000002eb002e
:1049ac00441a88000002eb00841a880004042000da
:1049bc00741a88000080fa00000006000400fa0057
:1049cc00100798001e029000441a8800441a8000b8
:1049dc00fa0f520004003a005583a800000520008d
:1049ec0001002000590007004023a80040062000c9
:1049fc0001002000550007004023a90001003700ea
:104a0c0085a0a900041a800061026200e00f520028
:104a1c00fbff32005583a90004188000040f7800b6
:104a2c001e027800040078000080fa0000000600e6
:104a3c000200fa00e0002000e0ff0700000278000e
:104a4c00040f7800b43120009e027800848f52004d
:104a5c0003003c000002eb00040f78001600370046
:104a6c0024f820009e027800848f5200030034004a
:104a7c0044062000040f78000f00370045ce2f00ad
:104a8c001e824200cfa2de000400be0088ef0700a9
:104a9c000002be0052b82e00d31f24000400be003a
:104aac0001ef07000002be000400be0044ef070047
:104abc000002be00040f78001e0278000442780049
:104acc00044078000080fa00000006000000fa00a4
:104adc000080fa00000006000000fa00d4882000d4
:104aec000416880044062c0044168800f40f20009d
:104afc0084168800c40020000427880004062400c3
:104b0c001427880024002000242788000002eb00d2
:104b1c00141688000002eb00541688000002eb000b
:104b2c0094168800e9ff070095ff07007afc070040
:104b3c0000a821006100200004000700fdfb070015
:0c4b4c00dff207000080fa000000060005
:020000040000fa
:104b5800f03fb1000180b10006003500ee03090006
:104b680000000000403fb1000180b100fbff3d00a4
:104b78001000b000203fb00002003500008009009e
:084b880000000000000006001f
:020000040000fa
:0200000400fffb
:10fc000000000000000000000000000000000000f4
:10fc100000000000000000000000000000000000e4
:10fc200000000000000000000000000000000000d4
:10fc300000000000000000000000000000000000c4
:10fc400000000000000000000000000000000000b4
:10fc500000000000000000000000000000000000a4
:10fc60000000000000000000000000000000000094
:10fc70000000000000000000000000000000000084
:10fc80000000000000000000000000000000000074
:10fc90000000000000000000000000000000000064
:0cfca00000000000000000000000000058
:00000001FF
