:08000000803102288731C82F6E
:10001000F300730821009E00931713131314131891
:100020000F280D08F1000C08F0000800F700003060
:100030008C31022480310530F6000F30F500F430A9
:10004000F400F40B2128F50B2128F60B21280330AE
:100050008B31D82380316830F500E430F400F40BA4
:100060002F28F50B2F28000003308B31D823803147
:100070008930F40000320032F40B3A2803308B311F
:10008000D82380318930F40000320032F40B442848
:1000900002308B31D82380318930F40000320032B5
:1000A000F40B4E2802308B31D823803108308B314D
:1000B000D82380318930F40000320032F40B5C2800
:1000C00000308B31D823803108308B31D8238031F8
:1000D0008930F40000320032F40B6A2800308B3192
:1000E000D823803101308B31D82380313430F50072
:1000F000F130F400F40B7A28F50B7A280032003046
:100100008B31D823803106308B31D8238031893030
:10011000F40000320032F40B892800308B31D823F0
:10012000803177080C388B31D82380318930F40046
:1001300000320032F40B9828080020003308B60083
:100140003408B7003508B8000310370D380DB90072
:100150003908BE003E08031DB4280030B00000304E
:10016000B1000030B20008003008B6003108B70016
:100170003208B8000310370D380DB9003908BF0038
:100180003F08031DCA280030B0000030B100003025
:10019000B20008000030BB000030BC000030BD00E1
:1001A00089303F07B6003608BE023308B60034086F
:1001B000B7003508B8001030B836B70CB60C890B4C
:1001C000DC283608B9003908BF003008B60031080D
:1001D000B7003208B8001030B836B70CB60C890B2F
:1001E000EC283608B9003908BF068030B60036085A
:1001F000BF05B417FF30B305FF30B4050030B505B7
:10020000B117FF30B005FF30B1050030B20518302E
:10021000B6003608BA000130BB35BC0DBD0D890BE8
:100220000C2932083502031D1B2931083402031D35
:100230001B2930083302031C24293008B30231087B
:10024000B43B3208B53B3B140130B335B40DB50DAA
:10025000890B25290130BA02031D0B293B08F00048
:100260003C08F1003D08F2003E08B6003608F300F5
:100270003F08B7003708F4008F311A2770082000B4
:10028000B0007108B1007208B200080020005708E1
:10029000F0005808F1005908F2000030F300003077
:1002A000F4000030F5008D312D25813103186429CB
:1002B00021302000EC000030ED000030D70000308D
:1002C000D8000030D900080020005908580457040D
:1002D000031D75292230EC000030ED000030D700FE
:1002E0000030D8000030D90008000030C000803055
:1002F000C100BF30C2000030A0000030A10040307B
:10030000A2005B30DA005A08F3005708F0005808E2
:10031000F1005908F2008D31682581317008200004
:10032000A3007108A4007208A5008131F321813176
:1003300020002008C3002108C4002208C500833122
:100340007023813120004008D7004108D8004208BE
:10035000D900FF30DB07FF30DC3D5708CD005808DF
:10036000CE005908CF000030D0009030D1000830C6
:10037000D2000030D3008E31BA26813120004D08E2
:10038000D7004E08D8004F08D9005708C0005808B9
:10039000C1005908C2007230A0003130A1003F30C6
:1003A000A2005C08F9005B08F8008C3185248131DB
:1003B00078082000A3007908A4007A08A5008131FC
:1003C000F321813120002008C3002108C400220845
:1003D000C5008331702320004008D7004108D800B1
:1003E0004208D900080020002008A6002108A70024
:1003F0002208A8000310270D280DA9002908AA002B
:100400002A08031D0A2A0030A0000030A100003095
:10041000A20008002308A6002408A7002508A800B9
:100420000310270D280DA9002908AF002F08031D70
:10043000202A0030A0000030A1000030A2000800F7
:100440002F087B3EA6002608AA072008A600210840
:10045000A7002208A8001030A836A70CA60C890B0C
:100460002C2A2608A9002908AF002308A600240882
:10047000A7002508A8001030A836A70CA60C890BE9
:100480003C2A2608A9002908AF068030A6002608C5
:10049000AF05A117A417FF30A305FF30A405003056
:1004A000A5050030AB000030AC000030AD000730D7
:1004B000A6002608AE00201C632A2308AB072408E8
:1004C000AC3D2508AD3D0130A236A10CA00C890B36
:1004D000642A0130A335A40DA50D890B6A2A0130C9
:1004E000AE02031D5B2A0930A6002608AE00201CC0
:1004F0007F2A2308AB072408AC3D2508AD3D013019
:10050000A236A10CA00C890B802A0130AD36AC0CB0
:10051000AB0C890B862A0130AE02031D772A2B080B
:10052000F0002C08F1002D08F2002A08A600260889
:10053000F3002F08A7002708F4008F311A2770084E
:100540002000A0007108A1007208A2000800C430B9
:10055000860000308700253084000030850005309B
:100560002000A00016001A00A00BB22A0430AC0034
:100570000030AD00AA01AB01FA1FC82A2D308C3122
:10058000CB248231F909FA09F90A0319FA0ACF2AA8
:100590007D03031DCF2A2B308C31CB248231790887
:1005A0007A040319FC2A0A30F0000030F1007A08BE
:1005B000F3007908F2008E31242682317008200081
:1005C000A0002C08253E86008701200881000A3003
:1005D000F0000030F1007A08F3007908F2008E3163
:1005E000692682317108FA007008F900FF30200096
:1005F000AC07FF30AD3DCF2A7B0A0319052B0E2B2C
:1006000001302000AA070030AB3D20002A08253E1B
:10061000860087010108031D1F2B002B7B0820008B
:10062000A000A101A01BA103A009A109A00A031910
:10063000A10A2008053EAA000030213DAB002B088E
:10064000AD002A08AC007C08A000A101A01BA103FA
:10065000A009A109A00A0319A10A2008053EA200C9
:100660000030213DA3002D08803AA4002308803AE1
:100670002402031D3D2B22082C0203184F2B2000BF
:100680002C08253E860087010108303E8C31CB24A2
:10069000823101302000AC070030AD3D232B7C03BC
:1006A000031D5C2B2E308C31CB2482312000290895
:1006B000303E8C31CB24823102307C06031D080091
:1006C0002E308C31CB24823120002808303E8C31F2
:1006D000CB24823120002908303E8C31CB24080005
:1006E00020004008C6004108C7004208C8000310A7
:1006F000470D480DC9004908CC004308C60044080E
:10070000C7004508C8000310470D480DC900490837
:10071000CB004C080319982B4B084C0203189F2B55
:100720004C03FF3A4B07C60019304602031C9F2BAF
:100730004308C0004408C1004508C20008004B0837
:10074000031908004C084B020318AE2B4B03FF3A69
:100750004C07C60019304602031808000630C600D0
:100760004608CA00C21BCA17C51B4A17C117FF306B
:10077000C005FF30C1050030C205C417FF30C305F6
:10078000FF30C4050030C5054B084C020318EA2BA6
:100790000130C335C40DC50D890BC92B0130CB0207
:1007A0004B084C060319E52B0130CA024A080739E9
:1007B0000319E52BC82B0130C236C10CC00C890BC4
:1007C000DC2B0130C6004608CC074C084B06031949
:1007D0000F2CDB2B4C084B0203180F2C0130C035BB
:1007E000C10DC20D890BEF2B0130CC024B084C061A
:1007F00003190B2C0130CA024A08073903190B2CC4
:10080000EE2B0130C536C40CC30C890B022C013011
:10081000C6004608CB074C084B06031D012CCA1F17
:10082000212CFF30C006FF30C106FF30C206013068
:10083000C007003003180130C10700300318013031
:10084000C2074A1F332CFF30C306FF30C406FF30F7
:10085000C5060130C307003003180130C40700305B
:1008600003180130C507CA014008C3074108C43D49
:100870004208C53DC51F4E2CFF30C306FF30C406DD
:10088000FF30C5060130C307003003180130C4072C
:10089000003003180130C507CA01CA0A4308F00036
:1008A0004408F1004508F2004C08C6004608F30071
:1008B0004A08C7004708F4008F311A277008200043
:1008C000C0007108C1007208C2000800003020009A
:1008D000C0008030C100BF30C2005E08F9005D0872
:1008E000F8008C318524843178082000B000790824
:1008F000B1007A08B200C030B3007F30B400443099
:10090000B50080319D20843120003008C3003108BB
:10091000C4003208C50083317023843120004008B0
:10092000E3004108E4004208E5006308B000640801
:10093000B1006508B2009030B3001C30B4004630FE
:10094000B50080319D20843120003008E00031085E
:10095000E1003208E2003430B0001D30B100463012
:10096000B2006008B3006108B4006208B5008031CD
:100970009D20843120003008E6003108E70032086D
:10098000E8006608D7006708D8006808D9008131F8
:100990004621843120005708E6005808E70059082E
:1009A000E800B030B0007930B1004530B2006608E0
:1009B000B3006708B4006808B50080319D20843119
:1009C00020003008E6003108E7003208E800CF30A8
:1009D000C0005B30C1003B30C2006608C30067083E
:1009E000C4006808C50083317023843120004008AA
:1009F000E6004108E7004208E8006608B000670822
:100A0000B1006808B2000030B3008030B4003F305D
:100A1000B50080319D20843120003008E600310887
:100A2000E7003208E8009330CD008830CE00433034
:100A3000CF006608D0006708D1006808D2008C316A
:100A40006724843120004D08E6004E08E7004F0877
:100A5000E8000030A0002030A1004130A20066086C
:100A6000A3006708A4006808A5008131F321843140
:100A700020002008E6002108E7002208E8000030F6
:100A8000C000A030C1004330C2000030B000A03030
:100A9000B1004030B2000030A0001030A100413061
:100AA000A2006608A3006708A4006808A5008131B9
:100AB000F321843120002008B3002108B40022086B
:100AC000B50080319D20843120003008C3003108FA
:100AD000C4003208C5008331702320004008E600BE
:100AE0004108E7004208E8006608DD006708DE000C
:100AF0006808DF0008008D31E2258531B8308600B6
:100B000000308700CF308400003085000C3020009A
:100B1000E90016001A00E90B892D0B30E90069087D
:100B20002100DB00DE01FF30DC000330DD005D086A
:100B3000F1005C08F0008B31EC2385310D30200092
:100B4000EB002D30EA00E230E900E90BA52DEA0BBD
:100B5000A52DEB0BA52D00328B318A2385318B31EE
:100B60008A23853121005D08F1005C08F0008B319B
:100B7000EC2385312100DE0106305E020318DE2DF4
:100B80005E082000E900EA016908A6006A08A700DB
:100B900086319826853121005E35CF3E860087015B
:100BA00020002608C03F2708C13F0130E90069083E
:100BB0002100DE0706305E02031CC02D0B305B02F5
:100BC000031C652EF40100308D31A32585312100F1
:100BD0005008FA004F08F900FB01FB03FC01FD017E
:100BE0008231A722853120308C31CB248531F4012C
:100BF00006308D31A325853121005208FA005108B5
:100C0000F900FB01FB03FC01FD018231A7228531C4
:100C100020308C31CB248531F4010B308D31A3256C
:100C2000853121005408FA005308F900FB01FB0349
:100C3000FC01FD018231A722853120308C31CB248B
:100C40008531F401F40A00308D31A325853121006E
:100C50005608FA005508F900FB01FB03FC01FD01F1
:100C60008231A722853120308C31CB248531F401AB
:100C7000F40A06308D31A325853121005808FA0089
:100C80005708F900FB01FB03FC01FD018231A7229B
:100C9000853120308C31CB248531F401F40A0B30BE
:100CA0008D31A325853121005A08FA005908F90031
:100CB000FB01FB03FC01FD018231A72285312030BD
:100CC0008C31CB2485312100DB0158082000DE0067
:100CD000210057082000DD00843166248531200082
:100CE0005D082100C90020005E082100CA00200024
:100CF0005F082100CB005A082000DE0021005908BF
:100D00002000DD0084316624853120005D0821004B
:100D1000CC0020005E082100CD0020005F082100EB
:100D2000CE0001302000E90069082100DB07B22D68
:100D300020002635DF3E86008701403FF900413F15
:100D4000FA0079088031082086317108FC007008AB
:100D5000FB0020002608A8000130A835FF3E031D37
:100D6000AD2E2835A03E86008701403FA900413FB7
:100D7000AA00423FAB00433FAC006F08AE006E08D4
:100D8000AD00AD35AE0D2708F1002608F000283083
:100D9000F2000030F3008C314C248631003020000A
:100DA000AF002330B00070082F07B1007108303D4C
:100DB000B20031082D07840032082E3D8500003F27
:100DC000B300013FB400B501B601B309B409B509D8
:100DD000B609B30A0319B40A0319B50A0319B60A06
:100DE0003308A9073408AA3D3508AB3D3608AC3DA9
:100DF0002608B7000130B735FF3E031DFB2E3735FF
:100E0000A03E860087012908C03F2A08C13F2B0861
:100E1000C23F2C08C33F6F08A9006E08A800A83580
:100E2000A90D2708F1002608F0002830F200003054
:100E3000F3008C314C24863100302000AA0023308E
:100E4000AB0070082A07AC0071082B3DAD002808E4
:100E50002C07860029082D3D87007B08C03F7C08B1
:100E6000C13F2608A8000130A835FF3E031D342FDE
:100E70002835A03E86008701403FA900413FAA00D7
:100E8000423FAB00433FAC006F08AE006E08AD00C0
:100E9000AD35AE0D2708F1002608F0002830F2002D
:100EA0000030F3008C314C24863100302000AF003C
:100EB0002330B00070082F07B1007108303DB20038
:100EC00031082D07840032082E3D8500003FB30015
:100ED000013FB400B501B6013308A9073408AA3DA3
:100EE0003508AB3D3608AC3D2608B7000130B735B4
:100EF000FF3E031D772F3735A03E86008701290866
:100F0000C03F2A08C13F2B08C23F2C08C33F270817
:100F1000803AA80080302802031D902F0530260259
:100F2000031CA02F01302000EE070030EF3D003001
:100F30006F02143003196E02031CA02FEE01EF01A3
:100F40000030F3000030F2000030F1001430F00007
:100F500020002608A8000130A835FF3E031DAC2F55
:100F60002835A03E86008701403FF400413FF50050
:100F7000423FF600433FF7008F317E277108FC00A7
:100F80007008FB007C082000A7007B08A600080072
:100F9000BE3084008B308500DF3086000030870053
:100FA0000030FF000C308B31B22387311A308400BF
:100FB0008C30850020308600013087000030FF0033
:100FC00018308B31B2238731003084002330850004
:100FD000F030FE000030FF008B31A6238731EC019A
:100FE000ED01EE01EF01A0308400003085002930D2
:100FF000FE000030FF008B31A623200085317B2DC1
:1017140000308B31D8238B3101308B31D823080032
:10172400603031008D008F019101063093009201E9
:101734000800803027008E008D018C0124001F08D2
:10174400F33904389F00080064008001013101303E
:10175400FE020030FF3B7F087E0403190034A72BF0
:10176400FE0012001E000130FE020030FF3B7F0825
:101774007E0403190034B32B0134003403340034E1
:101784000434003405340034093400340B34003498
:1017940025008E01013090008F019101FF308D00F2
:1017A4008C012E00901025008E170800F3002000F5
:1017B4000C1073088C3102248B3120000C150C1191
:1017C4002A30F2008D30F100F10BE62BF20BE62B00
:1017D400003208007108F3007008F200F336F20CCE
:1017E400F336F20C720827008D0070080339F200FA
:1017F4000530F235FF3E031DFB2B72358C000800CB
:10180400F000701C082C20008C170A2C20008C136C
:10181400F01C0E2C0C170F2C0C13701D132C0E1413
:10182400142C0E10F01D182C8E1408008E100800B5
:101834000C34123412340C340034003400340034C8
:101844000A34153411340A340434003400340034B6
:101854000A341F341F340E3404340034003400348A
:101864002100940195019601990197013F30980058
:101874009A019B0107309C009D019E0122008D016D
:101884008E018F0190019101920193018430210016
:1018940093000800F401F501701C542C7208F4073D
:1018A4007308F53D0130F235F30D890B552C0130E9
:1018B400F136F00C890B5A2C70087104031D4E2C60
:1018C4007508F1007408F000080020004F084E0469
:1018D4004D0403196F2C8030CF065008C000510806
:1018E400C1005208C2004D08C3004E08C4004F088E
:1018F400C5008331702320004008CD004108CE008C
:101904004208CF000800FD01F91F8F2CF809F909DE
:10191400F80A0319F90AFD01FD0A7808F0007908AC
:10192400F100F2018E30FB007B08F3007D08FC001F
:101934007C08F4008F311A277008F8007108F90048
:101944007208FA00080004308B31D8238C3100303F
:101954008B31D8238C31F601183076020318C32C4E
:101964007608203E86000130870001088C31CB24A4
:101974008C310130F5007508F60718307602031C27
:10198400B22C00308B31D8238C3102308B31D823E8
:101994000800F40074080F39F1007108F2007408AB
:1019A400F039F1007108F30020000C147308F10001
:1019B4000430F136890BDB2C71088C3102248C3114
:1019C40020000C150C116A30F100F10BE72C00001B
:1019D40072088C3102248C3120000C150C116A30F1
:1019E400F100F10BF32C0000080020009601970190
:1019F400980102303E00B900C401CF010830E5006F
:101A04000230200091003A3091000A3092001030E8
:101A140093003A303E00B8000A30C300CE012E00D5
:101A2400161200308B1B0130F0008B1355303D0033
:101A34008F00AA308F000F100E303E00A2005530E8
:101A44003D008F00AA308F000F14701C2B2D8B17B4
:101A540008008B130800F21F432D7009F60071096A
:101A6400F7007209F800F60A0319F70A0319F80ACD
:101A740000307607F0000030773DF1008030783D8B
:101A8400F200F51F592D7309F6007409F700750962
:101A9400F800F60A0319F70A0319F80A0030760762
:101AA400F3000030773DF4008030783DF50080305D
:101AB400F2068030F50675087202031D08007408EA
:101AC4007102031D08007308700208007208710493
:101AD4007004031D7A2D7308860087010030C03F0F
:101AE400C13F0030F0000030F1000030F200080087
:101AF40072087F39F400F501F435F50D730886009A
:101B040087017408C03F7508C13F710D710D01391B
:101B1400F400F501730886008701740881044131DB
:101B2400750881047308860087018230810741317A
:101B3400FF30813D7F31720880393F38F200F11364
:101B44000800F7007408031DC32D7708803EF500D4
:101B54007508FA007A08F5000430F536890BAF2DC4
:101B64007508F6007608F8007A080F39F50075084C
:101B7400F90078088B31D8238D3179088B31D8233B
:101B840008007403031D08007708C03EF5007508BB
:101B9400FA007A08F5000430F536890BCE2D750865
:101BA400F6007608F8007A080F39F5007508F90090
:101BB40078088B31D8238D3179088B31D8230800EC
:101BC4008C31F7248D318B3192238D3132008C018D
:101BD4008C3132248D318B319B238D318B31CA234F
:101BE4008D310030803116208D310930FA001E30DD
:101BF400F900EB30F800F80BFD2DF90BFD2DFA0B75
:101C0400FD2D00008B318A238D310530FA000F3011
:101C1400F900F430F800F80B0D2EF90B0D2EFA0B29
:101C24000D2E8C31A5248D310930FA001E30F900B7
:101C3400EB30F800F80B1C2EF90B1C2EFA0B1C2EA3
:101C440000000800F601F31F2E2EF209F309F20A30
:101C54000319F30AF601F60AF11F352EF009F1090A
:101C6400F00A0319F10A7008710403195C2EF501D6
:101C7400F50AF11B472E0130F035F10D890B3E2E8C
:101C84000130F4007408F5073B2E71087302031D3C
:101C94004D2E70087202031C532E7008F202710854
:101CA400F33B0130F136F00C890B542E0130F50270
:101CB400031D472E76080319642EF209F309F20A6C
:101CC4000319F30A7308F1007208F0000800F60122
:101CD400F11F732EF009F109F00A0319F10AF60154
:101CE400F60AF31F7E2EF209F309F20A0319F30A26
:101CF4000130F4007408F606F701F8017008710465
:101D04000319AD2EF501F50AF11B922E0130F035C1
:101D1400F10D890B892E0130F4007408F507862E25
:101D24000130F735F80D890B932E71087302031DEA
:101D34009D2E70087202031CA42E7008F202710812
:101D4400F33B77140130F136F00C890BA52E0130EA
:101D5400F502031D922E76080319B52EF709F8092A
:101D6400F70A0319F80A7808F1007708F000080068
:101D740020005308F1005208F0000330F200003054
:101D8400F3008C314C248E312000500870078400FD
:101D94005108713D8500003FD400013FD500023F4A
:101DA400D600520853040319132FFF30D207FF3013
:101DB400D33D5308F1005208F0000330F200003024
:101DC400F3008C314C248E312000500870078400BD
:101DD4005108713D8500003FC000013FC100023F32
:101DE400C2005408A0005508A1005608A2004D08DE
:101DF400A3004E08A4004F08A5008131F3218E31C1
:101E040020002008C3002108C4002208C500833133
:101E140070238E3120004008D4004108D5004208C8
:101E2400D22E5408CD005508CE005608CF00080025
:101E340073080319222F720871047004031D332FD1
:101E44000030F0000030F1000030F20008000130F2
:101E5400F5007508F3070130F236F10CF00C890B2C
:101E64002E2FFE30720503194C2F292F0130F50057
:101E74007508F3070130F007003003180130F1074B
:101E8400003003180130F2070130F236F10CF00C87
:101E9400890B472FFF3072050319592F382F013052
:101EA400F3020130F035F10DF20D890B542FF11BC3
:101EB4005F2F023073020318512F7318672FFF30FE
:101EC400F0057F30F105FF30F2050310F30C7308C1
:101ED400F500F601F7011030F535F60DF70D890B15
:101EE4006E2F7508F0047608F1047708F20474087C
:101EF40003190800F21708002000A101F31F8F2F17
:101F0400F009F109F209F309F00A0319F10A0319B6
:101F1400F20A0319F30AA101A10AF71FA02FF40979
:101F2400F509F609F709F40A0319F50A0319F60A7B
:101F34000319F70A0130F8007808A1060030A5005B
:101F44000030A4000030A3000030A2007308720423
:101F5400710470040319E92FA001A00AF31BBE2F1A
:101F64000130F035F10DF20DF30D890BB32F013073
:101F7400F8007808A007B02F0130A235A30DA40DF6
:101F8400A50D890BBF2F73087702031DD32F720889
:101F94007602031DD32F71087502031DD32F700819
:101FA4007402031CDE2F7008F4027108F53B7208FA
:101FB400F63B7308F73B22140130F336F20CF10CB4
:101FC400F00C890BDF2F0130A002031DBE2F210866
:101FD4000319F72FA209A309A409A509A20A031941
:101FE400A30A0319A40A0319A50A2508F30024085F
:101FF400F2002308F1002208F00008000034003445
:102004000034003480343F34F034FF34BE34E234DE
:10201400A9343E3483347634BE34AE342B343E3467
:102024003C34C334BD34D23413343D347834D334E3
:02203400BB34BB
:020000040001F9
:0A000E008C3FFF3F9F3FFF2FFF3F95
:00000001FF
