:020000040000fa
:080000000001040000000000f3
:020000040000fa
:100008004e0200006002000070020000560200006c
:1000180068020000d2010000d2010000d2010000f5
:10002800d2010000d2010000d2010000d20100007c
:10003800d2010000d2010000d2010000d20100006c
:10004800d2010000d2010000d2010000d20100005c
:10005800d2010000d2010000d2010000d20100004c
:10006800d2010000d2010000d2010000d20100003c
:10007800d2010000d2010000d2010000d20100002c
:10008800d2010000d2010000d2010000d20100001c
:10009800d2010000d2010000d2010000d20100000c
:1000a800d2010000d2010000d2010000d2010000fc
:1000b800d2010000d2010000d2010000d2010000ec
:1000c800d2010000d2010000d2010000d2010000dc
:1000d800d2010000d2010000d2010000d2010000cc
:1000e800d2010000d2010000d2010000d2010000bc
:1000f800d2010000d2010000d2010000d2010000ac
:10010800d2010000d2010000d2010000d20100009b
:10011800d2010000d2010000d2010000d20100008b
:10012800d2010000d2010000d2010000d20100007b
:10013800d2010000d2010000d2010000d20100006b
:10014800d2010000d2010000d2010000d20100005b
:10015800d2010000d2010000d2010000d20100004b
:10016800d2010000d2010000d2010000d20100003b
:10017800d2010000d2010000d2010000d20100002b
:10018800d2010000d2010000d2010000d20100001b
:10019800d2010000d2010000d2010000d20100000b
:1001a800d2010000d2010000d2010000d2010000fb
:1001b800d2010000d2010000d2010000d2010000eb
:1001c800d2010000d2010000d2010000d2010000db
:1001d800d2010000d2010000d2010000d2010000cb
:1001e800d2010000d2010000d2010000d2010000bb
:0801f800d2010000d201000059
:020000040000fa
:100200002f8220000eff27000e0188000000000052
:10021000000020000000e000020032000001200089
:10022000200288000c000700a02c20000100200004
:100230000f000700000020000000e0000200320074
:100240000000020000000000da02020000000000ce
:100250000040da000000fe00200020000000e00066
:10026000020032001000200090018800000006000b
:10027000a1028800800078000000eb001a0037001f
:10028000e280400054a0b4009101ba00e280400036
:1002900054a0b4009102ba00e280400054a0b4001f
:1002a0000002eb00472bde00f507b200a601880034
:1002b000602ce10008003a000049eb000201e80070
:1002c000020039003420ec0002f0a0008301e900b4
:1002d000f9ff3e00040037006128e1000100320010
:1002e0000082eb00040007001101ba000200e000e8
:1002f000e3ff3a000000060004d0a300e20f49002b
:100300001c003900810278003549ba000201e8007a
:10031000020039003420ec0002f0a0008301e90063
:100320000f0032002549ba000201e800020039003e
:100330003420ec0002f0a0008301e9000800320044
:100340000400e0000600320015c9ba000201e8000e
:10035000020039003420ec0002f0a0008301e90023
:100360008180e80054a0b4000300e000e2ff3a00fe
:10037000000006009102ba00055978008301e900e7
:10038000f7ff3200c82ade00055978008301e90032
:10039000f3ff32000400e000f1ff320011d9ba008f
:0c03a000eeff37000040da000000fe0015
:020000040000fa
:1003ac000000fa007a26ef008e26ef00a226ef005e
:1003bc00b626ef00ca26ef00de26ef000080eb0029
:1003cc00b033880000002b0050348800f0ff200070
:1003dc00f0348800f00f200090358800b00b20001e
:1003ec0030368800c03c2000d03688008826ef00cc
:1003fc009c26ef00b026ef00c426ef00d826ef00b5
:10040c00ec26ef008626ef009a26ef00ae26ef00d2
:10041c00c226ef00d626ef00ea26ef007c26ef007e
:10042c009026ef00a426ef00b826ef00cc26ef00b4
:10043c00e026ef00c0ff2f00f033880000002400fe
:10044c0090348800000c200030358800000120001a
:10045c00d0358800003c2000103788000080fa005e
:10046c0000000600000f78009e0078000140880014
:10047c00ffff37000000fa00208020008007780082
:10048c00a0812000000188000080fa000000060016
:10049c003600f8008020a9000000eb00f1ff0700f7
:1004ac003600f800f3ff07008040a9001000200080
:1004bc00ecff07003600f8008060a9002000200047
:1004cc00e8ff07003600f8008080a900300020000b
:1004dc00e4ff07003600f8008600a9007000200039
:1004ec00e0ff07000000fa00adff07000300070063
:1004fc00330007000080fa00000006000000fa003c
:10050c002200200060042000710520000310200050
:10051c0080497800814978008249780000022300e4
:10052c00100888000621ef006821ef006a21ef0017
:10053c006c21ef000821ef000070200050088800ab
:10054c000c21ef000e21ef000080fa0000000600e5
:020000040000fa
:10055c00f03fb1000180b10006003500ee03090048
:10056c0000000000403fb1000180b100fbff3d00e6
:10057c001000b000203fb0000200350000800900e0
:08058c00000000000000060061
:020000040000fa
:1005940002080000200000008000000000080000a5
:1005a4000200000082000000ffff000000000000c5
:020000040000fa
:1005b4000000fa00cdff070000902000d1032000c6
:1005c400e5ff0700fcff37000000fa000080fa0096
:0405d400000006001d
:020000040000fa
:020000040015e5
:047e0000ffff000080
:020000040000fa
:020000040015e5
:047e2000ffff000060
:020000040000fa
:020000040015e5
:047e3000f9ff000056
:020000040000fa
:020000040015e5
:047e3800bfff000088
:020000040000fa
:020000040015e5
:047e40009fff0000a0
:020000040000fa
:020000040015e5
:047e4800ffff000038
:020000040000fa
:020000040015e5
:047e5000dfff000050
:020000040000fa
:020000040015e5
:047e5800ffff000028
:00000001FF
